:03000000020C31BE
:0C0C3100787FE4F6D8FD758121020C7874
:100F6900646464206973206F6B0A00737973746514
:100F79006D2069736F6B0072756E696E67202564E9
:020F89000A005C
:1010A500E4F593F594F592759180F595F596F5B27D
:0C10B500F5B1F5B3F5B475CAFFF5C9221A
:081183007F187E55DEFEDFFC43
:01118B002241
:04106A007F0A7E007B
:10106E00AD07AC06D3ED9400EC64809480400A1278
:09107E001183ED1D70EE1C80EBE6
:011087002246
:1010F800E4F5CAF5C97BFF7A0F796912002663C83F
:0A110800FF7FE87E0312106E80EBFB
:04008E007F14DFFEFE
:01009200224B
:08118C007F577E2ADEFEDFFC26
:011194002238
:0F112900D2A4D2A512008EC2A412008EC2A5229B
:0C116200C2A4D2A512008ED2A402008EFE
:0E114700A20092A4D2A512008EC2A502008EB4
:0D115500D2A512008EA2A4C2A512008E2207
:0210C100AE0778
:1010C300E4FDEE25E0FE92A4D2A512008EC2A51285
:0A10D300008E0DEDB408EB0211557C
:100F8B00E4FED2A4FDEE25E0FED2A512008EA2A4B3
:100F9B00E4334EFEC2A512008E0DEDB408E7AF068A
:010FAB002223
:10000E00AC071211297F461210C1AF041210C102A3
:02001E0011626D
:100DFB001211297F471210C1E4FC120F8B747C2C4B
:100E0B00F582E43401F583EFF0ECB40304D20080F7
:100E1B0002C2001211470CECB403DF121162021173
:010E2B008C3A
:0511B1007F0102000EA9
:100B0F001210A5120FAC121112120FEE75BA8090BF
:100B1F00FE8074E0F090FE82E4F0D2AFD2B2D296B3
:100B2F007F0AFE12106E121088C2961210DD12117B
:100B3F006E12106A7BFF7A0F79741200261211B1B0
:100B4F0012106A7F0112000E7F1012000E7FB47E0A
:100B5F000012106E120DFB90017CE0FF90017AE401
:100B6F00F0A3EFF0E0FE90017DE07C002400FFECAD
:100B7F003EFE90017AF0A3EFF07BFF7A0F79809021
:100B8F00013EEEF0A3EFF012013112106A1211BB09
:020B9F0080B123
:03000B00020D588B
:100D5800C0E0C0F0C083C082C0D075D000C000C061
:100D680001C002C003C004C005C006C00712004687
:100D7800D007D006D005D004D003D002D001D000CF
:0B0D8800D0D0D082D083D0F0D0E03279
:03002300020CBD0F
:100CBD00C0E0C0F0C083C082C0D075D000C000C0FD
:0D0CCD0001C002C003C004C005C006C0077E
:100CDA0030980CC298AF9975C76012100D8002C285
:060CEA0099309902C29945
:100CF000D007D006D005D004D003D002D001D00058
:0B0D0000D0D0D082D083D0F0D0E03201
:03004300020D9318
:100D9300C0E0C083C082C0D075D000C007E59A30E0
:100DA300E00D539AFEAF9B900186E4F0A3EFF0E5CC
:100DB3009A30E105539AFDC209D007D0D0D082D032
:040DC30083D0E032C7
:03008B00020E2C36
:100E2C00C0E0C083C082C0D075D008E5AC30E00D06
:100E3C0053ACFEAFAD900188E4F0A3EFF0E5AC301D
:100E4C00E10553ACFDC20AD0D0D082D083D0E032C1
:03009300020DC794
:100DC700C0E0C083C082C0D075D000C007E58430C2
:100DD700E00D5384FEAF8590018AE4F0A3EFF0E5C0
:100DE7008430E1055384FDC20BD007D0D0D082D028
:040DF70083D0E03293
:0506EB0042018C00013A
:10111200438E805389F0758A9A758CA9C28DD2B993
:07112200D2A9D28CD2AF224A
:1010DD00759850438E40538EFE53890F758BE8756E
:0B10ED008DFFC2ABD28ED2ACD2AF227E
:100FAC0075AC1053ACBF759A50438E0475D78F75C2
:100FBC00D6FD438E1043AF0143AF08D2AF53BAFDF9
:010FCC002202
:100FEE0075841043844043D12075D38F75D2FD4351
:0F0FFE00D1805384DF53847F43AF10438410228C
:0A117900C2998F993099FDD2AF2280
:080003002009FDD2098F9B22A8
:08119500200AFDD20A8FAD22F1
:08119D00200BFDD20B8F85220F
:1000260090018CE07002A3E060121207D0FF600C12
:0D003600121179740129F9E43AFA80EE22E2
:0611A500AE0712117922D1
:1006F000420004000160C8006F000000000000001C
:1007000000000000000000000000000000000000E9
:1007100000000000000000000000000000000000D9
:1007200000000000000000000000000000000000C9
:1007300000000000000000000000000000000000B9
:1007400000000000000000000000000000000000A9
:100750000000000000000000000000000000000099
:100760000000000000000000000000000000000089
:100770000000000000000000000000000000000079
:100780000000000000000000000000000000000069
:100790000000000000000000000000000000000059
:1007A0000000000000000000000000000000000049
:1007B0000000000000000000000000000000000039
:0F07C000004200010000420139000041006E00BC
:0111BE00220E
:030020007F01223B
:0809D5007B017A0079067D0622
:0E09DD0090016CEBF0A3EAF0A3E9F0A3EDF0BB
:1009EB0074FFA3F0A3F0E4A3F090016FE0FF90017C
:1009FB0072E0C39F506390016CE0FBA3E475F001C0
:100A0B00120816A9F0FA1207D0FF900170E0F0A3BC
:100A1B00E06FF0E4FD900170E0FEA3E0FF30E02119
:100A2B00EEC313FEEF13FF900170EEF0A3EFF0EEA9
:100A3B0064A0FEEF6401FF900170EEF0A3EFF08075
:100A4B000B900170E0C313F0A3E013F00DEDB408AD
:100A5B00C4900172E004F08090900170E0FCA3E080
:070A6B00FDECFBEDFEEBFFCB
:010A72002261
:10009600E4900038F0900000F0900138F0900039BC
:1000A600F0900137F0FF7E3290003AE4F0A3DEFCD8
:0C00B600E4FF7E32900006E4F0A3DEFCC4
:0100C200221B
:10100D00900000E0243AF582E43400F583EFF0908F
:0F101D000000E004F090006CE4F0A37402F022F5
:10004600D390006DE0940090006CE0648094804052
:100056001AA3E024FFF090006CE034FFF0E0700299
:10006600A3E07007900139F0A304F0900139E07025
:1000760004A3E06401700D120000121138E490012F
:0500860039F0A3F02297
:0F1138009000397401F012092E120E89021088EE
:0111BF00220D
:10092E00900039E0640160030209D4900000E0D326
:10093E00940450030209CCE0FF2438F582E434001D
:10094E00F583E0FE74392FF582E43400F583E0FD83
:10095E00AF06EFFFED900163CFF0A3EFF07B017ACE
:10096E0000793A900000E024FEFD1209DD9001634B
:10097E00E06E7003A3E06F704390003AE0FF9000CA
:10098E0004E07003A3E06F703590003BE024FA6042
:10099E000F24FC60122407701C9000037403800C5B
:1009AE0090000374068005900003740AF0900137DE
:1009BE007401F0800C7F01020A7380028000121015
:0609CE0088E4900039F0FE
:0109D4002200
:100E8900900137E0B40122900003E024FA600D24B8
:100E9900FC600E2407700D12042B80081208848050
:0A0EA900031205A6E4900137F022C1
:10042B0090003CE0FEA3E0FDEDFF900164EEF0FCDC
:10043B00A3EFF090003EE0FEA3E0FBEBFF90016624
:10044B00EEF0A3EFF0C3ED9464EC940040030205CF
:10045B00A0900166E0FEA3E0FF900165E02FFD9008
:10046B000164E03EFCC3ED9464EC94004003020590
:10047B009CEF9400EE9400500302059C900167E002
:10048B0025E0FFAE07EE2405900163F0900004A376
:10049B00E0A3F0A37403F0A3EEF0900164E0FFA3DC
:1004AB00E0900168CFF0A3EFF07D037C0090016634
:1004BB00E0FEA3E0FF900165E02FFF900164E03EBA
:1004CB00FEC3900169E09F900168E09E5064A3E039
:1004DB0025E0FF900168E033FE746F2FF582740006
:1004EB003EF583E0FFAB0574062BF582E43400F593
:1004FB0083EFF0900169E025E0FF900168E033FEA7
:10050B00746F2FF58274003EF583E0A3E0FF740750
:10051B002BF582E43400F583EFF0900169E004F0F1
:10052B007006900168E004F074022DFDE43CFC02BF
:10053B0004B87B017A007906900167E025E0FFEFB4
:10054B002403FD1209DDAD07AC06ECFF900166A399
:10055B00E025E0FE2409F582E43400F583EFF0AFEB
:10056B0005740A2EF582E43400F583EFF090016FE9
:10057B007401F0A37400F0A37406F0900163E0FF24
:10058B00900172E4F0A3EFF07B017A007901020D88
:0A059B000B7F0380027F02120A7337
:0105A5002233
:1008840090003CE0FEA3E0FDAC06A3E0FEA3E0FB89
:10089400C3ED9464EC94004003020928900163744E
:1008A40008F0AA06ED25E0FFEC33FE746F2FF58205
:1008B40074003EF583EAF0A3EBF0900004A3E0A3F8
:1008C400F0A37406F0ECA3F0EDA3F025E0FBEC3309
:1008D400FA746F2BF58274003AF583E090000AF005
:1008E400746F2BF58274003AF583E0A3E090000B5B
:1008F400F01209D5AD07AC06EC90000CF0EFA3F0B4
:1009040090016F7401F0A37400F0A37406F09001D9
:1009140063E0FF900172E4F0A3EFF07B017A0079C9
:0909240001020D0B7F02120A739F
:01092D0022A7
:1005A60090003CE0FEA3E0FDEDFF900164EEF0FC60
:1005B600A3EFF090003EE0FEA3E0FBEBFF900166A8
:1005C600EEF0A3EFF0C3ED9464EC94004003020652
:1005D600E5900166E0FEA3E0FF900164E0FCA3E085
:1005E600FD2FFBEC3EFAC3EB9464EA940040030251
:1005F60006E1EF9400EE940050030206E1900168D4
:10060600ECF0A3EDF07D077C00900166E0FEA3E030
:10061600FF900165E02FFF900164E03EFEC390016C
:1006260069E09F900168E09E504D743A2DF5827402
:10063600003CF583E0FE743B2DF582E43400F5833F
:10064600E0FBEEFA900169E025E0FF900168E033F7
:10065600FE746F2FF58274003EF583EAF0A3EBF08B
:10066600900169E004F07006900168E004F07402FD
:100676002DFDE43CFC80929001637408F090000428
:10068600A3E0A3F0A3740AF0900164E0FCA3E0FDEC
:10069600EC900008F0EDA3F0900166E0FCA3E0FD0D
:1006A600EC90000AF0EDA3F01209D5AD07AC06EC0C
:1006B60090000CF0EFA3F090016F7401F0A37400AA
:1006C600F0A37406F0900163E0FF900172E4F0A3DA
:1006D600EFF07B017A007901020D0B7F0380027F28
:0406E60002120A737F
:0106EA0022ED
:100A7300EF24FE602214603E24026003020B0E90FA
:100A83000004A3E0A3F090003BE02480900007F073
:100A9300A37401F0FB8017900004A3E0A3F090007F
:100AA3003BE02480900007F0A37402F07B017A00FE
:100AB30079067D03801C900004A3E0A3F090003B23
:100AC300E02480900007F0A37403F07B017A00799F
:100AD30006FD1209DD90016AEEF0A3EFF090016AC2
:100AE300E0FCA3E0FDEC900009F0EDA3F090016FB2
:100AF3007401F0A37400F0A37406F0A3E4F0A374EC
:0B0B030005F07B017A007901120D0B58
:010B0E0022C4
:10108800E4FF7E3290003AE4F0A3DEFCE490000036
:0C109800F0FF7E32900006E4F0A3DEFCC6
:0110A4002229
:0511AB00EFC4540FFF2A
:0111B000221C
:0411B600EF540FFFE4
:0111BA002212
:100EB300EFC39400400CEFD39409500674302FFF16
:100EC3008014EFC3940A400CEFD3940F5006743789
:070ED3002FFF80027FFF22C8
:0B0D0B0090016CEBF0A3EAF0A3E9F00C
:100D1600E4900174F0A3F0900172E0FEA3E0FFA35B
:100D2600E0FCA3E0FDC39FEC9E502690016FE0FB24
:100D3600A3E0FAA3E0F98D828C831207E9FF121172
:100D460079900175E004F070CE900174E004F080B3
:010D5600C6D6
:010D57002279
:0B116E00C0BA43BA8043BA08D0BA22CE
:10102C00E4FFFED20C90FE817481F0300C10C3EF03
:0E103C009470EE941750070FBF00010E80ED68
:01104A002283
:100EDA00E4FDFC90FE86EFF0D20C90FE817482F065
:100EEA00300C10C3ED9470EC941750070DBD00013F
:030EFA000C80ED7C
:010EFD0022D2
:100BA10012102C7FC2120EDA120C127F60120EDAB2
:100BB100120C1290013BE0C4F854F0C8A3E0C454F5
:100BC1000F48FF120EDA120C1290013CE0540FC4D0
:100BD100F8540FC868FF120EDA120C1212104B12E1
:100BE100102C7FC0120EDA120C127F60120EDA1274
:100BF1000C12EAC4F854F0C8EBC4540F48FF120EAB
:100C0100DA120C12EB540FC4F8540FC868FF120E1D
:010C1100DA08
:100C1200E4FFFED20C90FE817483F0300C10C3EF1F
:0E0C22009470EE941750070FBF00010E80ED86
:010C300022A1
:100EFE00E4FFFED20C90FE817484F0300C10C3EF30
:100F0E009470EE941750070FBF00010E80ED90FE07
:030F1E0087E0FF6A
:010F210022AD
:100F4600E4FFFE90FE82F0D20C90FE817485F030B4
:100F56000C10C3EF9470EE941750070FBF00010EEC
:020F660080ED1C
:010F68002266
:100F2200E4FFFE90FE8204F0D20C90FE817485F004
:100F3200300C10C3EF9470EE941750070FBF0001EE
:030F42000E80ED31
:010F45002289
:10104B00E4FFFED20C90FE817486F0300C10C3EFDF
:0E105B009470EE941750070FBF00010E80ED49
:011069002264
:0300C300020FCD5C
:100FCD00C0E0C083C082C0BA43BA8090FE82E030D8
:100FDD00E606E054BFF0C20CD0BAD082D083D0E088
:010FED0032D1
:100E5C0090013B7407F0A374FFF0900075E0FFA3C2
:100E6C00E090013BCFF0A3EFF0900077E0FAA3E025
:0D0E7C00FB120BA112104B120BA102104B28
:0311BB00020E5CC5
:100C3D00020B0FE493A3F8E493A34003F68001F2B3
:100C4D0008DFF48029E493A3F85407240CC8C333B8
:100C5D00C4540F4420C8834004F456800146F6DF87
:100C6D00E4800B01020408102040809006EBE47E26
:100C7D00019360BCA3FF543F30E509541FFEE4937C
:100C8D00A360010ECF54C025E060A840B8E493A343
:100C9D00FAE493A3F8E493A3C8C582C8CAC583CA6E
:100CAD00F0A3C8C582C8CAC583CADFE9DEE780BE26
:0107CF000029
:1007D000BB010689828A83E0225002E722BBFE0227
:0907E000E32289828A83E493225A
:1007E900BB010CE58229F582E5833AF583E02250C5
:1007F90006E92582F8E622BBFE06E92582F8E2220F
:0D080900E58229F582E5833AF583E4932228
:10081600A3F8E0C5F025F0F0E58215827002158395
:06082600E0C838F0E822F2
:1000C600E510243EF582E43401F583E00510229024
:1000D600013B30070390013EE475F00112083E0231
:1000E60007D02000E97F2ED2008018EF540F24900D
:1000F600D43440D4FF30040BEF24BFB41A005003AD
:100106002461FFE511600215110514E5147002055E
:100116001330070E90013BE475F00112083EEF0222
:10012600082C0211A57403D2078003E4C207F51058
:1001360090013B120855E4F511F513F514E511602D
:10014600077F2012010980F57512FFC201C200C2A5
:1001560002C203C205C206C2081200D5FF700D30E6
:1001660007057F0012011AAF14AE1322B4255FC231
:10017600D5C2041200D5FF24D0B40A00501A75F077
:100186000A781130D50508B6FF0106C6A426F62062
:10019600D5047002D20380D924CFB41A00EF5004DC
:1001A600C2E5D20402031BD20180C6D20080C0D2AF
:1001B6000280BCD2D580BAD20580B47F2012010954
:1001C6002002077401B5110040F11200C6FF1201AA
:1001D60009020143D208D20680951200C6FB12001E
:1001E600C6FA1200C6F94A4B700679EC7A037BFF11
:1001F60020022EE511602A7E008E8275830012078A
:10020600E960060EEE651270F0C2D5EBC0E0EAC0FA
:10021600E0E9C0E0EE120362D0E0F9D0E0FAD0E007
:10022600FB1207D0FF60AAEBC0E0EAC0E0E9C0E03D
:10023600120109D0E02401F9D0E03400FAD0E0FB45
:10024600E5120460DCD512D980877BFF7A03795EDC
:10025600D202809C791080027908C206C208800802
:10026600D2D5790A8004790AC2D5E512047002F55E
:1002760012E4FAFDFEFF1200C6FC7B0820011312F1
:1002860000C6FD7B1030000A1200C6FE1200C6FF33
:100296007B20EC3382D592D55013C3E43000069F01
:1002A600FFE49EFEE42001039DFDE49CFCE4CBF804
:1002B600C201EC700CCFCECDCCE824F8F870F380F8
:1002C60017C3EF33FFEE33FEED33FDEC33FCEB33B8
:1002D600FB994002FB0FD8E9EB300105F8D0E0C4EA
:1002E60048B201C0E00AEC4D4E4F78207B0070C248
:1002F600EAB5120040BCC0E0120364D0F0D0E020A2
:100306000104C4C0E0C4B201C0F01200F2D0F0D5BE
:10031600F0EB02014312085E01E053025A5801B1A4
:100326004C01AD42025E4F02664402664901C64375
:08033600026C55025046025012
:10033E0045025047040C5001B52D01B92E01DC2B9E
:10034E0001BD2301DA2003F52A017548000001D40E
:10035E003F3F3F00790AA2D5200314300509B9109A
:10036E00020404B9080104A2D5200602500104209B
:10037E0002689202B511005034C0E07F203003199C
:10038E007F30A20272067205500F1203BBC202C268
:10039E0006C205C2087F30800F300503E9C0E012A7
:1003AE000109300503D0E0F9D0E0B511CC300517C6
:1003BE007F30B9100C1201097F583004077F788006
:1003CE0003B908031201093002057F2D0201097FCE
:1003DE00202008F87F2B2006F322920280CF286E71
:1003EE00756C6C2900D2011200C63001F8C201787A
:1003FE001130D50108F60201752D504349581200EF
:10040E00C62403B405004001E4900407931200FAD9
:0D041E00743A1200FAD20375110402025A5A
:10082C00BB010689828A83F0225002F722BBFE01AB
:02083C00F322A5
:10083E00F8E0FBA3A3E0F925F0F0E5821582700243
:07084E001583E0FA38F022E7
:09085500EBF0A3EAF0A3E9F022A4
:10085E00D083D082F8E4937012740193700DA3A329
:10086E0093F8740193F5828883E47374029368603D
:06087E00EFA3A3A380DF3D
:00000001FF
