:030000000215BC2A
:0C15BC00787FE4F6D8FD7581220216034A
:100AB900696E707574202573003B002D006765749D
:100AC9002073657425642D2564007365743A006587
:100AD9006E64007365743A25642D25643B656E6404
:100AE9000040535443495350230068617320696E91
:100AF90069740A006E6F7420696E69740A00486F20
:100B09006C64696E675265675B25645D2D5B25645E
:100B19005D0A006765747A6869616E646368616E0D
:100B29006765207765697A68695B25645D207A68FD
:100B3900695B25645D0A0073797374656D20696E5C
:100B49006974206F6B0A0073797374656D20696E1F
:100B59006974206F6B310000000000000000000084
:100B6900000000000000000000000000000000007C
:100B7900000000000000000000000000000000006C
:100B8900000000000000000000000000000000005C
:100B9900000000000000000000000000000000004C
:100BA900000000000000000000000000000000003C
:100BB900000000000000000000000000000000002C
:100BC900000000000000000000000000000000001C
:0F0BD9000000000000000000000000000000000D
:1017CB00410112005400FC0000000000000000006A
:1017DB0000000000000000000000004201130000A8
:101E2B007E007F3C7D007B017A01791912069AE4D2
:071E3B00900110F0A3F0225A
:1018F400900110E475F00112058FFC741925F0F5C0
:101904008274013CF583EFF0D3900111E094399097
:101914000110E0648094804004E4F0A3F09000F2AD
:07192400E4F0A37403F022BC
:1019FE00D39000F3E094009000F2E0648094804075
:101A0E001BA3E024FFF09000F2E034FFF0E0700240
:0D1A1E00A3E0700890011204F0121C812258
:101218009000CFEBF0A3EAF0A3E9F0A3E0FBA3E092
:10122800FAA3E0F91205217002806B9000CFE0FB71
:0B123800A3E0FAA3E0F91205216073A7
:101243009000D5EBF0A3EAF0A3E9F09000D2E0F927
:10125300A3E0FAA3E09000D8C9F0A3EAF0A3E9F071
:101263009000D8E0FBA3E0FAA3E0F9120521FF60A8
:10127300279000D5E0FBA3E0FAA3E0F9120521B51E
:1012830007169000D6E475F0011205799000D9E4B1
:1012930075F00112057980C8EF700C9000CFE0FB68
:1012A300A3E0FAA3E0F9229000D0E475F00112055F
:0112B30079C1
:0912B40041337B007A007900222D
:0B1ADB009000CFEBF0A3EAF0A3E9F0CD
:101AE600E4FFFE9000CFE0FBA3E0FAA3E0F98F82CB
:0E1AF6008E8312053A60070FBF00010E80E5D7
:011B040022BE
:100046009000C974FFF0A3740AF074C2A3F0900084
:09005600BAE0FBA3E0FAA3E0F913
:10005F00C002C0019000C9E0F9A3E0FAA3E090004C
:10006F00D2C9F0A3EAF0A3E9F0D001D0021212181E
:10007F009000CCEBF0A3EAF0A3E9F09000CCE0FB0A
:10008F00A3E0FAA3E04A4B60179000C9E0FBA3E09E
:10009F00FAA3E0F9121ADB9000CDEE8FF01205797A
:0B00AF009000CCE0FBA3E0FAA3E0F916
:0100BA002223
:0B0BE8009000B7EBF0A3EAF0A3E9F0E7
:100BF300A3EBF0A3EAF0A3E9F09000B7E0F9A3E0D8
:100C0300FAA3E09000C9C9F0A3EAF0A3E9F07BFFDF
:100C13007A0A79B9120131E49000C0F0A3F012000E
:100C2300469000BDEBF0A3EAF0A3E9F09000BDE02D
:100C3300FBA3E0FAA3E04A4B700281D89000BAE02C
:100C4300FBA3E0FAA3E0F912071E9000C2EEF0A3A3
:100C5300EFF09000C974FFF0A3740AF074C412009B
:100C6300529000BAEBF0A3EAF0A3E9F012071E904A
:100C730000C4EEF0A3EFF07BFF7A0A79C69000C2BE
:100C8300E0FDA3E09000C9CDF0A3EDF0A3EEF0A347
:100C9300EFF01201319000C2E0FEA3E0FFA3E0FCFD
:100CA300A3E0FD120CD91200469000BAEBF0A3EAC0
:100CB300F0A3E9F09000C1E004F070069000C0E0FA
:100CC30004F0C39000C1E094649000C0E064809499
:050CD3008050028121A8
:010CD80022F9
:0B149B0090004AEBF0A3EAF0A3E9F098
:1014A600784D7C007D017BFF7A0B79607E007F643E
:1014B6001204FB9000C974FFF0A3740AF0A374D35E
:1014C600F090004A1200579000B1EBF0A3EAF0A3A7
:1014D600E9F09000C974FFF0A3740AF0A374D8F081
:1014E60012005F9000B4EBF0A3EAF0A3E9F09000DD
:1014F600B1E0FBA3E0FAA3E04A4B6029A3E0FBA31B
:10150600E0FAA3E04A4B601D784D7C007D01900017
:10151600B1E0FBA3E0FAA3E0F912067D7B017A00B5
:05152600794D120BE8F5
:01152B00229D
:101172009001DCEBF0A3EAF0A3E9F0A3E0FBA3E02B
:10118200FAA3E0F91205217002806C9001DCE0FB09
:0B119200A3E0FAA3E0F912052160744D
:10119D009001E2EBF0A3EAF0A3E9F09001DFE0F9B2
:1011AD00A3E0FAA3E09001E5C9F0A3EAF0A3E9F00A
:1011BD009001E5E0FBA3E0FAA3E0F9120521FF9011
:1011CD0001E2E0FBA3E0FAA3E0F9120521B507194E
:1011DD00EF60169001E3E475F0011205799001E6D8
:1011ED00E475F00112057980C7EF700C9001DCE019
:1011FD00FBA3E0FAA3E0F9229001DDE475F0011202
:02120D00057961
:09120F00218D7B007A0079002298
:101C81001219967B017A01791912149B7E007F3C0F
:101C91007D007B017A01791912069AE4900110F016
:031CA100A3F0228B
:101DBF00E4F593F594F592759180F595F596F5B256
:0C1DCF00F5B1F5B3F5B475CAFFF5C922F3
:10164800E4900012F0A3F0FFFE121E12900012E0C8
:10165800FEA3E0FF7D377C00121AB0E4900010F082
:10166800A3F0900010E0FCA3E0FDC3940AEC6480B2
:101678009480503F900013E004F07006900012E050
:1016880004F0ED25E0FFEC33FE74882FF582740139
:101698003EF583E0FCA3E0FD900012E0FEA3E0FF2E
:1016A800121AB0900011E004F070B7900010E00436
:0316B800F080AF10
:0116BB00220C
:10196200E4FDFCED25E0FFEC33FE74882FF5827474
:10197200013EF583E0FAA3E0FB74FC2FF5827400CC
:101982003EF583EAF0A3EBF00DBD00010CED640A15
:031992004C70D0C6
:01199500222F
:1018B200E4FDFCED25E0FFEC33FE74882FF5827425
:1018C200013EF583E0FAA3E0FB74FC2FF58274007D
:1018D2003EF583E0FEA3E06B7002EE6A60057E00D7
:1018E2007F01220DBD00010CED640A4C70C5E4FEBF
:0118F200FFF6
:0118F30022D2
:0E16BC00900000EEF0A3EFF0A3ECF0A3EDF031
:1016CA0078047C007D017BFF7A0B79C47E007F1E43
:1016DA001204FB9000C974FFF0A3740AF0A374DC2F
:1016EA00F0900000E0FFA3E09000CCCFF0A3EFF071
:1016FA00900002E0FFA3E09000CECFF0A3EFF07BD2
:10170A00017A00790412012B7B017A007904020123
:01171A00319D
:101BCC00D3900114E0942C900113E0648094814034
:101BDC0013E4F0A3F0900190E0FCA3E0FD7F047E01
:051BEC00001216BC22EE
:1019960090005074FFF0A3740AF0A374EAF07B0180
:1019A6007A017919120E9690004AEBF0A3EAF0A399
:1019B600E9F090004AE0FBA3E0FAA3E04A4B60039B
:0319C60075C76082
:0119C90022FB
:0D1EAE00E4F5C7F5C5F5C675C380F5C4227F
:101DDB0075C78075F52875C5018FC4EEFF8FC37568
:0B1DEB00C65A75C6A500AFC2121EAE9E
:011DF60022CA
:1000260075C78075F52875C5028FC4EEFF8FC3AFFF
:0D003600058FC275C65A75C6A500021EAE24
:101E120075C78075F52875C5038FC4EEFF8FC3752E
:091E2200C65A75C6A500021EAEE9
:101AB000900014ECF0A3EDF0AB07AA06EB25E0FBD9
:101AC000EA33FAAF03FE900014E0FD120026EB2487
:0B1AD00001FFE43EFEA3E0FD02002643
:041A5800AD07AC0624
:101A5C00ED25E0FDEC33FCAF05FE121DDBAB077A88
:101A6C0000ED2401FFE43EFE121DDBAD077C00EB14
:071A7C00FEE42DFFEC3EFE2D
:011A83002240
:100DBF00E490000EF0A3F0FFFE121A5890000CEE14
:100DCF00F0A3EFF064374E7BFF70097A0A79F312C4
:100DDF00013180147A0A79FD120131900190740269
:100DEF00F0A37458F0121648E490000AF0A3F090A4
:100DFF00000FE004F0700690000EE004F090000E7B
:100E0F00E0FEA3E0FF121A58AC06AD0790000BE00E
:100E1F0025E0FF90000AE033FE74882FF5827401FD
:100E2F003EF583ECF0A3EDF074882FF58274013E4C
:100E3F00F583E0FFA3E090000CCFF0A3EFF07BFF72
:100E4F007A0B790790000AE0FFA3E09000C9CFF07A
:100E5F00A3EFF090000CE0FFA3E09000CBCFF0A346
:100E6F00EFF012013190000BE004F0700690000AD1
:100E7F00E004F0C390000BE0940A90000AE0648055
:060E8F0094805002A1FE58
:010E9500223A
:101B8000E4FDFCED25E0FFEC33FE74882FF5827454
:101B9000013EF583E4F0A3F00DBD00010CED640AF5
:061BA0004C70E0020DBFD5
:1010BE0078047C007D017BFF7A0B79E27E007F064F
:1010CE001204FB7B017A007904121000900004E0F8
:1010DE00FEA3E0FF4E70022171900000EEF0A3EF30
:1010EE00F0900006E0FCA3E0FD900002ECF0A3ED12
:1010FE00F07BFF7A0B791C9000C9EEF0A3EFF0A302
:10110E00ECF0A3EDF0120131900000E0FEA3E0FF41
:10111E00C3940AEE64809480501CA3E0FCA3E0FD0F
:10112E00EF25E0FFEE33FE74882FF58274013EF555
:10113E0083ECF0A3EDF0900000E0FEA3E0FF64046A
:10114E004E6006EF64024E7003121EBB1218B2EF11
:10115E004E6010E49000F8F0A3F0121962121648D7
:03116E00120DBFA0
:01117100225B
:10171B00121DBF121DF7121CC7121E42121D097596
:10172B00BA8090FE8074E0F090FE82E4F0D2AFD2EB
:10173B00B2121DA2121EBB7F647E00121BA67BFF82
:10174B007A0B7940120131121B801219627BFF7ADE
:10175B000B795012013190018CE4F0A304F0121EAE
:09176B002B121BCC1210BE80F8F9
:101BA600AD07AC06E49000F8F0A3F0ED25E0FFECFD
:101BB60033FED39000F9E09FEE6480F89000F8E0E1
:061BC60064809840E62255
:03000B0002177465
:10177400C0E0C0F0C083C082C0D075D000C000C03B
:1017840001C002C003C004C005C006C0071219FE90
:101794009000F9E004F070069000F8E004F0900185
:1017A40014E004F07006900113E004F0D007D006B2
:1017B400D005D004D003D002D001D000D0D0D08244
:0717C400D083D0F0D0E03229
:0300230002192B94
:10192B00C0E0C0F0C083C082C0D075D000C000C082
:03193B0004C007DE
:10193E00309809C298AF991218F48002C299309962
:03194E0002C29939
:10195100D007D004D000D0D0D082D083D0F0D0E056
:011961003253
:030043000219CAD5
:1019CA00C0E0C083C082C0D075D000C007E59A309D
:1019DA00E00D539AFEAF9B900117E4F0A3EFF0E5F8
:1019EA009A30E105539AFDC212D007D0D0D082D0E6
:0419FA0083D0E03284
:0517EB0042020D0001A7
:101E4200438E805389F0758A9A758CA9C28DD2B956
:071E5200D2A9D28CD2AF220D
:101DF700759850438E40538EFE53890F758BE87547
:0B1E07008DFFC2ABD28ED2ACD2AF2256
:101CC70075AC1053ACBF759A50438E0475D78F759A
:101CD700D6FD438E1043AF0143AF08D2AF53BAFDD1
:011CE70022DA
:101D090075841043844043D12075D38F75D2FD4328
:0F1D1900D1805384DF53847F43AF104384102263
:0A1EC700C2998F993099FDD2AF2225
:080003002012FDD2128F9B2296
:0800BB002013FDD2138FAD22CA
:081ED1002014FDD2148F8522BC
:101D850090020DE07002A3E06012120521FF600CC5
:0D1D9500121EC7740129F9E43AFA80EE220B
:0607F900AE07121EC7222C
:1017F000420159000154018800000000000000006F
:10180000000000000000000000000000420156003F
:0A1810000042019E00004101870024
:0100220022BB
:031EE4007F012259
:081362007B017A01795B7D0635
:0E136A009001F2EBF0A3EAF0A3E9F0A3EDF09E
:1013780074FFA3F0A3F0E4A3F09001F5E0FF90015F
:10138800F8E0C39F50639001F2E0FBA3E475F0011D
:1013980012058FA9F0FA120521FF9001F6E0F0A3DB
:1013A800E06FF0E4FD9001F6E0FEA3E0FF30E021FD
:1013B800EEC313FEEF13FF9001F6EEF0A3EFF0EE8D
:1013C80064A0FEEF6401FF9001F6EEF0A3EFF08059
:1013D8000B9001F6E0C313F0A3E013F00DEDB40891
:1013E800C49001F8E004F080909001F6E0FCA3E0DE
:0713F800FDECFBEDFEEBFF35
:0113FF0022CB
:101A2B00E4900179F0900155F090019DF090017ACE
:101A3B00F090019CF0FF7E0A90017BE4F0A3DEFCAA
:0C1A4B00E4FF7E1E90015BE4F0A3DEFCD3
:011A5700226C
:101D2800900155E0247BF582E43401F583EFF090CF
:0F1D38000155E004F0900185E4F0A37402F0225D
:0B186800900207EBF0A3EAF0A3E9F008
:10187300E4FFFE90020AE0FBA3E0FAA3E0F98F8203
:101883008E8312053AFD900207E0FBA3E0FAA3E082
:10189300F98F828E8312053A6D6004E4FEFF220FF6
:0E18A300BF00010EEF64064E70C97E007F018B
:0118B1002214
:101A8400D3900186E09400900185E06480948040C6
:101A94001AA3E024FFF0900185E034FFF0E0700227
:0C1AA400A3E0700790019EF0A304F02264
:0F1E810090017A7401F01212BD121B05021DA20E
:0107FF0022D7
:1012BD0090017AE0640160026161900155E0D39480
:1012CD000450026159E0FF2479F582E43401F5837D
:1012DD00E0FE747A2FF582E43401F583E0FDAF066C
:1012ED00EFFFED90020FCFF0A3EFF07B017A0179C4
:1012FD007B900155E024FEFD12136A90020FE06E03
:10130D007003A3E06F704390017BE0FF900159E003
:10131D007003A3E06F703590017CE024FA600F2418
:10132D00FC60122407701C9001587403800C90010E
:10133D005874068005900158740AF090019C740150
:10134D00F0800C7F0102140080028000121DA2E4C7
:04135D0090017AF091
:011361002269
:101B050090019CE0B40122900158E024FA600D2474
:101B1500FC600E2407700D1208008008120F558016
:0A1B250003120977E490019CF022FE
:1008000090017DE0FEA3E0FDEDFF9001FAEEF0FC2B
:10081000A3EFF090017FE0FEA3E0FBEBFF9001FC73
:10082000EEF0A3EFF0C3ED940AEC940040022171C6
:100830009001FCE0FEA3E0FF9001FBE02FFD9001A2
:10084000FAE03EFCC3ED940AEC94004002216DEF07
:100850009400EE94005002216D9001FDE025E0FF30
:10086000AE07EE24059001F9F0900159A3E0A3F042
:10087000A37403F0A3EEF09001FAE0FFA3E090016F
:10088000FECFF0A3EFF07D037C009001FCE0FEA31F
:10089000E0FF9001FBE02FFF9001FAE03EFEC390E5
:1008A00001FFE09F9001FEE09E5063A3E025E0FF82
:1008B0009001FEE033FE74882FF58274013EF583CB
:1008C000E0FFAB05745B2BF582E43401F583EFF0B8
:1008D0009001FFE025E0FF9001FEE033FE74882FD9
:1008E000F58274013EF583E0A3E0FF745C2BF58292
:1008F000E43401F583EFF09001FFE004F07006901E
:1009000001FEE004F074022DFDE43CFC018A7B0151
:100910007A01795B9001FDE025E0FFEF2403FD12F1
:10092000136AAD07AC06ECFF9001FCA3E025E0FEE6
:10093000245EF582E43401F583EFF0AF05745F2E99
:10094000F582E43401F583EFF09001EB7401F0A33C
:100950007401F0A3745BF09001F9E0FF9001EEE404
:10096000F0A3EFF07B017A01795602181B7F038018
:06097000027F02121400D8
:01097600225E
:100F550090017DE0FEA3E0FDAC06A3E0FEA3E0FB6F
:100F6500C3ED940AEC94004002E1FA900213740870
:100F7500F0AA06ED25E0FFEC33FE74882FF58274A8
:100F8500013EF583EAF0A3EBF0900159A3E0A3F04D
:100F9500A37406F0ECA3F0EDA3F025E0FBEC33FA27
:100FA50074882BF58274013AF583E0FF90015FEFB9
:100FB500F074882BF58274013AF583E0A3E0900183
:100FC50060F0121362AD07AC06EC900161F0EFA37F
:100FD500F09001EB7401F0A37401F0A3745BF09041
:100FE5000213E0FF9001EEE4F0A3EFF07B017A013C
:0A0FF500795602181B7F0212140047
:010FFF0022CF
:1009770090017DE0FEA3E0FDEDFF900201EEF0FCAB
:10098700A3EFF090017FE0FEA3E0FBEBFF900203F3
:10099700EEF0A3EFF0C3ED940AEC9400400241B3EC
:1009A700900203E0FEA3E0FF900201E0FCA3E0FD5C
:1009B7002FFBEC3EFAC3EB940AEA9400400241AFE6
:1009C700EF9400EE9400500241AF900205ECF0A3C3
:1009D700EDF07D077C00900203E0FEA3E0FF9002AC
:1009E70002E02FFF900201E03EFEC3900206E09F67
:1009F700900205E09E504D747B2DF58274013CF505
:100A070083E0FE747C2DF582E43401F583E0FBEE90
:100A1700FA900206E025E0FF900205E033FE7488B5
:100A27002FF58274013EF583EAF0A3EBF0900206FE
:100A3700E004F07006900205E004F074022DFDE476
:100A47003CFC80929002007408F0900159A3E0A347
:100A5700F0A3740AF0900201E0FCA3E0FDEC900122
:100A67005DF0EDA3F0900203E0FCA3E0FDEC900144
:100A77005FF0EDA3F0121362AD07AC06EC900161D5
:100A8700F0EFA3F09001EB7401F0A37401F0A374ED
:100A97005BF0900200E0FF9001EEE4F0A3EFF07B43
:100AA700017A01795602181B7F0380027F02121414
:010AB700003E
:010AB800221B
:10140000EF24FE602114603D24026002819A900165
:1014100059A3E0A3F090017CE0248090015CF0A34C
:101420007401F0FB8017900159A3E0A3F090017CB8
:10143000E0248090015CF0A37402F07B017A0179D2
:101440005B7D03801C900159A3E0A3F090017CE038
:10145000248090015CF0A37403F07B017A01795B36
:10146000FD12136A900211EEF0A3EFF0900211E06A
:10147000FCA3E0FDEC90015EF0EDA3F09001EB74B5
:1014800001F0A37401F0A3745BF0A3E4F0A374056E
:0A149000F07B017A01795612181B57
:01149A00222F
:101DA200E4FF7E0A90017BE4F0A3DEFCE49001559F
:0C1DB200F0FF7E1E90015BE4F0A3DEFC5D
:011DBE002202
:051ED900EFC4540FFFEF
:011EDE0022E1
:041EDF00EF540FFFAE
:011EE30022DC
:101B5900EFC39400400CEFD39409500674302FFF63
:101B69008014EFC3940A400CEFD3940F50067437D6
:071B79002FFF80027FFF2215
:0B181B009001E8EBF0A3EAF0A3E9F075
:10182600E49001F0F0A3F09001EEE0FEA3E0FFA348
:10183600E0FCA3E0FDC39FEC9E50269001EBE0FB8D
:10184600A3E0FAA3E0F98D828C8312053AFF121EFB
:10185600C79001F1E004F070CE9001F0E004F08052
:01186600C6BB
:01186700225E
:101D4700E4FFFED21590FE817481F0301510C3EFC9
:0E1D57009470EE941750070FBF00010E80ED40
:011D6500225B
:101BF100E4FDFC90FE86EFF0D21590FE817482F038
:101C0100301510C3ED9470EC941750070DBD000111
:031C11000C80ED57
:011C140022AD
:10152C00121D477FC2121BF112159D7F60121BF119
:10153C0012159D90000AE0C4F854F0C8A3E0C454FE
:10154C000F48FF121BF112159D90000BE0540FC4B5
:10155C00F8540FC868FF121BF112159D121D66126C
:10156C001D477FC0121BF112159D7F60121BF112DB
:10157C00159DEAC4F854F0C8EBC4540F48FF121B75
:10158C00F112159DEB540FC4F8540FC868FF121BD1
:01159C00F15D
:10159D00E4FFFED21590FE817483F0301510C3EF79
:0E15AD009470EE941750070FBF00010E80EDF2
:0115BB00220D
:101C1500E4FFFED21590FE817484F0301510C3EFF9
:101C25009470EE941750070FBF00010E80ED90FEE3
:031C350087E0FF46
:011C38002289
:101CA400E4FFFE90FE82F0D21590FE817485F03040
:101CB4001510C3EF9470EE941750070FBF00010E78
:021CC40080EDB1
:011CC60022FB
:101C3900E4FFFE90FE8204F0D21590FE817485F0D7
:101C4900301510C3EF9470EE941750070FBF0001C1
:031C59000E80ED0D
:011C5C002265
:101D6600E4FFFED21590FE817486F0301510C3EFA5
:0E1D76009470EE941750070FBF00010E80ED21
:011D8400223C
:0300C300021CE834
:101CE800C0E0C083C082C0BA43BA8090FE82E030B0
:101CF800E606E054BFF0C215D0BAD082D083D0E057
:011D080032A8
:101E590090018CE07002A3E07003D29622EF4E70DD
:071E690003D29622C296226B
:101C5D0090000A7407F0A374FFF0900190E0FAA3CE
:101C6D00E0FBFFAE02121E5912152C121D66121545
:041C7D002C021D66B2
:0C1EBB00C2B7D2B6121C5DD2B7C2B6226C
:101B2F00E4FFFE9001A475F006EF1205A5EE75F027
:101B3F0006A42583F583E0FCA3E04C7001220FBFC0
:091B4F0000010EEF640A4E70DA89
:011B5800226A
:0F1E9000121B2FEF4E7004FE7F0122E4FEFF2293
:101E7000121B2FEF640A4E7004FE7F0122E4FEFF66
:011E8000223F
:0E0CD9009000C6EEF0A3EFF0A3ECF0A3EDF058
:100CE700121B2F9000CAEEF0A3EFF0E4FFFED390A3
:100CF70000CBE09FEE6480F89000CAE064809840E3
:100D07004E9001A075F006EF1205A5EE75F006A44A
:100D17002583F583E0FCA3E0FD9000C6E0FAA3E09D
:100D2700FBEDB50323ECB5021FA3E0FCA3E0FD90A8
:100D370001A275F006EF1205A5EE75F006A425834E
:100D4700F583ECF0A3EDF0220FBF00010E809F1298
:100D57001B2FEF640A4E605F9000C6E0FEA3E0FF22
:100D67009000CAE0FCA3E0FD9001A075F006120513
:100D7700A5EC75F006A42583F583EEF0A3EFF090BC
:100D870000C8E0FEA3E0FF9001A275F006ED120592
:100D9700A5EC75F006A42583F583EEF0A3EFF0909C
:100DA70001A475F006ED1205A5EC75F006A42583E0
:070DB700F583E4F0A304F052
:010DBE002212
:0B10000090000AEBF0A3EAF0A3E9F077
:10100B00121B2F90000FEEF0A3EFF0121B2FEF4EE1
:10101B007003FEFF2290000AE0FBA3E0FAA3E0F8C6
:10102B00AC02AD037B017A0179A07E007F0612042E
:10103B00FBE490000DF0A3F0900010E024FFFD9076
:10104B00000FE034FFFC90000DE0FEA3E0FFC39D1A
:10105B00EC6480F8EE64809850387C007D061205B5
:10106B006774A62FF974013EFA7B01C00174A02F9F
:10107B00F974013EA801FC7D01D0017E007F0612B0
:10108B0004FB90000EE004F070AE90000DE004F055
:10109B0080A690000FE0FEA3E090019E75F0061273
:1010AB0005A5EE75F006A42583F583E4F0A3F0FE09
:0210BB007F01B3
:0110BD002210
:1015C80002171BE493A3F8E493A34003F68001F207
:1015D80008DFF48029E493A3F85407240CC8C33324
:1015E800C4540F4420C8834004F456800146F6DFF3
:1015F800E4800B01020408102040809017CBE47EA1
:10160800019360BCA3FF543F30E509541FFEE493E7
:10161800A360010ECF54C025E060A840B8E493A3AE
:10162800FAE493A3F8E493A3C8C582C8CAC583CAD9
:10163800F0A3C8C582C8CAC583CADFE9DEE780BE91
:01181A0000CD
:10042B00E709F608DFFA8046E709F208DFFA803EB3
:10043B0088828C83E709F0A3DFFA8032E309F608A0
:10044B00DFFA8078E309F208DFFA807088828C8308
:10045B00E309F0A3DFFA806489828A83E0A3F608BC
:10046B00DFFA805889828A83E0A3F208DFFA804C96
:10047B0080D280FA80C680D4806980F2803380106D
:10048B0080A680EA809A80A880DA80E280CA8033D6
:10049B0089828A83ECFAE493A3C8C582C8CCC5834E
:1004AB00CCF0A3C8C582C8CCC583CCDFE9DEE7801E
:1004BB000D89828A83E493A3F608DFF9ECFAA9F09D
:1004CB00EDFB2289828A83ECFAE0A3C8C582C8CCF3
:1004DB00C583CCF0A3C8C582C8CCC583CCDFEADE0C
:1004EB00E880DB89828A83E493A3F208DFF980CC6E
:1004FB0088F0EF60010E4E60C388F0ED2402B40467
:10050B000050B9F582EB2402B4040050AF2323450D
:06051B00822390047B73B3
:10052100BB010689828A83E0225002E722BBFE02D8
:09053100E32289828A83E493220B
:10053A00BB010CE58229F582E5833AF583E0225076
:10054A0006E92582F8E622BBFE06E92582F8E222C0
:0D055A00E58229F582E5833AF583E49322DA
:10056700EF8DF0A4A8F0CF8CF0A428CE8DF0A42EA8
:02057700FE2262
:10057900C5F0F8A3E028F0C5F0F8E582158270020D
:060589001583E038F022AA
:10058F00A3F8E0C5F025F0F0E5821582700215831F
:06059F00E0C838F0E8227C
:0C05A500A42582F582E5F03583F5832261
:1000C600E50D24C9F582E43400F583E0050D2290A0
:1000D60000C63010039000C9E475F0011206D8027C
:1000E60005212009E97F2ED2098018EF540F2490AC
:1000F600D43440D4FF300D0BEF24BFB41A005003A4
:100106002461FFE50E6002150E0511E5117002056A
:100116001030100E9000C6E475F0011206D8EF02FA
:1001260006C60207F97403D2108003E4C210F50D67
:100136009000C61206EFE4F50EF510F511E50E6017
:10014600077F2012010980F5750FFFC20AC209C296
:100156000BC20CC20EC20FC2111200D5FF700D30B9
:1001660010057F0012011AAF11AE1022B4255FC22E
:10017600D5C20D1200D5FF24D0B40A00501A75F06E
:100186000A780E30D50508B6FF0106C6A426F62065
:10019600D5047002D20C80D924CFB41A00EF5004D3
:1001A600C2E5D20D02031BD20A80C6D20980C0D294
:1001B6000B80BCD2D580BAD20E80B47F2012010942
:1001C600200B077401B50E0040F11200C6FF1201A4
:1001D60009020143D211D20F80951200C6FB12000C
:1001E600C6FA1200C6F94A4B700679EC7A037BFF11
:1001F600200B2EE50E602A7E008E82758300120586
:100206003A60060EEE650F70F0C2D5EBC0E0EAC0AC
:10021600E0E9C0E0EE120362D0E0F9D0E0FAD0E007
:10022600FB120521FF60AAEBC0E0EAC0E0E9C0E0EE
:10023600120109D0E02401F9D0E03400FAD0E0FB45
:10024600E50F0460DCD50FD980877BFF7A03795EE2
:10025600D20B809C791080027908C20FC2118008E7
:10026600D2D5790A8004790AC2D5E50F047002F561
:100276000FE4FAFDFEFF1200C6FC7B08200A1312EB
:1002860000C6FD7B1030090A1200C6FE1200C6FF2A
:100296007B20EC3382D592D55013C3E43009069FF8
:1002A600FFE49EFEE4200A039DFDE49CFCE4CBF8FB
:1002B600C20AEC700CCFCECDCCE824F8F870F380EF
:1002C60017C3EF33FFEE33FEED33FDEC33FCEB33B8
:1002D600FB994002FB0FD8E9EB300A05F8D0E0C4E1
:1002E60048B20AC0E00AEC4D4E4F78207B0070C23F
:1002F600EAB50F0040BCC0E0120364D0F0D0E020A5
:100306000A04C4C0E0C4B20AC0F01200F2D0F0D5AC
:10031600F0EB0201431206F801E053025A5801B10C
:100326004C01AD42025E4F02664402664901C64375
:08033600026C55025046025012
:10033E0045025047040C5001B52D01B92E01DC2B9E
:10034E0001BD2301DA2003F52A017548000001D40E
:10035E003F3F3F00790AA2D5200C14300E09B91088
:10036E00020404B9080104A2D5200F025001042092
:10037E000B68920BB50E005034C0E07F20300C1984
:10038E007F30A20B720F720E500F1203BBC20BC244
:10039E000FC20EC2117F30800F300E03E9C0E01283
:1003AE000109300E03D0E0F9D0E0B50ECC300E17B7
:1003BE007F30B9100C1201097F58300D077F7880FD
:1003CE0003B90803120109300B057F2D0201097FC5
:1003DE00202011F87F2B200FF322920B80CF286E56
:1003EE00756C6C2900D20A1200C6300AF8C20A785F
:1003FE000E30D50108F60201752D504349581200F2
:10040E00C62403B405004001E4900407931200FAD9
:0D041E00743A1200FAD20C750E0402025A54
:1005B100E709F60870FA8046E709F20870FA803E0A
:1005C10088828C83E709F0A370FA807EE309F6083C
:1005D10070FA8076E309F20870FA806E88828C8363
:1005E100E309F0A370FA806289828A83E0A3F608A6
:1005F10070FA805689828A83E0A3F20870FA804AF1
:1006010080D280FA80C680D4806580F280318010EB
:1006110080A680EA809A80A880DA80E280CA803150
:1006210089828A83ECFAE493A3C8C582C8CCC583C6
:10063100CCF0A3C8C582C8CCC583CC70E9800D8934
:10064100828A83E493A3F60870F9ECFAA9F0EDFB32
:100651002289828A83ECFAE0A3C8C582C8CCC5830B
:10066100CCF0A3C8C582C8CCC583CC70EA80DD8933
:10067100828A83E493A3F20870F980CE88F0ED2496
:1006810002B4040050C4F582EB2402B4040050BA51
:0906910023234582239006017326
:100E960090004DEBF0A3EAF0A3E9F0A3E0FBA3E09A
:100EA600FAA3E0F91205217003020F4290004DE00B
:100EB600FBA3E0FAA3E0F91205217003020F4E909E
:100EC6000050E0F9A3E0FAA3E0A3C9F0A3EAF0A377
:100ED600E9F090004DA3E0FAA3E0F9900056EBF09C
:100EE600A3EAF0A3E9F0900053E0FBA3E0FAA3E045
:100EF600F9120521FF6026900056E0FBA3E0FAA355
:100F0600E0F91205216F701590005475F001120575
:100F160079900057E475F00112057980C990005365
:100F2600E0FBA3E0FAA3E0F91205217002800D9020
:100F3600004EE475F001120579020EB290004DE004
:0F0F4600FBA3E0FAA3E0F9227B007A00790022F6
:10071E009000C6EBF0A3EAF0A3E9F09000C6E0FB70
:10072E00A3E0FAA3E0F9120521FF12000E500C907F
:10073E0000C7E475F00112057980E0D2099000C679
:10074E00E0FBA3E0FAA3E0F9120521FF642B60049D
:10075E00EFB42D1D9000C6E0FBA3E475F001120569
:10076E008FA9F0FA120521642D6003D38001C39284
:10077E0009E49000C9F0A3F09000C6E0FBA3E0FAF4
:10078E00A3E0F9120521FF121E9F50429000C6E011
:10079E00FBA3E0FAA3E0F9120521FF3395E0FEEF8B
:1007AE0024D0FBEE34FFFA9000C9E0FEA3E0FF7CFC
:1007BE00007D0A120567EF2BFFEE3A9000C9F0A3F9
:1007CE00EFF09000C7E475F00112057980AA3009A8
:1007DE000A9000C9E0FEA3E0FF800F9000C9E0FE82
:0B07EE00A3E0FFC3E49FFFE49EFE2297
:10069A00EF4E6012EF60010EEDBB010B89828A8377
:1006AA00F0A3DFFCDEFA2289F05007F709DFFCA984
:0C06BA00F022BBFEFCF309DFFCA9F022DB
:1006C600BB010689828A83F0225002F722BBFE0113
:0206D600F3220D
:1006D800F8E0FBA3A3E0F925F0F0E58215827002AB
:0706E8001583E0FA38F0224F
:0906EF00EBF0A3EAF0A3E9F0220C
:1006F800D083D082F8E4937012740193700DA3A391
:1007080093F8740193F5828883E4737402936860A4
:06071800EFA3A3A380DFA4
:0F1E9F00EFC394304007EF943A50028001C32202
:10000E00EFC394094005EF940E4004EFB42003D3E0
:04001E008001C32278
:00000001FF
