:03000000020CFCF3
:0C0CFC00787FE4F6D8FD758121020D43DD
:10116F007825642025640A0073797374656D20698E
:06117F0073206F6B0A00F3
:1007DB00606400000000000000000000000000004A
:1007EB0000000000000000000000000000000000FE
:1007FB0000000000000000000000000000000000EE
:10080B0000000000000000000000000000000000DD
:10081B0000000000000000000000000000000000CD
:10082B0000000000000000000000000000000000BD
:0C083B0000000000000000004100680008
:100FE40090038DEBF0A3EAF0A3E9F090038DE0FB0E
:100FF400A3E0FAA3E0F91203FBFF600F12000390D1
:0C100400038EE475F00112044180E0222C
:10112400E4F593F594F591F592F595F596F5B1F509
:0A113400B2F5B3F5B4F5C9F5CA220F
:100D8800EF4E7004A2A48058EF64014E7004A2A52F
:100D9800804EEF64024E7004A2A68044EF64034EB6
:100DA8007004A2A7803AEF64044E7004A2C5803094
:100DB800EF64054E7004A2C68026EF64064E7004E8
:100DC800A282801CEF64074E7004A2838012EF6435
:100DD800084E7004A2848008EF64094E7005A2CA08
:040DE800FE33FF22B5
:100DEC00E4900381F0A3F0900381E0FEA3E0FFC345
:100DFC00940AEE64809480504A120D8890034CEE55
:100E0C00F0A3EFF090034774FFF0A37411F0A374F8
:100E1C006FF0900381E0FFA3E090034ACFF0A3EFC3
:100E2C00F07B017A0379831200FB7B017A037983CF
:100E3C00120026900382E004F070AC900381E00471
:030E4C00F080A48F
:010E4F002280
:08119B007F187E55DEFEDFFC2B
:0111A3002229
:10113E00AD07AC06D3ED9400EC64809480400A12A7
:09114E00119BED1D70EE1C80EBFD
:011157002275
:100EE80012112412108D1211581211091210AE7B12
:100EF800FF7A1179771200267F027E0012113E9048
:100F08000342E07004A3E0640170ED12000EE49067
:070F18000342F0A3F080E1A9
:03000B00020046AA
:10004600C0E0C0F0C083C082C0D075D000C000C080
:1000560001C002C003C004C005C006C007121010CC
:10006600D007D006D005D004D003D002D001D000EE
:0B007600D0D0D082D083D0F0D0E03298
:0611BD00900392EFF02206
:03002300020E9D2D
:100E9D00C0E0C0F0C083C082C0D075D000C000C01B
:0D0EAD0001C002C003C004C005C006C0079C
:100EBA00309809C298AF991210CD8002C299309920
:030ECA0002C299C8
:100ECD00D007D006D005D004D003D002D001D00079
:0B0EDD00D0D0D082D083D0F0D0E03223
:03004300020F1F8A
:100F1F00C0E0C083C082C0D075D000C007E59A3052
:100F2F00E00D539AFEAF9B900073E4F0A3EFF0E552
:100F3F009A30E105539AFDC209D007D0D0D082D0A4
:040F4F0083D0E03239
:03008B00020F87DA
:100F8700C0E0C083C082C0D075D008E5AC30E00DAA
:100F970053ACFEAFAD900075E4F0A3EFF0E5AC30D5
:100FA700E10553ACFDC20AD0D0D082D083D0E03265
:03009300020F5306
:100F5300C0E0C083C082C0D075D000C007E5843034
:100F6300E00D5384FEAF85900077E4F0A3EFF0E546
:100F73008430E1055384FDC20BD007D0D0D082D09A
:040F830083D0E03205
:050847004203900001D6
:10115800438E805389F0758A9A758CA9C28DD2B94D
:07116800D2A9D28CD2AF2204
:10110900759850438E40538EFE53890F758BCC755D
:0B1119008DFFC2ABD28ED2ACD2AF2251
:10108D0075AC1053ACBF759A50438E0475D78F75E0
:10109D00D6FD438E1043AF0143AF08D2AF53BAFD17
:0110AD002220
:1010AE0075841043844043D12075D38F75D2FD4390
:0F10BE00D1805384DF53847F43AF1043841022CB
:09008100C2998F993099FDD2AFAC
:01008A002253
:080003002009FDD2098F9B22A8
:0811AD00200AFDD20A8FAD22D9
:0811B500200BFDD20B8F8522F7
:10002600900390E07002A3E060121203FBFF600CE5
:0D003600120081740129F9E43AFA80EE22EB
:0611C300AE0712008122BC
:0911A40040535443495350230009
:10084C0042020D000160C8027800000000000000A8
:10085C00000000000000000000000000000000008C
:10086C00000000000000000000000000000000007C
:10087C00000000000000000000000000000000006C
:10088C00000000000000000000000000000000005C
:10089C00000000000000000000000000000000004C
:1008AC00000000000000000000000000000000003C
:1008BC00000000000000000000000000000000002C
:1008CC00000000000000000000000000000000001C
:1008DC00000000000000000000000000000000000C
:1008EC0000000000000000000000000000000000FC
:1008FC0000000000000000000000000000000000EC
:10090C0000000000000000000000000000000000DB
:0F091C000042020A00004203420000410277003D
:0111CF0022FD
:030020007F01223B
:080BC2007B017A02790F7D0628
:0E0BCA00900375EBF0A3EAF0A3E9F0A3EDF0C1
:100BD80074FFA3F0A3F0E4A3F0900378E0FF900380
:100BE8007BE0C39F5063900375E0FBA3E475F001BD
:100BF800120457A9F0FA1203FBFF900379E0F0A35F
:100C0800E06FF0E4FD900379E0FEA3E0FF30E0211F
:100C1800EEC313FEEF13FF900379EEF0A3EFF0EEAF
:100C280064A0FEEF6401FF900379EEF0A3EFF0807B
:100C38000B900379E0C313F0A3E013F00DEDB408B3
:100C4800C490037BE004F08090900379E0FCA3E07B
:070C5800FDECFBEDFEEBFFDC
:010C5F002272
:100FB700E4900241F0900209F0900341F090024260
:100FC700F0900340F0FF7E32900243E4F0A3DEFC92
:0C0FD700E4FF7E3290020FE4F0A3DEFC89
:010FE30022EB
:1010CD00900209E02443F582E43402F583EFF090B9
:0F10DD000209E004F0900275E4F0A37402F0221F
:10101000D3900276E09400900275E0648094804062
:101020001AA3E024FFF0900275E034FFF0E07002B4
:0C103000A3E07007900342F0A304F0223C
:1011850078437C027D017BFF7A1179A41205EBEF90
:06119500700375C7602223
:10000E001211859002427401F0120B1B12103C0269
:02001E0010ECE4
:0111D00022FC
:100B1B00900242E064016003020BC1900209E0D332
:100B2B0094045003020BB9E0FF2441F582E4340234
:100B3B00F583E0FE74422FF582E43402F583E0FD89
:100B4B00AF06EFFFED90036CCFF0A3EFF07B017AD4
:100B5B00027943900209E024FEFD120BCA90036C4C
:100B6B00E06E7003A3E06F7043900243E0FF9002CE
:100B7B000DE07003A3E06F7035900244E024FA603F
:100B8B000F24FC60122407701C90020C7403800C61
:100B9B0090020C7406800590020C740AF0900340CE
:100BAB007401F0800C7F01020C6080028000121037
:060BBB00ECE4900242F0A0
:010BC1002211
:10103C00900340E0B4012290020CE024FA600D24ED
:10104C00FC600E2407700D1206608008120A718075
:0A105C000312092CE4900340F02277
:10066000900245E0FEA3E0FDEDFF90036DEEF0FC8F
:10067000A3EFF0900247E0FEA3E0FBEBFF90036FD7
:10068000EEF0A3EFF0C3ED9464EC94004003020796
:10069000D590036FE0FEA3E0FF90036EE02FFD9086
:1006A000036DE03EFCC3ED9464EC9400400302074C
:1006B000D1EF9400EE940050030207D1900370E054
:1006C00025E0FFAE07EE240590036CF090020DA329
:1006D000E0A3F0A37403F0A3EEF090036DE0FFA39A
:1006E000E0900371CFF0A3EFF07D037C0090036FE7
:1006F000E0FEA3E0FF90036EE02FFF90036DE03E6D
:10070000FEC3900372E09F900371E09E5064A3E0EB
:1007100025E0FF900371E033FE74782FF5827402B8
:100720003EF583E0FFAB05740F2BF582E43402F550
:1007300083EFF0900372E025E0FF900371E033FE59
:1007400074782FF58274023EF583E0A3E0FF741005
:100750002BF582E43402F583EFF0900372E004F0AD
:100760007006900371E004F074022DFDE43CFC027D
:1007700006ED7B017A02790F900370E025E0FFEF30
:100780002403FD120BCAAD07AC06ECFF90036FA368
:10079000E025E0FE2412F582E43402F583EFF0AFA9
:1007A0000574132EF582E43402F583EFF09003789C
:1007B0007401F0A37402F0A3740FF090036CE0FFD7
:1007C00090037BE4F0A3EFF07B017A02790A020E3A
:0A07D000507F0380027F02120C60CC
:0107DA0022FC
:100A7100900245E0FEA3E0FDAC06A3E0FEA3E0FB8F
:100A8100C3ED9464EC94004003020B1590036C7465
:100A910008F0AA06ED25E0FFEC33FE74782FF5820D
:100AA10074023EF583EAF0A3EBF090020DA3E0A3FC
:100AB100F0A37406F0ECA3F0EDA3F025E0FBEC331A
:100AC100FA74782BF58274023AF583E0900213F000
:100AD10074782BF58274023AF583E0A3E090021456
:100AE100F0120BC2AD07AC06EC900215F0EFA3F0CB
:100AF1009003787401F0A37402F0A3740FF09003D3
:100B01006CE0FF90037BE4F0A3EFF07B017A0279C4
:090B11000A020E507F02120C6072
:010B1A0022B8
:10092C00900245E0FEA3E0FDEDFF90036DEEF0FCC0
:10093C00A3EFF0900247E0FEA3E0FBEBFF90036F08
:10094C00EEF0A3EFF0C3ED9464EC94004003020AC4
:10095C006B90036FE0FEA3E0FF90036DE0FCA3E05F
:10096C00FD2FFBEC3EFAC3EB9464EA9400400302C7
:10097C000A67EF9400EE94005003020A679003712B
:10098C00ECF0A3EDF07D077C0090036FE0FEA3E09C
:10099C00FF90036EE02FFF90036DE03EFEC39003CB
:1009AC0072E09F900371E09E504D74432DF582745C
:1009BC00023CF583E0FE74442DF582E43402F583A9
:1009CC00E0FBEEFA900372E025E0FF900371E03358
:1009DC00FE74782FF58274023EF583EAF0A3EBF0F7
:1009EC00900372E004F07006900371E004F074025E
:1009FC002DFDE43CFC809290036C7408F090020D89
:100A0C00A3E0A3F0A3740AF090036DE0FCA3E0FD57
:100A1C00EC900211F0EDA3F090036FE0FCA3E0FD6D
:100A2C00EC900213F0EDA3F0120BC2AD07AC06EC88
:100A3C00900215F0EFA3F09003787401F0A3740208
:100A4C00F0A3740FF090036CE0FF90037BE4F0A331
:100A5C00EFF07B017A02790A020E507F0380027F4D
:040A6C0002120C6006
:010A70002263
:100C6000EF24FE602214603E24026003020CFB901D
:100C7000020DA3E0A3F0900244E02480900210F063
:100C8000A37401F0FB801790020DA3E0A3F0900283
:100C900044E02480900210F0A37402F07B017A02F9
:100CA000790F7D03801C90020DA3E0A3F090024415
:100CB000E02480900210F0A37403F07B017A0279A3
:100CC0000FFD120BCA900373EEF0A3EFF0900373C5
:100CD000E0FCA3E0FDEC900212F0EDA3F0900378AD
:100CE0007401F0A37402F0A3740FF0A3E4F0A374F2
:0B0CF00005F07B017A02790A120E5019
:010CFB0022D6
:1010EC00E4FF7E32900243E4F0A3DEFCE4900209BC
:0C10FC00F0FF7E3290020FE4F0A3DEFC57
:0111080022C4
:0511C900EFC4540FFF0C
:0111CE0022FE
:04008E00EF540FFF1D
:01009200224B
:10106600EFC39400400CEFD39409500674302FFF61
:101076008014EFC3940A400CEFD3940F50067437D4
:071086002FFF80027FFF2213
:0B0E5000900375EBF0A3EAF0A3E9F0BB
:100E5B00E490037DF0A3F090037BE0FEA3E0FFA3FF
:100E6B00E0FCA3E0FDC39FEC9E5026900378E0FBD3
:100E7B00A3E0FAA3E0F98D828C83120414FF120015
:100E8B008190037EE004F070CE90037DE004F0804F
:010E9B00C690
:010E9C002233
:100D0800020EE8E493A3F8E493A34003F68001F20B
:100D180008DFF48029E493A3F85407240CC8C333EC
:100D2800C4540F4420C8834004F456800146F6DFBB
:100D3800E4800B01020408102040809007DBE47E69
:100D4800019360BCA3FF543F30E509541FFEE493B0
:100D5800A360010ECF54C025E060A840B8E493A377
:100D6800FAE493A3F8E493A3C8C582C8CAC583CAA2
:100D7800F0A3C8C582C8CAC583CADFE9DEE780BE5A
:01092B0000CB
:1003FB00BB010689828A83E0225002E722BBFE0200
:09040B00E32289828A83E4932232
:10041400BB010CE58229F582E5833AF583E022509D
:1004240006E92582F8E622BBFE06E92582F8E222E7
:0D043400E58229F582E5833AF583E4932201
:10044100C5F0F8A3E028F0C5F0F8E5821582700246
:060451001583E038F022E3
:10045700A3F8E0C5F025F0F0E58215827002158358
:06046700E0C838F0E822B5
:10009600E5102447F582E43403F583E00510229049
:1000A6000344300703900347E475F00112061A0271
:1000B60003FB2000E97F2ED2008018EF540F249016
:1000C600D43440D4FF30040BEF24BFB41A005003DD
:1000D6002461FFE511600215110514E5147002058F
:1000E6001330070E900344E475F00112061AEF026E
:1000F60006080211C37403D2078003E4C207F51091
:10010600900344120631E4F511F513F514E5116078
:10011600077F201200D980F57512FFC201C200C206
:1001260002C203C205C206C2081200A5FF700D3046
:1001360007057F001200EAAF14AE1322B4255FC292
:10014600D5C2041200A5FF24D0B40A00501A75F0D7
:100156000A781130D50508B6FF0106C6A426F62092
:10016600D5047002D20380D924CFB41A00EF50040C
:10017600C2E5D2040202EBD20180C6D20080C0D210
:100186000280BCD2D580BAD20580B47F201200D9B5
:100196002002077401B5110040F1120096FF12000B
:1001A600D9020113D208D2068095120096FB1200DE
:1001B60096FA120096F94A4B700679BC7A037BFFD1
:1001C60020022EE511602A7E008E827583001204BD
:1001D6001460060EEE651270F0C2D5EBC0E0EAC000
:1001E600E0E9C0E0EE120332D0E0F9D0E0FAD0E068
:1001F600FB1203FBFF60AAEBC0E0EAC0E0E9C0E047
:100206001200D9D0E02401F9D0E03400FAD0E0FBA6
:10021600E5120460DCD512D980877BFF7A03792E3C
:10022600D202809C791080027908C206C208800832
:10023600D2D5790A8004790AC2D5E512047002F58E
:1002460012E4FAFDFEFF120096FC7B082001131251
:100256000096FD7B1030000A120096FE120096FFF3
:100266007B20EC3382D592D55013C3E43000069F31
:10027600FFE49EFEE42001039DFDE49CFCE4CBF834
:10028600C201EC700CCFCECDCCE824F8F870F38028
:1002960017C3EF33FFEE33FEED33FDEC33FCEB33E8
:1002A600FB994002FB0FD8E9EB300105F8D0E0C41A
:1002B60048B201C0E00AEC4D4E4F78207B0070C278
:1002C600EAB5120040BCC0E0120334D0F0D0E02002
:1002D6000104C4C0E0C4B201C0F01200C2D0F0D51F
:1002E600F0EB02011312063A01B053022A580181BB
:1002F6004C017D42022E4F02364402364901964396
:08030600023C550220460220D2
:10030E004502204703DC5001852D01892E01AC2BBF
:10031E00018D2301AA2003C52A014548000001A42E
:10032E003F3F3F00790AA2D5200314300509B910CA
:10033E00020404B9080104A2D520060250010420CB
:10034E0002689202B511005034C0E07F20300319CC
:10035E007F30A20272067205500F12038BC202C2C8
:10036E0006C205C2087F30800F300503E9C0E012D7
:10037E0000D9300503D0E0F9D0E0B511CC30051727
:10038E007F30B9100C1200D97F583004077F788067
:10039E0003B908031200D93002057F2D0200D97F60
:1003AE00202008F87F2B2006F322920280CF286EA1
:1003BE00756C6C2900D2011200963001F8C20178DA
:1003CE001130D50108F60201452D5043495812004F
:1003DE00962403B405004001E49003D7931200CA9B
:0D03EE00743A1200CAD20375110402022AEB
:10046D00E3F5F009E208B5F06D606B80F3E3F5F0AC
:10047D0009E608B5F060605E80F387F009E608B51F
:10048D00F054605280F487F009E208B5F0486046F8
:10049D0080F488828C8387F009E0A3B5F03860364C
:1004AD0080F488828C8387F009E493A3B5F02760EC
:1004BD002580F388828C83E3F5F009E0A3B5F0166F
:1004CD00601480F388828C83E3F5F009E493A3B57F
:1004DD00F004600280F2020598808580E7808E80AE
:1004ED00D2803C8015806C807E809B80B5808B8017
:1004FD00A1804F8070803A0205A489828A83ECFA2C
:10050D00E493F5F0A3C8C582C8CCC583CCE493A30E
:10051D00C8C582C8CCC583CCB5F070606E80E1894A
:10052D00828A83E493F5F0A3E208B5F05E605C8007
:10053D00F289828A83E0F5F0A3E608B5F04D604BB1
:10054D0080F389828A83E0F5F0A3E208B5F03C6080
:10055D003A80F389828A83E493F5F0A3E608B5F037
:10056D002A602880F2805389828A83ECFAE493F51D
:10057D00F0A3C8C582C8CCC583CCE0A3C8C582C8CA
:10058D00CCC583CCB5F004600280E27FFFB5F002EC
:10059D000F2240027F012289828A83ECFAE0F5F076
:1005AD00A3C8C582C8CCC583CCE0A3C8C582C8CCBE
:1005BD00C583CCB5F0D560D380E389828A83ECFA0C
:1005CD00E0F5F0A3C8C582C8CCC583CCE493A3C81D
:1005DD00C582C8CCC583CCB5F0B160AF80E288F0E0
:1005ED00ED2402B4040050A3F582EB2402B4040000
:0B05FD00509923234582239004E673ED
:10060800BB010689828A83F0225002F722BBFE01D1
:02061800F322CB
:10061A00F8E0FBA3A3E0F925F0F0E5821582700269
:07062A001583E0FA38F0220D
:09063100EBF0A3EAF0A3E9F022CA
:10063A00D083D082F8E4937012740193700DA3A34F
:10064A0093F8740193F5828883E473740293686063
:06065A00EFA3A3A380DF63
:00000001FF
