:030000000217E8FC
:0C17E800787FE4F6D8FD75812102182FEF
:100BF3003B002D006765742073657425642D25649F
:100C030000676574206661696C6564007365743A96
:100C130000656E64006661696C6564636865636B37
:100C2300202573007365743A25642D25643B656E36
:100C3300640040535443495350230068617320694F
:100C43006E69740A006E6F7420696E69740A0048D5
:100C53006F6C64696E675265675B25645D2D5B2508
:100C6300645D0A006765747A6869616E64636861CC
:100C73006E6765207765697A68695B25645D207AAC
:100C830068695B25645D0A0073797374656D20720E
:100C93006573746172740A0073797374656D206986
:100CA3006E6974206F6B31000000000000000000CB
:100CB3000000000000000000000000000000000031
:100CC3000000000000000000000000000000000021
:100CD3000000000000000000000000000000000011
:100CE3000000000000000000000000000000000001
:100CF30000000000000000000000000000000000F1
:080D03000000000000000000E8
:101A4E0041009F00540087000000000000000000CD
:101A5E0000000000000000000000004200A0000096
:1020CB007E007F3C7D007B017A0079A612039FE4A2
:0720DB0090009DF0A3F0222C
:101BBF0090009DE475F001120294FC74A625F0F5D7
:101BCF008274003CF583EFF0D390009EE09439903F
:101BDF00009DE0648094804004E4F0A3F090007DC9
:071BEF00E4F0A37403F022EF
:101C9500D390007EE0940090007DE06480948040C5
:101CA5001BA3E024FFF090007DE034FFF0E070021C
:0D1CB500A3E0700890009F04F0121E192299
:10143A0090005AEBF0A3EAF0A3E9F0A3E0FBA3E0E3
:10144A00FAA3E0F91201BC7002806B90005AE0FB2B
:0B145A00A3E0FAA3E0F91201BC6073EC
:10146500900060EBF0A3EAF0A3E9F090005DE0F9ED
:10147500A3E0FAA3E0900063C9F0A3EAF0A3E9F0C2
:10148500900063E0FBA3E0FAA3E0F91201BCFF6062
:1014950027900060E0FBA3E0FAA3E0F91201BCB5D8
:1014A5000716900061E475F00112027E900064E475
:1014B50075F00112027E80C8EF700C90005AE0FBB7
:1014C500A3E0FAA3E0F92290005BE475F0011202B3
:0114D5007E98
:0914D60081557B007A00790022A7
:0B1D720090005AEBF0A3EAF0A3E9F0A8
:101D7D00E4FFFE90005AE0FBA3E0FAA3E0F98F82A6
:0E1D8D008E831201D560070FBF00010E80E5A6
:011D9B002225
:1000460090005474FFF0A3740BF074F3A3F09000C7
:0900560045E0FBA3E0FAA3E0F988
:10005F00C002C001900054E0F9A3E0FAA3E09000C1
:10006F005DC9F0A3EAF0A3E9F0D001D00212143A6F
:10007F00900057EBF0A3EAF0A3E9F0900057E0FBF4
:10008F00A3E0FAA3E04A4B6017900054E0FBA3E013
:10009F00FAA3E0F9121D72900058EE8FF012027E53
:0B00AF00900057E0FBA3E0FAA3E0F98B
:0100BA002223
:100AB900900045EBF0A3EAF0A3E9F0E490004BF0D5
:100AC900A3F0120046900048EBF0A3EAF0A3E9F086
:100AD900900048E0FBA3E0FAA3E04A4B700261F200
:100AE900900045E0FBA3E0FAA3E0F9120FBA9000E9
:100AF9004DEEF0A3EFF090005474FFF0A3740BF0E7
:100B090074F5120052900045EBF0A3EAF0A3E9F066
:100B1900120FBA90004FEEF0A3EFF090004BE0FEF9
:100B2900A3E0FF7C007D02120248ED4C701CA3E09B
:100B3900FFA3E090009BCFF0A3EFF090004FE0FF00
:100B4900A3E09000E2CFF0A3EFF0ED64014C706AEE
:100B590090004DE0FEA3E0FF90009BE06E7003A3C0
:100B6900E06F704D90004FE0FEA3E0FF9000E2E0DF
:100B7900B5063EA3E0B507397BFF7A0B79F79000FC
:100B89004DE0FFA3E0900054CFF0A3EFF090004FA9
:100B9900A3E0FF900056EEF0A3EFF01204D190000D
:100BA9004DE0FEA3E0FFA3E0FCA3E0FD120DF680FB
:100BB900097BFF7A0C79041204D112004690004592
:100BC900EBF0A3EAF0A3E9F090004CE004F0700622
:100BD90090004BE004F0C390004CE0946490004B0B
:090BE900E064809480500241CBCD
:010BF20022E0
:0B0EDC00900000EBF0A3EAF0A3E9F0A7
:100EE70078037C007D017BFF7A0C79AB7E007F3C29
:100EF70012019690005474FFF0A3740CF0A3740FC2
:100F0700F090000012005790003FEBF0A3EAF0A327
:100F1700E9F090005474FFF0A3740CF0A37414F07C
:100F270012005F900042EBF0A3EAF0A3E9F0900013
:100F37003FE0FBA3E0FAA3E04A4B6076A3E0FBA304
:100F4700E0FAA3E04A4B606A900042A3A3E0F9E409
:100F5700120202900042E0FBA3E0FAA3E0F990003E
:100F670004E4120214900000E0FBA3E0FAA3E0F906
:100F7700120D0BEF4E701E900000E0F9A3E0FAA3EC
:100F8700E0900054C9F0A3EAF0A3E9F07BFF7A0CE4
:100F970079180204D178037C007D0190003FE0FBC3
:100FA700A3E0FAA3E0F91203827B017A0079031226
:020FB7000AB975
:010FB9002215
:1013940090018DEBF0A3EAF0A3E9F0A3E0FBA3E056
:1013A400FAA3E0F91201BC7002806C90018DE0FB9D
:0B13B400A3E0FAA3E0F91201BC607492
:1013BF00900193EBF0A3EAF0A3E9F0900190E0F92C
:1013CF00A3E0FAA3E0900196C9F0A3EAF0A3E9F035
:1013DF00900196E0FBA3E0FAA3E0F91201BCFF90A5
:1013EF000193E0FBA3E0FAA3E0F91201BCB50719E2
:1013FF00EF6016900194E475F00112027E90019750
:10140F00E475F00112027E80C7EF700C90018DE041
:10141F00FBA3E0FAA3E0F92290018EE475F001122C
:02142F00027E3B
:0914310061AF7B007A0079002212
:101E1900121C2DE49000E0F07B017A0079A6120EE5
:101E2900DC7E007F3C7D007B017A0079A612039F4E
:081E3900E490009DF0A3F022EB
:10207800E4F593F594F592759180F595F596F5B29A
:0C208800F5B1F5B3F5B475CAFFF5C92237
:10197B00E49001C6F0A3F0FFFE121FE69001C6E053
:10198B00FEA3E0FF7D377C00121D47E49001C4F0FD
:10199B00A3F09001C4E0FCA3E0FDC3940AEC6480C7
:1019AB009480503F9001C7E004F070069001C6E0B0
:1019BB0004F0ED25E0FFEC33FE74172FF582740174
:1019CB003EF583E0FCA3E0FD9001C6E0FEA3E0FF43
:1019DB00121D479001C5E004F070B79001C4E004FC
:0319EB00F080AFDA
:0119EE0022D6
:1007CB00E4FDFCED25E0FFEC33FE74172FF582748E
:1007DB00013EF583E0FAA3E0FB74872FF5827400EA
:1007EB003EF583EAF0A3EBF00DBD00010CED640ABE
:0307FB004C70D06F
:0107FE0022D8
:101B7D00E4FDFCED25E0FFEC33FE74172FF58274C8
:101B8D00013EF583E0FAA3E0FB74872FF582740024
:101B9D003EF583E0FEA3E06B7002EE6A60057E0009
:101BAD007F01220DBD00010CED640A4C70C5E4FEF1
:011BBD00FF28
:011BBE002204
:0E19EF0090016BEEF0A3EFF0A3ECF0A3EDF08F
:1019FD00786F7C017D017BFF7A0C79E77E007F1E7D
:101A0D0012019690005474FFF0A3740CF0A3742788
:101A1D00F090016BE0FFA3E0900057CFF0A3EFF043
:101A2D0090016DE0FFA3E0900059CFF0A3EFF07BA4
:101A3D00017A01796F1204CB7B017A01796F02046F
:011A4D00D1C7
:101E8E00D39000A1E094E89000A0E0648094834099
:101E9E0013E4F0A3F090011FE0FCA3E0FD7F047EAD
:051EAE00001219EF22F3
:101C2D0090000674FFF0A3740CF0A37435F07B01E3
:101C3D007A0079A612116C900000EBF0A3EAF0A3E4
:101C4D00E9F0900000E0FBA3E0FAA3E04A4B60034B
:031C5D0075C760E8
:011C60002261
:0D216200E4F5C7F5C5F5C675C380F5C422C8
:1020940075C78075F52875C5018FC4EEFF8FC375AC
:0B20A400C65A75C6A500AFC21221622B
:0120AF00220E
:1000260075C78075F52875C5028FC4EEFF8FC3AFFF
:0D003600058FC275C65A75C6A5000221626D
:101FE60075C78075F52875C5038FC4EEFF8FC37559
:091FF600C65A75C6A5000221625D
:101D47009001C8ECF0A3EDF0AB07AA06EB25E0FB8A
:101D5700EA33FAAF03FE9001C8E0FD120026EB2438
:0B1D670001FFE43EFEA3E0FD020026A9
:041CEF00AD07AC068B
:101CF300ED25E0FDEC33FCAF05FE122094AB077A33
:101D030000ED2401FFE43EFE122094AD077C00EBBE
:071D1300FEE42DFFEC3EFE93
:011D1A0022A6
:10109500E49001BCF0A3F0FFFE121CEF9001BAEE44
:1010A500F0A3EFF064374E7BFF70097A0C793E129E
:1010B50004D180147A0C79481204D190011F74026E
:1010C500F0A37458F012197BE49001B8F0A3F090E6
:1010D50001BDE004F070069001BCE004F09001BC95
:1010E500E0FEA3E0FF121CEFAC06AD079001B9E0EE
:1010F50025E0FF9001B8E033FE74172FF5827401E7
:101105003EF583ECF0A3EDF074172FF58274013EE4
:10111500F583E0FFA3E09001BACFF0A3EFF07BFFEA
:101125007A0C79529001B8E0FFA3E0900054CFF01B
:10113500A3EFF09001BAE0FFA3E0900056CFF0A333
:10114500EFF01204D19001B9E004F070069001B8F7
:10115500E004F0C39001B9E0940A9001B8E064801E
:061165009480500201D449
:01116B002261
:101EB300E4FDFCED25E0FFEC33FE74172FF582748F
:101EC300013EF583E4F0A3F00DBD00010CED640ABF
:031ED3004C70E070
:011ED60022E9
:1016220078047C007D017BFF7A0D79057E007F06C0
:101632001201967B017A00790412122B900004E0C9
:10164200FEA3E0FF4E6073900000EEF0A3EFF09077
:101652000006E0FCA3E0FD900002ECF0A3EDF07BBD
:10166200FF7A0C7967900054EEF0A3EFF0A3ECF050
:10167200A3EDF01204D1900000E0FEA3E0FFC394BA
:101682000AEE64809480501CA3E0FCA3E0FDEF25E9
:10169200E0FFEE33FE74172FF58274013EF583EC02
:1016A200F0A3EDF0900000E0FEA3E0FF64044E60C2
:0A16B20006EF64024E700312216F70
:0116BC00220B
:0B0D0B00900045EBF0A3EAF0A3E9F034
:100D160012000E900048EEF0A3EFF0C39408EE64C4
:100D26008094805002A1ED90005774FFF0A3740CDC
:100D3600F0A3740FF0A3E4F0A37404F0900045E070
:100D4600FBA3E0FAA3E0F9121874EF6002A1ED909C
:100D56000045E0FBA3E0FAA3E0F9A3E0FEA3E0FF71
:100D6600E92FF9EA3EFAE924FDF9EA34FFFA9000A0
:100D76005774FFF0A3740CF0A37414F0A3E4F0A36B
:100D86007403F0121874EF6002805C900049E0244E
:100D9600F9FF900048E034FFFE7C007D0212024815
:100DA600900045E0FBA3E0FAA3E02404F9E43AFA54
:100DB600C003C002C001900045A3E0FAA3E02FF9EA
:100DC600EA3EFAE92404F9E43AFA900057EBF0A374
:100DD600EAF0A3E9F0A3EEF0A3EFF0D001D002D041
:0F0DE60003121874EF6004E4FEFF227E007F0109
:010DF50022DB
:1018FB001220781220B0121F661220E2121FA87558
:10190B00BA8090FE8074E0F090FE82E4F0D2AFD209
:10191B00B212205B12216F7F647E00121E687BFF68
:10192B007A0C798B1204D1121EB31207CB7BFF7A80
:10193B000C799B1204D190011BE4F0A304F012204C
:10194B00CB75B20675B108D2B27F057E00121E6848
:10195B00D390009EE0940090009DE06480948040C2
:10196B000A7F027E00121E68121E1912162280D9DF
:101E6800AD07AC06E4900083F0A3F0ED25E0FFECAD
:101E780033FED3900084E09FEE6480F8900083E006
:061E880064809840E62290
:03000B00021DF0E3
:101DF000C0E0C083C082900084E004F070069000D0
:101E000083E004F09000A1E004F070069000A0E0F0
:091E100004F0D082D083D0E0324E
:03002300021BF6C7
:101BF600C0E0C0F0C083C082C0D075D000C000C0B5
:031C060004C00710
:101C0900309809C298AF99121BBF8002C2993099C6
:031C190002C2996B
:101C1C00D007D004D000D0D0D082D083D0F0D0E088
:011C2C003285
:03004300021C613B
:101C6100C0E0C083C082C0D075D000C007E59A3003
:101C7100E00D539AFEAF9B9000A4E4F0A3EFF0E5D2
:101C81009A30E105539AFDC209D007D0D0D082D055
:041C910083D0E032EA
:051A6E004201CA000165
:1020E200438E805389F0758A9A758CA9C28DD2B9B4
:0720F200D2A9D28CD2AF226B
:1020B000759850438E40538EFE53890F758BE8758B
:0B20C0008DFFC2ABD28ED2ACD2AF229B
:101F660075AC1053ACBF759A50438E0475D78F75F8
:101F7600D6FD438E1043AF0143AF08D2AF53BAFD2F
:011F86002238
:101FA80075841043844043D12075D38F75D2FD4387
:0F1FB800D1805384DF53847F43AF1043841022C2
:0A217B00C2998F993099FDD2AF226E
:080003002009FDD2098F9B22A8
:0800BB00200AFDD20A8FAD22DC
:08218500200BFDD20B8F852217
:10203E009001CAE07002A3E060121201BCFF600CB6
:0D204E0012217B740129F9E43AFA80EE2298
:06218D00AE0712217B22C7
:101A73004200E800015401170000000000000000CC
:101A83000000000000000000000000004200E5002C
:0A1A93000042012D00004101160081
:0107FF0022D7
:03219E007F01229C
:081584007B017A0079EA7D0683
:0E158C009001A3EBF0A3EAF0A3E9F0A3EDF0C9
:10159A0074FFA3F0A3F0E4A3F09001A6E0FF90018A
:1015AA00A9E0C39F50639001A3E0FBA3E475F00197
:1015BA00120294A9F0FA1201BCFF9001A7E0F0A36D
:1015CA00E06FF0E4FD9001A7E0FEA3E0FF30E02128
:1015DA00EEC313FEEF13FF9001A7EEF0A3EFF0EEB8
:1015EA0064A0FEEF6401FF9001A7EEF0A3EFF08084
:1015FA000B9001A7E0C313F0A3E013F00DEDB408BC
:10160A00C49001A9E004F080909001A7E0FCA3E057
:07161A00FDECFBEDFEEBFF10
:0116210022A6
:101CC200E4900108F09000E4F090012CF0900109FA
:101CD200F090012BF0FF7E0A90010AE4F0A3DEFCF3
:0C1CE200E4FF7E1E9000EAE4F0A3DEFCAC
:011CEE0022D3
:101FC7009000E4E0240AF582E43401F583EFF09011
:0F1FD70000E4E004F0900114E4F0A37402F0229F
:0B1AEB009001BEEBF0A3EAF0A3E9F0CD
:101AF600E4FFFE9001C1E0FBA3E0FAA3E0F98F82C8
:101B06008E831201D5FD9001BEE0FBA3E0FAA3E0AF
:101B1600F98F828E831201D56D6004E4FEFF220FD9
:0E1B2600BF00010EEF64064E70C97E007F0105
:011B3400228E
:101D1B00D3900115E09400900114E064809480400E
:101D2B001AA3E024FFF0900114E034FFF0E07002FE
:0C1D3B00A3E0700790012DF0A304F0223B
:0F2135009001097401F01214DF121D9C02205B4F
:011FFF0022BF
:1014DF00900109E064016002A1839000E4E0D394DD
:1014EF00045002A17BE0FF2408F582E43401F58368
:1014FF00E0FE74092FF582E43401F583E0FDAF06B9
:10150F00EFFFED9001CCCFF0A3EFF07B017A0179E3
:10151F000A9000E4E024FEFD12158C9001CCE06EE1
:10152F007003A3E06F704390010AE0FF9000E8E0C2
:10153F007003A3E06F703590010BE024FA600F2465
:10154F00FC60122407701C9000E77403800C90005D
:10155F00E7740680059000E7740AF090012B740180
:10156F00F0800C7F010216BD8002800012205BE428
:04157F00900109F0DE
:011583002245
:101D9C0090012BE0B401229000E7E024FA600D24BE
:101DAC00FC600E2407700D12080080081212E980E6
:0A1DBC0003120977E490012BF022D6
:1008000090010CE0FEA3E0FDEDFF9001ABEEF0FCEB
:10081000A3EFF090010EE0FEA3E0FBEBFF9001AD33
:10082000EEF0A3EFF0C3ED940AEC940040022171C6
:100830009001ADE0FEA3E0FF9001ACE02FFD900140
:10084000ABE03EFCC3ED940AEC94004002216DEF56
:100850009400EE94005002216D9001AEE025E0FF7F
:10086000AE07EE24059001AAF09000E8A3E0A3F003
:10087000A37403F0A3EEF09001ABE0FFA3E09001BE
:10088000AFCFF0A3EFF07D037C009001ADE0FEA3BD
:10089000E0FF9001ACE02FFF9001ABE03EFEC39083
:1008A00001B0E09F9001AFE09E5063A3E025E0FF20
:1008B0009001AFE033FE74172FF58274013EF5838B
:1008C000E0FFAB0574EA2BF582E43400F583EFF02A
:1008D0009001B0E025E0FF9001AFE033FE74172FE8
:1008E000F58274013EF583E0A3E0FF74EB2BF58203
:1008F000E43400F583EFF09001B0E004F07006906E
:1009000001AFE004F074022DFDE43CFC018A7B01A0
:100910007A0079EA9001AEE025E0FFEF2403FD12B2
:10092000158CAD07AC06ECFF9001ADA3E025E0FE11
:1009300024EDF582E43400F583EFF0AF0574EE2E7C
:10094000F582E43400F583EFF090019C7401F0A38C
:100950007400F0A374EAF09001AAE0FF90019FE414
:10096000F0A3EFF07B017A0079E5021A9E7F038005
:06097000027F021216BD19
:01097600225E
:1012E90090010CE0FEA3E0FDAC06A3E0FEA3E0FB49
:1012F900C3ED940AEC94004002618E9001D0740809
:10130900F0AA06ED25E0FFEC33FE74172FF5827481
:10131900013EF583EAF0A3EBF09000E8A3E0A3F027
:10132900A37406F0ECA3F0EDA3F025E0FBEC33FA8F
:1013390074172BF58274013AF583E0FF9000EEEF04
:10134900F074172BF58274013AF583E0A3E090005D
:10135900EFF0121584AD07AC06EC9000F0F0EFA3A6
:10136900F090019C7401F0A37400F0A374EAF0906A
:1013790001D0E0FF90019FE4F0A3EFF07B017A0038
:0A13890079E5021A9E7F021216BDDC
:011393002237
:1009770090010CE0FEA3E0FDEDFF9001B2EEF0FC6C
:10098700A3EFF090010EE0FEA3E0FBEBFF9001B4B4
:10099700EEF0A3EFF0C3ED940AEC9400400241B3EC
:1009A7009001B4E0FEA3E0FF9001B2E0FCA3E0FDFC
:1009B7002FFBEC3EFAC3EB940AEA9400400241AFE6
:1009C700EF9400EE9400500241AF9001B6ECF0A313
:1009D700EDF07D077C009001B4E0FEA3E0FF9001FD
:1009E700B3E02FFF9001B2E03EFEC39001B7E09F56
:1009F7009001B6E09E504D740A2DF58274013CF5C6
:100A070083E0FE740B2DF582E43401F583E0FBEE01
:100A1700FA9001B7E025E0FF9001B6E033FE7417C6
:100A27002FF58274013EF583EAF0A3EBF09001B74E
:100A3700E004F070069001B6E004F074022DFDE4C6
:100A47003CFC80929001B17408F09000E8A3E0A309
:100A5700F0A3740AF09001B2E0FCA3E0FDEC900073
:100A6700ECF0EDA3F09001B4E0FCA3E0FDEC900006
:100A7700EEF0EDA3F0121584AD07AC06EC9000F094
:100A8700F0EFA3F090019C7401F0A37400F0A3743D
:100A9700EAF09001B1E0FF90019FE4F0A3EFF07B53
:100AA700017A0079E5021A9E7F0380027F021216FF
:010AB700BD81
:010AB800221B
:1016BD00EF24FE602114603D24026002E15790008A
:1016CD00E8A3E0A3F090010BE024809000EBF0A3E1
:1016DD007401F0FB80179000E8A3E0A3F090010BDC
:1016ED00E024809000EBF0A37402F07B017A007986
:1016FD00EA7D03801C9000E8A3E0A3F090010BE0CD
:10170D0024809000EBF0A37403F07B017A0079EA5A
:10171D00FD12158C9001CEEEF0A3EFF09001CEE00E
:10172D00FCA3E0FDEC9000EDF0EDA3F090019C74B6
:10173D0001F0A37400F0A374EAF0A3E4F0A3740520
:0A174D00F07B017A0079E5121A9E84
:01175700226F
:10205B00E4FF7E0A90010AE4F0A3DEFCE49000E4C6
:0C206B00F0FF7E1E9000EAE4F0A3DEFC13
:012077002246
:05219300EFC4540FFF32
:012198002224
:04219900EF540FFFF1
:01219D00221F
:101E4100EFC39400400CEFD39409500674302FFF78
:101E51008014EFC3940A400CEFD3940F50067437EB
:071E61002FFF80027FFF222A
:0B1A9E00900199EBF0A3EAF0A3E9F03F
:101AA900E49001A1F0A3F090019FE0FEA3E0FFA361
:101AB900E0FCA3E0FDC39FEC9E502690019CE0FB57
:101AC900A3E0FAA3E0F98D828C831201D5FF1221DC
:101AD9007B9001A2E004F070CE9001A1E004F080B7
:011AE900C636
:011AEA0022D9
:10200000E4FFFED20C90FE817481F0300C10C3EF1F
:0E2010009470EE941750070FBF00010E80ED84
:01201E00229F
:101ED700E4FDFC90FE86EFF0D20C90FE817482F058
:101EE700300C10C3ED9470EC941750070DBD000132
:031EF7000C80ED6F
:011EFA0022C5
:101758001220007FC2121ED71217C97F60121ED72F
:101768001217C990000AE0C4F854F0C8A3E0C454A2
:101778000F48FF121ED71217C990000BE0540FC470
:10178800F8540FC868FF121ED71217C912201F126B
:1017980020007FC0121ED71217C97F60121ED712F1
:1017A80017C9EAC4F854F0C8EBC4540F48FF121E16
:1017B800D71217C9EB540FC4F8540FC868FF121E8C
:0117C800D749
:1017C900E4FFFED20C90FE817483F0300C10C3EF5D
:0E17D9009470EE941750070FBF00010E80EDC4
:0117E70022DF
:101EFB00E4FFFED20C90FE817484F0300C10C3EF23
:101F0B009470EE941750070FBF00010E80ED90FEFA
:031F1B0087E0FF5D
:011F1E0022A0
:101F4300E4FFFE90FE82F0D20C90FE817485F030A7
:101F53000C10C3EF9470EE941750070FBF00010EDF
:021F630080ED0F
:011F65002259
:101F1F00E4FFFE90FE8204F0D20C90FE817485F0F7
:101F2F00300C10C3EF9470EE941750070FBF0001E1
:031F3F000E80ED24
:011F4200227C
:10201F00E4FFFED20C90FE817486F0300C10C3EFFB
:0E202F009470EE941750070FBF00010E80ED65
:01203D002280
:0300C300021F8792
:101F8700C0E0C083C082C0BA43BA8090FE82E0300E
:101F9700E606E054BFF0C20CD0BAD082D083D0E0BE
:011FA7003207
:1020F90090011BE07002A3E07003D29622EF4E70AC
:0721090003D29622C29622C8
:101B350090000A740FF0A374FFF07BB87A0B900144
:101B45001FE0FEA3E07802C333CE33CED8F9FBAA5B
:101B550006D394FFEA940F400CEB9470EA94175067
:101B6500047A0F7BFFAF03AE021220F91217581249
:081B7500201F12175802201F67
:0C216F00C2B7D2B6121B35D2B7C2B622DE
:101DC600E4FFFE90013375F006EF1202AAEE75F0FD
:101DD60006A42583F583E0FCA3E04C7001220FBF27
:091DE60000010EEF640A4E70DAF0
:011DEF0022D1
:0F214400121DC6EF4E7004FE7F0122E4FEFF2243
:10212400121DC6EF640A4E7004FE7F0122E4FEFF16
:012134002288
:0E0DF600900051EEF0A3EFF0A3ECF0A3EDF0AF
:100E0400121DC6900055EEF0A3EFF0E4FFFED39060
:100E14000056E09FEE6480F8900055E064809840AE
:100E24004E90012F75F006EF1202AAEE75F006A49B
:100E34002583F583E0FCA3E0FD900051E0FAA3E0F4
:100E4400FBEDB50323ECB5021FA3E0FCA3E0FD908A
:100E5400013175F006EF1202AAEE75F006A425839F
:100E6400F583ECF0A3EDF0220FBF00010E809F127A
:100E74001DC6EF640A4E605F900051E0FEA3E0FFE0
:100E8400900055E0FCA3E0FD90012F75F0061202DE
:100E9400AAEC75F006A42583F583EEF0A3EFF09099
:100EA4000053E0FEA3E0FF90013175F006ED12025D
:100EB400AAEC75F006A42583F583EEF0A3EFF09079
:100EC400013375F006ED1202AAEC75F006A4258331
:070ED400F583E4F0A304F034
:010EDB0022F4
:0B122B0090000AEBF0A3EAF0A3E9F04A
:10123600121DC690000FEEF0A3EFF0121DC6EF4E82
:101246007003FEFF2290000AE0FBA3E0FAA3E0F899
:10125600AC02AD037B017A01792F7E007F06120175
:1012660096E490000DF0A3F0900010E024FFFD90AE
:10127600000FE034FFFC90000DE0FEA3E0FFC39DED
:10128600EC6480F8EE64809850387C007D0612028B
:101296003674352FF974013EFA7B01C001742F2F85
:1012A600F974013EA801FC7D01D0017E007F061283
:1012B600019690000EE004F070AE90000DE004F090
:1012C60080A690000FE0FEA3E090012D75F00612B7
:1012D60002AAEE75F006A42583F583E4F0A3F0FEDA
:0212E6007F0186
:0112E80022E3
:1017F4000218FBE493A3F8E493A34003F68001F2F8
:1018040008DFF48029E493A3F85407240CC8C333F5
:10181400C4540F4420C8834004F456800146F6DFC4
:10182400E4800B0102040810204080901A4EE47EEC
:10183400019360BCA3FF543F30E509541FFEE493B9
:10184400A360010ECF54C025E060A840B8E493A380
:10185400FAE493A3F8E493A3C8C582C8CAC583CAAB
:10186400F0A3C8C582C8CAC583CADFE9DEE780BE63
:011A9D000048
:1000C600E709F608DFFA8046E709F208DFFA803E1C
:1000D60088828C83E709F0A3DFFA8032E309F60809
:1000E600DFFA8078E309F208DFFA807088828C8371
:1000F600E309F0A3DFFA806489828A83E0A3F60825
:10010600DFFA805889828A83E0A3F208DFFA804CFE
:1001160080D280FA80C680D4806980F280338010D5
:1001260080A680EA809A80A880DA80E280CA80333E
:1001360089828A83ECFAE493A3C8C582C8CCC583B6
:10014600CCF0A3C8C582C8CCC583CCDFE9DEE78086
:100156000D89828A83E493A3F608DFF9ECFAA9F005
:10016600EDFB2289828A83ECFAE0A3C8C582C8CC5B
:10017600C583CCF0A3C8C582C8CCC583CCDFEADE74
:10018600E880DB89828A83E493A3F208DFF980CCD6
:1001960088F0EF60010E4E60C388F0ED2402B404CF
:1001A6000050B9F582EB2402B4040050AF23234576
:0601B60082239001167384
:1001BC00BB010689828A83E0225002E722BBFE0241
:0901CC00E32289828A83E4932274
:1001D500BB010CE58229F582E5833AF583E02250DF
:1001E50006E92582F8E622BBFE06E92582F8E22229
:0D01F500E58229F582E5833AF583E4932243
:10020200BB010689828A83F0225002F722BBFE01DB
:02021200F322D5
:10021400F8BB010DE58229F582E5833AF583E8F020
:10022400225006E92582C8F622BBFE05E92582C8CC
:02023400F222B4
:10023600EF8DF0A4A8F0CF8CF0A428CE8DF0A42EDC
:02024600FE2296
:10024800C2D5EC30E709B2D5E4C39DFDE49CFCEED1
:1002580030E715B2D5E4C39FFFE49EFE1203CBC37B
:10026800E49DFDE49CFC80031203CB30D507C3E476
:060278009FFFE49EFE2240
:10027E00C5F0F8A3E028F0C5F0F8E582158270020B
:06028E001583E038F022A8
:10029400A3F8E0C5F025F0F0E5821582700215831D
:0602A400E0C838F0E8227A
:0C02AA00A42582F582E5F03583F583225F
:10046600E5082454F582E43400F583E0050822907B
:100476000051300703900054E475F0011204200285
:1004860001BC2000E97F2ED2008018EF540F249083
:10049600D43440D4FF30040BEF24BFB41A00500309
:1004A6002461FFE50960021509050CE50C700205DB
:1004B6000B30070E900051E475F001120420EF0294
:1004C600020202218D7403D2078003E4C207F508F5
:1004D600900051120437E4F509F50BF50CE50960B7
:1004E600077F201204A980F5750AFFC201C200C267
:1004F60002C203C205C206C208120475FF700D309F
:1005060007057F001204BAAF0CAE0B22B4255FC2FA
:10051600D5C204120475FF24D0B40A00501A75F02F
:100526000A780930D50508B6FF0106C6A426F620C6
:10053600D5047002D20380D924CFB41A00EF500438
:10054600C2E5D2040206BBD20180C6D20080C0D268
:100556000280BCD2D580BAD20580B47F201204A90D
:100566002002077401B5090040F1120466FF120467
:10057600A90204E3D208D2068095120466FB12048F
:1005860066FA120466F94A4B7006798C7A077BFF85
:1005960020022EE509602A7E008E827583001201F4
:1005A600D560060EEE650A70F0C2D5EBC0E0EAC073
:1005B600E0E9C0E0EE120702D0E0F9D0E0FAD0E0C0
:1005C600FB1201BCFF60AAEBC0E0EAC0E0E9C0E0B4
:1005D6001204A9D0E02401F9D0E03400FAD0E0FBFF
:1005E600E50A0460DCD50AD980877BFF7A0679FEA6
:1005F600D202809C791080027908C206C20880085F
:10060600D2D5790A8004790AC2D5E50A047002F5C2
:100616000AE4FAFDFEFF120466FC7B0820011312B1
:100626000466FD7B1030000A120466FE120466FFA3
:100636007B20EC3382D592D55013C3E43000069F5D
:10064600FFE49EFEE42001039DFDE49CFCE4CBF860
:10065600C201EC700CCFCECDCCE824F8F870F38054
:1006660017C3EF33FFEE33FEED33FDEC33FCEB3314
:10067600FB994002FB0FD8E9EB300105F8D0E0C446
:1006860048B201C0E00AEC4D4E4F78207B0070C2A4
:10069600EAB50A0040BCC0E0120704D0F0D0E02062
:1006A6000104C4C0E0C4B201C0F0120492D0F0D577
:1006B600F0EB0204E312044005805305FA58055195
:1006C6004C054D4205FE4F0606440606490566439F
:0806D600060C5505F04605F085
:1006DE004505F04707AC5005552D05592E057C2BC9
:1006EE00055D23057A2007952A0515480000057437
:1006FE003F3F3F00790AA2D5200314300509B910F7
:10070E00020404B9080104A2D520060250010420F7
:10071E0002689202B509005034C0E07F2030031900
:10072E007F30A20272067205500F12075BC202C220
:10073E0006C205C2087F30800F300503E9C0E01203
:10074E0004A9300503D0E0F9D0E0B509CC30051787
:10075E007F30B9100C1204A97F583004077F7880BF
:10076E0003B908031204A93002057F2D0204A97FE4
:10077E00202008F87F2B2006F322920280CF286ECD
:10078E00756C6C2900D2011204663001F8C2017832
:10079E000930D50108F60205152D504349581204AB
:1007AE00662403B405004001E49007A79312049A4F
:0D07BE00743A12049AD2037509040205FA78
:10187400900054EBF0A3EAF0A3E9F0900057E0FBEA
:10188400A3E0FAA3E0F91201BCFE900054E0FBA32C
:10189400E0FAA3E0F91201BCFF6E702AEF600E902B
:1018A400005A74FFF5F012027E45F070037F0022A7
:1018B400900055E475F00112027E900058E475F032
:1018C4000112027E80B5900054E0FBA3E0FAA3E08D
:1018D400F91201BCFDD3EE6480F8ED6480984003F6
:1018E4007F0122900057E0FBA3E0FAA3E0F9120184
:0718F400BCFFC3ED9FFF22C2
:1002B600E709F60870FA8046E709F20870FA803E08
:1002C60088828C83E709F0A370FA807EE309F6083A
:1002D60070FA8076E309F20870FA806E88828C8361
:1002E600E309F0A370FA806289828A83E0A3F608A4
:1002F60070FA805689828A83E0A3F20870FA804AEF
:1003060080D280FA80C680D4806580F280318010E9
:1003160080A680EA809A80A880DA80E280CA80314E
:1003260089828A83ECFAE493A3C8C582C8CCC583C4
:10033600CCF0A3C8C582C8CCC583CC70E9800D8932
:10034600828A83E493A3F60870F9ECFAA9F0EDFB30
:100356002289828A83ECFAE0A3C8C582C8CCC58309
:10036600CCF0A3C8C582C8CCC583CC70EA80DD8931
:10037600828A83E493A3F20870F980CE88F0ED2494
:1003860002B4040050C4F582EB2402B4040050BA4F
:0903960023234582239003067322
:10000E00E4FFFE1201BC600C0FEF70010E09E970E7
:05001E00F20A80EF2250
:10116C00900003EBF0A3EAF0A3E9F0A3E0FBA3E00B
:10117C00FAA3E0F91201BC7003021218900003E00C
:10118C00FBA3E0FAA3E0F91201BC70030212249055
:10119C000006E0F9A3E0FAA3E0A3C9F0A3EAF0A3E8
:1011AC00E9F0900003A3E0FAA3E0F990000CEBF057
:1011BC00A3EAF0A3E9F0900009E0FBA3E0FAA3E0B6
:1011CC00F91201BCFF602690000CE0FBA3E0FAA32F
:1011DC00E0F91201BC6F701590000A75F001120253
:1011EC007E90000DE475F00112027E80C99000091A
:1011FC00E0FBA3E0FAA3E0F91201BC7002800D90B1
:10120C000004E475F00112027E021188900003E0E4
:0F121C00FBA3E0FAA3E0F9227B007A007900221D
:100FBA00900051EBF0A3EAF0A3E9F0900051E0FBB6
:100FCA00A3E0FAA3E0F91201BCFF122110500C9021
:100FDA000052E475F00112027E80E0D200900051C6
:100FEA00E0FBA3E0FAA3E0F91201BCFF642B600462
:100FFA00EFB42D1D900051E0FBA3E475F00112023D
:10100A0094A9F0FA1201BC642D6003D38001C39243
:10101A0000E4900054F0A3F0900051E0FBA3E0FA42
:10102A00A3E0F91201BCFF1221535042900051E093
:10103A00FBA3E0FAA3E0F91201BCFF3395E0FEEF4F
:10104A0024D0FBEE34FFFA900054E0FEA3E0FF7CCC
:10105A00007D0A120236EF2BFFEE3A900054F0A3FD
:10106A00EFF0900052E475F00112027E80AA30007F
:10107A000A900054E0FEA3E0FF800F900054E0FEC7
:0B108A00A3E0FFC3E49FFFE49EFE22F2
:10039F00EF4E6012EF60010EEDBB010B89828A8375
:1003AF00F0A3DFFCDEFA2289F05007F709DFFCA982
:0C03BF00F022BBFEFCF309DFFCA9F022D9
:1003CB00BC000BBE0029EF8DF084FFADF022E4CC16
:1003DB00F875F008EF2FFFEE33FEEC33FCEE9DECDF
:1003EB00984005FCEE9DFE0FD5F0E9E4CEFD22ED25
:1003FB00F8F5F0EE8420D21CFEADF075F008EF2F6F
:10040B00FFED33FD4007985006D5F0F222C398FD5F
:05041B000FD5F0EA22FC
:10042000F8E0FBA3A3E0F925F0F0E5821582700265
:070430001583E0FA38F02209
:09043700EBF0A3EAF0A3E9F022C6
:10044000D083D082F8E4937012740193700DA3A34B
:1004500093F8740193F5828883E47374029368605F
:06046000EFA3A3A380DF5F
:0F215300EFC394304007EF943A50028001C3224B
:10211000EFC394094005EF940E4004EFB42003D3BD
:042120008001C32255
:00000001FF
