:03000000020CA649
:0C0CA600787FE4F6D8FD758121020CED8A
:0C116F0073797374656D2069736F6B00F9
:1010CC00E4F593F594F592759180F595F596F5B256
:0C10DC00F5B1F5B3F5B475CAFFF5C922F3
:081191007F187E55DEFEDFFC35
:011199002233
:041091007F0A7E0054
:10109500AD07AC06D3ED9400EC64809480400A1251
:0910A5001191ED1D70EE1C80EBB1
:0110AE00221F
:100D32001210CC12101112111F12105375BA80909A
:100D4200FE8074E0F090FE82E4F0D2AF7F0AFE12E1
:100D520010951211041210917BFF7A11796F120013
:100D6200261210AF1211CC1210917F0112000E7FC9
:100D72001012000E7FB47E00121095120D8D90019C
:0B0D82003AEEF0A3EFF012109180DFBA
:03000B00020E766C
:100E7600C0E0C0F0C083C082C0D075D000C000C042
:100E860001C002C003C004C005C006C00712004668
:100E9600D007D006D005D004D003D002D001D000B0
:0B0EA600D0D0D082D083D0F0D0E0325A
:03002300020E2B9F
:100E2B00C0E0C0F0C083C082C0D075D000C000C08D
:0D0E3B0001C002C003C004C005C006C0070E
:100E4800309809C298AF991210728002C2993099ED
:030E580002C2993A
:100E5B00D007D006D005D004D003D002D001D000EB
:0B0E6B00D0D0D082D083D0F0D0E03295
:03004300020EB1F9
:100EB100C0E0C083C082C0D075D000C007E59A30C1
:100EC100E00D539AFEAF9B900172E4F0A3EFF0E5C1
:100ED1009A30E105539AFDC20AD007D0D0D082D012
:040EE10083D0E032A8
:03008B00020F1948
:100F1900C0E0C083C082C0D075D008E5AC30E00D18
:100F290053ACFEAFAD900174E4F0A3EFF0E5AC3043
:100F3900E10553ACFDC20BD0D0D082D083D0E032D2
:03009300020EE575
:100EE500C0E0C083C082C0D075D000C007E58430A3
:100EF500E00D5384FEAF85900176E4F0A3EFF0E5B5
:100F05008430E1055384FDC20CD007D0D0D082D007
:040F150083D0E03273
:05087B004201780001BC
:10111F00438E805389F0758A9A758CA9C28DD2B986
:07112F00D2A9D28CD2AF223D
:10110400759850438E40538EFE53890F758BE87546
:0B1114008DFFC2ABD28ED2ACD2AF2256
:1010110075AC1053ACBF759A50438E0475D78F755C
:10102100D6FD438E1043AF0143AF08D2AF53BAFD93
:01103100229C
:1010530075841043844043D12075D38F75D2FD43EB
:0F106300D1805384DF53847F43AF104384102226
:0A118700C2998F993099FDD2AF2272
:08000300200AFDD20A8F9B22A6
:0811A300200BFDD20B8FAD22E1
:0811AB00200CFDD20C8F8522FF
:10002600900178E07002A3E060121204F1FF600C08
:0D003600121187740129F9E43AFA80EE22D4
:0611BB00AE0712118722AD
:100FEF004053544349535023007265632040535478
:100FFF0043495350232C72657365617274206E6F71
:02100F00770068
:10088000420004000160C8006E000000000000008B
:100890000000000000000000000000000000000058
:1008A0000000000000000000000000000000000048
:1008B0000000000000000000000000000000000038
:1008C0000000000000000000000000000000000028
:1008D0000000000000000000000000000000000018
:1008E0000000000000000000000000000000000008
:1008F00000000000000000000000000000000000F8
:1009000000000000000000000000000000000000E7
:1009100000000000000000000000000000000000D7
:1009200000000000000000000000000000000000C7
:1009300000000000000000000000000000000000B7
:1009400000000000000000000000000000000000A7
:0B0950000042000100004201380000DE
:030020007F01223B
:080B6C007B017A0079067D0689
:0E0B740090014DEBF0A3EAF0A3E9F0A3EDF041
:100B820074FFA3F0A3F0E4A3F0900150E0FF900102
:100B920053E0C39F506390014DE0FBA3E475F00165
:100BA200120537A9F0FA1204F1FF900151E0F0A307
:100BB200E06FF0E4FD900151E0FEA3E0FF30E021A0
:100BC200EEC313FEEF13FF900151EEF0A3EFF0EE30
:100BD20064A0FEEF6401FF900151EEF0A3EFF080FC
:100BE2000B900151E0C313F0A3E013F00DEDB40834
:100BF200C4900153E004F08090900151E0FCA3E026
:070C0200FDECFBEDFEEBFF32
:010C090022C8
:100F4900E4900038F0900000F0900137F0900039FB
:100F5900F0900136F0FF7E3290003AE4F0A3DEFC17
:0C0F6900E4FF7E32900006E4F0A3DEFC02
:010F75002259
:10107200900000E0243AF582E43400F583EFF0902A
:0F1082000000E004F090006CE4F0A37402F02290
:100FA00090014774FFF0A3740FF0A374EFF07B017E
:100FB0007A00793A12095CE94A600C7BFF7A0F7972
:070FC000F812010175C76082
:010FC7002207
:10004600D390006DE0940090006CE0648094804052
:100056001AA3E024FFF090006CE034FFF0E0700299
:10006600A3E07007900138F0A304F0900138E07027
:1000760004A3E06401700D120FA0121136E4900182
:0500860038F0A3F02298
:0F1136009000397401F0120AC5120F760210AF43
:100AC500900039E064016003020B6B900000E0D3F5
:100AD50094045003020B63E0FF2438F582E43400EC
:100AE500F583E0FE74392FF582E43400F583E0FDEB
:100AF500AF06EFFFED900144CFF0A3EFF07B017A55
:100B050000793A900000E024FEFD120B7490014438
:100B1500E06E7003A3E06F704390003AE0FF900031
:100B250004E07003A3E06F703590003BE024FA60A9
:100B35000F24FC60122407701C9000037403800CC2
:100B450090000374068005900003740AF090013646
:100B55007401F0800C7F01020C0A800280001210E3
:060B6500AFE4900039F03E
:010B6B002267
:100F7600900136E0B40122900003E024FA600D24CB
:100F8600FC600E2407700D1205BB8008120A1B8038
:0A0F960003120736E4900136F02242
:1005BB0090003CE0FEA3E0FDEDFF900145EEF0FC6A
:1005CB00A3EFF090003EE0FEA3E0FBEBFF900147B2
:1005DB00EEF0A3EFF0C3ED9464EC9400400302073C
:1005EB0030900147E0FEA3E0FF900146E02FFD9025
:1005FB000145E03EFCC3ED9464EC9400400302071C
:10060B002CEF9400EE9400500302072C900148E06D
:10061B0025E0FFAE07EE2405900144F0900004A303
:10062B00E0A3F0A37403F0A3EEF0900145E0FFA369
:10063B00E0900149CFF0A3EFF07D037C00900147E0
:10064B00E0FEA3E0FF900146E02FFF900145E03E66
:10065B00FEC390014AE09F900149E09E5064A3E0E5
:10066B0025E0FF900149E033FE746E2FF582740094
:10067B003EF583E0FFAB0574062BF582E43400F501
:10068B0083EFF090014AE025E0FF900149E033FE53
:10069B00746E2FF58274003EF583E0A3E0FF7407C0
:1006AB002BF582E43400F583EFF090014AE004F07F
:1006BB007006900149E004F074022DFDE43CFC024D
:1006CB0006487B017A007906900148E025E0FFEFB0
:1006DB002403FD120B74AD07AC06ECFF900147A38E
:1006EB00E025E0FE2409F582E43400F583EFF0AF5A
:1006FB0005740A2EF582E43400F583EFF090015077
:10070B007401F0A37400F0A37406F0900144E0FFB1
:10071B00900153E4F0A3EFF07B017A007901020D15
:0A072B00DE7F0380027F02120C0A39
:0107350022A1
:100A1B0090003CE0FEA3E0FDAC06A3E0FEA3E0FBF0
:100A2B00C3ED9464EC94004003020ABF900144743C
:100A3B0008F0AA06ED25E0FFEC33FE746E2FF5826D
:100A4B0074003EF583EAF0A3EBF0900004A3E0A35F
:100A5B00F0A37406F0ECA3F0EDA3F025E0FBEC3370
:100A6B00FA746E2BF58274003AF583E090000AF06D
:100A7B00746E2BF58274003AF583E0A3E090000BC3
:100A8B00F0120B6CAD07AC06EC90000CF0EFA3F082
:100A9B009001507401F0A37400F0A37406F0900160
:100AAB0044E0FF900153E4F0A3EFF07B017A00796F
:090ABB0001020DDE7F02120C0A9B
:010AC400220F
:1007360090003CE0FEA3E0FDEDFF900145EEF0FCED
:10074600A3EFF090003EE0FEA3E0FBEBFF90014735
:10075600EEF0A3EFF0C3ED9464EC940040030208BE
:1007660075900147E0FEA3E0FF900145E0FCA3E0A1
:10077600FD2FFBEC3EFAC3EB9464EA9400400302BF
:100786000871EF9400EE940050030208719001493D
:10079600ECF0A3EDF07D077C00900147E0FEA3E0BE
:1007A600FF900146E02FFF900145E03EFEC3900119
:1007B6004AE09F900149E09E504D743A2DF58274AF
:1007C600003CF583E0FE743B2DF582E43400F583AE
:1007D600E0FBEEFA90014AE025E0FF900149E033A4
:1007E600FE746E2FF58274003EF583EAF0A3EBF0FB
:1007F60090014AE004F07006900149E004F07402AA
:100806002DFDE43CFC80929001447408F0900004B5
:10081600A3E0A3F0A3740AF0900145E0FCA3E0FD79
:10082600EC900008F0EDA3F0900147E0FCA3E0FD9A
:10083600EC90000AF0EDA3F0120B6CAD07AC06ECE1
:1008460090000CF0EFA3F09001507401F0A3740037
:10085600F0A37406F0900144E0FF900153E4F0A386
:10086600EFF07B017A007901020DDE7F0380027FC3
:0408760002120C0A54
:01087A00225B
:100C0A00EF24FE602214603E24026003020CA590C9
:100C1A000004A3E0A3F090003BE02480900007F0DA
:100C2A00A37401F0FB8017900004A3E0A3F09000E6
:100C3A003BE02480900007F0A37402F07B017A0065
:100C4A0079067D03801C900004A3E0A3F090003B8A
:100C5A00E02480900007F0A37403F07B017A007906
:100C6A0006FD120B7490014BEEF0A3EFF090014BCE
:100C7A00E0FCA3E0FDEC900009F0EDA3F090015038
:100C8A007401F0A37400F0A37406F0A3E4F0A37453
:0B0C9A0005F07B017A007901120DDEED
:010CA500222C
:1010AF00E4FF7E3290003AE4F0A3DEFCE49000000F
:0C10BF00F0FF7E32900006E4F0A3DEFC9F
:0110CB002202
:0511C100EFC4540FFF14
:0111C6002206
:04008E00EF540FFF1D
:01009200224B
:100FC800EFC39400400CEFD39409500674302FFF00
:100FD8008014EFC3940A400CEFD3940F5006743773
:070FE8002FFF80027FFF22B2
:0B0DDE0090014DEBF0A3EAF0A3E9F058
:100DE900E4900155F0A3F0900153E0FEA3E0FFA3C6
:100DF900E0FCA3E0FDC39FEC9E5026900150E0FB70
:100E0900A3E0FAA3E0F98D828C8312050AFF12117F
:100E190087900156E004F070CE900155E004F0800F
:010E2900C602
:010E2A0022A5
:0811B300000000000000000034
:0411C7007F14DFFEB4
:0111CB002201
:08119A007F577E2ADEFEDFFC18
:0111A200222A
:0F114500D2A4D2A51211C7C2A41211C7C2A522EB
:0C117B00C2A4D2A51211C7D2A40211C751
:0E115400A20092A4D2A51211C7C2A50211C713
:0D116200D2A51211C7A2A4C2A51211C72266
:0210E800AE0751
:1010EA00E4FDEE25E0FE92A4D2A51211C7C2A51214
:0A10FA0011C70DEDB408EB021162FE
:10103200E4FED2A4FDEE25E0FED2A51211C7A2A4C1
:10104200E4334EFEC2A51211C70DEDB408E7AF0698
:01105200227B
:10000E00AC071211457F461210E8AF041210E80239
:02001E00117B54
:100D8D00783C7C017D017BFF7A1179B37E007F0871
:100D9D001204CB1211457F471210E8E4FC121032F9
:100DAD00743C2CF582E43401F583EFF0ECB40304CC
:100DBD00D2008002C2001211540CECB403DF1211E8
:100DCD007B90013CE0FEA3E07C002400FFEC3EFEA6
:010DDD0022F3
:0511CC007F0102000E8E
:100CB200020D32E493A3F8E493A34003F68001F219
:100CC20008DFF48029E493A3F85407240CC8C33343
:100CD200C4540F4420C8834004F456800146F6DF12
:100CE200E4800B010204081020408090087BE47E1F
:100CF200019360BCA3FF543F30E509541FFEE49307
:100D0200A360010ECF54C025E060A840B8E493A3CD
:100D1200FAE493A3F8E493A3C8C582C8CAC583CAF8
:100D2200F0A3C8C582C8CAC583CADFE9DEE780BEB0
:01095B00009B
:1003FB00E709F608DFFA8046E709F208DFFA803EE4
:10040B0088828C83E709F0A3DFFA8032E309F608D0
:10041B00DFFA8078E309F208DFFA807088828C8338
:10042B00E309F0A3DFFA806489828A83E0A3F608EC
:10043B00DFFA805889828A83E0A3F208DFFA804CC6
:10044B0080D280FA80C680D4806980F2803380109D
:10045B0080A680EA809A80A880DA80E280CA803306
:10046B0089828A83ECFAE493A3C8C582C8CCC5837E
:10047B00CCF0A3C8C582C8CCC583CCDFE9DEE7804E
:10048B000D89828A83E493A3F608DFF9ECFAA9F0CD
:10049B00EDFB2289828A83ECFAE0A3C8C582C8CC23
:1004AB00C583CCF0A3C8C582C8CCC583CCDFEADE3C
:1004BB00E880DB89828A83E493A3F208DFF980CC9E
:1004CB0088F0EF60010E4E60C388F0ED2402B40497
:1004DB000050B9F582EB2402B4040050AF2323453E
:0604EB00822390044B7314
:1004F100BB010689828A83E0225002E722BBFE0209
:09050100E32289828A83E493223B
:10050A00BB010CE58229F582E5833AF583E02250A6
:10051A0006E92582F8E622BBFE06E92582F8E222F0
:0D052A00E58229F582E5833AF583E493220A
:10053700A3F8E0C5F025F0F0E58215827002158377
:06054700E0C838F0E822D4
:10009600E5102447F582E43401F583E0051022904B
:1000A6000144300803900147E475F001120575021A
:1000B60004F12001E97F2ED2018018EF540F24901D
:1000C600D43440D4FF30050BEF24BFB41A005003DC
:1000D6002461FFE511600215110514E5147002058F
:1000E6001330080E900144E475F001120575EF0215
:1000F600054D0211BB7403D2088003E4C208F51053
:1001060090014412058CE4F511F513F514E5116020
:10011600077F201200D980F57512FFC202C201C204
:1001260003C204C206C207C2091200A5FF700D3041
:1001360008057F001200EAAF14AE1322B4255FC291
:10014600D5C2051200A5FF24D0B40A00501A75F0D6
:100156000A781130D50508B6FF0106C6A426F62092
:10016600D5047002D20480D924CFB41A00EF50040B
:10017600C2E5D2050202EBD20280C6D20180C0D20D
:100186000380BCD2D580BAD20680B47F201200D9B3
:100196002003077401B5110040F1120096FF12000A
:1001A600D9020113D209D2078095120096FB1200DC
:1001B60096FA120096F94A4B700679BC7A037BFFD1
:1001C60020032EE511602A7E008E827583001205BB
:1001D6000A60060EEE651270F0C2D5EBC0E0EAC00A
:1001E600E0E9C0E0EE120332D0E0F9D0E0FAD0E068
:1001F600FB1204F1FF60AAEBC0E0EAC0E0E9C0E050
:100206001200D9D0E02401F9D0E03400FAD0E0FBA6
:10021600E5120460DCD512D980877BFF7A03792E3C
:10022600D203809C791080027908C207C20980082F
:10023600D2D5790A8004790AC2D5E512047002F58E
:1002460012E4FAFDFEFF120096FC7B082002131250
:100256000096FD7B1030010A120096FE120096FFF2
:100266007B20EC3382D592D55013C3E43001069F30
:10027600FFE49EFEE42002039DFDE49CFCE4CBF833
:10028600C202EC700CCFCECDCCE824F8F870F38027
:1002960017C3EF33FFEE33FEED33FDEC33FCEB33E8
:1002A600FB994002FB0FD8E9EB300205F8D0E0C419
:1002B60048B202C0E00AEC4D4E4F78207B0070C277
:1002C600EAB5120040BCC0E0120334D0F0D0E02002
:1002D6000204C4C0E0C4B202C0F01200C2D0F0D51D
:1002E600F0EB02011312059501B053022A58018161
:1002F6004C017D42022E4F02364402364901964396
:08030600023C550220460220D2
:10030E004502204703DC5001852D01892E01AC2BBF
:10031E00018D2301AA2003C52A014548000001A42E
:10032E003F3F3F00790AA2D5200414300609B910C8
:10033E00020404B9080104A2D520070250010420CA
:10034E0003689203B511005034C0E07F20300419C9
:10035E007F30A20372077206500F12038BC203C2C4
:10036E0007C206C2097F30800F300603E9C0E012D3
:10037E0000D9300603D0E0F9D0E0B511CC30061725
:10038E007F30B9100C1200D97F583005077F788066
:10039E0003B908031200D93003057F2D0200D97F5F
:1003AE00202009F87F2B2007F322920380CF286E9E
:1003BE00756C6C2900D2021200963002F8C20278D7
:1003CE001130D50108F60201452D5043495812004F
:1003DE00962403B405004001E49003D7931200CA9B
:0D03EE00743A1200CAD20475110402022AEA
:10095C00900144EBF0A3EAF0A3E9F0A3E0FBA3E0E1
:10096C00FAA3E0F91204F17003020A08900144E0C2
:10097C00FBA3E0FAA3E0F91204F17003020A14904D
:10098C000147E0F9A3E0FAA3E0A3C9F0A3EAF0A3BE
:10099C00E9F0900144A3E0FAA3E0F990014DEBF0EB
:1009AC00A3EAF0A3E9F090014AE0FBA3E0FAA3E08C
:1009BC00F91204F1FF602690014DE0FBA3E0FAA3CD
:1009CC00E0F91204F16F701590014B75F0011205EE
:1009DC005F90014EE475F00112055F80C990014AE9
:1009EC00E0FBA3E0FAA3E0F91204F17002800D9091
:1009FC000145E475F00112055F020978900144E0AD
:0F0A0C00FBA3E0FAA3E0F9227B007A0079002235
:10054D00BB010689828A83F0225002F722BBFE018D
:02055D00F32287
:10055F00C5F0F8A3E028F0C5F0F8E5821582700227
:06056F001583E038F022C4
:10057500F8E0FBA3A3E0F925F0F0E582158270020F
:070585001583E0FA38F022B3
:09058C00EBF0A3EAF0A3E9F02270
:10059500D083D082F8E4937012740193700DA3A3F5
:1005A50093F8740193F5828883E473740293686009
:0605B500EFA3A3A380DF09
:00000001FF
