:03000000020E6E7F
:0C0E6E00787FE4F6D8FD758121020EB5F6
:100EFA00486F6C64696E675265675B25645D2D5B3C
:100F0A0025645D0073797374656D20696E69742058
:100F1A006F6B0073797374656D20696E6974206FE5
:100F2A006B310073797374656D20696E6974206F13
:100F3A006B33007869756761696461746120626501
:100F4A0067696E00786975676169646174612065B3
:060F5A006E642025640016
:100803006028014300000000000000000000000019
:1008130000000000000000000000000000000000D5
:0C082300000000000000000000000000C9
:10148600E4F593F594F592759180F595F596F5B298
:0C149600F5B1F5B3F5B475CAFFF5C92235
:0D156B00E4F5C7F5C5F5C675C380F5C422CB
:1014A20075C78075F52875C5018FC4EEFF8FC375AA
:0B14B200C65A75C6A500AFC212156B2C
:0114BD00220C
:1000260075C78075F52875C5028FC4EEFF8FC3AFFF
:0D003600058FC275C65A75C6A50002156B70
:10150D0075C78075F52875C5038FC4EEFF8FC3753C
:09151D00C65A75C6A50002156B43
:1014D900E4FFFE12150D90013DE0FD7F011200268B
:0A14E900900140E0FD7F3C02002668
:101526007F017E001214A290013DEFF07F3C121461
:06153600A2900140EFF05D
:01153C00228C
:1014F300121526900140E06406600EE490013DF071
:0A1503009001407406F01214D92282
:10121A0090017BECF0A3EDF0AB07AA06EB25E0FB0F
:10122A00EA33FAAF03FE90017BE0FD120026EB24BD
:0B123A0001FFE43EFEA3E0FD020026E1
:08118800900175E0FEA3E0FFF9
:04119000AD07AC06F5
:10119400ED25E0FDEC33FCAF05FE1214A2AB07EB2A
:1011A4007B00FAED2401FFE43EFE1214A2EB2FFBB8
:0511B400E43AFEAF0368
:0111B9002213
:1006EB00900175E4F0A304F0E4900173F0A3F09093
:1006FB000173E0FEA3E0FFC39414EE64809480507A
:10070B0025EF25E0FFEE33FE746F2FF58274003E6C
:10071B00F583E4F0A3F0900174E004F070D1900144
:10072B0073E004F080C9121188EF647B4E60129065
:10073B000175E0FEA3E0FF7D7B7C0012121A120F05
:10074B0060E4900173F0A3F0900176E004F0700682
:10075B00900175E004F0121188AC06AD079001739F
:10076B00E0FAA3E0FB25E0FFEA33FE746F2FF5827E
:10077B0074003EF583ECF0A3EDF0746F2FF58274EB
:10078B00003EF583E0FEA3E04E604AEB25E0FFEA76
:10079B0033FE746F2FF58274003EF583E0FCA3E00B
:1007AB00F47002ECF4602E7BFF7A0E79FA900173F1
:1007BB00E0FDA3E090017ACDF0A3EDF0746F2FF57F
:1007CB008274003EF583E0FFA3E090017CCFF0A3A1
:1007DB00EFF0120131900174E004F0700690017398
:1007EB00E004F0C3900174E09414900173E0648012
:0707FB009480500302075334
:0108020022D3
:100F6000900179E4F0A304F0E4900177F0A3F0900D
:100F70000177E0FCA3E0FDC39414EC6480948050FE
:100F80003F90017AE004F07006900179E004F0ED02
:100F900025E0FFEC33FE746F2FF58274003EF5837D
:100FA000E0FCA3E0FD900179E0FEA3E0FF12121A3D
:100FB000900178E004F070B7900177E004F080AF22
:010FC000220E
:1010EC00E4FDFCED25E0FFEC33FE746F2FF582740C
:1010FC00003EF583E0FAA3E0FB74432FF582740104
:10110C003EF583EAF0A3EBF00DBD00010CED641489
:03111C004C70D044
:01111F0022AD
:10004600E4FDFCED25E0FFEC33FE746F2FF58274C2
:10005600003EF583E0FAA3E0FB74432FF5827401BA
:100066003EF583E0FEA3E06B7002EE6A60057E005B
:100076007F01220DBD00010CED64144C70C5E4FE39
:01008600FF7A
:010087002256
:100A9D001214861214BE12136F12153D1213B17576
:100AAD00BA8090FE8074E0F090FE82E4F0D2AFD276
:100ABD00B21214691215787F0A7E001212967BFF0E
:100ACD007A0F790E1201311206EB1210EC7BFF7AC0
:100ADD000F791D120131900073E4F0A304F0900022
:100AED00777403F0A37420F01215787BFF7A0F79D9
:100AFD002D120131900139E07004A3E0640170F40E
:100B0D0090013EF0A3F01213EF12000E120046EF0B
:100B1D004E602A7BFF7A0F793D1201311210EC12D3
:100B2D001578120F607BFF7A0F794E90013EE0FF32
:100B3D00A3E090017ACFF0A3EFF0120131E4900120
:060B4D0039F0A3F080AEB8
:10129600AD07AC06E490013EF0A3F0ED25E0FFECCF
:1012A60033FED390013FE09FEE6480F890013EE06C
:0612B60064809840E6226E
:03000B000210A33D
:1010A300C0E0C0F0C083C082C0D075D000C000C013
:1010B30001C002C003C004C005C006C0071211EA84
:1010C30090013FE004F0700690013EE004F0D00789
:1010D300D006D005D004D003D002D001D000D0D0A8
:0910E300D082D083D0F0D0E032BD
:0300230002100EBA
:10100E00C0E0C0F0C083C082C0D075D000C000C0A8
:0D101E0001C002C003C004C005C006C00729
:10102B00309809C298AF991213D08002C2993099A7
:03103B0002C29955
:10103E00D007D006D005D004D003D002D001D00006
:0B104E00D0D0D082D083D0F0D0E032B0
:0300430002112087
:10112000C0E0C083C082C0D075D000C007E59A304F
:10113000E00D539AFEAF9B90016DE4F0A3EFF0E554
:101140009A30E105539AFDC209D007D0D0D082D0A1
:0411500083D0E03236
:03008B000211BAA5
:1011BA00C0E0C083C082C0D075D008E5AC30E00D75
:1011CA0053ACFEAFAD90016FE4F0A3EFF0E5AC30A5
:1011DA00E10553ACFDC20AD0D0D082D083D0E03230
:0300930002115403
:10115400C0E0C083C082C0D075D000C007E5843031
:10116400E00D5384FEAF85900171E4F0A3EFF0E548
:101174008430E1055384FDC20BD007D0D0D082D097
:0411840083D0E03202
:05082F004201B30001CD
:10153D00438E805389F0758A9A758CA9C28DD2B964
:07154D00D2A9D28CD2AF221B
:1014BE00759850438E40538EFE53890F758BE87589
:0B14CE008DFFC2ABD28ED2ACD2AF2299
:10136F0075AC1053ACBF759A50438E0475D78F75FB
:10137F00D6FD438E1043AF0143AF08D2AF53BAFD32
:01138F00223B
:1013B10075841043844043D12075D38F75D2FD438A
:0F13C100D1805384DF53847F43AF1043841022C5
:0A158400C2998F993099FDD2AF2271
:080003002009FDD2098F9B22A8
:08159700200AFDD20A8FAD22EB
:08159F00200BFDD20B8F852209
:10144C009001B3E07002A3E06012120914FF600C6B
:0D145C00121584740129F9E43AFA80EE2299
:06001D00AE07121584225B
:09158E004053544349535023001B
:10083400420004000160C8006F00000000000000D6
:1008440000000000000000000000000000000000A4
:100854000000000000000000000000000000000094
:100864000000000000000000000000000000000084
:100874000000000000000000000000000000000074
:100884000000000000000000000000000000000064
:100894000000000000000000000000000000000054
:1008A4000000000000000000000000000000000044
:1008B4000000000000000000000000000000000034
:1008C4000000000000000000000000000000000024
:1008D4000000000000000000000000000000000014
:1008E4000000000000000000000000000000000004
:1008F40000000000000000000000000000000000F4
:0F090400004200010000420139000041006E0076
:0115AD00221B
:030088007F0122D3
:080CA4007B017A0079067D0650
:0E0CAC0090017CEBF0A3EAF0A3E9F0A3EDF0D9
:100CBA0074FFA3F0A3F0E4A3F090017FE0FF90019A
:100CCA0082E0C39F506390017CE0FBA3E475F001CE
:100CDA0012095AA9F0FA120914FF900180E0F0A350
:100CEA00E06FF0E4FD900180E0FEA3E0FF30E02138
:100CFA00EEC313FEEF13FF900180EEF0A3EFF0EEC8
:100D0A0064A0FEEF6401FF900180EEF0A3EFF08093
:100D1A000B900180E0C313F0A3E013F00DEDB408CB
:100D2A00C4900182E004F08090900180E0FCA3E08E
:070D3A00FDECFBEDFEEBFFF9
:010D4100228F
:10009600E4900038F0900000F0900138F0900039BC
:1000A600F0900137F0FF7E3290003AE4F0A3DEFCD8
:0C00B600E4FF7E32900006E4F0A3DEFCC4
:0100C200221B
:1013D000900000E0243AF582E43400F583EFF090C9
:0F13E0000000E004F090006CE4F0A37402F0222F
:0B1059009001ABEBF0A3EAF0A3E9F07C
:10106400E4FFFE9001AEE0FBA3E0FAA3E0F98F8277
:101074008E8312092DFD9001ABE0FBA3E0FAA3E0FF
:10108400F98F828E8312092D6D6004E4FEFF220F16
:0E109400BF00010EEF64064E70C97E007F01A2
:0110A200222B
:1013EF009001A274FFF0A37415F0A3748EF07B012B
:0E13FF007A00793A1209DEE94A600375C76088
:01140D0022BC
:1011EA00D390006DE0940090006CE064809480409D
:1011FA001EA3E024FFF090006CE034FFF0E07002E0
:10120A00A3E0700B1213EF900139E4F0A304F0226B
:0F000E009000397401F0120BFD121245021469B3
:0115AE00221A
:100BFD00900039E064016003020CA3900000E0D383
:100C0D0094045003020C9BE0FF2438F582E4340079
:100C1D00F583E0FE74392FF582E43400F583E0FDB1
:100C2D00AF06EFFFED900173CFF0A3EFF07B017AEC
:100C3D0000793A900000E024FEFD120CAC90017397
:100C4D00E06E7003A3E06F704390003AE0FF9000F8
:100C5D0004E07003A3E06F703590003BE024FA6070
:100C6D000F24FC60122407701C9000037403800C89
:100C7D0090000374068005900003740AF09001370C
:100C8D007401F0800C7F01020D428002800012146D
:060C9D0069E4900039F04B
:010CA300222E
:10124500900137E0B40122900003E024FA600D24F8
:10125500FC600E2407700D12042B8008120B5380BE
:0A126500031205A6E4900137F02201
:10042B0090003CE0FEA3E0FDEDFF900174EEF0FCCC
:10043B00A3EFF090003EE0FEA3E0FBEBFF90017614
:10044B00EEF0A3EFF0C3ED9414EC9400400302051F
:10045B00A0900176E0FEA3E0FF900175E02FFD90E8
:10046B000174E03EFCC3ED9414EC940040030205D0
:10047B009CEF9400EE9400500302059C900177E0F2
:10048B0025E0FFAE07EE2405900173F0900004A366
:10049B00E0A3F0A37403F0A3EEF0900174E0FFA3CC
:1004AB00E0900178CFF0A3EFF07D037C0090017614
:1004BB00E0FEA3E0FF900175E02FFF900174E03E9A
:1004CB00FEC3900179E09F900178E09E5064A3E019
:1004DB0025E0FF900178E033FE746F2FF5827400F6
:1004EB003EF583E0FFAB0574062BF582E43400F593
:1004FB0083EFF0900179E025E0FF900178E033FE87
:10050B00746F2FF58274003EF583E0A3E0FF740750
:10051B002BF582E43400F583EFF0900179E004F0E1
:10052B007006900178E004F074022DFDE43CFC02AF
:10053B0004B87B017A007906900177E025E0FFEFA4
:10054B002403FD120CACAD07AC06ECFF900176A3B7
:10055B00E025E0FE2409F582E43400F583EFF0AFEB
:10056B0005740A2EF582E43400F583EFF090017FD9
:10057B007401F0A37400F0A37406F0900173E0FF14
:10058B00900182E4F0A3EFF07B017A007901020F76
:0A059B00C17F0380027F02120D42AF
:0105A5002233
:100B530090003CE0FEA3E0FDAC06A3E0FEA3E0FBB7
:100B6300C3ED9414EC94004003020BF790017374EB
:100B730008F0AA06ED25E0FFEC33FE746F2FF58233
:100B830074003EF583EAF0A3EBF0900004A3E0A326
:100B9300F0A37406F0ECA3F0EDA3F025E0FBEC3337
:100BA300FA746F2BF58274003AF583E090000AF033
:100BB300746F2BF58274003AF583E0A3E090000B89
:100BC300F0120CA4AD07AC06EC90000CF0EFA3F010
:100BD30090017F7401F0A37400F0A37406F09001F8
:100BE30073E0FF900182E4F0A3EFF07B017A0079D8
:090BF30001020FC17F02120D4244
:010BFC0022D6
:1005A60090003CE0FEA3E0FDEDFF900174EEF0FC50
:1005B600A3EFF090003EE0FEA3E0FBEBFF90017698
:1005C600EEF0A3EFF0C3ED9414EC940040030206A2
:1005D600E5900176E0FEA3E0FF900174E0FCA3E065
:1005E600FD2FFBEC3EFAC3EB9414EA9400400302A1
:1005F60006E1EF9400EE940050030206E1900178C4
:10060600ECF0A3EDF07D077C00900176E0FEA3E020
:10061600FF900175E02FFF900174E03EFEC390014C
:1006260079E09F900178E09E504D743A2DF58274E2
:10063600003CF583E0FE743B2DF582E43400F5833F
:10064600E0FBEEFA900179E025E0FF900178E033D7
:10065600FE746F2FF58274003EF583EAF0A3EBF08B
:10066600900179E004F07006900178E004F07402DD
:100676002DFDE43CFC80929001737408F090000418
:10068600A3E0A3F0A3740AF0900174E0FCA3E0FDDC
:10069600EC900008F0EDA3F0900176E0FCA3E0FDFD
:1006A600EC90000AF0EDA3F0120CA4AD07AC06EC3A
:1006B60090000CF0EFA3F090017F7401F0A374009A
:1006C600F0A37406F0900173E0FF900182E4F0A3BA
:1006D600EFF07B017A007901020FC17F0380027F70
:0406E60002120D42AD
:0106EA0022ED
:100D4200EF24FE602214603E24026003020DDD9057
:100D52000004A3E0A3F090003BE02480900007F0A1
:100D6200A37401F0FB8017900004A3E0A3F09000AD
:100D72003BE02480900007F0A37402F07B017A002C
:100D820079067D03801C900004A3E0A3F090003B51
:100D9200E02480900007F0A37403F07B017A0079CD
:100DA20006FD120CAC90017AEEF0A3EFF090017AFE
:100DB200E0FCA3E0FDEC900009F0EDA3F090017FD0
:100DC2007401F0A37400F0A37406F0A3E4F0A3741A
:0B0DD20005F07B017A007901120FC1CF
:010DDD0022F3
:10146900E4FF7E3290003AE4F0A3DEFCE490000051
:0C147900F0FF7E32900006E4F0A3DEFCE1
:011485002244
:0515A700EFC4540FFF2A
:0115AC00221C
:04008E00EF540FFF1D
:01009200224B
:10126F00EFC39400400CEFD39409500674302FFF56
:10127F008014EFC3940A400CEFD3940F50067437C9
:07128F002FFF80027FFF2208
:0B0FC10090017CEBF0A3EAF0A3E9F044
:100FCC00E4900184F0A3F0900182E0FEA3E0FFA383
:100FDC00E0FCA3E0FDC39FEC9E502690017FE0FB5C
:100FEC00A3E0FAA3E0F98D828C8312092DFF121570
:100FFC0084900185E004F070CE900184E004F080D0
:01100C00C61D
:01100D0022C0
:10140E00E4FFFED20C90FE817481F0300C10C3EF1D
:0E141E009470EE941750070FBF00010E80ED82
:01142C00229D
:1012BC00E4FDFC90FE86EFF0D20C90FE817482F07F
:1012CC00300C10C3ED9470EC941750070DBD000159
:0312DC000C80ED96
:0112DF0022EC
:100DDE0012140E7FC21212BC120E4F7F601212BC82
:100DEE00120E4F900173E0C4F854F0C8A3E0C4543F
:100DFE000F48FF1212BC120E4F900174E0540FC434
:100E0E00F8540FC868FF1212BC120E4F12142D1296
:100E1E00140E7FC01212BC120E4F7F601212BC1243
:100E2E000E4FEAC4F854F0C8EBC4540F48FF121228
:100E3E00BC120E4FEB540FC4F8540FC868FF1212B9
:010E4E00BCE7
:100E4F00E4FFFED20C90FE817483F0300C10C3EFE0
:0E0E5F009470EE941750070FBF00010E80ED47
:010E6D002262
:1012E000E4FFFED20C90FE817484F0300C10C3EF4A
:1012F0009470EE941750070FBF00010E80ED90FE22
:0313000087E0FF84
:0113030022C7
:10134C00E4FFFE90FE82F0D20C90FE817485F030AA
:10135C000C10C3EF9470EE941750070FBF00010EE2
:02136C0080ED12
:01136E00225C
:10130400E4FFFE90FE8204F0D20C90FE817485F01E
:10131400300C10C3EF9470EE941750070FBF000108
:031324000E80ED4B
:0113270022A3
:10142D00E4FFFED20C90FE817486F0300C10C3EFF9
:0E143D009470EE941750070FBF00010E80ED63
:01144B00227E
:0300C30002139095
:10139000C0E0C083C082C0BA43BA8090FE82E03011
:1013A000E606E054BFF0C20CD0BAD082D083D0E0C1
:0113B000320A
:10155400900073E07002A3E07003D29622EF4E7005
:0715640003D29622C2962279
:101328009001737407F0A374FFF0900077E0FAA3BC
:10133800E0FBFFAE02121554120DDE12142D120D31
:04134800DE02142D80
:0C157800C2B7D2B6121328D2B7C2B622F6
:100E7A00020A9DE493A3F8E493A34003F68001F2E7
:100E8A0008DFF48029E493A3F85407240CC8C33379
:100E9A00C4540F4420C8834004F456800146F6DF48
:100EAA00E4800B0102040810204080900803E47ECD
:100EBA00019360BCA3FF543F30E509541FFEE4933D
:100ECA00A360010ECF54C025E060A840B8E493A304
:100EDA00FAE493A3F8E493A3C8C582C8CAC583CA2F
:100EEA00F0A3C8C582C8CAC583CADFE9DEE780BEE7
:0109130000E3
:10091400BB010689828A83E0225002E722BBFE02E1
:09092400E32289828A83E4932214
:10092D00BB010CE58229F582E5833AF583E022507F
:10093D0006E92582F8E622BBFE06E92582F8E222C9
:0D094D00E58229F582E5833AF583E49322E3
:10095A00A3F8E0C5F025F0F0E58215827002158350
:06096A00E0C838F0E822AD
:1000C600E510247AF582E43401F583E005102290E8
:1000D600017730070390017AE475F001120998025E
:1000E60009142000E97F2ED2008018EF540F2490C7
:1000F600D43440D4FF30040BEF24BFB41A005003AD
:100106002461FFE511600215110514E5147002055E
:100116001330070E900177E475F001120998EF028B
:10012600097002001D7403D2078003E4C207F510AC
:100136009001771209AFE4F511F513F514E5116096
:10014600077F2012010980F57512FFC201C200C2A5
:1001560002C203C205C206C2081200D5FF700D30E6
:1001660007057F0012011AAF14AE1322B4255FC231
:10017600D5C2041200D5FF24D0B40A00501A75F077
:100186000A781130D50508B6FF0106C6A426F62062
:10019600D5047002D20380D924CFB41A00EF5004DC
:1001A600C2E5D20402031BD20180C6D20080C0D2AF
:1001B6000280BCD2D580BAD20580B47F2012010954
:1001C6002002077401B5110040F11200C6FF1201AA
:1001D60009020143D208D20680951200C6FB12001E
:1001E600C6FA1200C6F94A4B700679EC7A037BFF11
:1001F60020022EE511602A7E008E82758300120988
:100206002D60060EEE651270F0C2D5EBC0E0EAC0B6
:10021600E0E9C0E0EE120362D0E0F9D0E0FAD0E007
:10022600FB120914FF60AAEBC0E0EAC0E0E9C0E0F7
:10023600120109D0E02401F9D0E03400FAD0E0FB45
:10024600E5120460DCD512D980877BFF7A03795EDC
:10025600D202809C791080027908C206C208800802
:10026600D2D5790A8004790AC2D5E512047002F55E
:1002760012E4FAFDFEFF1200C6FC7B0820011312F1
:1002860000C6FD7B1030000A1200C6FE1200C6FF33
:100296007B20EC3382D592D55013C3E43000069F01
:1002A600FFE49EFEE42001039DFDE49CFCE4CBF804
:1002B600C201EC700CCFCECDCCE824F8F870F380F8
:1002C60017C3EF33FFEE33FEED33FDEC33FCEB33B8
:1002D600FB994002FB0FD8E9EB300105F8D0E0C4EA
:1002E60048B201C0E00AEC4D4E4F78207B0070C248
:1002F600EAB5120040BCC0E0120364D0F0D0E020A2
:100306000104C4C0E0C4B201C0F01200F2D0F0D5BE
:10031600F0EB0201431209B801E053025A5801B149
:100326004C01AD42025E4F02664402664901C64375
:08033600026C55025046025012
:10033E0045025047040C5001B52D01B92E01DC2B9E
:10034E0001BD2301DA2003F52A017548000001D40E
:10035E003F3F3F00790AA2D5200314300509B9109A
:10036E00020404B9080104A2D5200602500104209B
:10037E0002689202B511005034C0E07F203003199C
:10038E007F30A20272067205500F1203BBC202C268
:10039E0006C205C2087F30800F300503E9C0E012A7
:1003AE000109300503D0E0F9D0E0B511CC300517C6
:1003BE007F30B9100C1201097F583004077F788006
:1003CE0003B908031201093002057F2D0201097FCE
:1003DE00202008F87F2B2006F322920280CF286E71
:1003EE00756C6C2900D2011200C63001F8C201787A
:1003FE001130D50108F60201752D504349581200EF
:10040E00C62403B405004001E4900407931200FAD9
:0D041E00743A1200FAD20375110402025A5A
:1009DE0090019FEBF0A3EAF0A3E9F0A3E0FBA3E004
:1009EE00FAA3E0F91209147003020A8A90019FE03B
:1009FE00FBA3E0FAA3E0F91209147003020A969021
:100A0E0001A2E0F9A3E0FAA3E0A3C9F0A3EAF0A3E0
:100A1E00E9F090019FA3E0FAA3E0F99001A8EBF0B2
:100A2E00A3EAF0A3E9F09001A5E0FBA3E0FAA3E0AE
:100A3E00F9120914FF60269001A8E0FBA3E0FAA3C7
:100A4E00E0F91209146F70159001A675F0011209E4
:100A5E00829001A9E475F00112098280C99001A566
:100A6E00E0FBA3E0FAA3E0F91209147002800D90E6
:100A7E0001A0E475F0011209820209FA90019FE0CB
:0F0A8E00FBA3E0FAA3E0F9227B007A00790022B3
:10097000BB010689828A83F0225002F722BBFE0166
:02098000F32260
:10098200C5F0F8A3E028F0C5F0F8E5821582700200
:060992001583E038F0229D
:10099800F8E0FBA3A3E0F925F0F0E58215827002E8
:0709A8001583E0FA38F0228C
:0909AF00EBF0A3EAF0A3E9F02249
:1009B800D083D082F8E4937012740193700DA3A3CE
:1009C80093F8740193F5828883E4737402936860E2
:0609D800EFA3A3A380DFE2
:00000001FF
