:030000000204AF48
:0C04AF00787FE4F6D8FD7581210204F688
:0E007A007825642025640A00313233343500C5
:10053B0060640000000000000000000000000000EC
:10054B0000000000000000000000000000000000A0
:10055B000000000000000000000000000000000090
:10056B000000000000000000000000000000000080
:10057B000000000000000000000000000000000070
:10058B000000000000000000000000000000000060
:0C059B00000000000000000041006800AB
:1006D90090023DEBF0A3EAF0A3E9F090023DE0FBC4
:1006E900A3E0FAA3E0F91203FBFF600F12000390E5
:0C06F900023EE475F00112041480E022BF
:1007CD00E4F593F594F591F592F595F596F5B1F56A
:0A07DD00B2F5B3F5B4F5C9F5CA2270
:1005AD00EF4E7004A2A48058EF64014E7004A2A512
:1005BD00804EEF64024E7004A2A68044EF64034E99
:1005CD007004A2A7803AEF64044E7004A2C5803077
:1005DD00EF64054E7004A2C68026EF64064E7004CB
:1005ED00A282801CEF64074E7004A2838012EF6418
:1005FD00084E7004A2848008EF64094E7005A2CAEB
:04060D00FE33FF2297
:10061100E4900231F0A3F0900231E0FEA3E0FFC3C9
:10062100940AEE64809480504A1205AD900211EE56
:10063100F0A3EFF090020C74FFF0A37400F0A37428
:100641007AF0900231E0FFA3E090020FCFF0A3EF28
:10065100F07B017A0279331200FB7B017A02793354
:10066100120026900232E004F070AC900231E004F6
:03067100F080A472
:010674002263
:10077300D3EF9400EE6480948040147DDC7C00ED24
:0F0783001D70011CED4C70F7EF1F70E41E80E13C
:010792002244
:10072C001207CD1207521207E71207B21207937F76
:10073C00647E001207737BFF7A0079821200267F99
:06074C006112080880E9BB
:03000B0002008868
:010088003245
:06001D00900245EFF02205
:0300230002000ECA
:0E000E00309804C2988002C299309902C299BB
:01001C0032B1
:0300430002004672
:10004600C0E0C083C082C0D075D000C007E59A303A
:10005600E00D539AFEAF9B900073E4F0A3EFF0E53A
:100066009A30E105539AFDC209D007D0D0D082D08C
:0400760083D0E03221
:03008B000206A9C1
:1006A900C0E0C083C082C0D075D008E5AC30E00D91
:1006B90053ACFEAFAD900075E4F0A3EFF0E5AC30BC
:1006C900E10553ACFDC20AD0D0D082D083D0E0324C
:03009300020675ED
:10067500C0E0C083C082C0D075D000C007E584301B
:10068500E00D5384FEAF85900077E4F0A3EFF0E52D
:100695008430E1055384FDC20BD007D0D0D082D081
:0406A50083D0E032EC
:0505A7004202430001C7
:1007E700438E805389F0758A9A758CA9C28DD2B9C8
:0707F700D2A9D28CD2AF227F
:1007B200759850438E40538EFE53890F758B8F75FB
:0B07C2008DFDC2ABD28ED2ACD2AF22B4
:1007520075AC1053ACBF759A50438E0475D78F7524
:10076200D6FD438E1043AF0143AF08D2AF53BAFD5B
:010772002264
:1007930075841043844043D12075D38F75D2FD43B4
:0F07A300D1805384DF53847F43AF1043841022EF
:0907FE00C2998F993099FDD2AF28
:0108070022CE
:080003002009FDD2098F9B22A8
:08080800200AFDD20A8FAD2287
:08081000200BFDD20B8F8522A5
:10002600900243E07002A3E060121203FBFF600C33
:0D0036001207FE740129F9E43AFA80EE2267
:1004BB0002072CE493A3F8E493A34003F68001F224
:1004CB0008DFF48029E493A3F85407240CC8C33342
:1004DB00C4540F4420C8834004F456800146F6DF11
:1004EB00E4800B010204081020408090053BE47E61
:1004FB00019360BCA3FF543F30E509541FFEE49306
:10050B00A360010ECF54C025E060A840B8E493A3CC
:10051B00FAE493A3F8E493A3C8C582C8CAC583CAF7
:10052B00F0A3C8C582C8CAC583CADFE9DEE780BEAF
:0105AC00004E
:1003FB00BB010689828A83E0225002E722BBFE0200
:09040B00E32289828A83E4932232
:10041400C5F0F8A3E028F0C5F0F8E5821582700273
:060424001583E038F02210
:10009600E510240CF582E43402F583E00510229085
:1000A600020930070390020CE475F001120469029C
:1000B60003FB2000E97F2ED2008018EF540F249016
:1000C600D43440D4FF30040BEF24BFB41A005003DD
:1000D6002461FFE511600215110514E5147002058F
:1000E6001330070E900209E475F001120469EF025D
:1000F60004570207057403D2078003E4C207F5100C
:10010600900209120480E4F511F513F514E5116067
:10011600077F201200D980F57512FFC201C200C206
:1001260002C203C205C206C2081200A5FF700D3046
:1001360007057F001200EAAF14AE1322B4255FC292
:10014600D5C2041200A5FF24D0B40A00501A75F0D7
:100156000A781130D50508B6FF0106C6A426F62092
:10016600D5047002D20380D924CFB41A00EF50040C
:10017600C2E5D2040202EBD20180C6D20080C0D210
:100186000280BCD2D580BAD20580B47F201200D9B5
:100196002002077401B5110040F1120096FF12000B
:1001A600D9020113D208D2068095120096FB1200DE
:1001B60096FA120096F94A4B700679BC7A037BFFD1
:1001C60020022EE511602A7E008E827583001204BD
:1001D6002A60060EEE651270F0C2D5EBC0E0EAC0EA
:1001E600E0E9C0E0EE120332D0E0F9D0E0FAD0E068
:1001F600FB1203FBFF60AAEBC0E0EAC0E0E9C0E047
:100206001200D9D0E02401F9D0E03400FAD0E0FBA6
:10021600E5120460DCD512D980877BFF7A03792E3C
:10022600D202809C791080027908C206C208800832
:10023600D2D5790A8004790AC2D5E512047002F58E
:1002460012E4FAFDFEFF120096FC7B082001131251
:100256000096FD7B1030000A120096FE120096FFF3
:100266007B20EC3382D592D55013C3E43000069F31
:10027600FFE49EFEE42001039DFDE49CFCE4CBF834
:10028600C201EC700CCFCECDCCE824F8F870F38028
:1002960017C3EF33FFEE33FEED33FDEC33FCEB33E8
:1002A600FB994002FB0FD8E9EB300105F8D0E0C41A
:1002B60048B201C0E00AEC4D4E4F78207B0070C278
:1002C600EAB5120040BCC0E0120334D0F0D0E02002
:1002D6000104C4C0E0C4B201C0F01200C2D0F0D51F
:1002E600F0EB02011312048901B053022A5801816E
:1002F6004C017D42022E4F02364402364901964396
:08030600023C550220460220D2
:10030E004502204703DC5001852D01892E01AC2BBF
:10031E00018D2301AA2003C52A014548000001A42E
:10032E003F3F3F00790AA2D5200314300509B910CA
:10033E00020404B9080104A2D520060250010420CB
:10034E0002689202B511005034C0E07F20300319CC
:10035E007F30A20272067205500F12038BC202C2C8
:10036E0006C205C2087F30800F300503E9C0E012D7
:10037E0000D9300503D0E0F9D0E0B511CC30051727
:10038E007F30B9100C1200D97F583004077F788067
:10039E0003B908031200D93002057F2D0200D97F60
:1003AE00202008F87F2B2006F322920280CF286EA1
:1003BE00756C6C2900D2011200963001F8C20178DA
:1003CE001130D50108F60201452D5043495812004F
:1003DE00962403B405004001E49003D7931200CA9B
:0D03EE00743A1200CAD20375110402022AEB
:10042A00BB010CE58229F582E5833AF583E0225087
:10043A0006E92582F8E622BBFE06E92582F8E222D1
:0D044A00E58229F582E5833AF583E49322EB
:10045700BB010689828A83F0225002F722BBFE0184
:02046700F3227E
:10046900F8E0FBA3A3E0F925F0F0E582158270021C
:070479001583E0FA38F022C0
:09048000EBF0A3EAF0A3E9F0227D
:10048900D083D082F8E4937012740193700DA3A302
:1004990093F8740193F5828883E473740293686016
:0604A900EFA3A3A380DF16
:10070500EFB40A07740D120710740A309811A899EE
:10071500B8130CC2983098FDA899C298B811F63054
:0707250099FDC299F599222C
:00000001FF
