:03000000020E0FDE
:0C0E0F00787FE4F6D8FD758123020E56B2
:10108C0073797374656D2069736F6B0040535443AF
:10109C0049535023007265632040535443495350C5
:0E10AC00232C72657365617274206E6F77007D
:10089D00606401C1000000000000000000000000C5
:1008AD00000000000000000000000000000000003B
:1008BD00000000000000000000000000000000002B
:1008CD00000000000000000000000000000000001B
:1008DD00000000000000000000000000000000000B
:1008ED0000000000000000000000000000000000FB
:0D08FD0000000000000000004201BB0000F0
:10128700E4F593F594F592759180F595F596F5B299
:0C129700F5B1F5B3F5B475CAFFF5C92236
:080081007F187E55DEFEDFFC56
:010089002254
:04124C007F027E009F
:10125000AD07AC06D3ED9400EC64809480400A1294
:091260000081ED1D70EE1C80EB15
:011269002262
:100F3B001212871211CC1212F512120ED2AF12121C
:100F4B004C1212BF7BFF7A10798C1200267BFF7A32
:100F5B0010798C12130C12124C12126A12124C12C0
:100F6B0013AA900138E07004A3E06401700A121315
:0D0F7B00B2E4900138F0A3F012124C80E5B2
:03000B00020046AA
:10004600C0E0C0F0C083C082C0D075D000C000C080
:1000560001C002C003C004C005C006C00712105686
:10006600D007D006D005D004D003D002D001D000EE
:0B007600D0D0D082D083D0F0D0E03298
:1011AA0090019674FFF0A37410F0A37498F0120AD9
:1011BA00D4E94A600C7BFF7A1079A112010175C744
:0111CA0060C4
:0111CB002201
:101020009001BBE475F001120537FC74C125F0F5A1
:101030008274013CF583EFF0D39001BCE0945090B2
:1010400001BBE0648094804004E4F0A3F07B017A6B
:061050000179C10211AAA2
:03002300020FD5F4
:100FD500C0E0C0F0C083C082C0D075D000C000C0E2
:0D0FE50001C002C003C004C005C006C00763
:100FF200309809C298AF991210208002C299309994
:0310020002C2998E
:10100500D007D006D005D004D003D002D001D0003F
:0B101500D0D0D082D083D0F0D0E032E9
:0300430002116047
:10116000C0E0C083C082E59A30E009539AFE900146
:10117000BEE59BF0E59A30E105539AFDC21BD08293
:05118000D083D0E03235
:03008B00021185DA
:10118500C0E0C083C082E5AC30E00953ACFE9001FD
:10119500BFE5ADF0E5AC30E10553ACFDC21CD08236
:0511A500D083D0E03210
:03009300020EEC6E
:100EEC00C0E0C0F0C083C082C0D075D000C000C0CC
:0D0EFC0001C002C003C004C005C006C0074D
:100F0900E58430E0085384FEAF8512122DE5843064
:070F1900E1055384FDC21D38
:100F2000D007D006D005D004D003D002D001D00025
:0B0F3000D0D0D082D083D0F0D0E032CF
:05090A0042022D000176
:1012F500438E805389F0758A9A758CA9C28DD2B9AF
:07130500D2A9D28CD2AF2265
:1012BF00759850438E40538EFE53890F758BCC75A6
:0B12CF008DFFC2ABD28ED2ACD2AF229A
:1011CC0075AC1053ACBF759A50438E0475D78F75A0
:1011DC00D6FD438E1043AF0143AF08D2AF53BAFDD7
:0111EC0022E0
:10120E0075841043844043D12075D3CC75D2FF43EF
:0F121E00D1805384DF53847F43AF104384102269
:1012DA00C2998F99209911E4FFFE20990B0FBF0044
:0A12EA00010EBE07F5BFD0F2D2AF2F
:0112F40022D7
:08000300201BFDD21B8F9B2284
:08137F00201CFDD21C8FAD22E1
:10000E001204F1FF600C12137F740129F9E43AFA1D
:03001E0080EE224F
:08138700201DFDD21D8F8522FF
:10130C001204F1FF600C121387740129F9E43AFA04
:03131C0080EE223E
:1000260090022DE07002A3E060121204F1FF600C52
:0D0036001212DA740129F9E43AFA80EE2280
:08138F00AD071212DAAF0522CE
:100D770040535443495350230072656320405354F2
:100D870043495350232C72657365617274206E6FEB
:100D970077006A6973686F756F6B6A697375616EDF
:100DA700004D6F646275735F436D64202562642034
:100DB700256264004D6F646275735F4352435F52EF
:100DC7006376206F6B20256264004D6F64627573D4
:100DD7005F57726974654D756C7469706C6552659F
:100DE70067206F6B202562640053746172744164DD
:100DF70064726573735F526567202564204E756D55
:080E07005F52656720256400BD
:10090F00420004000160C8006E00000000000000FB
:10091F0000000000000000000000000000000000C8
:10092F0000000000000000000000000000000000B8
:10093F0000000000000000000000000000000000A8
:10094F000000000000000000000000000000000098
:10095F000000000000000000000000000000000088
:10096F000000000000000000000000000000000078
:10097F000000000000000000000000000000000068
:10098F000000000000000000000000000000000058
:10099F000000000000000000000000000000000048
:1009AF000000000000000000000000000000000038
:1009BF000000000000000000000000000000000028
:1009CF000000000000000000000000000000000018
:0B09DF0000420001000042013800004F
:0313AF007F012299
:080C3D007B017A0079067D06B7
:0E0C4500900145EBF0A3EAF0A3E9F0A3EDF077
:100C530074FFA3F0A3F0E4A3F0900148E0FF900138
:100C63004BE0C39F5063900145E0FBA3E475F001A3
:100C7300120537A9F0FA1204F1FF900149E0F0A33D
:100C8300E06FF0E4FD900149E0FEA3E0FF30E021D6
:100C9300EEC313FEEF13FF900149EEF0A3EFF0EE66
:100CA30064A0FEEF6401FF900149EEF0A3EFF08032
:100CB3000B900149E0C313F0A3E013F00DEDB4086A
:100CC300C490014BE004F08090900149E0FCA3E064
:070CD300FDECFBEDFEEBFF61
:010CDA0022F7
:1010BA00E4900038F0900000F0900137F090003989
:1010CA00F0900136F0FF7E3290003AE4F0A3DEFCA5
:0C10DA00E4FF7E32900006E4F0A3DEFC90
:0110E60022E7
:10122D00900000E0243AF582E43400F583EFF0906D
:0F123D000000E004F090006CE4F0A37402F022D3
:1011110090019674FFF0A3740DF0A37477F07B0136
:101121007A00793A120AD4E94A600C7BFF7A0D7988
:071131008012010175C76087
:011138002294
:0313B200021331F2
:10105600D390006DE0940090006CE0648094804032
:1010660024A3E024FFF090006CE034FFF0E070026F
:10107600A3E070117BFF7A0D799912010190013876
:06108600E4F0A304F022D7
:0F1331009000397401F01209EB1210E702126AF2
:1009EB007BFF7A0D79A8900000E0900196F09000C3
:1009FB003BE0900197F0120101900039E064016037
:100A0B0003020AD3900000E0D394045003020ACBF4
:100A1B00E0FF2438F582E43400F583E0FE74392FCF
:100A2B00F582E43400F583E0FDAF06EFFFED9001B6
:100A3B003CCFF0A3EFF07B017A00793A900000E015
:100A4B0024FEFD120C4590013CE06E7003A3E06F99
:100A5B00706C7BFF7A0D79BB900000E0900196F0F3
:100A6B0012010190003AE0FF900004E07003A3E054
:100A7B006F704D90003BE024FA600F24FC6019244A
:100A8B00077034900003740380059000037406F024
:100A9B009001367401F0802B900003740AF09001E2
:100AAB00367401F07BFF7A0D79D1900000E0900154
:100ABB0096F0120101800C7F01020CDB800280009A
:080ACB0012126AE4900039F0F8
:010AD3002200
:1010E700900136E0B40122900003E024FA600D2459
:1010F700FC600E2407700D1205BB8008120B93804D
:0A11070003120736E4900136F022CF
:1005BB0090003CE0FEA3E0FDEDFF90013DEEF0FC72
:1005CB00A3EFF090003EE0FEA3E0FBEBFF90013FBA
:1005DB00EEF0A3EFF0C3ED9464EC9400400302073C
:1005EB003090013FE0FEA3E0FF90013EE02FFD9035
:1005FB00013DE03EFCC3ED9464EC94004003020724
:10060B002CEF9400EE9400500302072C900140E075
:10061B0025E0FFAE07EE240590013CF0900004A30B
:10062B00E0A3F0A37403F0A3EEF090013DE0FFA371
:10063B00E0900141CFF0A3EFF07D037C0090013FF0
:10064B00E0FEA3E0FF90013EE02FFF90013DE03E76
:10065B00FEC3900142E09F900141E09E5064A3E0F5
:10066B0025E0FF900141E033FE746E2FF58274009C
:10067B003EF583E0FFAB0574062BF582E43400F501
:10068B0083EFF0900142E025E0FF900141E033FE63
:10069B00746E2FF58274003EF583E0A3E0FF7407C0
:1006AB002BF582E43400F583EFF0900142E004F087
:1006BB007006900141E004F074022DFDE43CFC0255
:1006CB0006487B017A007906900140E025E0FFEFB8
:1006DB002403FD120C45AD07AC06ECFF90013FA3C4
:1006EB00E025E0FE2409F582E43400F583EFF0AF5A
:1006FB0005740A2EF582E43400F583EFF09001487F
:10070B007401F0A37400F0A37406F090013CE0FFB9
:10071B0090014BE4F0A3EFF07B017A007901020F1B
:0A072B00887F0380027F02120CDBBE
:0107350022A1
:100B930090003CE0FEA3E0FDAC06A3E0FEA3E0FB77
:100BA300C3ED9464EC94004003020C3790013C7451
:100BB30008F0AA06ED25E0FFEC33FE746E2FF582F4
:100BC30074003EF583EAF0A3EBF0900004A3E0A3E6
:100BD300F0A37406F0ECA3F0EDA3F025E0FBEC33F7
:100BE300FA746E2BF58274003AF583E090000AF0F4
:100BF300746E2BF58274003AF583E0A3E090000B4A
:100C0300F0120C3DAD07AC06EC90000CF0EFA3F036
:100C13009001487401F0A37400F0A37406F09001EE
:100C23003CE0FF90014BE4F0A3EFF07B017A007905
:090C330001020F887F02120CDBA4
:010C3C002295
:1007360090003CE0FEA3E0FDEDFF90013DEEF0A34E
:10074600EFF090003EE0FEA3E0FDEDFF90013FEEEE
:10075600F0A3EFF07BFF7A0D79F090013DE0FDA369
:10076600E0900196CDF0A3EDF0A3EEF0A3EFF0122A
:10077600010190013DE0FEA3E0FFC39464EE940006
:100786004003020897A3E0FCA3E0FDEF2DFFEE3C3B
:10079600FEC3EF9464EE94004003020893ED9400C8
:1007A600EC9400500302089390013DE0FFA3E09013
:1007B6000141CFF0A3EFF07D077C0090013FE0FE02
:1007C600A3E0FF90013EE02FFF90013DE03EFEC317
:1007D600900142E09F900141E09E504D743A2DF504
:1007E6008274003CF583E0FE743B2DF582E4340010
:1007F600F583E0FBEEFA900142E025E0FF9001412F
:10080600E033FE746E2FF58274003EF583EAF0A3A2
:10081600EBF0900142E004F07006900141E004F034
:1008260074022DFDE43CFC809290013C7408F0902B
:100836000004A3E0A3F0A3740AF090013DE0FCA33A
:10084600E0FDEC900008F0EDA3F090013FE0FCA382
:10085600E0FDEC90000AF0EDA3F0120C3DAD07AC04
:1008660006EC90000CF0EFA3F09001487401F0A3A1
:100876007400F0A37406F090013CE0FF90014BE495
:10088600F0A3EFF07B017A007901020F887F0380E5
:06089600027F02120CDBE0
:01089C002239
:100CDB00EF24FE602214603E24026003020D769026
:100CEB000004A3E0A3F090003BE02480900007F009
:100CFB00A37401F0FB8017900004A3E0A3F0900015
:100D0B003BE02480900007F0A37402F07B017A0093
:100D1B0079067D03801C900004A3E0A3F090003BB8
:100D2B00E02480900007F0A37403F07B017A007934
:100D3B0006FD120C45900143EEF0A3EFF09001433A
:100D4B00E0FCA3E0FDEC900009F0EDA3F09001486E
:100D5B007401F0A37400F0A37406F0A3E4F0A37481
:0B0D6B0005F07B017A007901120F886F
:010D7600225A
:10126A00E4FF7E3290003AE4F0A3DEFCE490000052
:0C127A00F0FF7E32900006E4F0A3DEFCE2
:011286002245
:05139F00EFC4540FFF34
:0113A4002226
:04008E00EF540FFF1D
:01009200224B
:10113900EFC39400400CEFD39409500674302FFF8D
:101149008014EFC3940A400CEFD3940F5006743700
:071159002FFF80027FFF223F
:0B0F8800900145EBF0A3EAF0A3E9F0B4
:100F9300E490014DF0A3F090014BE0FEA3E0FFA32A
:100FA300E0FCA3E0FDC39FEC9E5026900148E0FBCC
:100FB300A3E0FAA3E0F98D828C8312050AFF1213D2
:100FC3008790014EE004F070CE90014DE004F08074
:010FD300C657
:010FD40022FA
:0813970000000000000000004E
:0413A5007F14DFFED4
:0113A9002221
:081376007F577E2ADEFEDFFC3A
:01137E00224C
:0F134000D2A4D2A51213A5C2A41213A5C2A5222E
:0C136A00C2A4D2A51213A5D2A40213A5A0
:0E134F00A21E92A4D2A51213A5C2A50213A538
:0D135D00D2A51213A5A2A4C2A51213A522A9
:0212A300AE0794
:1012A500E4FDEE25E0FE92A4D2A51213A5C2A51277
:0A12B50013A50DEDB408EB02135D64
:1011ED00E4FED2A4FDEE25E0FED2A51213A5A2A425
:1011FD00E4334EFEC2A51213A50DEDB408E7AF06FC
:01120D0022BE
:10131F00AC071213407F461212A3AF041212A3029E
:02132F00136A3F
:100E9B0078257C027D017BFF7A1379977E007F0892
:100EAB001204CB1213407F471212A3E4FC1211ED74
:100EBB0074252CF582E43402F583EFF0ECB40304D3
:100ECB00D21E8002C21E12134F0CECB403DF12139E
:100EDB006A900225E0FEA3E07C002400FFEC3EFEBE
:010EEB0022E4
:0513AA007F0102131F8A
:100E1B00020F3BE493A3F8E493A34003F68001F2A3
:100E2B0008DFF48029E493A3F85407240CC8C333D8
:100E3B00C4540F4420C8834004F456800146F6DFA7
:100E4B00E4800B010204081020408090089DE47E92
:100E5B00019360BCA3FF543F30E509541FFEE4939C
:100E6B00A360010ECF54C025E060A840B8E493A363
:100E7B00FAE493A3F8E493A3C8C582C8CAC583CA8E
:100E8B00F0A3C8C582C8CAC583CADFE9DEE780BE46
:0109EA00000C
:1003FB00E709F608DFFA8046E709F208DFFA803EE4
:10040B0088828C83E709F0A3DFFA8032E309F608D0
:10041B00DFFA8078E309F208DFFA807088828C8338
:10042B00E309F0A3DFFA806489828A83E0A3F608EC
:10043B00DFFA805889828A83E0A3F208DFFA804CC6
:10044B0080D280FA80C680D4806980F2803380109D
:10045B0080A680EA809A80A880DA80E280CA803306
:10046B0089828A83ECFAE493A3C8C582C8CCC5837E
:10047B00CCF0A3C8C582C8CCC583CCDFE9DEE7804E
:10048B000D89828A83E493A3F608DFF9ECFAA9F0CD
:10049B00EDFB2289828A83ECFAE0A3C8C582C8CC23
:1004AB00C583CCF0A3C8C582C8CCC583CCDFEADE3C
:1004BB00E880DB89828A83E493A3F208DFF980CC9E
:1004CB0088F0EF60010E4E60C388F0ED2402B40497
:1004DB000050B9F582EB2402B4040050AF2323453E
:0604EB00822390044B7314
:1004F100BB010689828A83E0225002E722BBFE0209
:09050100E32289828A83E493223B
:10050A00BB010CE58229F582E5833AF583E02250A6
:10051A0006E92582F8E622BBFE06E92582F8E222F0
:0D052A00E58229F582E5833AF583E493220A
:10053700A3F8E0C5F025F0F0E58215827002158377
:06054700E0C838F0E822D4
:10009600E5122496F582E43401F583E005122290F8
:1000A6000193301903900196E475F001120575026B
:1000B60004F12012E97F2ED2128018EF540F2490FB
:1000C600D43440D4FF30160BEF24BFB41A005003CB
:1000D6002461FFE513600215130516E51670020587
:1000E6001530190E900193E475F001120575EF02B3
:1000F600054D02138F7403D2198003E4C219F51259
:1001060090019312058CE4F513F515F516E51360C9
:10011600077F201200D980F57514FFC213C212C2E0
:1001260014C215C217C218C21A1200A5FF700D30EC
:1001360019057F001200EAAF16AE1522B4255FC27C
:10014600D5C2161200A5FF24D0B40A00501A75F0C5
:100156000A781330D50508B6FF0106C6A426F62090
:10016600D5047002D21580D924CFB41A00EF5004FA
:10017600C2E5D2160202EBD21380C6D21280C0D2DA
:100186001480BCD2D580BAD21780B47F201200D991
:100196002014077401B5130040F1120096FF1200F7
:1001A600D9020113D21AD2188095120096FB1200BA
:1001B60096FA120096F94A4B700679BC7A037BFFD1
:1001C60020142EE513602A7E008E827583001205A8
:1001D6000A60060EEE651470F0C2D5EBC0E0EAC008
:1001E600E0E9C0E0EE120332D0E0F9D0E0FAD0E068
:1001F600FB1204F1FF60AAEBC0E0EAC0E0E9C0E050
:100206001200D9D0E02401F9D0E03400FAD0E0FBA6
:10021600E5140460DCD514D980877BFF7A03792E38
:10022600D214809C791080027908C218C21A8008FC
:10023600D2D5790A8004790AC2D5E514047002F58C
:1002460014E4FAFDFEFF120096FC7B08201313123D
:100256000096FD7B1030120A120096FE120096FFE1
:100266007B20EC3382D592D55013C3E43012069F1F
:10027600FFE49EFEE42013039DFDE49CFCE4CBF822
:10028600C213EC700CCFCECDCCE824F8F870F38016
:1002960017C3EF33FFEE33FEED33FDEC33FCEB33E8
:1002A600FB994002FB0FD8E9EB301305F8D0E0C408
:1002B60048B213C0E00AEC4D4E4F78207B0070C266
:1002C600EAB5140040BCC0E0120334D0F0D0E02000
:1002D6001304C4C0E0C4B213C0F01200C2D0F0D5FB
:1002E600F0EB02011312059501B053022A58018161
:1002F6004C017D42022E4F02364402364901964396
:08030600023C550220460220D2
:10030E004502204703DC5001852D01892E01AC2BBF
:10031E00018D2301AA2003C52A014548000001A42E
:10032E003F3F3F00790AA2D5201514301709B910A6
:10033E00020404B9080104A2D520180250010420B9
:10034E0014689214B513005034C0E07F2030151994
:10035E007F30A21472187217500F12038BC214C280
:10036E0018C217C21A7F30800F301703E9C0E0128F
:10037E0000D9301703D0E0F9D0E0B513CC30171701
:10038E007F30B9100C1200D97F583016077F788055
:10039E0003B908031200D93014057F2D0200D97F4E
:1003AE0020201AF87F2B2018F322921480CF286E6B
:1003BE00756C6C2900D2131200963013F8C21378A4
:1003CE001330D50108F60201452D5043495812004D
:1003DE00962403B405004001E49003D7931200CA9B
:0D03EE00743A1200CAD21575130402022AD7
:100AD400900193EBF0A3EAF0A3E9F0A3E0FBA3E019
:100AE400FAA3E0F91204F17003020B80900193E081
:100AF400FBA3E0FAA3E0F91204F17003020B8C905B
:100B04000196E0F9A3E0FAA3E0A3C9F0A3EAF0A3F5
:100B1400E9F0900193A3E0FAA3E0F990019CEBF0D3
:100B2400A3EAF0A3E9F0900199E0FBA3E0FAA3E0C3
:100B3400F91204F1FF602690019CE0FBA3E0FAA304
:100B4400E0F91204F16F701590019A75F001120525
:100B54005F90019DE475F00112055F80C9900199D1
:100B6400E0FBA3E0FAA3E0F91204F17002800D9017
:100B74000194E475F00112055F020AF0900193E01C
:0F0B8400FBA3E0FAA3E0F9227B007A00790022BC
:10054D00BB010689828A83F0225002F722BBFE018D
:02055D00F32287
:10055F00C5F0F8A3E028F0C5F0F8E5821582700227
:06056F001583E038F022C4
:10057500F8E0FBA3A3E0F925F0F0E582158270020F
:070585001583E0FA38F022B3
:09058C00EBF0A3EAF0A3E9F02270
:10059500D083D082F8E4937012740193700DA3A3F5
:1005A50093F8740193F5828883E473740293686009
:0605B500EFA3A3A380DF09
:00000001FF
