:03000000020B618F
:0C0B6100787FE4F6D8FD758121020BA816
:10000E007825642025640A003030303030303030AE
:03001E00300A00A5
:1005760060640000000000000000000000000000B1
:100586000000000000000000000000000000000065
:100596000000000000000000000000000000000055
:1005A6000000000000000000000000000000000045
:1005B6000000000000000000000000000000000035
:1005C6000000000000000000000000000000000025
:0C05D60000000000000000004100680070
:100E490090038DEBF0A3EAF0A3E9F090038DE0FBAA
:100E5900A3E0FAA3E0F912080CFF600F1200039057
:0C0E6900038EE475F00112085280E022B4
:100F8900E4F593F594F591F592F595F596F5B1F5A6
:0A0F9900B2F5B3F5B4F5C9F5CA22AC
:100BED00EF4E7004A2A48058EF64014E7004A2A5CC
:100BFD00804EEF64024E7004A2A68044EF64034E53
:100C0D007004A2A7803AEF64044E7004A2C5803030
:100C1D00EF64054E7004A2C68026EF64064E700484
:100C2D00A282801CEF64074E7004A2838012EF64D1
:100C3D00084E7004A2848008EF64094E7005A2CAA4
:040C4D00FE33FF2251
:100C5100E4900381F0A3F0900381E0FEA3E0FFC3E1
:100C6100940AEE64809480504A120BED90034CEE8E
:100C7100F0A3EFF090034774FFF0A37400F0A374A6
:100C81000EF0900381E0FFA3E090034ACFF0A3EFC1
:100C9100F07B017A0379831200FB7B017A0379836C
:100CA100120026900382E004F070AC900381E0040E
:030CB100F080A42C
:010CB400221D
:080FE3007F187E55DEFEDFFCE5
:010FEB0022E3
:100FA300AD07AC06D3ED9400EC64809480400A1244
:090FB3000FE3ED1D70EE1C80EB54
:010FBC002212
:100D4D00120F89120EF2120FBD120F6E120F137FBA
:100D5D00027E00120FA3900342E07004A3E0640131
:100D6D0070ED7BFF7A007916120026120FD4E490F5
:070D7D000342F0A3F080D84F
:03000B00020046AA
:10004600C0E0C0F0C083C082C0D075D000C000C080
:1000560001C002C003C004C005C006C007120E7569
:10006600D007D006D005D004D003D002D001D000EE
:0B007600D0D0D082D083D0F0D0E03298
:060FFC00900392EFF022C9
:03002300020D02C9
:100D0200C0E0C0F0C083C082C0D075D000C000C0B7
:0D0D120001C002C003C004C005C006C00738
:100D1F00309809C298AF99120F328002C299309958
:030D2F0002C29964
:100D3200D007D006D005D004D003D002D001D00015
:0B0D4200D0D0D082D083D0F0D0E032BF
:03004300020D8427
:100D8400C0E0C083C082C0D075D000C007E59A30EF
:100D9400E00D539AFEAF9B900073E4F0A3EFF0E5EF
:100DA4009A30E105539AFDC209D007D0D0D082D041
:040DB40083D0E032D6
:03008B00020DEC77
:100DEC00C0E0C083C082C0D075D008E5AC30E00D47
:100DFC0053ACFEAFAD900075E4F0A3EFF0E5AC3072
:100E0C00E10553ACFDC20AD0D0D082D083D0E03201
:03009300020DB8A3
:100DB800C0E0C083C082C0D075D000C007E58430D1
:100DC800E00D5384FEAF85900077E4F0A3EFF0E5E3
:100DD8008430E1055384FDC20BD007D0D0D082D037
:040DE80083D0E032A2
:0505E20042039000013E
:100FBD00438E805389F0758A9A758CA9C28DD2B9EA
:070FCD00D2A9D28CD2AF22A1
:100F6E00759850438E40538EFE53890F758B8F7537
:0B0F7E008DFDC2ABD28ED2ACD2AF22F0
:100EF20075AC1053ACBF759A50438E0475D78F757D
:100F0200D6FD438E1043AF0143AF08D2AF53BAFDB3
:010F120022BC
:100F130075841043844043D12075D38F75D2FD432C
:0F0F2300D1805384DF53847F43AF104384102267
:09008100C2998F993099FDD2AFAC
:01008A002253
:080003002009FDD2098F9B22A8
:080FEC00200AFDD20A8FAD229C
:080FF400200BFDD20B8F8522BA
:10002600900390E07002A3E0601212080CFF600CCF
:0D003600120081740129F9E43AFA80EE22EB
:06100200AE07120081227E
:1005E70042020D000160C802780000000000000010
:1005F70000000000000000000000000000000000F4
:1006070000000000000000000000000000000000E3
:1006170000000000000000000000000000000000D3
:1006270000000000000000000000000000000000C3
:1006370000000000000000000000000000000000B3
:1006470000000000000000000000000000000000A3
:100657000000000000000000000000000000000093
:100667000000000000000000000000000000000083
:100677000000000000000000000000000000000073
:100687000000000000000000000000000000000063
:100697000000000000000000000000000000000053
:1006A7000000000000000000000000000000000043
:0F06B7000042020A0000420342000041027700A5
:0100210022BC
:03100E007F01223D
:080A27007B017A02790F7D06C4
:0E0A2F00900375EBF0A3EAF0A3E9F0A3EDF05D
:100A3D0074FFA3F0A3F0E4A3F0900378E0FF90031C
:100A4D007BE0C39F5063900375E0FBA3E475F00159
:100A5D00120868A9F0FA12080CFF900379E0F0A3D0
:100A6D00E06FF0E4FD900379E0FEA3E0FF30E021BC
:100A7D00EEC313FEEF13FF900379EEF0A3EFF0EE4C
:100A8D0064A0FEEF6401FF900379EEF0A3EFF08018
:100A9D000B900379E0C313F0A3E013F00DEDB40850
:100AAD00C490037BE004F08090900379E0FCA3E018
:070ABD00FDECFBEDFEEBFF79
:010AC400220F
:100E1C00E4900241F0900209F0900341F0900242FC
:100E2C00F0900340F0FF7E32900243E4F0A3DEFC2E
:0C0E3C00E4FF7E3290020FE4F0A3DEFC25
:010E48002287
:100F3200900209E02443F582E43402F583EFF09055
:0F0F42000209E004F0900275E4F0A37405F022B8
:100E7500D3900276E09400900275E06480948040FF
:100E85001AA3E024FFF0900275E034FFF0E0700251
:0C0E9500A3E07007900342F0A304F022D9
:0F0FD4009002427401F0120980120EA1020F5117
:0100220022BB
:10098000900242E064016003020A26900209E0D36B
:1009900094045003020A1EE0FF2441F582E434026D
:1009A000F583E0FE74422FF582E43402F583E0FD26
:1009B000AF06EFFFED90036CCFF0A3EFF07B017A71
:1009C000027943900209E024FEFD120A2F90036C85
:1009D000E06E7003A3E06F7043900243E0FF90026B
:1009E0000DE07003A3E06F7035900244E024FA60DC
:1009F0000F24FC60122407701C90020C7403800CFE
:100A000090020C7406800590020C740AF09003406A
:100A10007401F0800C7F01020AC580028000120F71
:060A200051E4900242F0D7
:010A260022AD
:100EA100900340E0B4012290020CE024FA600D248A
:100EB100FC600E2407700D1203FB80081208D68017
:0A0EC100031206C7E4900340F0227C
:1003FB00900245E0FEA3E0FDEDFF90036DEEF0FCF7
:10040B00A3EFF0900247E0FEA3E0FBEBFF90036F3E
:10041B00EEF0A3EFF0C3ED9464EC940040030205FF
:10042B007090036FE0FEA3E0FF90036EE02FFD9052
:10043B00036DE03EFCC3ED9464EC940040030205B5
:10044B006CEF9400EE9400500302056C900370E087
:10045B0025E0FFAE07EE240590036CF090020DA390
:10046B00E0A3F0A37403F0A3EEF090036DE0FFA301
:10047B00E0900371CFF0A3EFF07D037C0090036F4E
:10048B00E0FEA3E0FF90036EE02FFF90036DE03ED4
:10049B00FEC3900372E09F900371E09E5064A3E053
:1004AB0025E0FF900371E033FE74782FF582740220
:1004BB003EF583E0FFAB05740F2BF582E43402F5B8
:1004CB0083EFF0900372E025E0FF900371E033FEC1
:1004DB0074782FF58274023EF583E0A3E0FF74106D
:1004EB002BF582E43402F583EFF0900372E004F015
:1004FB007006900371E004F074022DFDE43CFC02E5
:10050B0004887B017A02790F900370E025E0FFEFFE
:10051B002403FD120A2FAD07AC06ECFF90036FA36B
:10052B00E025E0FE2412F582E43402F583EFF0AF10
:10053B000574132EF582E43402F583EFF090037803
:10054B007401F0A37402F0A3740FF090036CE0FF3E
:10055B0090037BE4F0A3EFF07B017A02790A020CA3
:0A056B00B57F0380027F02120AC56B
:010575002263
:1008D600900245E0FEA3E0FDAC06A3E0FEA3E0FB2C
:1008E600C3ED9464EC9400400302097A90036C749F
:1008F60008F0AA06ED25E0FFEC33FE74782FF582AA
:1009060074023EF583EAF0A3EBF090020DA3E0A398
:10091600F0A37406F0ECA3F0EDA3F025E0FBEC33B6
:10092600FA74782BF58274023AF583E0900213F09C
:1009360074782BF58274023AF583E0A3E0900214F2
:10094600F0120A27AD07AC06EC900215F0EFA3F003
:100956009003787401F0A37402F0A3740FF090036F
:100966006CE0FF90037BE4F0A3EFF07B017A027961
:090976000A020CB57F02120AC549
:01097F002255
:1006C700900245E0FEA3E0FDEDFF90036DEEF0FC28
:1006D700A3EFF0900247E0FEA3E0FBEBFF90036F70
:1006E700EEF0A3EFF0C3ED9464EC9400400302082E
:1006F7000690036FE0FEA3E0FF90036DE0FCA3E02C
:10070700FD2FFBEC3EFAC3EB9464EA94004003022E
:100717000802EF9400EE9400500302080290037160
:10072700ECF0A3EDF07D077C0090036FE0FEA3E003
:10073700FF90036EE02FFF90036DE03EFEC3900332
:1007470072E09F900371E09E504D74432DF58274C3
:10075700023CF583E0FE74442DF582E43402F58310
:10076700E0FBEEFA900372E025E0FF900371E033BF
:10077700FE74782FF58274023EF583EAF0A3EBF05E
:10078700900372E004F07006900371E004F07402C5
:100797002DFDE43CFC809290036C7408F090020DF0
:1007A700A3E0A3F0A3740AF090036DE0FCA3E0FDBF
:1007B700EC900211F0EDA3F090036FE0FCA3E0FDD5
:1007C700EC900213F0EDA3F0120A27AD07AC06EC8C
:1007D700900215F0EFA3F09003787401F0A3740270
:1007E700F0A3740FF090036CE0FF90037BE4F0A399
:1007F700EFF07B017A02790A020CB57F0380027F52
:0408070002120AC50A
:01080B0022CA
:100AC500EF24FE602214603E24026003020B609056
:100AD500020DA3E0A3F0900244E02480900210F000
:100AE500A37401F0FB801790020DA3E0A3F0900220
:100AF50044E02480900210F0A37402F07B017A0296
:100B0500790F7D03801C90020DA3E0A3F0900244B1
:100B1500E02480900210F0A37403F07B017A02793F
:100B25000FFD120A2F900373EEF0A3EFF0900373FD
:100B3500E0FCA3E0FDEC900212F0EDA3F090037849
:100B45007401F0A37402F0A3740FF0A3E4F0A3748E
:0B0B550005F07B017A02790A120CB552
:010B60002272
:100F5100E4FF7E32900243E4F0A3DEFCE490020958
:0C0F6100F0FF7E3290020FE4F0A3DEFCF3
:010F6D002261
:05100800EFC4540FFFCE
:01100D0022C0
:04008E00EF540FFF1D
:01009200224B
:100ECB00EFC39400400CEFD39409500674302FFFFE
:100EDB008014EFC3940A400CEFD3940F5006743771
:070EEB002FFF80027FFF22B0
:0B0CB500900375EBF0A3EAF0A3E9F058
:100CC000E490037DF0A3F090037BE0FEA3E0FFA39C
:100CD000E0FCA3E0FDC39FEC9E5026900378E0FB70
:100CE000A3E0FAA3E0F98D828C83120825FF12009D
:100CF0008190037EE004F070CE90037DE004F080EC
:010D0000C62C
:010D010022CF
:100B6D00020D4DE493A3F8E493A34003F68001F244
:100B7D0008DFF48029E493A3F85407240CC8C33389
:100B8D00C4540F4420C8834004F456800146F6DF58
:100B9D00E4800B0102040810204080900576E47E6D
:100BAD00019360BCA3FF543F30E509541FFEE4934D
:100BBD00A360010ECF54C025E060A840B8E493A314
:100BCD00FAE493A3F8E493A3C8C582C8CAC583CA3F
:100BDD00F0A3C8C582C8CAC583CADFE9DEE780BEF7
:0106C6000033
:10080C00BB010689828A83E0225002E722BBFE02EA
:09081C00E32289828A83E493221D
:10082500BB010CE58229F582E5833AF583E0225088
:1008350006E92582F8E622BBFE06E92582F8E222D2
:0D084500E58229F582E5833AF583E49322EC
:10085200C5F0F8A3E028F0C5F0F8E5821582700231
:060862001583E038F022CE
:10086800A3F8E0C5F025F0F0E58215827002158343
:06087800E0C838F0E822A0
:10009600E5102447F582E43403F583E00510229049
:1000A6000344300703900347E475F00112089002F9
:1000B600080C2000E97F2ED2008018EF540F249000
:1000C600D43440D4FF30040BEF24BFB41A005003DD
:1000D6002461FFE511600215110514E5147002058F
:1000E6001330070E900344E475F001120890EF02F6
:1000F600087E0210027403D2078003E4C207F510DB
:100106009003441208A7E4F511F513F514E5116000
:10011600077F201200D980F57512FFC201C200C206
:1001260002C203C205C206C2081200A5FF700D3046
:1001360007057F001200EAAF14AE1322B4255FC292
:10014600D5C2041200A5FF24D0B40A00501A75F0D7
:100156000A781130D50508B6FF0106C6A426F62092
:10016600D5047002D20380D924CFB41A00EF50040C
:10017600C2E5D2040202EBD20180C6D20080C0D210
:100186000280BCD2D580BAD20580B47F201200D9B5
:100196002002077401B5110040F1120096FF12000B
:1001A600D9020113D208D2068095120096FB1200DE
:1001B60096FA120096F94A4B700679BC7A037BFFD1
:1001C60020022EE511602A7E008E827583001208B9
:1001D6002560060EEE651270F0C2D5EBC0E0EAC0EF
:1001E600E0E9C0E0EE120332D0E0F9D0E0FAD0E068
:1001F600FB12080CFF60AAEBC0E0EAC0E0E9C0E031
:100206001200D9D0E02401F9D0E03400FAD0E0FBA6
:10021600E5120460DCD512D980877BFF7A03792E3C
:10022600D202809C791080027908C206C208800832
:10023600D2D5790A8004790AC2D5E512047002F58E
:1002460012E4FAFDFEFF120096FC7B082001131251
:100256000096FD7B1030000A120096FE120096FFF3
:100266007B20EC3382D592D55013C3E43000069F31
:10027600FFE49EFEE42001039DFDE49CFCE4CBF834
:10028600C201EC700CCFCECDCCE824F8F870F38028
:1002960017C3EF33FFEE33FEED33FDEC33FCEB33E8
:1002A600FB994002FB0FD8E9EB300105F8D0E0C41A
:1002B60048B201C0E00AEC4D4E4F78207B0070C278
:1002C600EAB5120040BCC0E0120334D0F0D0E02002
:1002D6000104C4C0E0C4B201C0F01200C2D0F0D51F
:1002E600F0EB0201131208B001B053022A58018143
:1002F6004C017D42022E4F02364402364901964396
:08030600023C550220460220D2
:10030E004502204703DC5001852D01892E01AC2BBF
:10031E00018D2301AA2003C52A014548000001A42E
:10032E003F3F3F00790AA2D5200314300509B910CA
:10033E00020404B9080104A2D520060250010420CB
:10034E0002689202B511005034C0E07F20300319CC
:10035E007F30A20272067205500F12038BC202C2C8
:10036E0006C205C2087F30800F300503E9C0E012D7
:10037E0000D9300503D0E0F9D0E0B511CC30051727
:10038E007F30B9100C1200D97F583004077F788067
:10039E0003B908031200D93002057F2D0200D97F60
:1003AE00202008F87F2B2006F322920280CF286EA1
:1003BE00756C6C2900D2011200963001F8C20178DA
:1003CE001130D50108F60201452D5043495812004F
:1003DE00962403B405004001E49003D7931200CA9B
:0D03EE00743A1200CAD20375110402022AEB
:10087E00BB010689828A83F0225002F722BBFE0159
:02088E00F32253
:10089000F8E0FBA3A3E0F925F0F0E58215827002F1
:0708A0001583E0FA38F02295
:0908A700EBF0A3EAF0A3E9F02252
:1008B000D083D082F8E4937012740193700DA3A3D7
:1008C00093F8740193F5828883E4737402936860EB
:0608D000EFA3A3A380DFEB
:00000001FF
