:03000000020C7B74
:0C0C7B00787FE4F6D8FD758121020CC2E0
:0B11E800646464206973206F6B0A00D0
:10116700E4F593F594F592759180F595F596F5B2BA
:0C117700F5B1F5B3F5B475CAFFF5C92257
:0811F3007F187E55DEFEDFFCD3
:0111FB0022D1
:04112C007F647E005E
:10113000AD07AC06D3ED9400EC64809480400A12B5
:0911400011F3ED1D70EE1C80EBB3
:011149002283
:10119E00E4F5CAF5C97BFF7A1179E812002663C817
:0A11AE00FF7FE87E0312113080EB92
:100D660012116712104F1211B812109175BA8090B5
:100D7600FE8074E0F090FE82E4F0D2AFD2B2D2965A
:100D86007F0AFE12113012114AC2961211831211F5
:100D96002C12112C12112C12119E7F017E001211A1
:100DA60030900139E07004A3E0640170ED12000E8A
:0C0DB600E4900139F0A3F01211DC80DEA3
:03000B00020046AA
:10004600C0E0C0F0C083C082C0D075D000C000C080
:1000560001C002C003C004C005C006C007120F3F9E
:10006600D007D006D005D004D003D002D001D000EE
:0B007600D0D0D082D083D0F0D0E03298
:03002300020DC209
:100DC200C0E0C0F0C083C082C0D075D000C000C0F7
:0D0DD20001C002C003C004C005C006C00778
:100DDF0030980CC298AF9975C7601210B08002C2DC
:060DEF0099309902C2993F
:100DF500D007D006D005D004D003D002D001D00052
:0B0E0500D0D0D082D083D0F0D0E032FB
:03004300020EA703
:100EA700C0E0C083C082C0D075D000C007E59A30CB
:100EB700E00D539AFEAF9B900179E4F0A3EFF0E5C4
:100EC7009A30E105539AFDC209D007D0D0D082D01D
:040ED70083D0E032B2
:03008B00020F0F52
:100F0F00C0E0C083C082C0D075D008E5AC30E00D22
:100F1F0053ACFEAFAD90017BE4F0A3EFF0E5AC3046
:100F2F00E10553ACFDC20AD0D0D082D083D0E032DD
:03009300020EDB7F
:100EDB00C0E0C083C082C0D075D000C007E58430AD
:100EEB00E00D5384FEAF8590017DE4F0A3EFF0E5B8
:100EFB008430E1055384FDC20BD007D0D0D082D013
:040F0B0083D0E0327D
:0506EB00420185000141
:1011B800438E805389F0758A9A758CA9C28DD2B9ED
:0711C800D2A9D28CD2AF22A4
:10118300759850438E40538EFE53890F758BE875C7
:0B1193008DFFC2ABD28ED2ACD2AF22D7
:10104F0075AC1053ACBF759A50438E0475D78F751E
:10105F00D6FD438E1043AF0143AF08D2AF53BAFD55
:01106F00225E
:1010910075841043844043D12075D38F75D2FD43AD
:0F10A100D1805384DF53847F43AF1043841022E8
:0A008100C2998F993099FDD2AF2289
:080003002009FDD2098F9B22A8
:08120500200AFDD20A8FAD2280
:08120D00200BFDD20B8F85229E
:10002600900185E07002A3E060121207D0FF600C19
:0D003600120081740129F9E43AFA80EE22EB
:06001D00AE071200812273
:0911FC00405354434953502300B1
:1006F000420004000160C8006F000000000000001C
:1007000000000000000000000000000000000000E9
:1007100000000000000000000000000000000000D9
:1007200000000000000000000000000000000000C9
:1007300000000000000000000000000000000000B9
:1007400000000000000000000000000000000000A9
:100750000000000000000000000000000000000099
:100760000000000000000000000000000000000089
:100770000000000000000000000000000000000079
:100780000000000000000000000000000000000069
:100790000000000000000000000000000000000059
:1007A0000000000000000000000000000000000049
:1007B0000000000000000000000000000000000039
:0F07C000004200010000420139000041006E00BC
:01121E0022AD
:03121B007F01222E
:080AAA007B017A0079067D064C
:0E0AB200900144EBF0A3EAF0A3E9F0A3EDF00D
:100AC00074FFA3F0A3F0E4A3F0900147E0FF9001CE
:100AD0004AE0C39F5063900144E0FBA3E475F0013A
:100AE000120816A9F0FA1207D0FF900148E0F0A30F
:100AF000E06FF0E4FD900148E0FEA3E0FF30E0216C
:100B0000EEC313FEEF13FF900148EEF0A3EFF0EEFB
:100B100064A0FEEF6401FF900148EEF0A3EFF080C7
:100B20000B900148E0C313F0A3E013F00DEDB408FF
:100B3000C490014AE004F08090900148E0FCA3E0FA
:070B4000FDECFBEDFEEBFFF5
:010B4700228B
:10009600E4900038F0900000F0900138F0900039BC
:1000A600F0900137F0FF7E3290003AE4F0A3DEFCD8
:0C00B600E4FF7E32900006E4F0A3DEFCC4
:0100C200221B
:1010B000900000E0243AF582E43400F583EFF090EC
:0F10C0000000E004F090006CE4F0A37402F02252
:0B0E5D0090017FEBF0A3EAF0A3E9F0A6
:100E6800E4FFFE900182E0FBA3E0FAA3E0F98F82A1
:100E78008E831207E9FD90017FE0FBA3E0FAA3E06F
:100E8800F98F828E831207E96D6004E4FEFF220F5A
:0E0E9800BF00010EEF64064E70C97E007F01A0
:010EA6002229
:1010CF0090016A74FFF0A37411F0A374FCF07B011C
:0E10DF007A00793A12089AE94A600375C760F0
:0110ED0022E0
:100F3F00D390006DE0940090006CE064809480404A
:100F4F001EA3E024FFF090006CE034FFF0E070028D
:100F5F00A3E0700B1210CF900139E4F0A304F0223C
:0F000E009000397401F0120A03120F6F02114AA9
:01121F0022AC
:100A0300900039E064016003020AA9900000E0D37A
:100A130094045003020AA1E0FF2438F582E4340071
:100A2300F583E0FE74392FF582E43400F583E0FDAD
:100A3300AF06EFFFED90013BCFF0A3EFF07B017A20
:100A430000793A900000E024FEFD120AB290013BC7
:100A5300E06E7003A3E06F704390003AE0FF9000F4
:100A630004E07003A3E06F703590003BE024FA606C
:100A73000F24FC60122407701C9000037403800C85
:100A830090000374068005900003740AF090013708
:100A93007401F0800C7F01020B4880028000121168
:060AA3004AE4900039F066
:010AA900222A
:100F6F00900137E0B40122900003E024FA600D24D1
:100F7F00FC600E2407700D12042B80081209598093
:0A0F8F00031205A6E4900137F022DA
:10042B0090003CE0FEA3E0FDEDFF90013CEEF0FC04
:10043B00A3EFF090003EE0FEA3E0FBEBFF90013E4C
:10044B00EEF0A3EFF0C3ED9464EC940040030205CF
:10045B00A090013EE0FEA3E0FF90013DE02FFD9058
:10046B00013CE03EFCC3ED9464EC940040030205B8
:10047B009CEF9400EE9400500302059C90013FE02A
:10048B0025E0FFAE07EE240590013BF0900004A39E
:10049B00E0A3F0A37403F0A3EEF090013CE0FFA304
:1004AB00E0900140CFF0A3EFF07D037C0090013E84
:1004BB00E0FEA3E0FF90013DE02FFF90013CE03E0A
:1004CB00FEC3900141E09F900140E09E5064A3E089
:1004DB0025E0FF900140E033FE746F2FF58274002E
:1004EB003EF583E0FFAB0574062BF582E43400F593
:1004FB0083EFF0900141E025E0FF900140E033FEF7
:10050B00746F2FF58274003EF583E0A3E0FF740750
:10051B002BF582E43400F583EFF0900141E004F019
:10052B007006900140E004F074022DFDE43CFC02E7
:10053B0004B87B017A00790690013FE025E0FFEFDC
:10054B002403FD120AB2AD07AC06ECFF90013EA3EB
:10055B00E025E0FE2409F582E43400F583EFF0AFEB
:10056B0005740A2EF582E43400F583EFF090014711
:10057B007401F0A37400F0A37406F090013BE0FF4C
:10058B0090014AE4F0A3EFF07B017A007901020EAF
:0A059B00107F0380027F02120B485C
:0105A5002233
:1009590090003CE0FEA3E0FDAC06A3E0FEA3E0FBB3
:10096900C3ED9464EC940040030209FD90013B74CB
:1009790008F0AA06ED25E0FFEC33FE746F2FF5822F
:1009890074003EF583EAF0A3EBF0900004A3E0A322
:10099900F0A37406F0ECA3F0EDA3F025E0FBEC3333
:1009A900FA746F2BF58274003AF583E090000AF02F
:1009B900746F2BF58274003AF583E0A3E090000B85
:1009C900F0120AAAAD07AC06EC90000CF0EFA3F008
:1009D9009001477401F0A37400F0A37406F090012C
:1009E9003BE0FF90014AE4F0A3EFF07B017A007944
:0909F90001020E107F02120B48EE
:010A020022D1
:1005A60090003CE0FEA3E0FDEDFF90013CEEF0FC88
:1005B600A3EFF090003EE0FEA3E0FBEBFF90013ED0
:1005C600EEF0A3EFF0C3ED9464EC94004003020652
:1005D600E590013EE0FEA3E0FF90013CE0FCA3E0D5
:1005E600FD2FFBEC3EFAC3EB9464EA940040030251
:1005F60006E1EF9400EE940050030206E1900140FC
:10060600ECF0A3EDF07D077C0090013EE0FEA3E058
:10061600FF90013DE02FFF90013CE03EFEC39001BC
:1006260041E09F900140E09E504D743A2DF5827452
:10063600003CF583E0FE743B2DF582E43400F5833F
:10064600E0FBEEFA900141E025E0FF900140E03347
:10065600FE746F2FF58274003EF583EAF0A3EBF08B
:10066600900141E004F07006900140E004F074024D
:100676002DFDE43CFC809290013B7408F090000450
:10068600A3E0A3F0A3740AF090013CE0FCA3E0FD14
:10069600EC900008F0EDA3F090013EE0FCA3E0FD35
:1006A600EC90000AF0EDA3F0120AAAAD07AC06EC36
:1006B60090000CF0EFA3F09001477401F0A37400D2
:1006C600F0A37406F090013BE0FF90014AE4F0A32A
:1006D600EFF07B017A007901020E107F0380027F22
:0406E60002120B48A9
:0106EA0022ED
:100B4800EF24FE602214603E24026003020BE3904F
:100B58000004A3E0A3F090003BE02480900007F09D
:100B6800A37401F0FB8017900004A3E0A3F09000A9
:100B78003BE02480900007F0A37402F07B017A0028
:100B880079067D03801C900004A3E0A3F090003B4D
:100B9800E02480900007F0A37403F07B017A0079C9
:100BA80006FD120AB2900142EEF0A3EFF090014266
:100BB800E0FCA3E0FDEC900009F0EDA3F090014704
:100BC8007401F0A37400F0A37406F0A3E4F0A37416
:0B0BD80005F07B017A007901120E107D
:010BE30022EF
:10114A00E4FF7E3290003AE4F0A3DEFCE490000073
:0C115A00F0FF7E32900006E4F0A3DEFC03
:011166002266
:05121500EFC4540FFFBF
:01121A0022B1
:04008E00EF540FFF1D
:01009200224B
:100F9900EFC39400400CEFD39409500674302FFF2F
:100FA9008014EFC3940A400CEFD3940F50067437A2
:070FB9002FFF80027FFF22E1
:0B0E1000900144EBF0A3EAF0A3E9F02E
:100E1B00E490014CF0A3F090014AE0FEA3E0FFA3A5
:100E2B00E0FCA3E0FDC39FEC9E5026900147E0FB46
:100E3B00A3E0FAA3E0F98D828C831207E9FF12007D
:100E4B008190014DE004F070CE90014CE004F080F5
:010E5B00C6D0
:010E5C002273
:0D11CF002A2A2A25642D25642A2A2A0A00CE
:1010EE00E4FFFED20C90FE817481F0300C10C3EF41
:0E10FE009470EE941750070FBF00010E80EDA6
:01110C0022C0
:100FC000E4FDFC90FE86EFF0D20C90FE817482F07E
:100FD000300C10C3ED9470EC941750070DBD000158
:030FE0000C80ED95
:010FE30022EB
:100BE4001210EE7FC2120FC0120C5C7F60120FC095
:100BF400120C5C90013BE0C4F854F0C8A3E0C45468
:100C04000F48FF120FC0120C5C90013CE0540FC45B
:100C1400F8540FC868FF120FC0120C5C12110D12A9
:100C240010EE7FC0120FC0120C5C7F60120FC01256
:100C34000C5C90013DE0C4F854F0C8A3E0C4540F28
:100C440048FF120FC0120C5C90013EE0540FC4F830
:080C5400540FC868FF120FC025
:100C5C00E4FFFED20C90FE817483F0300C10C3EFD5
:0E0C6C009470EE941750070FBF00010E80ED3C
:010C7A002257
:100FE400E4FFFED20C90FE817484F0300C10C3EF49
:100FF4009470EE941750070FBF00010E80ED90FE21
:0310040087E0FF83
:0110070022C6
:10102C00E4FFFE90FE82F0D20C90FE817485F030CD
:10103C000C10C3EF9470EE941750070FBF00010E05
:02104C0080ED35
:01104E00227F
:10100800E4FFFE90FE8204F0D20C90FE817485F01D
:10101800300C10C3EF9470EE941750070FBF000107
:031028000E80ED4A
:01102B0022A2
:10110D00E4FFFED20C90FE817486F0300C10C3EF1C
:0E111D009470EE941750070FBF00010E80ED86
:01112B0022A1
:0300C300021070B8
:10107000C0E0C083C082C0BA43BA8090FE82E03034
:10108000E606E054BFF0C20CD0BAD082D083D0E0E4
:01109000322D
:100D070090013B7407F0A374FFF0A3740BF0A37476
:100D1700B8F0900075E0FFA3E090013BCFF0A3EFA0
:100D2700F0900077E0FFA3E090013DCFF0A3EFF054
:100D37007BFF7A1179CF90013DE0FCA3E0FDECFF4A
:100D4700900142E4F0A3EFF0AF05A3E4F0A3EFF0C6
:0F0D5700120131120BE412110D120BE402110DF7
:0C11DC00C2B7D2B6120D07D2B7C2B622BD
:100C8700020D66E493A3F8E493A34003F68001F210
:100C970008DFF48029E493A3F85407240CC8C3336E
:100CA700C4540F4420C8834004F456800146F6DF3D
:100CB700E4800B01020408102040809006EBE47EDC
:100CC700019360BCA3FF543F30E509541FFEE49332
:100CD700A360010ECF54C025E060A840B8E493A3F9
:100CE700FAE493A3F8E493A3C8C582C8CAC583CA24
:100CF700F0A3C8C582C8CAC583CADFE9DEE780BEDC
:0107CF000029
:1007D000BB010689828A83E0225002E722BBFE0227
:0907E000E32289828A83E493225A
:1007E900BB010CE58229F582E5833AF583E02250C5
:1007F90006E92582F8E622BBFE06E92582F8E2220F
:0D080900E58229F582E5833AF583E4932228
:10081600A3F8E0C5F025F0F0E58215827002158395
:06082600E0C838F0E822F2
:1000C600E5102442F582E43401F583E00510229020
:1000D600013F300703900142E475F0011208540213
:1000E60007D02000E97F2ED2008018EF540F24900D
:1000F600D43440D4FF30040BEF24BFB41A005003AD
:100106002461FFE511600215110514E5147002055E
:100116001330070E90013FE475F001120854EF0208
:10012600082C02001D7403D2078003E4C207F510F1
:1001360090013F12086BE4F511F513F514E5116013
:10014600077F2012010980F57512FFC201C200C2A5
:1001560002C203C205C206C2081200D5FF700D30E6
:1001660007057F0012011AAF14AE1322B4255FC231
:10017600D5C2041200D5FF24D0B40A00501A75F077
:100186000A781130D50508B6FF0106C6A426F62062
:10019600D5047002D20380D924CFB41A00EF5004DC
:1001A600C2E5D20402031BD20180C6D20080C0D2AF
:1001B6000280BCD2D580BAD20580B47F2012010954
:1001C6002002077401B5110040F11200C6FF1201AA
:1001D60009020143D208D20680951200C6FB12001E
:1001E600C6FA1200C6F94A4B700679EC7A037BFF11
:1001F60020022EE511602A7E008E8275830012078A
:10020600E960060EEE651270F0C2D5EBC0E0EAC0FA
:10021600E0E9C0E0EE120362D0E0F9D0E0FAD0E007
:10022600FB1207D0FF60AAEBC0E0EAC0E0E9C0E03D
:10023600120109D0E02401F9D0E03400FAD0E0FB45
:10024600E5120460DCD512D980877BFF7A03795EDC
:10025600D202809C791080027908C206C208800802
:10026600D2D5790A8004790AC2D5E512047002F55E
:1002760012E4FAFDFEFF1200C6FC7B0820011312F1
:1002860000C6FD7B1030000A1200C6FE1200C6FF33
:100296007B20EC3382D592D55013C3E43000069F01
:1002A600FFE49EFEE42001039DFDE49CFCE4CBF804
:1002B600C201EC700CCFCECDCCE824F8F870F380F8
:1002C60017C3EF33FFEE33FEED33FDEC33FCEB33B8
:1002D600FB994002FB0FD8E9EB300105F8D0E0C4EA
:1002E60048B201C0E00AEC4D4E4F78207B0070C248
:1002F600EAB5120040BCC0E0120364D0F0D0E020A2
:100306000104C4C0E0C4B201C0F01200F2D0F0D5BE
:10031600F0EB02014312087401E053025A5801B18E
:100326004C01AD42025E4F02664402664901C64375
:08033600026C55025046025012
:10033E0045025047040C5001B52D01B92E01DC2B9E
:10034E0001BD2301DA2003F52A017548000001D40E
:10035E003F3F3F00790AA2D5200314300509B9109A
:10036E00020404B9080104A2D5200602500104209B
:10037E0002689202B511005034C0E07F203003199C
:10038E007F30A20272067205500F1203BBC202C268
:10039E0006C205C2087F30800F300503E9C0E012A7
:1003AE000109300503D0E0F9D0E0B511CC300517C6
:1003BE007F30B9100C1201097F583004077F788006
:1003CE0003B908031201093002057F2D0201097FCE
:1003DE00202008F87F2B2006F322920280CF286E71
:1003EE00756C6C2900D2011200C63001F8C201787A
:1003FE001130D50108F60201752D504349581200EF
:10040E00C62403B405004001E4900407931200FAD9
:0D041E00743A1200FAD20375110402025A5A
:10089A00900167EBF0A3EAF0A3E9F0A3E0FBA3E081
:1008AA00FAA3E0F91207D07003020946900167E043
:1008BA00FBA3E0FAA3E0F91207D0700302095290F1
:1008CA00016AE0F9A3E0FAA3E0A3C9F0A3EAF0A35E
:1008DA00E9F0900167A3E0FAA3E0F9900170EBF068
:1008EA00A3EAF0A3E9F090016DE0FBA3E0FAA3E02C
:1008FA00F91207D0FF6026900170E0FBA3E0FAA38B
:10090A00E0F91207D06F701590016E75F0011208A8
:10091A003E900171E475F00112083E80C990016DA4
:10092A00E0FBA3E0FAA3E0F91207D07002800D9071
:10093A000168E475F00112083E0208B6900167E00A
:0F094A00FBA3E0FAA3E0F9227B007A00790022F8
:10082C00BB010689828A83F0225002F722BBFE01AB
:02083C00F322A5
:10083E00C5F0F8A3E028F0C5F0F8E5821582700245
:06084E001583E038F022E2
:10085400F8E0FBA3A3E0F925F0F0E582158270022D
:070864001583E0FA38F022D1
:09086B00EBF0A3EAF0A3E9F0228E
:10087400D083D082F8E4937012740193700DA3A313
:1008840093F8740193F5828883E473740293686027
:06089400EFA3A3A380DF27
:00000001FF
