:030000000216F9EC
:0C16F900787FE4F6D8FD758122021740CE
:100C1A00696E707574202573003B002D006765743A
:100C2A002073657425642D256400676574206661E8
:100C3A00696C6564007365743A00656E6400736577
:100C4A00743A25642D25643B656E64004053544311
:100C5A00495350230068617320696E69740A006EF3
:100C6A006F7420696E69740A00486F6C64696E67F4
:100C7A005265675B25645D2D5B25645D0A006765C7
:100C8A00747A6869616E646368616E676520776506
:100C9A00697A68695B25645D207A68695B25645DA9
:100CAA000A0073797374656D20696E6974206F6BBD
:100CBA000A0073797374656D20696E6974206F6BAD
:100CCA0031000000000000000000000000000000E9
:100CDA00000000000000000000000000000000000A
:100CEA0000000000000000000000000000000000FA
:100CFA0000000000000000000000000000000000EA
:100D0A0000000000000000000000000000000000D9
:100D1A0000000000000000000000000000000000C9
:100D2A0000000000000000000000000000000000B9
:100D3A0000000000000000000000000000000000A9
:0A0D4A00000000000000000000009F
:1018B800410114005400FC0000000000000000007A
:1018C80000000000000000000000004201150000B8
:101F16007E007F3C7D007B017A01791B12036BE416
:071F2600900112F0A3F0226C
:1019E100900112E475F001120260FC741B25F0F500
:1019F1008274013CF583EFF0D3900113E0943990A8
:101A01000112E0648094804004E4F0A3F09000F2BD
:071A1100E4F0A37403F022CE
:101AEB00D39000F3E094009000F2E0648094804087
:101AFB001BA3E024FFF09000F2E034FFF0E0700253
:0D1B0B00A3E0700890011404F0121D6C227C
:1012BA009000CFEBF0A3EAF0A3E9F0A3E0FBA3E0F0
:1012CA00FAA3E0F91201BC7002806B9000CFE0FB38
:0B12DA00A3E0FAA3E0F91201BC60736E
:1012E5009000D5EBF0A3EAF0A3E9F09000D2E0F985
:1012F500A3E0FAA3E09000D8C9F0A3EAF0A3E9F0CF
:101305009000D8E0FBA3E0FAA3E0F91201BCFF606E
:10131500279000D5E0FBA3E0FAA3E0F91201BCB5E4
:1013250007169000D6E475F00112024A9000D9E440
:1013350075F00112024A80C8EF700C9000CFE0FBF7
:10134500A3E0FAA3E0F9229000D0E475F0011202BF
:011355004A4D
:0913560041D57B007A00790022E8
:0B1BC8009000CFEBF0A3EAF0A3E9F0DF
:101BD300E4FFFE9000CFE0FBA3E0FAA3E0F98F82DD
:0E1BE3008E831201D560070FBF00010E80E552
:011BF10022D1
:100046009000C974FFF0A3740CF07423A3F0900021
:09005600BAE0FBA3E0FAA3E0F913
:10005F00C002C0019000C9E0F9A3E0FAA3E090004C
:10006F00D2C9F0A3EAF0A3E9F0D001D0021212BA7C
:10007F009000CCEBF0A3EAF0A3E9F09000CCE0FB0A
:10008F00A3E0FAA3E04A4B60179000C9E0FBA3E09E
:10009F00FAA3E0F9121BC89000CDEE8FF012024ABE
:0B00AF009000CCE0FBA3E0FAA3E0F916
:0100BA002223
:0B0977009000B7EBF0A3EAF0A3E9F05A
:10098200A3EBF0A3EAF0A3E9F09000B7E0F9A3E04B
:10099200FAA3E09000C9C9F0A3EAF0A3E9F07BFF53
:1009A2007A0C791A1204AFE49000C0F0A3F012009E
:1009B200469000BDEBF0A3EAF0A3E9F09000BDE0A1
:1009C200FBA3E0FAA3E04A4B700241D79000BAE0E1
:1009D200FBA3E0FAA3E0F9120E3A9000C2EEF0A3F4
:1009E200EFF09000C974FFF0A3740CF074251200AC
:1009F200529000BAEBF0A3EAF0A3E9F0120E3A909B
:100A020000C4EEF0A3EFF09000C0E0FEA3E0FF7C94
:100A1200007D02120214ED4C701CA3E0FFA3E090D3
:100A22000110CFF0A3EFF09000C4E0FFA3E090012B
:100A320057CFF0A3EFF0ED64014C706A9000C2E072
:100A4200FEA3E0FF900110E06E7003A3E06F704D13
:100A52009000C4E0FEA3E0FF900157E0B5063EA37C
:100A6200E0B507397BFF7A0C79279000C2E0FFA33B
:100A7200E09000C9CFF0A3EFF09000C4A3E0FF9094
:100A820000CBEEF0A3EFF01204AF9000C2E0FEA3A1
:100A9200E0FFA3E0FCA3E0FD120D5480097BFF7A86
:100AA2000C79341204AF1200469000BAEBF0A3EABC
:100AB200F0A3E9F09000C1E004F070069000C0E0FD
:100AC20004F0C39000C1E094649000C0E06480949C
:050AD20080500221B07C
:010AD70022FC
:0B15D80090004AEBF0A3EAF0A3E9F05A
:1015E300784D7C007D017BFF7A0C79CC7E007F6493
:1015F3001201969000C974FFF0A3740CF0A3743F1A
:10160300F090004A1200579000B1EBF0A3EAF0A368
:10161300E9F09000C974FFF0A3740CF0A37444F0D4
:1016230012005F9000B4EBF0A3EAF0A3E9F090009E
:10163300B1E0FBA3E0FAA3E04A4B6029A3E0FBA3DC
:10164300E0FAA3E04A4B601D784D7C007D019000D9
:10165300B1E0FBA3E0FAA3E0F912034E7B017A00A9
:05166300794D1209772A
:01166800225F
:101214009001E0EBF0A3EAF0A3E9F0A3E0FBA3E084
:10122400FAA3E0F91201BC7002806C9001E0E0FBCB
:0B123400A3E0FAA3E0F91201BC607413
:10123F009001E6EBF0A3EAF0A3E9F09001E3E0F907
:10124F00A3E0FAA3E09001E9C9F0A3EAF0A3E9F063
:10125F009001E9E0FBA3E0FAA3E0F91201BCFF90D3
:10126F0001E6E0FBA3E0FAA3E0F91201BCB5071910
:10127F00EF60169001E7E475F00112024A9001EA5F
:10128F00E475F00112024A80C7EF700C9001E0E0A4
:10129F00FBA3E0FAA3E0F9229001E1E475F001125B
:0212AF00024AF1
:0912B100412F7B007A0079002234
:101D6C00121A837B017A01791B1215D87E007F3CF5
:101D7C007D007B017A01791B12036BE4900112F058
:031D8C00A3F0229F
:101EAA00E4F593F594F592759180F595F596F5B26A
:0C1EBA00F5B1F5B3F5B475CAFFF5C92207
:10178500E4900219F0A3F0FFFE121EFD900219E08D
:10179500FEA3E0FF7D377C00121B9DE4900217F04D
:1017A500A3F0900217E0FCA3E0FDC3940AEC64806B
:1017B5009480503F90021AE004F07006900219E000
:1017C50004F0ED25E0FFEC33FE748C2FF5827401F7
:1017D5003EF583E0FCA3E0FD900219E0FEA3E0FFE7
:1017E500121B9D900218E004F070B7900217E004F8
:0317F500F080AFD2
:0117F80022CE
:101A4F00E4FDFCED25E0FFEC33FE748C2FF5827482
:101A5F00013EF583E0FAA3E0FB74FC2FF5827400DE
:101A6F003EF583EAF0A3EBF00DBD00010CED640A27
:031A7F004C70D0D8
:011A82002241
:10199F00E4FDFCED25E0FFEC33FE748C2FF5827433
:1019AF00013EF583E0FAA3E0FB74FC2FF58274008F
:1019BF003EF583E0FEA3E06B7002EE6A60057E00E9
:1019CF007F01220DBD00010CED640A4C70C5E4FED1
:0119DF00FF08
:0119E00022E4
:0E180000900000EEF0A3EFF0A3ECF0A3EDF0EB
:10180E0078047C007D017BFF7A0D79307E007F1E8F
:10181E001201969000C974FFF0A3740CF0A37448E3
:10182E00F0900000E0FFA3E09000CCCFF0A3EFF02B
:10183E00900002E0FFA3E09000CECFF0A3EFF07B8C
:10184E00017A0079041204A97B017A00790402045A
:01185E00AFDA
:101C9300D3900116E094E8900115E06480948340AA
:101CA30013E4F0A3F0900194E0FCA3E0FD7F047E35
:051CB3000012180022E0
:101A830090005074FFF0A3740CF0A37456F07B0124
:101A93007A01791B120FEC90004AEBF0A3EAF0A352
:101AA300E9F090004AE0FBA3E0FAA3E04A4B6003AD
:031AB30075C76094
:011AB600220D
:0D1F9900E4F5C7F5C5F5C675C380F5C42293
:101EC60075C78075F52875C5018FC4EEFF8FC3757C
:0B1ED600C65A75C6A500AFC2121F99C6
:011EE10022DE
:1000260075C78075F52875C5028FC4EEFF8FC3AFFF
:0D003600058FC275C65A75C6A500021F9938
:101EFD0075C78075F52875C5038FC4EEFF8FC37543
:091F0D00C65A75C6A500021F9911
:101B9D0090021BECF0A3EDF0AB07AA06EB25E0FBE2
:101BAD00EA33FAAF03FE90021BE0FD120026EB2490
:0B1BBD0001FFE43EFEA3E0FD02002655
:041B4500AD07AC0636
:101B4900ED25E0FDEC33FCAF05FE121EC6AB077AAE
:101B590000ED2401FFE43EFE121EC6AD077C00EB3A
:071B6900FEE42DFFEC3EFE3F
:011B70002252
:100F1500E490020FF0A3F0FFFE121B4590020DEEC8
:100F2500F0A3EFF064374E7BFF70097A0C795F12FE
:100F350004AF80147A0C79691204AF90019474029D
:100F4500F0A37458F0121785E490020BF0A3F0900B
:100F55000210E004F0700690020FE004F090020F1A
:100F6500E0FEA3E0FF121B45AC06AD0790020CE0C6
:100F750025E0FF90020BE033FE748C2FF58274019F
:100F85003EF583ECF0A3EDF0748C2FF58274013EF1
:100F9500F583E0FFA3E090020DCFF0A3EFF07BFF18
:100FA5007A0C797390020BE0FFA3E09000C9CFF0B3
:100FB500A3EFF090020DE0FFA3E09000CBCFF0A3EC
:100FC500EFF01204AF90020CE004F0700690020BF3
:100FD500E004F0C390020CE0940A90020BE06480F8
:060FE50094805002E1546B
:010FEB0022E3
:101CB800E4FDFCED25E0FFEC33FE748C2FF5827417
:101CC800013EF583E4F0A3F00DBD00010CED640ABC
:031CD8004C70E06D
:011CDB0022E6
:1014A20078047C007D017BFF7A0D794E7E007F06F9
:1014B2001201967B017A0079041210AB900004E0CD
:1014C200FEA3E0FF4E6073900000EEF0A3EFF090F9
:1014D2000006E0FCA3E0FD900002ECF0A3EDF07B3F
:1014E200FF7A0C79889000C9EEF0A3EFF0A3ECF03C
:1014F200A3EDF01204AF900000E0FEA3E0FFC3945E
:101502000AEE64809480501CA3E0FCA3E0FDEF256A
:10151200E0FFEE33FE748C2FF58274013EF583EC0E
:10152200F0A3EDF0900000E0FEA3E0FF64044E6043
:0A15320006EF64024E7003121FA6BC
:01153C00228C
:10185F00121EAA121EE2121DB2121F2D121DF475B6
:10186F00BA8090FE8074E0F090FE82E4F0D2AFD2A6
:10187F00B2121E8D121FA67F647E00121C6D7BFF9D
:10188F007A0C79AC1204AF121CB8121A4F7BFF7A84
:10189F000C79BC1204AF900190E4F0A304F0121F76
:0918AF0016121C931214A280F819
:101C6D00AD07AC06E49000F8F0A3F0ED25E0FFEC35
:101C7D0033FED39000F9E09FEE6480F89000F8E019
:061C8D0064809840E6228D
:03000B000207A940
:1007A900C0E0C0F0C083C082C0D075D000C000C016
:1007B90001C002C003C004C005C006C007121AEB7D
:1007C9009000F9E004F070069000F8E004F0900160
:1007D90016E004F07006900115E004F0D007D00689
:1007E900D005D004D003D002D001D000D0D0D0821F
:0707F900D083D0F0D0E03204
:03002300021A18A6
:101A1800C0E0C0F0C083C082C0D075D000C000C094
:031A280004C007F0
:101A2B00309809C298AF991219E18002C299309986
:031A3B0002C2994B
:101A3E00D007D004D000D0D0D082D083D0F0D0E068
:011A4E003265
:03004300021AB7E7
:101AB700C0E0C083C082C0D075D000C007E59A30AF
:101AC700E00D539AFEAF9B900119E4F0A3EFF0E508
:101AD7009A30E105539AFDC212D007D0D0D082D0F8
:041AE70083D0E03296
:0518D80042021D0001A9
:101F2D00438E805389F0758A9A758CA9C28DD2B96A
:071F3D00D2A9D28CD2AF2221
:101EE200759850438E40538EFE53890F758BE8755B
:0B1EF2008DFFC2ABD28ED2ACD2AF226B
:101DB20075AC1053ACBF759A50438E0475D78F75AE
:101DC200D6FD438E1043AF0143AF08D2AF53BAFDE5
:011DD20022EE
:101DF40075841043844043D12075D38F75D2FD433D
:0F1E0400D1805384DF53847F43AF104384102277
:0A1FB200C2998F993099FDD2AF2239
:080003002012FDD2128F9B2296
:0800BB002013FDD2138FAD22CA
:081FBC002014FDD2148F8522D0
:101E700090021DE07002A3E060121201BCFF600C32
:0D1E8000121FB2740129F9E43AFA80EE2233
:0617F900AE07121FB22230
:1018DD0042015D000154018C000000000000000079
:1018ED0000000000000000000000000042015A004E
:0A18FD00004201A2000041018B002F
:0100220022BB
:031FCF007F01226D
:081404007B017A01795F7D068E
:0E140C009001F6EBF0A3EAF0A3E9F0A3EDF0F7
:10141A0074FFA3F0A3F0E4A3F09001F9E0FF9001B8
:10142A00FCE0C39F50639001F6E0FBA3E475F00172
:10143A00120260A9F0FA1201BCFF9001FAE0F0A3CF
:10144A00E06FF0E4FD9001FAE0FEA3E0FF30E02156
:10145A00EEC313FEEF13FF9001FAEEF0A3EFF0EEE6
:10146A0064A0FEEF6401FF9001FAEEF0A3EFF080B2
:10147A000B9001FAE0C313F0A3E013F00DEDB408EA
:10148A00C49001FCE004F080909001FAE0FCA3E033
:07149A00FDECFBEDFEEBFF92
:0114A1002228
:101B1800E490017DF0900159F09001A1F090017ED0
:101B2800F09001A0F0FF7E0A90017FE4F0A3DEFCB4
:0C1B3800E4FF7E1E90015FE4F0A3DEFCE1
:011B4400227E
:101E1300900159E0247FF582E43401F583EFF090DB
:0F1E23000159E004F0900189E4F0A37402F02269
:0B195500900211EBF0A3EAF0A3E9F010
:10196000E4FFFE900214E0FBA3E0FAA3E0F98F820B
:101970008E831201D5FD900211E0FBA3E0FAA3E0F3
:10198000F98F828E831201D56D6004E4FEFF220F71
:0E199000BF00010EEF64064E70C97E007F019D
:01199E002226
:101B7100D390018AE09400900189E06480948040D0
:101B81001AA3E024FFF0900189E034FFF0E0700235
:0C1B9100A3E070079001A2F0A304F02272
:0F1F6C0090017E7401F012135F121BF2021E8DA2
:0117FF0022C7
:10135F0090017EE0640160028103900159E0D39413
:10136F0004500261FBE0FF247DF582E43401F58334
:10137F00E0FE747E2FF582E43401F583E0FDAF06C5
:10138F00EFFFED90021FCFF0A3EFF07B017A017911
:10139F007F900159E024FEFD12140C90021FE06EA5
:1013AF007003A3E06F704390017FE0FF90015DE059
:1013BF007003A3E06F7035900180E024FA600F2472
:1013CF00FC60122407701C90015C7403800C900168
:1013DF005C7406800590015C740AF09001A07401A2
:1013EF00F0800C7F0102153D80028000121E8DE4FB
:0413FF0090017EF0EB
:0114030022C6
:101BF2009001A0E0B4012290015CE024FA600D247F
:101C0200FC600E2407700D12080080081211698012
:0A1C120003120AD8E49001A0F022AA
:10080000900181E0FEA3E0FDEDFF9001FEEEF0FC23
:10081000A3EFF0900183E0FEA3E0FBEBFF9002006A
:10082000EEF0A3EFF0C3ED940AEC940040022171C6
:10083000900200E0FEA3E0FF9001FFE02FFD900199
:10084000FEE03EFCC3ED940AEC94004002216DEF03
:100850009400EE94005002216D900201E025E0FF2B
:10086000AE07EE24059001FDF090015DA3E0A3F03A
:10087000A37403F0A3EEF09001FEE0FFA3E090026A
:1008800002CFF0A3EFF07D037C00900200E0FEA316
:10089000E0FF9001FFE02FFF9001FEE03EFEC390DD
:1008A0000203E09F900202E09E5063A3E025E0FF78
:1008B000900202E033FE748C2FF58274013EF583C2
:1008C000E0FFAB05745F2BF582E43401F583EFF0B4
:1008D000900203E025E0FF900202E033FE748C2FCB
:1008E000F58274013EF583E0A3E0FF74602BF5828E
:1008F000E43401F583EFF0900203E004F070069019
:100900000202E004F074022DFDE43CFC018A7B014C
:100910007A01795F900201E025E0FFEF2403FD12E8
:10092000140CAD07AC06ECFF900200A3E025E0FE3E
:100930002462F582E43401F583EFF0AF0574632E91
:10094000F582E43401F583EFF09001EF7401F0A338
:100950007401F0A3745FF09001FDE0FF9001F2E4F8
:10096000F0A3EFF07B017A01795A0219087F038026
:06097000027F0212153D9A
:01097600225E
:10116900900181E0FEA3E0FDAC06A3E0FEA3E0FB55
:10117900C3ED940AEC94004002410E9002237408D6
:10118900F0AA06ED25E0FFEC33FE748C2FF582748E
:10119900013EF583EAF0A3EBF090015DA3E0A3F033
:1011A900A37406F0ECA3F0EDA3F025E0FBEC33FA11
:1011B900748C2BF58274013AF583E0FF900163EF9B
:1011C900F0748C2BF58274013AF583E0A3E0900169
:1011D90064F0121404AD07AC06EC900165F0EFA3BE
:1011E900F09001EF7401F0A37401F0A3745FF09023
:1011F9000223E0FF9001F2E4F0A3EFF07B017A0112
:0A120900795A0219087F0212153D00
:0112130022B8
:100AD800900181E0FEA3E0FDEDFF900205EEF0FC41
:100AE800A3EFF0900183E0FEA3E0FBEBFF90020789
:100AF800EEF0A3EFF0C3ED940AEC940040028114E9
:100B0800900207E0FEA3E0FF900205E0FCA3E0FDF1
:100B18002FFBEC3EFAC3EB940AEA940040028110E2
:100B2800EF9400EE940050028110900209ECF0A3BB
:100B3800EDF07D077C00900207E0FEA3E0FF900245
:100B480006E02FFF900205E03EFEC390020AE09FF8
:100B5800900209E09E504D747F2DF58274013CF59A
:100B680083E0FE74802DF582E43401F583E0FBEE2A
:100B7800FA90020AE025E0FF900209E033FE748C47
:100B88002FF58274013EF583EAF0A3EBF090020A98
:100B9800E004F07006900209E004F074022DFDE410
:100BA8003CFC80929002047408F090015DA3E0A3DD
:100BB800F0A3740AF0900205E0FCA3E0FDEC9001BC
:100BC80061F0EDA3F0900207E0FCA3E0FDEC9001DA
:100BD80063F0EDA3F0121404AD07AC06EC900165C8
:100BE800F0EFA3F09001EF7401F0A37401F0A37487
:100BF8005FF0900204E0FF9001F2E4F0A3EFF07BD5
:100C0800017A01795A0219087F0380027F021215BE
:010C18003D9E
:010C190022B8
:10153D00EF24FE602114603D24026002A1D79001CA
:10154D005DA3E0A3F0900180E02480900160F0A302
:10155D007401F0FB801790015DA3E0A3F090018072
:10156D00E02480900160F0A37402F07B017A017990
:10157D005F7D03801C90015DA3E0A3F0900180E0EE
:10158D002480900160F0A37403F07B017A01795FF0
:10159D00FD12140C900221EEF0A3EFF0900221E069
:1015AD00FCA3E0FDEC900162F0EDA3F09001EF746F
:1015BD0001F0A37401F0A3745FF0A3E4F0A374052C
:0A15CD00F07B017A01795A12190827
:0115D70022F1
:101E8D00E4FF7E0A90017FE4F0A3DEFCE4900159AB
:0C1E9D00F0FF7E1E90015FE4F0A3DEFC6D
:011EA9002216
:051FC400EFC4540FFF03
:011FC90022F5
:041FCA00EF540FFFC2
:011FCE0022F0
:101C4600EFC39400400CEFD39409500674302FFF75
:101C56008014EFC3940A400CEFD3940F50067437E8
:071C66002FFF80027FFF2227
:0B1908009001ECEBF0A3EAF0A3E9F083
:10191300E49001F4F0A3F09001F2E0FEA3E0FFA352
:10192300E0FCA3E0FDC39FEC9E50269001EFE0FB9B
:10193300A3E0FAA3E0F98D828C831201D5FF121F75
:10194300B29001F5E004F070CE9001F4E004F08071
:01195300C6CD
:011954002270
:101E3200E4FFFED21590FE817481F0301510C3EFDD
:0E1E42009470EE941750070FBF00010E80ED54
:011E5000226F
:101CDC00E4FDFC90FE86EFF0D21590FE817482F04C
:101CEC00301510C3ED9470EC941750070DBD000126
:031CFC000C80ED6C
:011CFF0022C2
:10166900121E327FC2121CDC1216DA7F60121CDCD9
:101679001216DA90000AE0C4F854F0C8A3E0C45482
:101689000F48FF121CDC1216DA90000BE0540FC44D
:10169900F8540FC868FF121CDC1216DA121E511218
:1016A9001E327FC0121CDC1216DA7F60121CDC129B
:1016B90016DAEAC4F854F0C8EBC4540F48FF121CF8
:1016C900DC1216DAEB540FC4F8540FC868FF121C69
:0116D900DC34
:1016DA00E4FFFED21590FE817483F0301510C3EF3B
:0E16EA009470EE941750070FBF00010E80EDB4
:0116F80022CF
:101D0000E4FFFED21590FE817484F0301510C3EF0D
:101D10009470EE941750070FBF00010E80ED90FEF7
:031D200087E0FF5A
:011D2300229D
:101D8F00E4FFFE90FE82F0D21590FE817485F03054
:101D9F001510C3EF9470EE941750070FBF00010E8C
:021DAF0080EDC5
:011DB100220F
:101D2400E4FFFE90FE8204F0D21590FE817485F0EB
:101D3400301510C3EF9470EE941750070FBF0001D5
:031D44000E80ED21
:011D47002279
:101E5100E4FFFED21590FE817486F0301510C3EFB9
:0E1E61009470EE941750070FBF00010E80ED35
:011E6F002250
:0300C300021DD348
:101DD300C0E0C083C082C0BA43BA8090FE82E030C4
:101DE300E606E054BFF0C215D0BAD082D083D0E06B
:011DF30032BD
:101F4400900190E07002A3E07003D29622EF4E70ED
:071F540003D29622C296227F
:101D480090000A7407F0A374FFF0900194E0FAA3DE
:101D5800E0FBFFAE02121F44121669121E51121642
:041D680069021E519D
:0C1FA600C2B7D2B6121D48D2B7C2B62294
:101C1C00E4FFFE9001A875F006EF120276EE75F067
:101C2C0006A42583F583E0FCA3E04C7001220FBFD2
:091C3C0000010EEF640A4E70DA9B
:011C4500227C
:0F1F7B00121C1CEF4E7004FE7F0122E4FEFF22B9
:101F5B00121C1CEF640A4E7004FE7F0122E4FEFF8C
:011F6B002253
:0E0D54009000C6EEF0A3EFF0A3ECF0A3EDF0DC
:100D6200121C1C9000CAEEF0A3EFF0E4FFFED39039
:100D720000CBE09FEE6480F89000CAE06480984067
:100D82004E9001A475F006EF120276EE75F006A4FD
:100D92002583F583E0FCA3E0FD9000C6E0FAA3E022
:100DA200FBEDB50323ECB5021FA3E0FCA3E0FD902D
:100DB20001A675F006EF120276EE75F006A4258301
:100DC200F583ECF0A3EDF0220FBF00010E809F121D
:100DD2001C1CEF640A4E605F9000C6E0FEA3E0FFB9
:100DE2009000CAE0FCA3E0FD9001A475F006120297
:100DF20076EC75F006A42583F583EEF0A3EFF09070
:100E020000C8E0FEA3E0FF9001A675F006ED120215
:100E120076EC75F006A42583F583EEF0A3EFF0904F
:100E220001A875F006ED120276EC75F006A4258392
:070E3200F583E4F0A304F0D6
:010E39002296
:0B10AB0090000AEBF0A3EAF0A3E9F0CC
:1010B600121C1C90000FEEF0A3EFF0121C1CEF4E5A
:1010C6007003FEFF2290000AE0FBA3E0FAA3E0F81B
:1010D600AC02AD037B017A0179A47E007F06120182
:1010E60096E490000DF0A3F0900010E024FFFD9030
:1010F600000FE034FFFC90000DE0FEA3E0FFC39D6F
:10110600EC6480F8EE64809850387C007D0612020C
:101116000274AA2FF974013EFA7B01C00174A42F50
:10112600F974013EA801FC7D01D0017E007F061204
:10113600019690000EE004F070AE90000DE004F011
:1011460080A690000FE0FEA3E09001A275F00612C3
:101156000276EE75F006A42583F583E4F0A3F0FE8F
:021166007F0107
:011168002264
:1017050002185FE493A3F8E493A34003F68001F283
:1017150008DFF48029E493A3F85407240CC8C333E5
:10172500C4540F4420C8834004F456800146F6DFB4
:10173500E4800B01020408102040809018B8E47E74
:10174500019360BCA3FF543F30E509541FFEE493A9
:10175500A360010ECF54C025E060A840B8E493A370
:10176500FAE493A3F8E493A3C8C582C8CAC583CA9B
:10177500F0A3C8C582C8CAC583CADFE9DEE780BE53
:0119070000DF
:1000C600E709F608DFFA8046E709F208DFFA803E1C
:1000D60088828C83E709F0A3DFFA8032E309F60809
:1000E600DFFA8078E309F208DFFA807088828C8371
:1000F600E309F0A3DFFA806489828A83E0A3F60825
:10010600DFFA805889828A83E0A3F208DFFA804CFE
:1001160080D280FA80C680D4806980F280338010D5
:1001260080A680EA809A80A880DA80E280CA80333E
:1001360089828A83ECFAE493A3C8C582C8CCC583B6
:10014600CCF0A3C8C582C8CCC583CCDFE9DEE78086
:100156000D89828A83E493A3F608DFF9ECFAA9F005
:10016600EDFB2289828A83ECFAE0A3C8C582C8CC5B
:10017600C583CCF0A3C8C582C8CCC583CCDFEADE74
:10018600E880DB89828A83E493A3F208DFF980CCD6
:1001960088F0EF60010E4E60C388F0ED2402B404CF
:1001A6000050B9F582EB2402B4040050AF23234576
:0601B60082239001167384
:1001BC00BB010689828A83E0225002E722BBFE0241
:0901CC00E32289828A83E4932274
:1001D500BB010CE58229F582E5833AF583E02250DF
:1001E50006E92582F8E622BBFE06E92582F8E22229
:0D01F500E58229F582E5833AF583E4932243
:10020200EF8DF0A4A8F0CF8CF0A428CE8DF0A42E10
:02021200FE22CA
:10021400C2D5EC30E709B2D5E4C39DFDE49CFCEE05
:1002240030E715B2D5E4C39FFFE49EFE1203A9C3D1
:10023400E49DFDE49CFC80031203A930D507C3E4CC
:060244009FFFE49EFE2274
:10024A00C5F0F8A3E028F0C5F0F8E582158270023F
:06025A001583E038F022DC
:10026000A3F8E0C5F025F0F0E58215827002158351
:06027000E0C838F0E822AE
:0C027600A42582F582E5F03583F5832293
:10044400E50D24C9F582E43400F583E0050D22901E
:1004540000C63010039000C9E475F0011203FE02D7
:1004640001BC2009E97F2ED2098018EF540F249093
:10047400D43440D4FF300D0BEF24BFB41A00500322
:100484002461FFE50E6002150E0511E511700205E9
:100494001030100E9000C6E475F0011203FEEF0256
:1004A40003970217F97403D2108003E4C210F50D08
:1004B4009000C6120415E4F50EF510F511E50E6072
:1004C400077F2012048780F5750FFFC20AC209C294
:1004D4000BC20CC20EC20FC211120453FF700D30B6
:1004E40010057F00120498AF11AE1022B4255FC22C
:1004F400D5C20D120453FF24D0B40A00501A75F06B
:100504000A780E30D50508B6FF0106C6A426F620E3
:10051400D5047002D20C80D924CFB41A00EF500451
:10052400C2E5D20D020699D20A80C6D20980C0D291
:100534000B80BCD2D580BAD20E80B47F201204873F
:10054400200B077401B50E0040F1120444FF12049D
:10055400870204C1D211D20F8095120444FB120405
:1005640044FA120444F94A4B7006796A7A077BFF0D
:10057400200B2EE50E602A7E008E82758300120108
:10058400D560060EEE650F70F0C2D5EBC0E0EAC090
:10059400E0E9C0E0EE1206E0D0E0F9D0E0FAD0E005
:1005A400FB1201BCFF60AAEBC0E0EAC0E0E9C0E0D6
:1005B400120487D0E02401F9D0E03400FAD0E0FB43
:1005C400E50F0460DCD50FD980877BFF7A0679DCE0
:1005D400D20B809C791080027908C20FC211800866
:1005E400D2D5790A8004790AC2D5E50F047002F5E0
:1005F4000FE4FAFDFEFF120444FC7B08200A1312E8
:100604000444FD7B1030090A120444FE120444FF22
:100614007B20EC3382D592D55013C3E43009069F76
:10062400FFE49EFEE4200A039DFDE49CFCE4CBF879
:10063400C20AEC700CCFCECDCCE824F8F870F3806D
:1006440017C3EF33FFEE33FEED33FDEC33FCEB3336
:10065400FB994002FB0FD8E9EB300A05F8D0E0C45F
:1006640048B20AC0E00AEC4D4E4F78207B0070C2BD
:10067400EAB50F0040BCC0E01206E2D0F0D0E020A2
:100684000A04C4C0E0C4B20AC0F0120470D0F0D5A9
:10069400F0EB0204C112041E055E5305D858052F61
:1006A4004C052B4205DC4F05E44405E4490544436D
:0806B40005EA5505CE4605CE0E
:1006BC004505CE47078A5005332D05372E055A2B95
:1006CC00053B2305582007732A04F3480000055204
:1006DC003F3F3F00790AA2D5200C14300E09B91007
:1006EC00020404B9080104A2D5200F025001042011
:1006FC000B68920BB50E005034C0E07F20300C1903
:10070C007F30A20B720F720E500F120739C20BC240
:10071C000FC20EC2117F30800F300E03E9C0E01201
:10072C000487300E03D0E0F9D0E0B50ECC300E17B4
:10073C007F30B9100C1204877F58300D077F7880FA
:10074C0003B90803120487300B057F2D0204877F41
:10075C00202011F87F2B200FF322920B80CF286ED4
:10076C00756C6C2900D20A120444300AF8C20A785B
:10077C000E30D50108F60204F32D504349581204EB
:10078C00442403B405004001E490078593120478D7
:0D079C00743A120478D20C750E040205D8D0
:10028200E709F60870FA8046E709F20870FA803E3C
:1002920088828C83E709F0A370FA807EE309F6086E
:1002A20070FA8076E309F20870FA806E88828C8395
:1002B200E309F0A370FA806289828A83E0A3F608D8
:1002C20070FA805689828A83E0A3F20870FA804A23
:1002D20080D280FA80C680D4806580F2803180101E
:1002E20080A680EA809A80A880DA80E280CA803183
:1002F20089828A83ECFAE493A3C8C582C8CCC583F9
:10030200CCF0A3C8C582C8CCC583CC70E9800D8966
:10031200828A83E493A3F60870F9ECFAA9F0EDFB64
:100322002289828A83ECFAE0A3C8C582C8CCC5833D
:10033200CCF0A3C8C582C8CCC583CC70EA80DD8965
:10034200828A83E493A3F20870F980CE88F0ED24C8
:1003520002B4040050C4F582EB2402B4040050BA83
:0903620023234582239002D2738B
:100FEC0090004DEBF0A3EAF0A3E9F0A3E0FBA3E043
:100FFC00FAA3E0F91201BC700302109890004DE0C6
:10100C00FBA3E0FAA3E0F91201BC70030210A49058
:10101C000050E0F9A3E0FAA3E0A3C9F0A3EAF0A31F
:10102C00E9F090004DA3E0FAA3E0F9900056EBF044
:10103C00A3EAF0A3E9F0900053E0FBA3E0FAA3E0ED
:10104C00F91201BCFF6026900056E0FBA3E0FAA366
:10105C00E0F91201BC6F701590005475F00112028A
:10106C004A900057E475F00112024A80C99000536F
:10107C00E0FBA3E0FAA3E0F91201BC7002800D9032
:10108C00004EE475F00112024A02100890004DE087
:0F109C00FBA3E0FAA3E0F9227B007A007900229F
:100E3A009000C6EBF0A3EAF0A3E9F09000C6E0FB4D
:100E4A00A3E0FAA3E0F91201BCFF12000E500C90C5
:100E5A0000C7E475F00112024A80E0D2099000C688
:100E6A00E0FBA3E0FAA3E0F91201BCFF642B6004E3
:100E7A00EFB42D1D9000C6E0FBA3E475F001120249
:100E8A0060A9F0FA1201BC642D6003D38001C392F9
:100E9A0009E49000C9F0A3F09000C6E0FBA3E0FAD1
:100EAA00A3E0F91201BCFF121F8A50429000C6E06B
:100EBA00FBA3E0FAA3E0F91201BCFF3395E0FEEFD1
:100ECA0024D0FBEE34FFFA9000C9E0FEA3E0FF7CD9
:100EDA00007D0A120202EF2BFFEE3A9000C9F0A33E
:100EEA00EFF09000C7E475F00112024A80AA3009B7
:100EFA000A9000C9E0FEA3E0FF800F9000C9E0FE5F
:0B0F0A00A3E0FFC3E49FFFE49EFE2273
:10036B00EF4E6012EF60010EEDBB010B89828A83A9
:10037B00F0A3DFFCDEFA2289F05007F709DFFCA9B6
:0C038B00F022BBFEFCF309DFFCA9F0220D
:10039700BB010689828A83F0225002F722BBFE0145
:0203A700F3223F
:1003A900BC000BBE0029EF8DF084FFADF022E4CC38
:1003B900F875F008EF2FFFEE33FEEC33FCEE9DEC01
:1003C900984005FCEE9DFE0FD5F0E9E4CEFD22ED47
:1003D900F8F5F0EE8420D21CFEADF075F008EF2F91
:1003E900FFED33FD4007985006D5F0F222C398FD82
:0503F9000FD5F0EA221F
:1003FE00F8E0FBA3A3E0F925F0F0E5821582700288
:07040E001583E0FA38F0222B
:09041500EBF0A3EAF0A3E9F022E8
:10041E00D083D082F8E4937012740193700DA3A36D
:10042E0093F8740193F5828883E473740293686081
:06043E00EFA3A3A380DF81
:0F1F8A00EFC394304007EF943A50028001C32216
:10000E00EFC394094005EF940E4004EFB42003D3E0
:04001E008001C32278
:00000001FF
