:03000000020BD51B
:0C0BD500787FE4F6D8FD758121020C1C2D
:1010180073797374656D2069736F6B0072756E698F
:071028006E672025640A0039
:100FC500E4F593F594F592759180F595F596F5B25E
:0C0FD500F5B1F5B3F5B475CAFFF5C922FB
:081095007F187E55DEFEDFFC32
:01109D002230
:040F8A007F0A7E005C
:100F8E00AD07AC06D3ED9400EC64809480400A1259
:090F9E001095ED1D70EE1C80EBB6
:010FA7002227
:100C6100120FC5120F0A12102F120F4C75BA809075
:100C7100FE8074E0F090FE82E4F0D2AF7F0AFE12B3
:100C81000F8E120FA8120FFD120F8A7BFF7A1079B7
:100C9100181200261210D0120F8A7F0112000E7F47
:100CA1001012000E7FB47E00120F8E120CCD900137
:100CB1003BEEF0A3EFF07BFF7A107924900140EE38
:0C0CC100F0A3EFF0120101120F8A80CEA8
:03000B00020DB92A
:100DB900C0E0C0F0C083C082C0D075D000C000C000
:100DC90001C002C003C004C005C006C00712004626
:100DD900D007D006D005D004D003D002D001D0006E
:0B0DE900D0D0D082D083D0F0D0E03218
:03002300020D1EAD
:100D1E00C0E0C0F0C083C082C0D075D000C000C09B
:0D0D2E0001C002C003C004C005C006C0071C
:100D3B0030980CC298AF9975C760120F6B8002C2C6
:060D4B0099309902C299E3
:100D5100D007D006D005D004D003D002D001D000F6
:0B0D6100D0D0D082D083D0F0D0E032A0
:03004300020DF4B7
:100DF400C0E0C083C082C0D075D000C007E59A307F
:100E0400E00D539AFEAF9B90017EE4F0A3EFF0E572
:100E14009A30E105539AFDC209D007D0D0D082D0D0
:040E240083D0E03265
:03008B00020E5C06
:100E5C00C0E0C083C082C0D075D008E5AC30E00DD6
:100E6C0053ACFEAFAD900180E4F0A3EFF0E5AC30F5
:100E7C00E10553ACFDC20AD0D0D082D083D0E03291
:03009300020E2832
:100E2800C0E0C083C082C0D075D000C007E5843060
:100E3800E00D5384FEAF85900182E4F0A3EFF0E566
:100E48008430E1055384FDC20BD007D0D0D082D0C6
:040E580083D0E03231
:050865004201840001C6
:10102F00438E805389F0758A9A758CA9C28DD2B977
:07103F00D2A9D28CD2AF222E
:100FFD00759850438E40538EFE53890F758BE8754F
:0B100D008DFFC2ABD28ED2ACD2AF225E
:100F0A0075AC1053ACBF759A50438E0475D78F7564
:100F1A00D6FD438E1043AF0143AF08D2AF53BAFD9B
:010F2A0022A4
:100F4C0075841043844043D12075D38F75D2FD43F3
:0F0F5C00D1805384DF53847F43AF10438410222E
:0A108B00C2998F993099FDD2AF226F
:080003002009FDD2098F9B22A8
:0810A700200AFDD20A8FAD22E0
:0810AF00200BFDD20B8F8522FE
:10002600900184E07002A3E060121204F1FF600CFC
:0D00360012108B740129F9E43AFA80EE22D1
:0610BF00AE0712108B22A7
:10086A00420004000160C8006F00000000000000A0
:10087A00000000000000000000000000000000006E
:10088A00000000000000000000000000000000005E
:10089A00000000000000000000000000000000004E
:1008AA00000000000000000000000000000000003E
:1008BA00000000000000000000000000000000002E
:1008CA00000000000000000000000000000000001E
:1008DA00000000000000000000000000000000000E
:1008EA0000000000000000000000000000000000FE
:1008FA0000000000000000000000000000000000EE
:10090A0000000000000000000000000000000000DD
:10091A0000000000000000000000000000000000CD
:10092A0000000000000000000000000000000000BD
:0F093A00004200010000420139000041006E0040
:0110D50022F8
:030020007F01223B
:080A9B007B017A0079067D065B
:0E0AA30090016EEBF0A3EAF0A3E9F0A3EDF0F2
:100AB10074FFA3F0A3F0E4A3F0900171E0FF9001B3
:100AC10074E0C39F506390016EE0FBA3E475F001F5
:100AD100120537A9F0FA1204F1FF900172E0F0A3B8
:100AE100E06FF0E4FD900172E0FEA3E0FF30E02151
:100AF100EEC313FEEF13FF900172EEF0A3EFF0EEE1
:100B010064A0FEEF6401FF900172EEF0A3EFF080AC
:100B11000B900172E0C313F0A3E013F00DEDB408E4
:100B2100C4900174E004F08090900172E0FCA3E0B5
:070B3100FDECFBEDFEEBFF04
:010B3800229A
:100E8C00E4900038F0900000F0900138F0900039B8
:100E9C00F0900137F0FF7E3290003AE4F0A3DEFCD4
:0C0EAC00E4FF7E32900006E4F0A3DEFCC0
:010EB8002217
:100F6B00900000E0243AF582E43400F583EFF09032
:0F0F7B000000E004F090006CE4F0A37402F02298
:10004600D390006DE0940090006CE0648094804052
:100056001AA3E024FFF090006CE034FFF0E0700299
:10006600A3E07007900139F0A304F0900139E07025
:1000760004A3E06401700D120000121046E4900122
:0500860039F0A3F02297
:0F1046009000397401F01209F4120EB9020FA8CC
:0110D60022F7
:1009F400900039E064016003020A9A900000E0D399
:100A040094045003020A92E0FF2438F582E434008F
:100A1400F583E0FE74392FF582E43400F583E0FDBC
:100A2400AF06EFFFED900165CFF0A3EFF07B017A05
:100A340000793A900000E024FEFD120AA3900165BB
:100A4400E06E7003A3E06F704390003AE0FF900003
:100A540004E07003A3E06F703590003BE024FA607B
:100A64000F24FC60122407701C9000037403800C94
:100A740090000374068005900003740AF090013717
:100A84007401F0800C7F01020B3980028000120F88
:060A9400A8E4900039F017
:010A9A002239
:100EB900900137E0B40122900003E024FA600D2488
:100EC900FC600E2407700D1205A5800812094A80DE
:0A0ED90003120720E4900137F02215
:1005A50090003CE0FEA3E0FDEDFF900166EEF0FC5F
:1005B500A3EFF090003EE0FEA3E0FBEBFF900168A7
:1005C500EEF0A3EFF0C3ED9464EC94004003020752
:1005D5001A900168E0FEA3E0FF900167E02FFD900F
:1005E5000166E03EFCC3ED9464EC94004003020711
:1005F50016EF9400EE94005003020716900169E08F
:1006050025E0FFAE07EE2405900165F0900004A3F8
:10061500E0A3F0A37403F0A3EEF0900166E0FFA35E
:10062500E090016ACFF0A3EFF07D037C00900168B4
:10063500E0FEA3E0FF900167E02FFF900166E03E3A
:10064500FEC390016BE09F90016AE09E5064A3E0B9
:1006550025E0FF90016AE033FE746F2FF582740088
:100665003EF583E0FFAB0574062BF582E43400F517
:1006750083EFF090016BE025E0FF90016AE033FE27
:10068500746F2FF58274003EF583E0A3E0FF7407D5
:100695002BF582E43400F583EFF090016BE004F074
:1006A500700690016AE004F074022DFDE43CFC0242
:1006B50006327B017A007906900169E025E0FFEFBB
:1006C5002403FD120AA3AD07AC06ECFF900168A355
:1006D500E025E0FE2409F582E43400F583EFF0AF70
:1006E50005740A2EF582E43400F583EFF09001716C
:1006F5007401F0A37400F0A37406F0900165E0FFA7
:10070500900174E4F0A3EFF07B017A007901020D0A
:0A0715006C7F0380027F02120B3993
:01071F0022B7
:10094A0090003CE0FEA3E0FDAC06A3E0FEA3E0FBC2
:10095A00C3ED9464EC940040030209EE90016574BF
:10096A0008F0AA06ED25E0FFEC33FE746F2FF5823E
:10097A0074003EF583EAF0A3EBF0900004A3E0A331
:10098A00F0A37406F0ECA3F0EDA3F025E0FBEC3342
:10099A00FA746F2BF58274003AF583E090000AF03E
:1009AA00746F2BF58274003AF583E0A3E090000B94
:1009BA00F0120A9BAD07AC06EC90000CF0EFA3F026
:1009CA009001717401F0A37400F0A37406F0900111
:1009DA0065E0FF900174E4F0A3EFF07B017A0079FF
:0909EA0001020D6C7F02120B39B1
:0109F30022E1
:1007200090003CE0FEA3E0FDEDFF900166EEF0FCE2
:10073000A3EFF090003EE0FEA3E0FBEBFF9001682A
:10074000EEF0A3EFF0C3ED9464EC940040030208D4
:100750005F900168E0FEA3E0FF900166E0FCA3E08B
:10076000FD2FFBEC3EFAC3EB9464EA9400400302D5
:10077000085BEF9400EE9400500302085B90016A5E
:10078000ECF0A3EDF07D077C00900168E0FEA3E0B3
:10079000FF900167E02FFF900166E03EFEC39001ED
:1007A0006BE09F90016AE09E504D743A2DF5827483
:1007B000003CF583E0FE743B2DF582E43400F583C4
:1007C000E0FBEEFA90016BE025E0FF90016AE03378
:1007D000FE746F2FF58274003EF583EAF0A3EBF010
:1007E00090016BE004F0700690016AE004F074027E
:1007F0002DFDE43CFC80929001657408F0900004AB
:10080000A3E0A3F0A3740AF0900166E0FCA3E0FD6E
:10081000EC900008F0EDA3F0900168E0FCA3E0FD8F
:10082000EC90000AF0EDA3F0120A9BAD07AC06ECC9
:1008300090000CF0EFA3F09001717401F0A374002C
:10084000F0A37406F0900165E0FF900174E4F0A35A
:10085000EFF07B017A007901020D6C7F0380027F4B
:0408600002120B393C
:010864002271
:100B3900EF24FE602214603E24026003020BD4906D
:100B49000004A3E0A3F090003BE02480900007F0AC
:100B5900A37401F0FB8017900004A3E0A3F09000B8
:100B69003BE02480900007F0A37402F07B017A0037
:100B790079067D03801C900004A3E0A3F090003B5C
:100B8900E02480900007F0A37403F07B017A0079D8
:100B990006FD120AA390016CEEF0A3EFF090016C30
:100BA900E0FCA3E0FDEC900009F0EDA3F0900171E9
:100BB9007401F0A37400F0A37406F0A3E4F0A37425
:0B0BC90005F07B017A007901120D6C31
:010BD40022FE
:100FA800E4FF7E3290003AE4F0A3DEFCE490000017
:0C0FB800F0FF7E32900006E4F0A3DEFCA7
:010FC400220A
:0510C500EFC4540FFF11
:0110CA002203
:04008E00EF540FFF1D
:01009200224B
:100EE300EFC39400400CEFD39409500674302FFFE6
:100EF3008014EFC3940A400CEFD3940F5006743759
:070F03002FFF80027FFF2297
:0B0D6C0090016EEBF0A3EAF0A3E9F0A9
:100D7700E4900176F0A3F0900174E0FEA3E0FFA3F6
:100D8700E0FCA3E0FDC39FEC9E5026900171E0FBC1
:100D9700A3E0FAA3E0F98D828C8312050AFF1210F3
:100DA7008B900177E004F070CE900176E004F0803C
:010DB700C675
:010DB8002218
:0810B700000000000000000031
:0410CB007F14DFFEB1
:0110CF0022FE
:08109E007F577E2ADEFEDFFC15
:0110A6002227
:0F105500D2A4D2A51210CBC2A41210CBC2A522D6
:0C107F00C2A4D2A51210CBD2A40210CB48
:0E106400A20092A4D2A51210CBC2A50210CBFE
:0D107200D2A51210CBA2A4C2A51210CB2251
:020FE100AE0759
:100FE300E4FDEE25E0FE92A4D2A51210CBC2A51219
:0A0FF30010CB0DEDB408EB021072F4
:100F2B00E4FED2A4FDEE25E0FED2A51210CBA2A4C6
:100F3B00E4334EFEC2A51210CB0DEDB408E7AF069D
:010F4B002283
:10000E00AC071210557F46120FE1AF04120FE1023A
:02001E00107F51
:100CCD00783D7C017D017BFF7A1079B77E007F082E
:100CDD001204CB1210557F47120FE1E4FC120F2BBB
:100CED00743D2CF582E43401F583EFF0ECB403048C
:100CFD00D2008002C2001210640CECB403DF12109B
:100D0D007F90013DE0FEA3E07C002400FFEC3EFE61
:010D1D0022B3
:0510D0007F0102000E8B
:100BE100020C61E493A3F8E493A34003F68001F2BD
:100BF10008DFF48029E493A3F85407240CC8C33315
:100C0100C4540F4420C8834004F456800146F6DFE3
:100C1100E4800B0102040810204080900865E47E06
:100C2100019360BCA3FF543F30E509541FFEE493D8
:100C3100A360010ECF54C025E060A840B8E493A39F
:100C4100FAE493A3F8E493A3C8C582C8CAC583CACA
:100C5100F0A3C8C582C8CAC583CADFE9DEE780BE82
:0109490000AD
:1003FB00E709F608DFFA8046E709F208DFFA803EE4
:10040B0088828C83E709F0A3DFFA8032E309F608D0
:10041B00DFFA8078E309F208DFFA807088828C8338
:10042B00E309F0A3DFFA806489828A83E0A3F608EC
:10043B00DFFA805889828A83E0A3F208DFFA804CC6
:10044B0080D280FA80C680D4806980F2803380109D
:10045B0080A680EA809A80A880DA80E280CA803306
:10046B0089828A83ECFAE493A3C8C582C8CCC5837E
:10047B00CCF0A3C8C582C8CCC583CCDFE9DEE7804E
:10048B000D89828A83E493A3F608DFF9ECFAA9F0CD
:10049B00EDFB2289828A83ECFAE0A3C8C582C8CC23
:1004AB00C583CCF0A3C8C582C8CCC583CCDFEADE3C
:1004BB00E880DB89828A83E493A3F208DFF980CC9E
:1004CB0088F0EF60010E4E60C388F0ED2402B40497
:1004DB000050B9F582EB2402B4040050AF2323453E
:0604EB00822390044B7314
:1004F100BB010689828A83E0225002E722BBFE0209
:09050100E32289828A83E493223B
:10050A00BB010CE58229F582E5833AF583E02250A6
:10051A0006E92582F8E622BBFE06E92582F8E222F0
:0D052A00E58229F582E5833AF583E493220A
:10053700A3F8E0C5F025F0F0E58215827002158377
:06054700E0C838F0E822D4
:10009600E5102440F582E43401F583E00510229052
:1000A600013D300703900140E475F00112055F023F
:1000B60004F12000E97F2ED2008018EF540F24901F
:1000C600D43440D4FF30040BEF24BFB41A005003DD
:1000D6002461FFE511600215110514E5147002058F
:1000E6001330070E90013DE475F00112055FEF0233
:1000F600054D0210BF7403D2078003E4C207F51052
:1001060090013D120576E4F511F513F514E511603D
:10011600077F201200D980F57512FFC201C200C206
:1001260002C203C205C206C2081200A5FF700D3046
:1001360007057F001200EAAF14AE1322B4255FC292
:10014600D5C2041200A5FF24D0B40A00501A75F0D7
:100156000A781130D50508B6FF0106C6A426F62092
:10016600D5047002D20380D924CFB41A00EF50040C
:10017600C2E5D2040202EBD20180C6D20080C0D210
:100186000280BCD2D580BAD20580B47F201200D9B5
:100196002002077401B5110040F1120096FF12000B
:1001A600D9020113D208D2068095120096FB1200DE
:1001B60096FA120096F94A4B700679BC7A037BFFD1
:1001C60020022EE511602A7E008E827583001205BC
:1001D6000A60060EEE651270F0C2D5EBC0E0EAC00A
:1001E600E0E9C0E0EE120332D0E0F9D0E0FAD0E068
:1001F600FB1204F1FF60AAEBC0E0EAC0E0E9C0E050
:100206001200D9D0E02401F9D0E03400FAD0E0FBA6
:10021600E5120460DCD512D980877BFF7A03792E3C
:10022600D202809C791080027908C206C208800832
:10023600D2D5790A8004790AC2D5E512047002F58E
:1002460012E4FAFDFEFF120096FC7B082001131251
:100256000096FD7B1030000A120096FE120096FFF3
:100266007B20EC3382D592D55013C3E43000069F31
:10027600FFE49EFEE42001039DFDE49CFCE4CBF834
:10028600C201EC700CCFCECDCCE824F8F870F38028
:1002960017C3EF33FFEE33FEED33FDEC33FCEB33E8
:1002A600FB994002FB0FD8E9EB300105F8D0E0C41A
:1002B60048B201C0E00AEC4D4E4F78207B0070C278
:1002C600EAB5120040BCC0E0120334D0F0D0E02002
:1002D6000104C4C0E0C4B201C0F01200C2D0F0D51F
:1002E600F0EB02011312057F01B053022A58018177
:1002F6004C017D42022E4F02364402364901964396
:08030600023C550220460220D2
:10030E004502204703DC5001852D01892E01AC2BBF
:10031E00018D2301AA2003C52A014548000001A42E
:10032E003F3F3F00790AA2D5200314300509B910CA
:10033E00020404B9080104A2D520060250010420CB
:10034E0002689202B511005034C0E07F20300319CC
:10035E007F30A20272067205500F12038BC202C2C8
:10036E0006C205C2087F30800F300503E9C0E012D7
:10037E0000D9300503D0E0F9D0E0B511CC30051727
:10038E007F30B9100C1200D97F583004077F788067
:10039E0003B908031200D93002057F2D0200D97F60
:1003AE00202008F87F2B2006F322920280CF286EA1
:1003BE00756C6C2900D2011200963001F8C20178DA
:1003CE001130D50108F60201452D5043495812004F
:1003DE00962403B405004001E49003D7931200CA9B
:0D03EE00743A1200CAD20375110402022AEB
:10054D00BB010689828A83F0225002F722BBFE018D
:02055D00F32287
:10055F00F8E0FBA3A3E0F925F0F0E5821582700225
:07056F001583E0FA38F022C9
:09057600EBF0A3EAF0A3E9F02286
:10057F00D083D082F8E4937012740193700DA3A30B
:10058F0093F8740193F5828883E47374029368601F
:06059F00EFA3A3A380DF1F
:00000001FF
