:03000000020DBF2F
:0C0DBF00787FE4F6D8FD758121020E0655
:10113F00486F6C64696E675265675B25645D2D5BF4
:10114F0025645D0073797374656D20696E69742011
:10115F006F6B0073797374656D20696E6974206F9E
:03116F006B3100E1
:100803006028014300000000000000000000000019
:1008130000000000000000000000000000000000D5
:0C082300000000000000000000000000C9
:10142600E4F593F594F592759180F595F596F5B2F8
:0C143600F5B1F5B3F5B475CAFFF5C92295
:0D150100E4F5C7F5C5F5C675C380F5C42235
:1014420075C78075F52875C5018FC4EEFF8FC3750A
:0B145200C65A75C6A500AFC2121501F6
:01145D00226C
:1000260075C78075F52875C5028FC4EEFF8FC3AFFF
:0D003600058FC275C65A75C6A500021501DA
:1014790075C78075F52875C5038FC4EEFF8FC375D1
:09148900C65A75C6A50002150142
:1014AB00E4FFFE12147990013FE0FD7F011200264C
:0814BB00A3E0FD7F3C020026C6
:10000E007F017E0012144290013FEFF07F3C1214EC
:04001E0042A3EFF01A
:0100220022BB
:1014C30012000E900140E06406600CE490013FF0CE
:0814D300A37406F01214AB2211
:1012040090017BECF0A3EDF0AB07AA06EB25E0FB25
:10121400EA33FAAF03FE90017BE0FD120026EB24D3
:0B12240001FFE43EFEA3E0FD020026F7
:08117200900175E0FEA3E0FF0F
:04117A00AD07AC060B
:10117E00ED25E0FDEC33FCAF05FE121442AB07EBA0
:10118E007B00FAED2401FFE43EFE121442EB2FFB2E
:05119E00E43AFEAF037E
:0111A3002229
:1006EB00900175E4F0A304F0E4900173F0A3F09093
:1006FB000173E0FEA3E0FFC39414EE64809480507A
:10070B0025EF25E0FFEE33FE746F2FF58274003E6C
:10071B00F583E4F0A3F0900174E004F070D1900144
:10072B0073E004F080C9121172EF647B4E6012907B
:10073B000175E0FEA3E0FF7D7B7C00121204120E1C
:10074B00BCE4900173F0A3F0900176E004F0700626
:10075B00900175E004F0121172AC06AD07900173B5
:10076B00E0FAA3E0FB25E0FFEA33FE746F2FF5827E
:10077B0074003EF583ECF0A3EDF0746F2FF58274EB
:10078B00003EF583E0FEA3E04E604AEB25E0FFEA76
:10079B0033FE746F2FF58274003EF583E0FCA3E00B
:1007AB00F47002ECF4602E7BFF7A11793F900173A9
:1007BB00E0FDA3E090017ACDF0A3EDF0746F2FF57F
:1007CB008274003EF583E0FFA3E090017CCFF0A3A1
:1007DB00EFF0120131900174E004F0700690017398
:1007EB00E004F0C3900174E09414900173E0648012
:0707FB009480500302075334
:0108020022D3
:100EBC00900179E4F0A304F0E4900177F0A3F090B2
:100ECC000177E0FCA3E0FDC39414EC6480948050A3
:100EDC003F90017AE004F07006900179E004F0EDA7
:100EEC0025E0FFEC33FE746F2FF58274003EF58322
:100EFC00E0FCA3E0FD900179E0FEA3E0FF121204F8
:100F0C00900178E004F070B7900177E004F080AFC6
:010F1C0022B2
:1010A300E4FDFCED25E0FFEC33FE746F2FF5827455
:1010B300003EF583E0FAA3E0FB74432FF58274014D
:1010C3003EF583EAF0A3EBF00DBD00010CED6414D3
:0310D3004C70D08E
:0110D60022F7
:10004600E4FDFCED25E0FFEC33FE746F2FF58274C2
:10005600003EF583E0FAA3E0FB74432FF5827401BA
:100066003EF583E0FEA3E06B7002EE6A60057E005B
:100076007F01220DBD00010CED64144C70C5E4FE39
:01008600FF7A
:010087002256
:100E4B0012142612145E12130F1214DB12135175A7
:100E5B00BA8090FE8074E0F090FE82E4F0D2AFD2C4
:100E6B00B212140912151B7F0A7E001214927BFF1B
:100E7B007A1179531201311206EB1210A37BFF7A10
:100E8B00117962120131900139E07004A3E0640121
:100E9B0070F412138F1214F2120046EF4E60091207
:100EAB0010A312151B120EBCE4900139F0A3F080B5
:010EBB00D561
:10149200EF25E0FFEE3390013DF0A3EFF0C39001A2
:0914A2003DE06480948050F522C5
:03000B0002105A86
:10105A00C0E0C0F0C083C082C0D075D000C000C05C
:10106A0001C002C003C004C005C006C0071211D4E3
:10107A0090013EE024FFF090013DE034FFF0D007FC
:10108A00D006D005D004D003D002D001D000D0D0F1
:09109A00D082D083D0F0D0E03206
:03002300020FC504
:100FC500C0E0C0F0C083C082C0D075D000C000C0F2
:0D0FD50001C002C003C004C005C006C00773
:100FE200309809C298AF991213708002C299309951
:030FF20002C2999F
:100FF500D007D006D005D004D003D002D001D00050
:0B100500D0D0D082D083D0F0D0E032F9
:030043000210D7D1
:1010D700C0E0C083C082C0D075D000C007E59A3099
:1010E700E00D539AFEAF9B90016DE4F0A3EFF0E59E
:1010F7009A30E105539AFDC209D007D0D0D082D0EB
:0411070083D0E0327F
:03008B000211A4BB
:1011A400C0E0C083C082C0D075D008E5AC30E00D8B
:1011B40053ACFEAFAD90016FE4F0A3EFF0E5AC30BB
:1011C400E10553ACFDC20AD0D0D082D083D0E03246
:0300930002110B4C
:10110B00C0E0C083C082C0D075D000C007E584307A
:10111B00E00D5384FEAF85900171E4F0A3EFF0E591
:10112B008430E1055384FDC20BD007D0D0D082D0E0
:04113B0083D0E0324B
:05082F004201B30001CD
:1014DB00438E805389F0758A9A758CA9C28DD2B9C7
:0714EB00D2A9D28CD2AF227E
:10145E00759850438E40538EFE53890F758BE875E9
:0B146E008DFFC2ABD28ED2ACD2AF22F9
:10130F0075AC1053ACBF759A50438E0475D78F755B
:10131F00D6FD438E1043AF0143AF08D2AF53BAFD92
:01132F00229B
:1013510075841043844043D12075D38F75D2FD43EA
:0F136100D1805384DF53847F43AF104384102225
:0A152700C2998F993099FDD2AF22CE
:080003002009FDD2098F9B22A8
:08154400200AFDD20A8FAD223E
:08154C00200BFDD20B8F85225C
:1013EC009001B3E07002A3E06012120914FF600CCC
:0D13FC00121527740129F9E43AFA80EE2257
:06155400AE07121527226C
:09153B004053544349535023006E
:10083400420004000160C8006F00000000000000D6
:1008440000000000000000000000000000000000A4
:100854000000000000000000000000000000000094
:100864000000000000000000000000000000000084
:100874000000000000000000000000000000000074
:100884000000000000000000000000000000000064
:100894000000000000000000000000000000000054
:1008A4000000000000000000000000000000000044
:1008B4000000000000000000000000000000000034
:1008C4000000000000000000000000000000000024
:1008D4000000000000000000000000000000000014
:1008E4000000000000000000000000000000000004
:1008F40000000000000000000000000000000000F4
:0F090400004200010000420139000041006E0076
:011560002268
:030088007F0122D3
:080BEE007B017A0079067D0607
:0E0BF60090017CEBF0A3EAF0A3E9F0A3EDF090
:100C040074FFA3F0A3F0E4A3F090017FE0FF900150
:100C140082E0C39F506390017CE0FBA3E475F00184
:100C240012095AA9F0FA120914FF900180E0F0A306
:100C3400E06FF0E4FD900180E0FEA3E0FF30E021EE
:100C4400EEC313FEEF13FF900180EEF0A3EFF0EE7E
:100C540064A0FEEF6401FF900180EEF0A3EFF0804A
:100C64000B900180E0C313F0A3E013F00DEDB40882
:100C7400C4900182E004F08090900180E0FCA3E045
:070C8400FDECFBEDFEEBFFB0
:010C8B002246
:10009600E4900038F0900000F0900138F0900039BC
:1000A600F0900137F0FF7E3290003AE4F0A3DEFCD8
:0C00B600E4FF7E32900006E4F0A3DEFCC4
:0100C200221B
:10137000900000E0243AF582E43400F583EFF09029
:0F1380000000E004F090006CE4F0A37402F0228F
:0B1010009001ABEBF0A3EAF0A3E9F0C5
:10101B00E4FFFE9001AEE0FBA3E0FAA3E0F98F82C0
:10102B008E8312092DFD9001ABE0FBA3E0FAA3E048
:10103B00F98F828E8312092D6D6004E4FEFF220F5F
:0E104B00BF00010EEF64064E70C97E007F01EB
:011059002274
:10138F009001A274FFF0A37415F0A3743BF07B01DE
:0E139F007A00793A1209DEE94A600375C760E8
:0113AD00221D
:1011D400D390006DE0940090006CE06480948040B3
:1011E4001EA3E024FFF090006CE034FFF0E07002F6
:1011F400A3E0700B12138F900139E4F0A304F022E2
:0F14F2009000397401F0120B4712122F021409E7
:011561002267
:100B4700900039E064016003020BED900000E0D3F0
:100B570094045003020BE5E0FF2438F582E43400E7
:100B6700F583E0FE74392FF582E43400F583E0FD68
:100B7700AF06EFFFED900173CFF0A3EFF07B017AA3
:100B870000793A900000E024FEFD120BF690017305
:100B9700E06E7003A3E06F704390003AE0FF9000AF
:100BA70004E07003A3E06F703590003BE024FA6027
:100BB7000F24FC60122407701C9000037403800C40
:100BC70090000374068005900003740AF0900137C3
:100BD7007401F0800C7F01020C8C800280001214DB
:060BE70009E4900039F062
:010BED0022E5
:10122F00900137E0B40122900003E024FA600D240E
:10123F00FC600E2407700D12042B8008120A9D808B
:0A124F00031205A6E4900137F02217
:10042B0090003CE0FEA3E0FDEDFF900174EEF0FCCC
:10043B00A3EFF090003EE0FEA3E0FBEBFF90017614
:10044B00EEF0A3EFF0C3ED9414EC9400400302051F
:10045B00A0900176E0FEA3E0FF900175E02FFD90E8
:10046B000174E03EFCC3ED9414EC940040030205D0
:10047B009CEF9400EE9400500302059C900177E0F2
:10048B0025E0FFAE07EE2405900173F0900004A366
:10049B00E0A3F0A37403F0A3EEF0900174E0FFA3CC
:1004AB00E0900178CFF0A3EFF07D037C0090017614
:1004BB00E0FEA3E0FF900175E02FFF900174E03E9A
:1004CB00FEC3900179E09F900178E09E5064A3E019
:1004DB0025E0FF900178E033FE746F2FF5827400F6
:1004EB003EF583E0FFAB0574062BF582E43400F593
:1004FB0083EFF0900179E025E0FF900178E033FE87
:10050B00746F2FF58274003EF583E0A3E0FF740750
:10051B002BF582E43400F583EFF0900179E004F0E1
:10052B007006900178E004F074022DFDE43CFC02AF
:10053B0004B87B017A007906900177E025E0FFEFA4
:10054B002403FD120BF6AD07AC06ECFF900176A36E
:10055B00E025E0FE2409F582E43400F583EFF0AFEB
:10056B0005740A2EF582E43400F583EFF090017FD9
:10057B007401F0A37400F0A37406F0900173E0FF14
:10058B00900182E4F0A3EFF07B017A007901020F76
:0A059B00787F0380027F02120C8CAF
:0105A5002233
:100A9D0090003CE0FEA3E0FDAC06A3E0FEA3E0FB6E
:100AAD00C3ED9414EC94004003020B419001737458
:100ABD0008F0AA06ED25E0FFEC33FE746F2FF582EA
:100ACD0074003EF583EAF0A3EBF0900004A3E0A3DD
:100ADD00F0A37406F0ECA3F0EDA3F025E0FBEC33EE
:100AED00FA746F2BF58274003AF583E090000AF0EA
:100AFD00746F2BF58274003AF583E0A3E090000B40
:100B0D00F0120BEEAD07AC06EC90000CF0EFA3F07D
:100B1D0090017F7401F0A37400F0A37406F09001AE
:100B2D0073E0FF900182E4F0A3EFF07B017A00798E
:090B3D0001020F787F02120C8CFA
:010B4600228C
:1005A60090003CE0FEA3E0FDEDFF900174EEF0FC50
:1005B600A3EFF090003EE0FEA3E0FBEBFF90017698
:1005C600EEF0A3EFF0C3ED9414EC940040030206A2
:1005D600E5900176E0FEA3E0FF900174E0FCA3E065
:1005E600FD2FFBEC3EFAC3EB9414EA9400400302A1
:1005F60006E1EF9400EE940050030206E1900178C4
:10060600ECF0A3EDF07D077C00900176E0FEA3E020
:10061600FF900175E02FFF900174E03EFEC390014C
:1006260079E09F900178E09E504D743A2DF58274E2
:10063600003CF583E0FE743B2DF582E43400F5833F
:10064600E0FBEEFA900179E025E0FF900178E033D7
:10065600FE746F2FF58274003EF583EAF0A3EBF08B
:10066600900179E004F07006900178E004F07402DD
:100676002DFDE43CFC80929001737408F090000418
:10068600A3E0A3F0A3740AF0900174E0FCA3E0FDDC
:10069600EC900008F0EDA3F0900176E0FCA3E0FDFD
:1006A600EC90000AF0EDA3F0120BEEAD07AC06ECF1
:1006B60090000CF0EFA3F090017F7401F0A374009A
:1006C600F0A37406F0900173E0FF900182E4F0A3BA
:1006D600EFF07B017A007901020F787F0380027FB9
:0406E60002120C8C64
:0106EA0022ED
:100C8C00EF24FE602214603E24026003020D2790C4
:100C9C000004A3E0A3F090003BE02480900007F058
:100CAC00A37401F0FB8017900004A3E0A3F0900064
:100CBC003BE02480900007F0A37402F07B017A00E3
:100CCC0079067D03801C900004A3E0A3F090003B08
:100CDC00E02480900007F0A37403F07B017A007984
:100CEC0006FD120BF690017AEEF0A3EFF090017A6C
:100CFC00E0FCA3E0FDEC900009F0EDA3F090017F87
:100D0C007401F0A37400F0A37406F0A3E4F0A374D0
:0B0D1C0005F07B017A007901120F78CE
:010D270022A9
:10140900E4FF7E3290003AE4F0A3DEFCE4900000B1
:0C141900F0FF7E32900006E4F0A3DEFC41
:0114250022A4
:05155A00EFC4540FFF77
:01155F002269
:04008E00EF540FFF1D
:01009200224B
:10125900EFC39400400CEFD39409500674302FFF6C
:101269008014EFC3940A400CEFD3940F50067437DF
:071279002FFF80027FFF221E
:0B0F780090017CEBF0A3EAF0A3E9F08D
:100F8300E4900184F0A3F0900182E0FEA3E0FFA3CC
:100F9300E0FCA3E0FDC39FEC9E502690017FE0FBA5
:100FA300A3E0FAA3E0F98D828C8312092DFF1215B9
:100FB30027900185E004F070CE900184E004F08076
:010FC300C667
:010FC400220A
:0D150E002A2A2A25642D25642A2A2A0A008B
:1013AE00E4FFFED20C90FE817481F0300C10C3EF7E
:0E13BE009470EE941750070FBF00010E80EDE3
:0113CC0022FE
:10128000E4FDFC90FE86EFF0D20C90FE817482F0BB
:10129000300C10C3ED9470EC941750070DBD000195
:0312A0000C80EDD2
:0112A3002228
:100D28001213AE7FC2121280120DA07F60121280C1
:100D3800120DA0900173E0C4F854F0C8A3E0C454A5
:100D48000F48FF121280120DA0900174E0540FC4D6
:100D5800F8540FC868FF121280120DA01213CD129A
:100D680013AE7FC0121280120DA07F601212801283
:100D78000DA0900175E0C4F854F0C8A3E0C4540F66
:100D880048FF121280120DA0900176E0540FC4F8AB
:080D9800540FC868FF1212801D
:100DA000E4FFFED20C90FE817483F0300C10C3EF90
:0E0DB0009470EE941750070FBF00010E80EDF7
:010DBE002212
:1012A400E4FFFED20C90FE817484F0300C10C3EF86
:1012B4009470EE941750070FBF00010E80ED90FE5E
:0312C40087E0FFC1
:0112C7002204
:1012EC00E4FFFE90FE82F0D20C90FE817485F0300B
:1012FC000C10C3EF9470EE941750070FBF00010E43
:02130C0080ED72
:01130E0022BC
:1012C800E4FFFE90FE8204F0D20C90FE817485F05B
:1012D800300C10C3EF9470EE941750070FBF000145
:0312E8000E80ED88
:0112EB0022E0
:1013CD00E4FFFED20C90FE817486F0300C10C3EF5A
:0E13DD009470EE941750070FBF00010E80EDC4
:0113EB0022DF
:0300C300021330F5
:10133000C0E0C083C082C0BA43BA8090FE82E03071
:10134000E606E054BFF0C20CD0BAD082D083D0E021
:01135000326A
:0A153100EF4E7003D29622C29622FC
:100F1D009001737407F0A374FFF0A3740BF0A37426
:100F2D00B8F0900077E0FFA3E0900175CFF0A3EF4C
:100F3D00F07BFF7A15790E900175E0FCA3E0FDECD6
:100F4D00FF90017AE4F0A3EFF0AF05A3E4F0A3EF77
:100F5D00F0120131900175E0FEA3E0FF1215311280
:0B0F6D000D281213CD120D280213CD29
:0C151B00C2B7D2B6120F1DD2B7C2B62262
:100DCB00020E4BE493A3F8E493A34003F68001F2E5
:100DDB0008DFF48029E493A3F85407240CC8C33329
:100DEB00C4540F4420C8834004F456800146F6DFF8
:100DFB00E4800B0102040810204080900803E47E7D
:100E0B00019360BCA3FF543F30E509541FFEE493EC
:100E1B00A360010ECF54C025E060A840B8E493A3B3
:100E2B00FAE493A3F8E493A3C8C582C8CAC583CADE
:100E3B00F0A3C8C582C8CAC583CADFE9DEE780BE96
:0109130000E3
:10091400BB010689828A83E0225002E722BBFE02E1
:09092400E32289828A83E4932214
:10092D00BB010CE58229F582E5833AF583E022507F
:10093D0006E92582F8E622BBFE06E92582F8E222C9
:0D094D00E58229F582E5833AF583E49322E3
:10095A00A3F8E0C5F025F0F0E58215827002158350
:06096A00E0C838F0E822AD
:1000C600E510247AF582E43401F583E005102290E8
:1000D600017730070390017AE475F001120998025E
:1000E60009142000E97F2ED2008018EF540F2490C7
:1000F600D43440D4FF30040BEF24BFB41A005003AD
:100106002461FFE511600215110514E5147002055E
:100116001330070E900177E475F001120998EF028B
:1001260009700215547403D2078003E4C207F51060
:100136009001771209AFE4F511F513F514E5116096
:10014600077F2012010980F57512FFC201C200C2A5
:1001560002C203C205C206C2081200D5FF700D30E6
:1001660007057F0012011AAF14AE1322B4255FC231
:10017600D5C2041200D5FF24D0B40A00501A75F077
:100186000A781130D50508B6FF0106C6A426F62062
:10019600D5047002D20380D924CFB41A00EF5004DC
:1001A600C2E5D20402031BD20180C6D20080C0D2AF
:1001B6000280BCD2D580BAD20580B47F2012010954
:1001C6002002077401B5110040F11200C6FF1201AA
:1001D60009020143D208D20680951200C6FB12001E
:1001E600C6FA1200C6F94A4B700679EC7A037BFF11
:1001F60020022EE511602A7E008E82758300120988
:100206002D60060EEE651270F0C2D5EBC0E0EAC0B6
:10021600E0E9C0E0EE120362D0E0F9D0E0FAD0E007
:10022600FB120914FF60AAEBC0E0EAC0E0E9C0E0F7
:10023600120109D0E02401F9D0E03400FAD0E0FB45
:10024600E5120460DCD512D980877BFF7A03795EDC
:10025600D202809C791080027908C206C208800802
:10026600D2D5790A8004790AC2D5E512047002F55E
:1002760012E4FAFDFEFF1200C6FC7B0820011312F1
:1002860000C6FD7B1030000A1200C6FE1200C6FF33
:100296007B20EC3382D592D55013C3E43000069F01
:1002A600FFE49EFEE42001039DFDE49CFCE4CBF804
:1002B600C201EC700CCFCECDCCE824F8F870F380F8
:1002C60017C3EF33FFEE33FEED33FDEC33FCEB33B8
:1002D600FB994002FB0FD8E9EB300105F8D0E0C4EA
:1002E60048B201C0E00AEC4D4E4F78207B0070C248
:1002F600EAB5120040BCC0E0120364D0F0D0E020A2
:100306000104C4C0E0C4B201C0F01200F2D0F0D5BE
:10031600F0EB0201431209B801E053025A5801B149
:100326004C01AD42025E4F02664402664901C64375
:08033600026C55025046025012
:10033E0045025047040C5001B52D01B92E01DC2B9E
:10034E0001BD2301DA2003F52A017548000001D40E
:10035E003F3F3F00790AA2D5200314300509B9109A
:10036E00020404B9080104A2D5200602500104209B
:10037E0002689202B511005034C0E07F203003199C
:10038E007F30A20272067205500F1203BBC202C268
:10039E0006C205C2087F30800F300503E9C0E012A7
:1003AE000109300503D0E0F9D0E0B511CC300517C6
:1003BE007F30B9100C1201097F583004077F788006
:1003CE0003B908031201093002057F2D0201097FCE
:1003DE00202008F87F2B2006F322920280CF286E71
:1003EE00756C6C2900D2011200C63001F8C201787A
:1003FE001130D50108F60201752D504349581200EF
:10040E00C62403B405004001E4900407931200FAD9
:0D041E00743A1200FAD20375110402025A5A
:1009DE0090019FEBF0A3EAF0A3E9F0A3E0FBA3E004
:1009EE00FAA3E0F91209147003020A8A90019FE03B
:1009FE00FBA3E0FAA3E0F91209147003020A969021
:100A0E0001A2E0F9A3E0FAA3E0A3C9F0A3EAF0A3E0
:100A1E00E9F090019FA3E0FAA3E0F99001A8EBF0B2
:100A2E00A3EAF0A3E9F09001A5E0FBA3E0FAA3E0AE
:100A3E00F9120914FF60269001A8E0FBA3E0FAA3C7
:100A4E00E0F91209146F70159001A675F0011209E4
:100A5E00829001A9E475F00112098280C99001A566
:100A6E00E0FBA3E0FAA3E0F91209147002800D90E6
:100A7E0001A0E475F0011209820209FA90019FE0CB
:0F0A8E00FBA3E0FAA3E0F9227B007A00790022B3
:10097000BB010689828A83F0225002F722BBFE0166
:02098000F32260
:10098200C5F0F8A3E028F0C5F0F8E5821582700200
:060992001583E038F0229D
:10099800F8E0FBA3A3E0F925F0F0E58215827002E8
:0709A8001583E0FA38F0228C
:0909AF00EBF0A3EAF0A3E9F02249
:1009B800D083D082F8E4937012740193700DA3A3CE
:1009C80093F8740193F5828883E4737402936860E2
:0609D800EFA3A3A380DFE2
:00000001FF
