:030000000218DD06
:0C18DD00787FE4F6D8FD75812202192402
:1011790067657464697A68690073657464697A6813
:10118900690070696E676D75536574446174612097
:101199007A686925642D25640070696E676D7547E5
:1011A9006574446174612067657464697A68692546
:1011B900642D256400736574206469616E6C6975BA
:1011C9002025645F5F005F5F5F206469616E6C6901
:1011D900752025642D2D0073797374656D206973ED
:1011E9006F6B004053544349535023007265632089
:1011F90040535443495350232C726573656172748B
:10120900206E6F770025627820006E6F74207265FA
:101219006300000000000000000000000000000062
:1012290000000000000000000000000000000000B5
:1012390000000000000000000000000000000000A5
:101249000000000000000000000000000000000095
:101259000000000000000000000000000000000085
:101269000000000000000000000000000000000075
:10127900000000000000010600040000C80B000087
:0A128900010300040001C5CB0000C2
:100CBF0041013C00606401B700000000000000002B
:100CCF000000000000000000000000000000000015
:100CDF000000000000000000000000000000000005
:100CEF0000000000000000000000000000000000F5
:100CFF0000000000000000000000000000000000E5
:100D0F0000000000000000000000000000000000D4
:100D1F00000000000000000000000000420145003C
:100D2F00004201490000420147000042014E00000D
:100D3F0042014B000042013A000060640153000081
:100D4F000000000000000000000000000000000094
:100D5F000000000000000000000000000000000084
:100D6F000000000000000000000000000000000074
:100D7F000000000000000000000000000000000064
:100D8F000000000000000000000000000000000054
:100D9F000000000000000000000000000000000044
:070DAF0000004201430000B7
:1020B800E4F593F594F592F591F595F596F5B2F565
:0B20C800B1F5B3F5B475CAFFF5C922ED
:041D63007F027E007D
:101D6700EF25E0FFEE33900141F0A3EFF0C39001C0
:101D770041E064809480401B900138E07004A3E048
:101D87006401700A122209E4900138F0A3F01215D9
:041D9700B780DA2215
:010089002254
:101BE8009002CE74FFF0A37411F0A37479F012146C
:101BF8003E9002C8EBF0A3EAF0A3E9F04A60337B19
:101C0800FF7A11797912000E9002C8E0FBA3E0FA7E
:101C1800A3E02FF9EA3EFA121293EFF47002EEF401
:101C28006010900149E4F0A304F0900147EEF0A39E
:021C3800EFF0CB
:011C3A002287
:101969009002CE74FFF0A37411F0A37482F01214E4
:101979003E9002C8EBF0A3EAF0A3E9F04A60657B68
:10198900FF7A11798212000E9002C8E0FBA3E0FAF7
:10199900A3E02FF9EA3EFA121293EFF47002EEF483
:1019A900604290014EE4F0A304F090014BEEF0A3E5
:1019B900EFF07BFF7A11798212000E9002C8E0FBEA
:1019C900A3E0FAA3E02FF9EA3EFAE92403F9E43A9D
:1019D900FA121293EFF47002EEF4600890013AEEF5
:0419E900F0A3EFF088
:0119ED0022D7
:1015B700781D7C027D017BFF7A12791B7E007F6498
:1015C70012067590014EE07004A3E064017040902C
:1015D700014EF0A3F07BFF7A11798B90014BE0FF6E
:1015E700A3E09002CBCFF0A3EFF090013AE0FFA386
:1015F700E09002CDCFF0A3EFF01208A790014BE0E7
:10160700FEA3E0FF90013AE0FCA3E0FD1214FD9079
:101617000149E07004A3E064017040900149F0A320
:10162700F0900148E025E0FF900147E033FE746E3B
:101637002FF58274003EF583E0FEA3E0FF7BFF7A7F
:101647001179A2900147E0FDA3E09002CBCDF0A372
:0B165700EDF0A3EEF0A3EFF01208A7E7
:011662002265
:0E14FD00900281EEF0A3EFF0A3ECF0A3EDF06F
:10150B0078857C027D017BFF7A12797F7E007F0AD2
:10151B00120675900281E0FEA3E0FF7C017D0012B4
:10152B0006F3900288EDF0900283E0FCA3E0FDEC63
:10153B00FF3395E0900289EFF0EDA3F07B017A0287
:10154B0079857D06121715AC06EC90028BF0EFA394
:10155B00F07B017A0279857D087C00121E40900198
:10156B0041E4F0A37428F0D3900142E09400900181
:10157B0041E064809480403390013CE060E97B0162
:10158B007A0279857D087C00121B327BFF7A1179F8
:10159B00BE900283E0FFA3E09002CBCFF0A3EFF06D
:0B15AB001208A7E490013CF0121D287C
:0115B6002212
:041847007F047E009C
:08184B0090021DEEF0A3EFF086
:10185300781F7C027D017BFF7A1279897E007F0AE3
:101863001206757B017A02791F7D06121715AC06E5
:10187300EC900225F0EFA3F07B017A02791F7D083B
:101883007C00121E40900141E4F0A37464F0D390F5
:101893000142E09400900141E064809480403A90DA
:1018A300013CE060E9E4F07B017A02791F7D08FCEA
:1018B300121B329001BAE0FEA3E0FDEDFF9000762B
:1018C300EEF0A3EFF07BFF7A1179CF9002CBEEF02D
:0918D300A3EFF01208A7121D2872
:0118DC0022E9
:101ACD009003007407F0A374D0F0900300E0FCA322
:101ADD00E0FD7F047E001214FD7F327E00121D6733
:101AED007F037E0012184B900300E0FCA3E0FDEC99
:101AFD001201A17BCD7ACC798C783F120096120120
:101B0D00DA900300EEF0A3EFF0D394FFEE6480942F
:101B1D008F4009900300E4F0A37464F07FF47E011C
:051B2D00121D6780A5F8
:101FBA007F011221717F101221717FB47E00121DE0
:101FCA0067121C3B900302EEF0A3EFF07F027E0043
:031FDA00021D677E
:101A64001220B81220D3121FFF122120122041D2BB
:101A7400AF121D637BFF7A1179E01200267BFF7A97
:101A84001179E012214B121D6312207F121D631283
:101A940018477F0A7E00121D6712184790021BE444
:101AA40075F001120729FED3E5F09464EE64809486
:101AB40080400A121847E490021BF0A3F07F647E72
:091AC40000121D671215B780D352
:101FDD009002CE74FFF0A37411F0A374ECF0121400
:101FED003EE94A600C7BFF7A1179F51208A775C797
:011FFD006083
:011FFE0022C0
:101D9B00900143E475F001120729FC745325F0F50B
:101DAB008274013CF583EFF0D3900144E0945090A2
:101DBB000143E0648094804004E4F0A3F090013D83
:071DCB00E4F0A37405F0220F
:101B9200D390013EE0940090013DE0648094804047
:101BA20044A3E024FFF090013DE034FFF0E0700236
:101BB200A3E070317B017A017953121FDD7B017A38
:101BC2000179531219697B017A017953121BE87E5C
:101BD200007F647D007B017A017953120793E490C0
:061BE2000143F0A3F02214
:03002300021DD2E9
:101DD200C0E0C0F0C083C082C0D075D000C000C0D7
:031DE20004C00733
:101DE500309809C298AF99121D9B8002C29930990B
:031DF50002C2998E
:101DF800D007D004D000D0D0D082D083D0F0D0E0AB
:011E080032A7
:03004300021F7029
:101F7000C0E0C083C082E59A30E009539AFE900128
:101F800050E59BF0E59A30E105539AFDC212D082EC
:051F9000D083D0E03217
:03008B00021F95BC
:101F9500C0E0C083C082E5AC30E00953ACFE9001DF
:101FA50051E5ADF0E5AC30E10553ACFDC213D0828F
:051FB500D083D0E032F2
:101E0900900145E475F001120729FC74B725F0F536
:101E19008274013CF583EFF0D3900146E094509031
:101E29000145E0648094804004E4F0A3F090013F10
:071E3900E4F0A37402F022A3
:0300930002004622
:10004600C0E0C0F0C083C082C0D075D000C000C080
:0300560004C007DC
:10005900E58430E0085384FEAF85121E09E584303B
:07006900E1055384FDC21400
:10007000D007D004D000D0D0D082D083D0F0D0E050
:01008000324D
:102109007E007F647D007B017A0179B7120793E431
:07211900900145F0A3F02244
:101B3200900291EBF0A3EAF0A3E9F0A3ECF0A3ED9D
:011B4200F0B2
:101B4300E4A3F0A3F0900294E0FEA3E0FFA3E0FC83
:101B5300A3E0FDC39FEE6480F8EC648098502F905F
:101B63000291E0FBA3E0FAA3E0F98D828C831206D5
:101B7300B49002CBF07BFF7A12790E1208A7900281
:0E1B830097E004F070BF900296E004F080B787
:011B91002231
:101D2800900145E07002A3E070097BFF7A127913F5
:101D38000208A77B017A0179B7900145E0FCA3E08E
:101D4800FD121B327E007F647D007B017A0179B72A
:0A1D5800120793E4900145F0A3F098
:011D6200225E
:101ECD00D3900140E0940090013FE0648094804005
:101EDD0018A3E024FFF090013FE034FFF0E0700222
:0A1EED00A3E0700590013C04F02210
:03000B00021C8C48
:101C8C00C0E0C0F0C083C082C0D075D000C000C01E
:101C9C0001C002C003C004C005C006C007900142C9
:101CAC00E024FFF0900141E034FFF0121EA1121B62
:101CBC0092121ECDD007D006D005D004D003D0028E
:0F1CCC00D001D000D0D0D082D083D0F0D0E03281
:050DB6004203040001EE
:10212000438E805389F0758A20758CD1C28DD2B9C7
:07213000D2A9D28CD2AF222C
:1020D300759850438E40538EFE53890F758BCC7584
:0B20E3008DFFC2ABD28ED2ACD2AF2278
:101FFF0075AC1053ACBF759A50438E0475D78F755F
:10200F00D6FD438E1043AF0143AF08D2AF53BAFD95
:01201F00229E
:1020410075841043844043D12075D3CC75D2FF43AE
:0F205100D1805384DF53847F43AF104384102228
:1020EE00C2998F99209911E4FFFE20990B0FBF0022
:0A20FE00010EBE07F5BFD0F2D2AF0D
:0121080022B4
:080003002012FDD2128F9B2296
:080081002013FDD2138FAD2204
:10214B0012069BFF600C120081740129F9E43AFA24
:03215B0080EE22F1
:0821D7002014FDD2148F8522B3
:10215E0012069BFF600C1221D7740129F9E43AFA9A
:03216E0080EE22DE
:081E400090028FECF0A3EDF01D
:101E4800E4FDFCD3900290E09DEC6480F890028F52
:101E5800E0648098401512069BFF1221D77401296F
:0B1E6800F9E43AFA0DBD00010C80D82F
:011E7300224C
:10002600900304E07002A3E0601212069BFF600CCE
:0D0036001220EE740129F9E43AFA80EE225E
:0821DF00AD071220EEAF05224E
:1019EE00405354434953502300726563204053546F
:1019FE0043495350232C72657365617274206E6F68
:101A0E0077004D6F646275735F4352435F52637626
:101A1E00206F6B20256264004D6F646275735F5793
:101A2E00726974654D756C7469706C65526567206A
:101A3E006F6B20256264005374617274416464722A
:101A4E006573735F526567202564204E756D5F5216
:061A5E006567202564000D
:100DBB00420004000160C8006E000000000000004B
:100DCB000000000000000000000000000000000018
:100DDB000000000000000000000000000000000008
:100DEB0000000000000000000000000000000000F8
:100DFB0000000000000000000000000000000000E8
:100E0B0000000000000000000000000000000000D7
:100E1B0000000000000000000000000000000000C7
:100E2B0000000000000000000000000000000000B7
:100E3B0000000000000000000000000000000000A7
:100E4B000000000000000000000000000000000097
:100E5B000000000000000000000000000000000087
:100E6B000000000000000000000000000000000077
:100E7B000000000000000000000000000000000067
:0B0E8B0000420001000042013800009E
:032206007F012233
:08170D007B017A0079067D06DC
:0E17150090028FEBF0A3EAF0A3E9F0A3EDF051
:1017230074FFA3F0A3F0E4A3F0900292E0FF900211
:1017330095E0C39F506390028FE0FBA3E475F00133
:10174300120729A9F0FA12069BFF900293E0F0A377
:10175300E06FF0E4FD900293E0FEA3E0FF30E021B0
:10176300EEC313FEEF13FF900293EEF0A3EFF0EE40
:1017730064A0FEEF6401FF900293EEF0A3EFF0800C
:101783000B900293E0C313F0A3E013F00DEDB40844
:10179300C4900295E004F08090900293E0FCA3E0F3
:0717A300FDECFBEDFEEBFF86
:0117AA00221C
:101E7400E4900038F0900000F0900137F0900039C1
:101E8400F0900136F0FF7E3290003AE4F0A3DEFCDD
:0C1E9400E4FF7E32900006E4F0A3DEFCC8
:011EA000221F
:10206000900000E0243AF582E43400F583EFF0902C
:0F2070000000E004F090006CE4F0A37402F02292
:101F21009002CE74FFF0A37419F0A374EEF07B015C
:101F31007A00793A12143EE94A600C7BFF7A1979EA
:071F4100F71208A775C76045
:011F48002276
:032209000221832C
:101EA100D390006DE0940090006CE06480948040D9
:101EB1001AA3E024FFF090006CE034FFF0E0700220
:0C1EC100A3E07007900138F0A304F022A9
:0F2183009000397401F012136E121EF702207FC4
:10136E00900039E06401600302143D900000E0D368
:10137E0094045003021435E0FF2438F582E434005F
:10138E00F583E0FE74392FF582E43400F583E0FD39
:10139E00AF06EFFFED90021DCFF0A3EFF07B017AC9
:1013AE0000793A900000E024FEFD12171590021D00
:1013BE00E06E7003A3E06F706C7BFF7A1A79109069
:1013CE000000E09002CBF01208A790003AE0FF90E8
:1013DE000004E07003A3E06F704D90003BE024FA30
:1013EE00600F24FC6019240770349000037403808E
:1013FE00059000037406F09001367401F0802B9076
:10140E000003740AF09001367401F07BFF7A1A79AA
:10141E0026900000E09002CBF01208A7800C7F010E
:0F142E000217AB8002800012207FE4900039F09B
:01143D00228C
:101EF700900136E0B40122900003E024FA600D243B
:101F0700FC600E2407700D120E978008121663806E
:0A1F170003121012E4900136F022CC
:100E970090003CE0FEA3E0FDEDFF90021EEEF0FCAB
:100EA700A3EFF090003EE0FEA3E0FBEBFF900220F3
:100EB700EEF0A3EFF0C3ED9464EC9400400302104E
:100EC7000C900220E0FEA3E0FF90021FE02FFD90B0
:100ED700021EE03EFCC3ED9464EC94004003021054
:100EE70008EF9400EE94005003021008900221E0EE
:100EF70025E0FFAE07EE240590021DF0900004A345
:100F0700E0A3F0A37403F0A3EEF090021EE0FFA3AA
:100F1700E0900222CFF0A3EFF07D037C0090022047
:100F2700E0FEA3E0FF90021FE02FFF90021EE03ECD
:100F3700FEC3900223E09F900222E09E5064A3E04C
:100F470025E0FF900222E033FE746E2FF5827400D5
:100F57003EF583E0FFAB0574062BF582E43400F51C
:100F670083EFF0900223E025E0FF900222E033FEBA
:100F7700746E2FF58274003EF583E0A3E0FF7407DB
:100F87002BF582E43400F583EFF0900223E004F0C0
:100F97007006900222E004F074022DFDE43CFC028E
:100FA7000F247B017A007906900221E025E0FFEF0C
:100FB7002403FD121715AD07AC06ECFF900220A322
:100FC700E025E0FE2409F582E43400F583EFF0AF75
:100FD70005740A2EF582E43400F583EFF0900229B8
:100FE7007401F0A37400F0A37406F090021DE0FFF3
:100FF70090022CE4F0A3EFF07B017A007901021C48
:0A100700DB7F0380027F021217ABAB
:0110110022BC
:1016630090003CE0FEA3E0FDAC06A3E0FEA3E0FB9C
:10167300C3ED9464EC9400400302170790021D74B9
:1016830008F0AA06ED25E0FFEC33FE746E2FF58219
:1016930074003EF583EAF0A3EBF0900004A3E0A30B
:1016A300F0A37406F0ECA3F0EDA3F025E0FBEC331C
:1016B300FA746E2BF58274003AF583E090000AF019
:1016C300746E2BF58274003AF583E0A3E090000B6F
:1016D300F012170DAD07AC06EC90000CF0EFA3F081
:1016E3009002297401F0A37400F0A37406F0900231
:1016F3001DE0FF90022CE4F0A3EFF07B017A007968
:0917030001021CDB7F021217AB8E
:01170C0022BA
:1010120090003CE0FEA3E0FDEDFF90021EEEF0A387
:10102200EFF090003EE0FEA3E0FDEDFF900220EE27
:10103200F0A3EFF07BFF7A1A794590021EE0FDA340
:10104200E09002CBCDF0A3EDF0A3EEF0A3EFF0120F
:1010520008A790021EE0FEA3E0FFC39464EE940092
:101062004003021173A3E0FCA3E0FDEF2DFFEE3C71
:10107200FEC3EF9464EE9400400302116FED9400FE
:10108200EC9400500302116F90021EE0FFA3E09067
:101092000222CFF0A3EFF07D077C00900220E0FE59
:1010A200A3E0FF90021FE02FFF90021EE03EFEC36E
:1010B200900223E09F900222E09E504D743A2DF55B
:1010C2008274003CF583E0FE743B2DF582E434002B
:1010D200F583E0FBEEFA900223E025E0FF90022286
:1010E200E033FE746E2FF58274003EF583EAF0A3BE
:1010F200EBF0900223E004F07006900222E004F08C
:1011020074022DFDE43CFC809290021D7408F09064
:101112000004A3E0A3F0A3740AF090021EE0FCA373
:10112200E0FDEC900008F0EDA3F0900220E0FCA3BB
:10113200E0FDEC90000AF0EDA3F012170DAD07AC44
:1011420006EC90000CF0EFA3F09002297401F0A3DA
:101152007400F0A37406F090021DE0FF90022CE4EC
:10116200F0A3EFF07B017A007901021CDB7F0380A0
:06117200027F021217AB20
:011178002254
:1017AB00EF24FE602214603E240260030218469070
:1017BB000004A3E0A3F090003BE02480900007F02E
:1017CB00A37401F0FB8017900004A3E0A3F090003A
:1017DB003BE02480900007F0A37402F07B017A00B9
:1017EB0079067D03801C900004A3E0A3F090003BDE
:1017FB00E02480900007F0A37403F07B017A00795A
:10180B0006FD121715900224EEF0A3EFF0900224C0
:10181B00E0FCA3E0FDEC900009F0EDA3F0900229B1
:10182B007401F0A37400F0A37406F0A3E4F0A374A6
:0B183B0005F07B017A007901121CDB34
:01184600227F
:10207F00E4FF7E3290003AE4F0A3DEFCE49000002F
:0C208F00F0FF7E32900006E4F0A3DEFCBF
:01209B002222
:0521F600EFC4540FFFCF
:0121FB0022C1
:04008E00EF540FFF1D
:01009200224B
:101F4900EFC39400400CEFD39409500674302FFF6F
:101F59008014EFC3940A400CEFD3940F50067437E2
:071F69002FFF80027FFF2221
:0B1CDB00900226EBF0A3EAF0A3E9F072
:101CE600E490022EF0A3F090022CE0FEA3E0FFA306
:101CF600E0FCA3E0FDC39FEC9E5026900229E0FB8A
:101D0600A3E0FAA3E0F98D828C831206B4FF1221B8
:101D1600D790022FE004F070CE90022EE004F080FF
:011D2600C6F6
:011D27002299
:0821E7000000000000000000F0
:0421FC007F14DFFE6F
:0122000022BB
:0721EF007F057E00021D6761
:0F219200D2A4D2A51221FCC2A41221FCC2A52204
:0C21CB00C2A4D2A51221FCD2A40221FC67
:0E21B000A21592A4D2A51221FCC2A50221FC08
:0D21BE00D2A51221FCA2A4C2A51221FC2270
:02209C00AE078D
:10209E00E4FDEE25E0FE92A4D2A51221FCC2A5120B
:0A20AE0021FC0DEDB408EB0221BE89
:10202000E4FED2A4FDEE25E0FED2A51221FCA2A47E
:10203000E4334EFEC2A51221FC0DEDB408E7AF0655
:01204000227D
:10217100AC071221927F4612209CAF0412209C02D0
:0221810021CB70
:101C3B0078F87C027D017BFF7A2179E77E007F08B3
:101C4B001206751221927F4712209CE4FC12202071
:101C5B0074F82CF582E43402F583EFF0ECB4030452
:101C6B00D2158002C2151221B00CECB403DF122185
:101C7B00CB9002F8E0FEA3E07C002400FFEC3EFEDC
:011C8B002236
:052201007F01022171C4
:10009600EC4D6011E8497017ED33EC3304600DE464
:1000A600FCFFFEFD22E933E8330470F80202461233
:1000B600021158046009E4CC248150062850090234
:1000C600025028400302024DC0E0EB4A7044B9805A
:1000D60006D0E0FB02023CEF4E701CBD8008EBFF31
:1000E600EAFEE9FD80EBE98DF0A4FEE5F002017F72
:1000F600E9CDF9EAFEEBFFEF89F0A4FCE5F0CE8945
:10010600F0A42EFFE435F0CD89F0A42DFEE435F001
:100116008067EF4E7005BD80D780C3EF8BF0A4AC2F
:10012600F0EE8BF0A42CFCE435F0F8EF8AF0A42C6A
:10013600E5F038FCE433CB8DF0A42CFCE5F03BF87D
:10014600EE8AF0A42CFCE5F038F8E433CF89F0A46D
:100156002CFCE5F038CF3400CE89F0A42FFFE5F073
:100166003EFEE433C98DF0A42EFEE5F039CD8AF0CB
:10017600A42FFFE5F03EFEE43DFD33D0E0FB500743
:100186000BBB000F020250EC2CFCEF33FFEE33FEEC
:06019600ED33FD0202281A
:10019C0075F020800E75F010800575F0087D007EDE
:1001AC00007F003392D530D50312073FEC3340105B
:1001BC00EF33FFEE33FEED33FDEC33FCD5F0ED22E7
:0E01CC00E5F0247EA2D513CC92E7CDCEFF2223
:1001DA00EDD2E7CD33EC3392D524814006E4FFFE1D
:1001EA00FDFC22FCE4CFCECDCC24E0501174FF807C
:1001FA00EDC3CC13CCCD13CDCE13CECF13CF047019
:07020A00F030D5DE02073FD2
:10083C00E50D24CBF582E43402F583E0050D22901E
:10084C0002C83010039002CBE475F00112074D0280
:10085C00069B2009E97F2ED2098018EF540F2490B3
:10086C00D43440D4FF300D0BEF24BFB41A00500326
:10087C002461FFE50E6002150E0511E511700205ED
:10088C001030100E9002C8E475F00112074DEF0203
:10089C0006E10221DF7403D2108003E4C210F50DCF
:1008AC009002C8120764E4F50EF510F511E50E6020
:1008BC00077F2012087F80F5750FFFC20AC209C29C
:1008CC000BC20CC20EC20FC21112084BFF700D30BE
:1008DC0010057F00120890AF11AE1022B4255FC234
:1008EC00D5C20D12084BFF24D0B40A00501A75F073
:1008FC000A780E30D50508B6FF0106C6A426F620E8
:10090C00D5047002D20C80D924CFB41A00EF500455
:10091C00C2E5D20D020B82D20A80C6D20980C0D2A7
:10092C000B80BCD2D580BAD20E80B47F2012087F47
:10093C00200B077401B50E0040F112083CFF1208A1
:10094C007F0208B9D211D20F809512083CFB120815
:10095C003CFA12083CF94A4B700679807A0C7BFF02
:10096C00200B2EE50E602A7E008E82758300120607
:10097C00B460060EEE650F70F0C2D5EBC0E0EAC0B5
:10098C00E0E9C0E0EE120BE3D0E0F9D0E0FAD0E001
:10099C00FB12069BFF60AAEBC0E0EAC0E0E9C0E0F6
:1009AC0012087FD0E02401F9D0E03400FAD0E0FB4B
:1009BC00E50F0460DCD50FD98087D20B80A2120B17
:1009CC00C560F7E50F70010412025BA90F600DE51D
:1009DC000F600914F50F120C6DEF60F3EA30E702AB
:1009EC00F404C3995079EAF4250F0430E701E404C8
:1009FC00F50F800D120BC560C1EA050F250F120211
:100A0C005BEA9002F7F030E701E4250F04D50F0400
:100A1C00200E0114120BE3E4C0E0120C6D9002F7EF
:100A2C00E0601320E70714F0120867802204F0D06E
:100A3C00E014C0E07F00120867E50F600712085E43
:100A4C00150F800B300E0312085ED0E00208B9D0EF
:100A5C00E00480C4120BC5609EE50F0412025B908B
:100A6C0002F7EAF0E50F200E026001042404120BD9
:010A7C00E396
:100A7D0074FF04C0E0120C6D120867E50F200E0222
:100A8D00600312085ED0E0B50FE87F451208719043
:100A9D0002F7E07F2B30E7047F2DF404C0E012084D
:100AAD007FD0E075F00A84C0F0120868D0E012081B
:100ABD00680208B9791080027908C20FC211800846
:100ACD00D2D5790A8004790AC2D5E50F047002F5F2
:100ADD000FE4FAFDFEFF12083CFC7B08200A1312FE
:100AED00083CFD7B1030090A12083CFE12083CFF41
:100AFD007B20EC3382D592D55013C3E43009069F89
:100B0D00FFE49EFEE4200A039DFDE49CFCE4CBF88B
:100B1D00C20AEC700CCFCECDCCE824F8F870F3807F
:100B2D0017C3EF33FFEE33FEED33FDEC33FCEB3348
:100B3D00FB994002FB0FD8E9EB300A05F8D0E0C471
:100B4D0048B20AC0E00AEC4D4E4F78207B0070C2CF
:100B5D00EAB50F0040BCC0E0120BE5D0F0D0E020AC
:100B6D000A04C4C0E0C4B20AC0F0120868D0F0D5BF
:100B7D00F0EB0208B912076D0956530AC15809273F
:100B8D004C0923420AC54F0ACD440ACD49093C43BD
:100B9D000AD3550A00460A604509CA470CA05009F8
:100BAD002B2D092F2E09522B0933230950200C8987
:100BBD002A08EB480000094AE50FB4FF03750F063C
:100BCD0012083CFC12083CFD12083CFE12083CFFCA
:100BDD009002F0020298790AA2D5200C14300E0969
:100BED00B910020404B9080104A2D5200F02500166
:100BFD0004200B68920BB50E005034C0E07F2030FE
:100C0D000C197F30A20B720F720E500F120C3CC2DA
:100C1D000BC20FC20EC2117F30800F300E03E9C020
:100C2D00E012087F300E03D0E0F9D0E0B50ECC30E5
:100C3D000E177F30B9100C12087F7F58300D077FCB
:100C4D00788003B9080312087F300B057F2D020849
:100C5D007F7F202011F87F2B200FF322920B80CF66
:100C6D007F00B40700500B24F0F582E43402F583C5
:100C7D00E0FF22286E756C6C2900D20A12083C30F8
:100C8D000AF8C20A780E30D50108F60208EB2D508D
:100C9D0043495812083C2403B405004001E4900C6C
:100CAD009B93120870743A120870D20C750E0402E0
:020CBD000AC16A
:10021100E9D2E7C933E833F892D5EDD2E7CD33EC33
:0702210033FC5002B2D522AC
:10022800EC30E7100FBF000C0EBE00080DBD000437
:100238000BEB6014A2D5EB13FCED92E7FD2274FFE3
:10024800FCFDFEFF22E480F8A2D574FF13FC7D803C
:03025800E480EF50
:10025B00F920E73624F950037907E4F42402FBE58F
:10026B0082158270021583DBF6E024FB501BE960DC
:10027B0014E4F0E582158270021583E004F0B40AF1
:0D028B0008E4F0D9EE7401F00A22C2D52279
:10029800ED33EC3392D5FA602AB4FF33EDC2E77B35
:1002A800FF60067A0279BDE4227A0279C620D50475
:1002B8007A0279C1224E614E002B494E46002D49E3
:1002C8004E4600E47A08F0A3DAFC7B00740722C0EB
:1002D80083C082ECC0E0EDC0E0EEC0E0EFC0E0EA31
:1002E80075F010A4CAABF075F04DA42BFBE435F003
:1002F800FCEA2410FAEB34C5FBEC34D9FCEDC2E778
:10030800FF75F056A4F42411C5F0F434C58FF0A499
:100318002AE5F03BE43CF020E714120565D0E0FF45
:10032800D0E0FED0E0FDD0E0FC1204988014F40484
:10033800120565D0E0FFD0E0FED0E0FDD0E0FC1271
:100348000096D082D083E0FAEDD2E7CD33EC3324A7
:1003580082FBE4C3CF33CFCE33CECD33CD33DBF303
:100368007B0775F00A846004F0A31B0AE5F0F0A38C
:100378008FF0740AA4FFACF08EF0740AA42CFEACC3
:10038800F050010C8DF0740AA42CFDE435F0F0A3B4
:05039800DBDE7407220A
:10039D00020246E86480F8E933E83360110460F046
:1003AD00ED33EC337009E8FCE9FDEAFEEBFF2204C6
:1003BD0060DED3EB9FEA9EE99DE8C2E78CF0C2F7C1
:1003CD0095F0400CE8CCF8E9CDF9EACEFAEBCFFB8D
:1003DD0012021185D0F05804700320D5B3E80470D3
:1003ED00075002B2D502025092D5EC0460F7E4CC6E
:1003FD00C0E0C398F8603B94186008400DD0E0FB56
:10040D00020228E4FBFAC9FC8028E830E406E4C9BE
:10041D00FBE4CAFCE830E305E4C9CACBFCE85407A9
:10042D006010F8C3E913F9EA13FAEB13FBEC13FCB4
:10043D00D8F130F52FC3E49CFCEF9BFFEE9AFEED57
:10044D0099FDD0E0FBEF4E4D4C701222DB03020202
:10045D004DEC2CFCEF33FFEE33FEED33FDED30E7CD
:10046D00EB020228EF2BFFEE3AFEED39FDD0E0FB5B
:10047D0050130BBB0003020250ED13FDEE13FEEF04
:08048D0013FFEC13FC0202282E
:10049500020250EC5D046005E8590470030202464F
:1004A500120211580460F6EC4860F2EC7004FDFE8F
:1004B500FF22C860DB2481C85009C398600250063A
:1004C50002024D9850CAF582E9294B4A7005AB8264
:1004D50002023C75F0007C1A7880C3EF9BEE9AED22
:1004E50099400DC3EF9BFFEE9AFEED99FDE842F0B2
:1004F500DC23ACF0D0E0FFD0E0FED0E0FDAB822005
:10050500E7101BEB60BAEC2CFCEF33FFEE33FEED8E
:1005150033FD020228E803F830E705C0F075F00066
:10052500EF2FFFEE33FEED33FD40B830E7C280AA72
:100535003F8000004120000042C80000447A0000CE
:10054500461C400047C35000497424004B18968050
:100555004CBEBC205A0E1BCA6753C21C749DC5AE47
:10056500FB60065407601C2323120593EB54386087
:100575000912057F12058E120096ECF8EDF9EEFAD8
:10058500EFCB22EB12058E80F1543803241C900525
:1005950035FE93FC0EEE93FD0EEE930ECE93FF22E9
:1018E900021A64E493A3F8E493A34003F68001F297
:1018F90008DFF48029E493A3F85407240CC8C33300
:10190900C4540F4420C8834004F456800146F6DFCE
:10191900E4800B0102040810204080900CBFE47E93
:10192900019360BCA3FF543F30E509541FFEE493C3
:10193900A360010ECF54C025E060A840B8E493A38A
:10194900FAE493A3F8E493A3C8C582C8CAC583CAB5
:10195900F0A3C8C582C8CAC583CADFE9DEE780BE6D
:010E9600005B
:1005A500E709F608DFFA8046E709F208DFFA803E38
:1005B50088828C83E709F0A3DFFA8032E309F60825
:1005C500DFFA8078E309F208DFFA807088828C838D
:1005D500E309F0A3DFFA806489828A83E0A3F60841
:1005E500DFFA805889828A83E0A3F208DFFA804C1B
:1005F50080D280FA80C680D4806980F280338010F2
:1006050080A680EA809A80A880DA80E280CA80335A
:1006150089828A83ECFAE493A3C8C582C8CCC583D2
:10062500CCF0A3C8C582C8CCC583CCDFE9DEE780A2
:100635000D89828A83E493A3F608DFF9ECFAA9F021
:10064500EDFB2289828A83ECFAE0A3C8C582C8CC77
:10065500C583CCF0A3C8C582C8CCC583CCDFEADE90
:10066500E880DB89828A83E493A3F208DFF980CCF2
:1006750088F0EF60010E4E60C388F0ED2402B404EB
:100685000050B9F582EB2402B4040050AF23234592
:0606950082239005F573BD
:10069B00BB010689828A83E0225002E722BBFE025D
:0906AB00E32289828A83E4932290
:1006B400BB010CE58229F582E5833AF583E02250FB
:1006C40006E92582F8E622BBFE06E92582F8E22245
:0D06D400E58229F582E5833AF583E493225F
:1006E100BB010689828A83F0225002F722BBFE01F8
:0206F100F322F2
:1006F300C2D5EC30E709B2D5E4C39DFDE49CFCEE22
:1007030030E715B2D5E4C39FFFE49EFE1207D1C3C1
:10071300E49DFDE49CFC80031207D130D507C3E4BC
:060723009FFFE49EFE2290
:10072900A3F8E0C5F025F0F0E58215827002158383
:06073900E0C838F0E822E0
:0E073F00C3E49FFFE49EFEE49DFDE49CFC22CB
:10074D00F8E0FBA3A3E0F925F0F0E5821582700235
:07075D001583E0FA38F022D9
:09076400EBF0A3EAF0A3E9F02296
:10076D00D083D082F8E4937012740193700DA3A31B
:10077D0093F8740193F5828883E47374029368602F
:06078D00EFA3A3A380DF2F
:10000E00E4FFFE12069B600C0FEF70010E09E97003
:05001E00F20A80EF2250
:10143E009002CBEBF0A3EAF0A3E9F0A3E0FBA3E06C
:10144E00FAA3E0F912069B70030214EA9002CBE0B5
:10145E00FBA3E0FAA3E0F912069B70030214F690C8
:10146E0002CEE0F9A3E0FAA3E0A3C9F0A3EAF0A349
:10147E00E9F09002CBA3E0FAA3E0F99002D4EBF0EE
:10148E00A3EAF0A3E9F09002D1E0FBA3E0FAA3E017
:10149E00F912069BFF60269002D4E0FBA3E0FAA3AC
:1014AE00E0F912069B6F70159002D275F0011208CA
:1014BE00269002D5E475F00112082680C99002D15B
:1014CE00E0FBA3E0FAA3E0F912069B7002800D90F8
:1014DE0002CCE475F00112082602145A9002CBE0F9
:0F14EE00FBA3E0FAA3E0F9227B007A0079002249
:101293009002CBEBF0A3EAF0A3E9F09002CBE0FBE2
:1012A300A3E0FAA3E0F912069BFF122137500C903A
:1012B30002CCE475F00112082680E0D2099002CB3B
:1012C300E0FBA3E0FAA3E0F912069BFF642B6004A2
:1012D300EFB42D1D9002CBE0FBA3E475F0011207E0
:1012E30029A9F0FA12069B642D6003D38001C392EF
:1012F30009E49002CEF0A3F09002CBE0FBA3E0FA66
:10130300A3E0F912069BFF1221A150429002CBE009
:10131300FBA3E0FAA3E0F912069BFF3395E0FEEF8F
:1013230024D0FBEE34FFFA9002CEE0FEA3E0FF7C74
:10133300007D0A1207BFEF2BFFEE3A9002CEF0A317
:10134300EFF09002CCE475F00112082680AA300970
:101353000A9002CEE0FEA3E0FF800F9002CEE0FEF3
:0B136300A3E0FFC3E49FFFE49EFE2216
:10079300EF4E6012EF60010EEDBB010B89828A837D
:1007A300F0A3DFFCDEFA2289F05007F709DFFCA98A
:0C07B300F022BBFEFCF309DFFCA9F022E1
:1007BF00EF8DF0A4A8F0CF8CF0A428CE8DF0A42E4E
:0207CF00FE2208
:1007D100BC000BBE0029EF8DF084FFADF022E4CC0C
:1007E100F875F008EF2FFFEE33FEEC33FCEE9DECD5
:1007F100984005FCEE9DFE0FD5F0E9E4CEFD22ED1B
:10080100F8F5F0EE8420D21CFEADF075F008EF2F64
:10081100FFED33FD4007985006D5F0F222C398FD55
:050821000FD5F0EA22F2
:10082600C5F0F8A3E028F0C5F0F8E582158270025D
:060836001583E038F022FA
:0F21A100EFC394304007EF943A50028001C322FD
:10213700EFC394094005EF940E4004EFB42003D396
:042147008001C3222E
:00000001FF
