:0300000002163BAA
:0C163B00787FE4F6D8FD7581220216824B
:10097700696E707574202573003B002D00676574E0
:100987002073657425642D2564007365743A0065CA
:100997006E64004953204649535254494E49540AFC
:1009A700004953206E6F74204649535254494E49AB
:1009B700540A00486F6C64696E675265675B25640B
:1009C7005D2D5B25645D0A007365743A25642D25EA
:1009D700643B656E6400405354434953502300679A
:1009E70065747A6869616E646368616E67652077AC
:1009F70065697A68695B25645D207A68695B256447
:100A07005D0A007869756761696461746120626570
:100A170067696E0A00786975676169646174612046
:100A2700656E642025640A0073797374656D2069A7
:100A37006E6974206F6B0A0073797374656D206932
:100A47006E6974206F6B3100000000000000000029
:100A5700000000000000000000000000000000008F
:100A6700000000000000000000000000000000007F
:100A7700000000000000000000000000000000006F
:100A8700000000000000000000000000000000005F
:100A9700000000000000000000000000000000004F
:100AA700000000000000000000000000000000003F
:100AB700000000000000000000000000000000002F
:100AC700000000000000000000000000000000001F
:1018B5004100FC005400E6000000000000000000AC
:1018C50000000000000000000000004200FD0000D4
:101F1E007E007F3C7D007B017A01790712069AE4F0
:071F2E009000FAF0A3F0227D
:10199C009000FAE475F00112058FFC740725F0F540
:1019AC008274013CF583EFF0D39000FBE094399006
:1019BC0000FAE0648094804004E4F0A3F09000DA34
:0719CC00E4F0A37403F02214
:10009600D39000DBE094009000DAE0648094804026
:1000A6001BA3E024FFF09000DAE034FFF0E07002DA
:0D00B600A3E070089000FC04F0121D402231
:101297009000B7EBF0A3EAF0A3E9F0A3E0FBA3E02B
:1012A700FAA3E0F91205217002806B9000B7E0FB0A
:0B12B700A3E0FAA3E0F9120521607328
:1012C2009000BDEBF0A3EAF0A3E9F09000BAE0F9D8
:1012D200A3E0FAA3E09000C0C9F0A3EAF0A3E9F00A
:1012E2009000C0E0FBA3E0FAA3E0F9120521FF6041
:1012F200279000BDE0FBA3E0FAA3E0F9120521B5B7
:1013020007169000BEE475F0011205799000C1E461
:1013120075F00112057980C8EF700C9000B7E0FB00
:10132200A3E0FAA3E0F9229000B8E475F0011205F7
:011332007941
:0913330041B27B007A007900222E
:0B1BC0009000B7EBF0A3EAF0A3E9F0FF
:101BCB00E4FFFE9000B7E0FBA3E0FAA3E0F98F82FD
:0E1BDB008E8312053A60070FBF00010E80E5F1
:011BE90022D9
:1016C7009000B174FFF0A37409F07480A3F0900048
:0916D700A2E0FBA3E0FAA3E0F994
:1016E000C002C0019000B1E0F9A3E0FAA3E09000CD
:1016F000BAC9F0A3EAF0A3E9F0D001D00212129720
:101700009000B4EBF0A3EAF0A3E9F09000B4E0FBA2
:10171000A3E0FAA3E04A4B60179000B1E0FBA3E01E
:10172000FAA3E0F9121BC09000B5EE8FF012057914
:0B1730009000B4E0FBA3E0FAA3E0F996
:01173B00228B
:0B0D220090009FEBF0A3EAF0A3E9F0C3
:100D2D00A3EBF0A3EAF0A3E9F090009FE0F9A3E0B4
:100D3D00FAA3E09000B1C9F0A3EAF0A3E9F07BFFBC
:100D4D007A097977120131E49000A8F0A3F0121618
:100D5D00C79000A5EBF0A3EAF0A3E9F09000A5E0A1
:100D6D00FBA3E0FAA3E04A4B7002C1129000A2E08F
:100D7D00FBA3E0FAA3E0F912071E9000AAEEF0A380
:100D8D00EFF09000B174FFF0A37409F074821216A5
:100D9D00D39000A2EBF0A3EAF0A3E9F012071E90A6
:100DAD0000ACEEF0A3EFF07BFF7A0979849000AAF6
:100DBD00E0FDA3E09000B1CDF0A3EDF0A3EEF0A324
:100DCD00EFF01201319000AAE0FEA3E0FFA3E0FCDA
:100DDD00A3E0FD120E131216C79000A2EBF0A3EACA
:100DED00F0A3E9F09000A9E004F070069000A8E0EF
:100DFD0004F0C39000A9E094649000A8E06480948E
:050E0D00805002A15B12
:010E120022BD
:0B151A00900032EBF0A3EAF0A3E9F030
:1015250078357C007D017BFF7A0A794F7E007F64E8
:101535001204FB9000B174FFF0A37409F0A3749139
:10154500F09000321216D8900099EBF0A3EAF0A3C0
:10155500E9F09000B174FFF0A37409F0A37496F05C
:101565001216E090009CEBF0A3EAF0A3E9F09000DE
:1015750099E0FBA3E0FAA3E04A4B6029A3E0FBA3B3
:10158500E0FAA3E04A4B601D78357C007D019000B0
:1015950099E0FBA3E0FAA3E0F912067D7B017A004E
:0515A5007935120D2252
:0115AA00221E
:1011F1009001ECEBF0A3EAF0A3E9F0A3E0FBA3E09C
:10120100FAA3E0F91205217002806C9001ECE0FB79
:0B121100A3E0FAA3E0F91205216074CD
:10121C009001F2EBF0A3EAF0A3E9F09001EFE0F912
:10122C00A3E0FAA3E09001F5C9F0A3EAF0A3E9F07A
:10123C009001F5E0FBA3E0FAA3E0F9120521FF9081
:10124C0001F2E0FBA3E0FAA3E0F9120521B50719BE
:10125C00EF60169001F3E475F0011205799001F638
:10126C00E475F00112057980C7EF700C9001ECE089
:10127C00FBA3E0FAA3E0F9229001EDE475F0011272
:02128C000579E2
:09128E00410C7B007A007900227A
:101D4000121A3E7B017A01790712151A7E007F3C38
:101D50007D007B017A01790712069AE49000FAF07F
:031D6000A3F022CB
:101E7E00E4F593F594F592759180F595F596F5B296
:0C1E8E00F5B1F5B3F5B475CAFFF5C92233
:0D1FB800E4F5C7F5C5F5C675C380F5C42274
:101E9A0075C78075F52875C5018FC4EEFF8FC375A8
:0B1EAA00C65A75C6A500AFC2121FB8D3
:011EB500220A
:1000260075C78075F52875C5028FC4EEFF8FC3AFFF
:0D003600058FC275C65A75C6A500021FB819
:101F050075C78075F52875C5038FC4EEFF8FC3753A
:091F1500C65A75C6A500021FB8EA
:101ED100E4FFFE121F059000E0E0FD7F01120026E5
:0A1EE1009000E3E0FD7F3C020026C4
:101F35007F017E00121E9A9000E0EFF07F3C121E9A
:071F45009A9000E3EFF02287
:101EEB00121F359000E3E06406600EE49000E0F012
:0A1EFB009000E37406F0121ED122DD
:101B950090000EECF0A3EDF0AB07AA06EB25E0FBF9
:101BA500EA33FAAF03FE90000EE0FD120026EB24A7
:0B1BB50001FFE43EFEA3E0FD0200265D
:081ADA00900002E0FEA3E0FF12
:041AE200AD07AC069A
:101AE600ED25E0FDEC33FCAF05FE121E9AAB07EBCD
:101AF6007B00FAED2401FFE43EFE121E9AEB2FFB5B
:051B0600E43AFEAF030C
:011B0B0022B7
:100C1900900002E4F0A304F0E4900000F0A3F09047
:100C29000000E0FEA3E0FFC3940AEE6480948050C4
:100C390025EF25E0FFEE33FE74762FF58274013E31
:100C4900F583E4F0A3F0900001E004F070D1900086
:100C590000E004F080C9121ADAEF647B4E7BFF6072
:100C69001B7A09799A120131900002E0FEA3E0FF94
:100C79007D7B7C00121B9512173C80077A0979A8A5
:100C8900120131E4900000F0A3F0900003E004F0B9
:100C99007006900002E004F0121ADAAC06AD079073
:100CA9000001E025E0FF900000E033FE74762FF5A7
:100CB9008274013EF583ECF0A3EDF07F047E00120F
:100CC9001C657BFF7A0979BA900000E0FEA3E0FF7A
:100CD9009000B1EEF0A3EFF025E0FFEE33FE74765D
:100CE9002FF58274013EF583E0FFA3E09000B3CFB6
:100CF900F0A3EFF0120131900001E004F0700690CA
:100D09000000E004F0C3900001E0940A900000E0C4
:080D1900648094805002819374
:010D210022AF
:10173C0090000CE4F0A304F0E490000AF0A3F09005
:10174C00000AE0FCA3E0FDC3940AEC648094805092
:10175C004690000DE004F0700690000CE004F0EDF3
:10176C0025E0FFEC33FE74762FF58274013EF58391
:10177C00E0FCA3E0FD90000CE0FEA3E0FF121B9543
:10178C007F047E00121C6590000BE004F070B0909A
:07179C00000AE004F080A840
:0117A3002223
:101A0A00E4FDFCED25E0FFEC33FE74762FF58274DD
:101A1A00013EF583E0FAA3E0FB74E62FF582740039
:101A2A003EF583EAF0A3EBF00DBD00010CED640A6C
:031A3A004C70D01D
:011A3D002286
:10004600E4FDFCED25E0FFEC33FE74762FF58274BB
:10005600013EF583E0FAA3E0FB74E62FF582740017
:100066003EF583E0FEA3E06B7002EE6A60057E005B
:100076007F01220DBD00010CED640A4C70C5E4FE43
:01008600FF7A
:010087002256
:0E1800009001CAEEF0A3EFF0A3ECF0A3EDF020
:10180E0078CE7C017D017BFF7A0A79B37E007F1E44
:10181E001204FB9000B174FFF0A37409F0A374CF0F
:10182E00F09001CAE0FFA3E09000B4CFF0A3EFF078
:10183E009001CCE0FFA3E09000B6CFF0A3EFF07BD9
:10184E00017A0179CE12012B7B017A0179CE020148
:01185E003158
:101C8B00D39000FEE0942C9000FDE06480948140A2
:101C9B0013E4F0A3F090017EE0FCA3E0FD7F047E53
:051CAB000012180022E8
:101A3E0090003874FFF0A37409F0A374DDF07B01FD
:101A4E007A017907120FCB900032EBF0A3EAF0A3E4
:101A5E00E9F0900032E0FBA3E0FAA3E04A4B60030A
:031A6E0075C760D9
:011A71002252
:100EF90078047C007D017BFF7A0A79D17E007F0628
:100F09001204FB7B017A00790412108A900004E034
:100F1900FEA3E0FF4E7002E1CA900000EEF0A3EFDD
:100F2900F0900006E0FCA3E0FD900002ECF0A3EDD8
:100F3900F07BFF7A0979E69000B1EEF0A3EFF0A318
:100F4900ECF0A3EDF0120131900000E0FEA3E0FF08
:100F5900C3940AEE64809480501CA3E0FCA3E0FDD6
:100F6900EF25E0FFEE33FE74762FF58274013EF52E
:100F790083ECF0A3EDF0900000E0FEA3E0FF640431
:100F89004E6006EF64024E7003121FD2120046EF44
:100F99004E602E7BFF7A0A790A120131E49000E152
:100FA900F0A3F0121A0A12173C7BFF7A0A791C90F7
:100FB90000E1E0FFA3E09000B1CFF0A3EFF0120150
:010FC90031F6
:010FCA002204
:0D1FC500E4FFFE121F057D037F01020026D0
:10185F00121E7E121EB6121D86121F4C121DC87547
:10186F00BA8090FE8074E0F090FE82E4F0D2AFD2A6
:10187F00B2121E61121FD27F647E00121C657BFFA5
:10188F007A0A792F120131120C19121A0A7BFF7A78
:10189F000A793F12013190017AE4F0A304F0121F8C
:0618AF001E120EF980FB81
:101C6500AD07AC06E49000E1F0A3F0ED25E0FFEC54
:101C750033FED39000E2E09FEE6480F89000E1E04F
:061C850064809840E62295
:03000B000217A435
:1017A400C0E0C0F0C083C082C0D075D000C000C00B
:1017B40001C002C003C004C005C006C007120096E1
:1017C4009000E2E004F070069000E1E004F0900084
:1017D400FEE004F070069000FDE004F0D007D006AF
:1017E400D005D004D003D002D001D000D0D0D08214
:0717F400D083D0F0D0E032F9
:030023000219D3EC
:1019D300C0E0C0F0C083C082C0D075D000C000C0DA
:0319E30004C00736
:1019E600309809C298AF9912199C8002C299309911
:0319F60002C29991
:1019F900D007D004D000D0D0D082D083D0F0D0E0AE
:011A090032AA
:03004300021A722C
:101A7200C0E0C083C082C0D075D000C007E59A30F4
:101A8200E00D539AFEAF9B900101E4F0A3EFF0E565
:101A92009A30E105539AFDC212D007D0D0D082D03D
:041AA20083D0E032DB
:03008B00021B0C49
:101B0C00C0E0C083C082C0D075D008E5AC30E00D19
:101B1C0053ACFEAFAD900103E4F0A3EFF0E5AC30B5
:101B2C00E10553ACFDC213D0D0D082D083D0E032CB
:03009300021AA6A8
:101AA600C0E0C083C082C0D075D000C007E58430D6
:101AB600E00D5384FEAF85900105E4F0A3EFF0E559
:101AC6008430E1055384FDC214D007D0D0D082D033
:041AD60083D0E032A7
:0518D50042021D0001AC
:101F4C00438E805389F0758A9A758CA9C28DD2B94B
:071F5C00D2A9D28CD2AF2202
:101EB600759850438E40538EFE53890F758BE87587
:0B1EC6008DFFC2ABD28ED2ACD2AF2297
:101D860075AC1053ACBF759A50438E0475D78F75DA
:101D9600D6FD438E1043AF0143AF08D2AF53BAFD11
:011DA600221A
:101DC80075841043844043D12075D38F75D2FD4369
:0F1DD800D1805384DF53847F43AF1043841022A4
:0A1FDE00C2998F993099FDD2AF220D
:080003002012FDD2128F9B2296
:081FE8002013FDD2138FAD227E
:081FF0002014FDD2148F85229C
:101E440090021DE07002A3E06012120521FF600CF5
:0D1E5400121FDE740129F9E43AFA80EE2233
:0607F900AE07121FDE2214
:1018DA0042014700015401760000000000000000A8
:1018EA000000000000000000000000004201440067
:0A18FA000042018C0000410175005E
:0100220022BB
:030088007F0122D3
:0813E1007B017A0179497D06C8
:0E13E900900202EBF0A3EAF0A3E9F0A3EDF00E
:1013F70074FFA3F0A3F0E4A3F0900205E0FF9002CE
:1014070008E0C39F5063900202E0FBA3E475F0017C
:1014170012058FA9F0FA120521FF900206E0F0A34A
:10142700E06FF0E4FD900206E0FEA3E0FF30E0216C
:10143700EEC313FEEF13FF900206EEF0A3EFF0EEFC
:1014470064A0FEEF6401FF900206EEF0A3EFF080C8
:101457000B900206E0C313F0A3E013F00DEDB40800
:10146700C4900208E004F08090900206E0FCA3E03C
:07147700FDECFBEDFEEBFFB5
:01147E00224B
:101B3C00E4900167F0900143F090018BF090016804
:101B4C00F090018AF0FF7E0A900169E4F0A3DEFCBC
:0C1B5C00E4FF7E1E900149E4F0A3DEFCD3
:011B6800225A
:101DE700900143E02469F582E43401F583EFF09034
:0F1DF7000143E004F0900173E4F0A37402F022C2
:0B195200900217EBF0A3EAF0A3E9F00D
:10195D00E4FFFE90021AE0FBA3E0FAA3E0F98F8208
:10196D008E8312053AFD900217E0FBA3E0FAA3E087
:10197D00F98F828E8312053A6D6004E4FEFF220F0B
:0E198D00BF00010EEF64064E70C97E007F01A0
:01199B002229
:101B6900D3900174E09400900173E0648094804004
:101B79001AA3E024FFF0900173E034FFF0E0700253
:0C1B8900A3E0700790018CF0A304F02290
:0F1F8B009001687401F012133C121BEA021E61F0
:0107FF0022D7
:10133C00900168E06401600261E0900143E0D394A5
:10134C0004500261D8E0FF2467F582E43401F58390
:10135C00E0FE74682FF582E43401F583E0FDAF06FE
:10136C00EFFFED90021FCFF0A3EFF07B017A017934
:10137C0069900143E024FEFD1213E990021FE06E18
:10138C007003A3E06F7043900169E0FF900147E0A8
:10139C007003A3E06F703590016AE024FA600F24AB
:1013AC00FC60122407701C9001467403800C9001A1
:1013BC004674068005900146740AF090018A740107
:1013CC00F0800C7F0102147F80028000121E61E409
:0413DC00900168F024
:0113E00022EA
:101BEA0090018AE0B40122900146E024FA600D24B3
:101BFA00FC600E2407700D1208008008121148803C
:0A1C0A0003120AD7E490018AF022C9
:1008000090016BE0FEA3E0FDEDFF90020AEEF0FC2C
:10081000A3EFF090016DE0FEA3E0FBEBFF90020C74
:10082000EEF0A3EFF0C3ED940AEC940040022171C6
:1008300090020CE0FEA3E0FF90020BE02FFD90027F
:100840000AE03EFCC3ED940AEC94004002216DEFF7
:100850009400EE94005002216D90020DE025E0FF1F
:10086000AE07EE2405900209F0900147A3E0A3F043
:10087000A37403F0A3EEF090020AE0FFA3E090025D
:100880000ECFF0A3EFF07D037C0090020CE0FEA3FE
:10089000E0FF90020BE02FFF90020AE03EFEC390C3
:1008A000020FE09F90020EE09E5063A3E025E0FF60
:1008B00090020EE033FE74762FF58274013EF583CC
:1008C000E0FFAB0574492BF582E43401F583EFF0CA
:1008D00090020FE025E0FF90020EE033FE74762FC9
:1008E000F58274013EF583E0A3E0FF744A2BF582A4
:1008F000E43401F583EFF090020FE004F07006900D
:10090000020EE004F074022DFDE43CFC018A7B0140
:100910007A01794990020DE025E0FFEF2403FD12F2
:1009200013E9AD07AC06ECFF90020CA3E025E0FE56
:10093000244CF582E43401F583EFF0AF05744D2EBD
:10094000F582E43401F583EFF09001FB7401F0A32C
:100950007401F0A37449F0900209E0FF9001FEE4F5
:10096000F0A3EFF07B017A0179440219057F03803F
:06097000027F0212147F59
:01097600225E
:1011480090016BE0FEA3E0FDAC06A3E0FEA3E0FB8C
:10115800C3ED940AEC9400400221EB90022374083A
:10116800F0AA06ED25E0FFEC33FE74762FF58274C5
:10117800013EF583EAF0A3EBF0900147A3E0A3F06A
:10118800A37406F0ECA3F0EDA3F025E0FBEC33FA32
:1011980074762BF58274013AF583E090014DF07472
:1011A800762BF58274013AF583E0A3E090014EF0C6
:1011B8001213E1AD07AC06EC90014FF0EFA3F090ED
:1011C80001FB7401F0A37401F0A37449F0900223A9
:1011D800E0FF9001FEE4F0A3EFF07B017A0179448F
:0811E8000219057F0212147FB9
:0111F00022DC
:100AD70090016BE0FEA3E0FDEDFF900211EEF0FC4C
:100AE700A3EFF090016DE0FEA3E0FBEBFF90021394
:100AF700EEF0A3EFF0C3ED940AEC940040028113EB
:100B0700900213E0FEA3E0FF900211E0FCA3E0FDDA
:100B17002FFBEC3EFAC3EB940AEA94004002810FE4
:100B2700EF9400EE94005002810F900215ECF0A3B1
:100B3700EDF07D077C00900213E0FEA3E0FF90023A
:100B470012E02FFF900211E03EFEC3900216E09FD5
:100B5700900215E09E504D74692DF58274013CF5A5
:100B670083E0FE746A2DF582E43401F583E0FBEE41
:100B7700FA900216E025E0FF900215E033FE747646
:100B87002FF58274013EF583EAF0A3EBF09002168D
:100B9700E004F07006900215E004F074022DFDE405
:100BA7003CFC80929002107408F0900147A3E0A3E8
:100BB700F0A3740AF0900211E0FCA3E0FDEC9001B1
:100BC7004BF0EDA3F0900213E0FCA3E0FDEC9001E5
:100BD7004DF0EDA3F01213E1AD07AC06EC90014F19
:100BE700F0EFA3F09001FB7401F0A37401F0A3747C
:100BF70049F0900210E0FF9001FEE4F0A3EFF07BD4
:100C0700017A0179440219057F0380027F021214D9
:010C17007F5D
:010C180022B9
:10147F00EF24FE602114603D24026002A119900147
:10148F0047A3E0A3F090016AE0248090014AF0A303
:10149F007401F0FB8017900147A3E0A3F090016A5D
:1014AF00E0248090014AF0A37402F07B017A017965
:1014BF00497D03801C900147A3E0A3F090016AE0EF
:1014CF00248090014AF0A37403F07B017A017949DB
:1014DF00FD1213E9900221EEF0A3EFF0900221E04C
:1014EF00FCA3E0FDEC90014CF0EDA3F09001FB7438
:1014FF0001F0A37401F0A37449F0A3E4F0A3740501
:0A150F00F07B017A017944121905FE
:0115190022AF
:101E6100E4FF7E0A900169E4F0A3DEFCE490014303
:0C1E7100F0FF7E1E900149E4F0A3DEFCAF
:011E7D002242
:051FF800EFC4540FFFCF
:011FFD0022C1
:04008E00EF540FFF1D
:01009200224B
:101C3E00EFC39400400CEFD39409500674302FFF7D
:101C4E008014EFC3940A400CEFD3940F50067437F0
:071C5E002FFF80027FFF222F
:0B1905009001F8EBF0A3EAF0A3E9F07A
:10191000E4900200F0A3F09001FEE0FEA3E0FFA33C
:10192000E0FCA3E0FDC39FEC9E50269001FBE0FB92
:10193000A3E0FAA3E0F98D828C8312053AFF121F0F
:10194000DE900201E004F070CE900200E004F0802E
:01195000C6D0
:011951002273
:101E0600E4FFFED21590FE817481F0301510C3EF09
:0E1E16009470EE941750070FBF00010E80ED80
:011E2400229B
:101CB000E4FDFC90FE86EFF0D21590FE817482F078
:101CC000301510C3ED9470EC941750070DBD000152
:031CD0000C80ED98
:011CD30022EE
:1015AB00121E067FC2121CB012161C7F60121CB0DA
:1015BB0012161C90000AE0C4F854F0C8A3E0C454FF
:1015CB000F48FF121CB012161C90000BE0540FC4F6
:1015DB00F8540FC868FF121CB012161C121E2512ED
:1015EB001E067FC0121CB012161C7F60121CB0129C
:1015FB00161CEAC4F854F0C8EBC4540F48FF121C75
:10160B00B012161CEB540FC4F8540FC868FF121C11
:01161B00B01E
:10161C00E4FFFED21590FE817483F0301510C3EFF9
:0E162C009470EE941750070FBF00010E80ED72
:01163A00228D
:101CD400E4FFFED21590FE817484F0301510C3EF3A
:101CE4009470EE941750070FBF00010E80ED90FE24
:031CF40087E0FF87
:011CF70022CA
:101D6300E4FFFE90FE82F0D21590FE817485F03080
:101D73001510C3EF9470EE941750070FBF00010EB8
:021D830080EDF1
:011D8500223B
:101CF800E4FFFE90FE8204F0D21590FE817485F018
:101D0800301510C3EF9470EE941750070FBF000101
:031D18000E80ED4D
:011D1B0022A5
:101E2500E4FFFED21590FE817486F0301510C3EFE5
:0E1E35009470EE941750070FBF00010E80ED61
:011E4300227C
:0300C300021DA774
:101DA700C0E0C083C082C0BA43BA8090FE82E030F0
:101DB700E606E054BFF0C215D0BAD082D083D0E097
:011DC70032E9
:101F630090017AE07002A3E07003D29622EF4E70E4
:071F730003D29622C2962260
:101D1C0090000A7407F0A374FFF090017EE0FAA320
:101D2C00E0FBFFAE02121F631215AB121E2512153B
:041D3C00AB021E25B3
:0C1FD200C2B7D2B6121D1CD2B7C2B62294
:101C1400E4FFFE90019275F006EF1205A5EE75F053
:101C240006A42583F583E0FCA3E04C7001220FBFDA
:091C340000010EEF640A4E70DAA3
:011C3D002284
:0F1F9A00121C14EF4E7004FE7F0122E4FEFF22A2
:101F7A00121C14EF640A4E7004FE7F0122E4FEFF75
:011F8A002234
:0E0E13009000AEEEF0A3EFF0A3ECF0A3EDF034
:100E2100121C149000B2EEF0A3EFF0E4FFFED39099
:100E310000B3E09FEE6480F89000B2E064809840D7
:100E41004E90018E75F006EF1205A5EE75F006A421
:100E51002583F583E0FCA3E0FD9000AEE0FAA3E07A
:100E6100FBEDB50323ECB5021FA3E0FCA3E0FD906D
:100E7100019075F006EF1205A5EE75F006A4258325
:100E8100F583ECF0A3EDF0220FBF00010E809F125D
:100E91001C14EF640A4E605F9000AEE0FEA3E0FF19
:100EA1009000B2E0FCA3E0FD90018E75F006120502
:100EB100A5EC75F006A42583F583EEF0A3EFF09081
:100EC10000B0E0FEA3E0FF90019075F006ED120581
:100ED100A5EC75F006A42583F583EEF0A3EFF09061
:100EE100019275F006ED1205A5EC75F006A42583B7
:070EF100F583E4F0A304F017
:010EF80022D7
:0B108A0090000AEBF0A3EAF0A3E9F0ED
:10109500121C1490000FEEF0A3EFF0121C14EF4E8B
:1010A5007003FEFF2290000AE0FBA3E0FAA3E0F83C
:1010B500AC02AD037B017A01798E7E007F061204B6
:1010C500FBE490000DF0A3F0900010E024FFFD90EC
:1010D500000FE034FFFC90000DE0FEA3E0FFC39D90
:1010E500EC6480F8EE64809850387C007D0612052B
:1010F5006774942FF974013EFA7B01C001748E2F39
:10110500F974013EA801FC7D01D0017E007F061225
:1011150004FB90000EE004F070AE90000DE004F0CA
:1011250080A690000FE0FEA3E090018C75F00612FA
:1011350005A5EE75F006A42583F583E4F0A3F0FE7E
:021145007F0128
:011147002285
:1016470002185FE493A3F8E493A34003F68001F242
:1016570008DFF48029E493A3F85407240CC8C333A4
:10166700C4540F4420C8834004F456800146F6DF73
:10167700E4800B01020408102040809018B5E47E36
:10168700019360BCA3FF543F30E509541FFEE49368
:10169700A360010ECF54C025E060A840B8E493A32F
:1016A700FAE493A3F8E493A3C8C582C8CAC583CA5A
:1016B700F0A3C8C582C8CAC583CADFE9DEE780BE12
:0119040000E2
:10042B00E709F608DFFA8046E709F208DFFA803EB3
:10043B0088828C83E709F0A3DFFA8032E309F608A0
:10044B00DFFA8078E309F208DFFA807088828C8308
:10045B00E309F0A3DFFA806489828A83E0A3F608BC
:10046B00DFFA805889828A83E0A3F208DFFA804C96
:10047B0080D280FA80C680D4806980F2803380106D
:10048B0080A680EA809A80A880DA80E280CA8033D6
:10049B0089828A83ECFAE493A3C8C582C8CCC5834E
:1004AB00CCF0A3C8C582C8CCC583CCDFE9DEE7801E
:1004BB000D89828A83E493A3F608DFF9ECFAA9F09D
:1004CB00EDFB2289828A83ECFAE0A3C8C582C8CCF3
:1004DB00C583CCF0A3C8C582C8CCC583CCDFEADE0C
:1004EB00E880DB89828A83E493A3F208DFF980CC6E
:1004FB0088F0EF60010E4E60C388F0ED2402B40467
:10050B000050B9F582EB2402B4040050AF2323450D
:06051B00822390047B73B3
:10052100BB010689828A83E0225002E722BBFE02D8
:09053100E32289828A83E493220B
:10053A00BB010CE58229F582E5833AF583E0225076
:10054A0006E92582F8E622BBFE06E92582F8E222C0
:0D055A00E58229F582E5833AF583E49322DA
:10056700EF8DF0A4A8F0CF8CF0A428CE8DF0A42EA8
:02057700FE2262
:10057900C5F0F8A3E028F0C5F0F8E582158270020D
:060589001583E038F022AA
:10058F00A3F8E0C5F025F0F0E5821582700215831F
:06059F00E0C838F0E8227C
:0C05A500A42582F582E5F03583F5832261
:1000C600E51524B1F582E43400F583E005152290A8
:1000D60000AE3010039000B1E475F0011206D802AC
:1000E60005212009E97F2ED2098018EF540F2490AC
:1000F600D43440D4FF300D0BEF24BFB41A005003A4
:100106002461FFE516600215160519E5197002054A
:100116001830100E9000AEE475F0011206D8EF020A
:1001260006C60207F97403D2108003E4C210F5155F
:100136009000AE1206EFE4F516F518F519E516600F
:10014600077F2012010980F57517FFC20AC209C28E
:100156000BC20CC20EC20FC2111200D5FF700D30B9
:1001660010057F0012011AAF19AE1822B4255FC21E
:10017600D5C20D1200D5FF24D0B40A00501A75F06E
:100186000A781630D50508B6FF0106C6A426F6205D
:10019600D5047002D20C80D924CFB41A00EF5004D3
:1001A600C2E5D20D02031BD20A80C6D20980C0D294
:1001B6000B80BCD2D580BAD20E80B47F2012010942
:1001C600200B077401B5160040F11200C6FF12019C
:1001D60009020143D211D20F80951200C6FB12000C
:1001E600C6FA1200C6F94A4B700679EC7A037BFF11
:1001F600200B2EE516602A7E008E8275830012057E
:100206003A60060EEE651770F0C2D5EBC0E0EAC0A4
:10021600E0E9C0E0EE120362D0E0F9D0E0FAD0E007
:10022600FB120521FF60AAEBC0E0EAC0E0E9C0E0EE
:10023600120109D0E02401F9D0E03400FAD0E0FB45
:10024600E5170460DCD517D980877BFF7A03795ED2
:10025600D20B809C791080027908C20FC2118008E7
:10026600D2D5790A8004790AC2D5E517047002F559
:1002760017E4FAFDFEFF1200C6FC7B08200A1312E3
:1002860000C6FD7B1030090A1200C6FE1200C6FF2A
:100296007B20EC3382D592D55013C3E43009069FF8
:1002A600FFE49EFEE4200A039DFDE49CFCE4CBF8FB
:1002B600C20AEC700CCFCECDCCE824F8F870F380EF
:1002C60017C3EF33FFEE33FEED33FDEC33FCEB33B8
:1002D600FB994002FB0FD8E9EB300A05F8D0E0C4E1
:1002E60048B20AC0E00AEC4D4E4F78207B0070C23F
:1002F600EAB5170040BCC0E0120364D0F0D0E0209D
:100306000A04C4C0E0C4B20AC0F01200F2D0F0D5AC
:10031600F0EB0201431206F801E053025A5801B10C
:100326004C01AD42025E4F02664402664901C64375
:08033600026C55025046025012
:10033E0045025047040C5001B52D01B92E01DC2B9E
:10034E0001BD2301DA2003F52A017548000001D40E
:10035E003F3F3F00790AA2D5200C14300E09B91088
:10036E00020404B9080104A2D5200F025001042092
:10037E000B68920BB516005034C0E07F20300C197C
:10038E007F30A20B720F720E500F1203BBC20BC244
:10039E000FC20EC2117F30800F300E03E9C0E01283
:1003AE000109300E03D0E0F9D0E0B516CC300E17AF
:1003BE007F30B9100C1201097F58300D077F7880FD
:1003CE0003B90803120109300B057F2D0201097FC5
:1003DE00202011F87F2B200FF322920B80CF286E56
:1003EE00756C6C2900D20A1200C6300AF8C20A785F
:1003FE001630D50108F60201752D504349581200EA
:10040E00C62403B405004001E4900407931200FAD9
:0D041E00743A1200FAD20C75160402025A4C
:1005B100E709F60870FA8046E709F20870FA803E0A
:1005C10088828C83E709F0A370FA807EE309F6083C
:1005D10070FA8076E309F20870FA806E88828C8363
:1005E100E309F0A370FA806289828A83E0A3F608A6
:1005F10070FA805689828A83E0A3F20870FA804AF1
:1006010080D280FA80C680D4806580F280318010EB
:1006110080A680EA809A80A880DA80E280CA803150
:1006210089828A83ECFAE493A3C8C582C8CCC583C6
:10063100CCF0A3C8C582C8CCC583CC70E9800D8934
:10064100828A83E493A3F60870F9ECFAA9F0EDFB32
:100651002289828A83ECFAE0A3C8C582C8CCC5830B
:10066100CCF0A3C8C582C8CCC583CC70EA80DD8933
:10067100828A83E493A3F20870F980CE88F0ED2496
:1006810002B4040050C4F582EB2402B4040050BA51
:0906910023234582239006017326
:100FCB00900035EBF0A3EAF0A3E9F0A3E0FBA3E07C
:100FDB00FAA3E0F91205217003021077900035E0B7
:100FEB00FBA3E0FAA3E0F912052170030210839032
:100FFB000038E0F9A3E0FAA3E0A3C9F0A3EAF0A359
:10100B00E9F0900035A3E0FAA3E0F990003EEBF095
:10101B00A3EAF0A3E9F090003BE0FBA3E0FAA3E026
:10102B00F9120521FF602690003EE0FBA3E0FAA336
:10103B00E0F91205216F701590003C75F001120557
:10104B007990003FE475F00112057980C990003B5F
:10105B00E0FBA3E0FAA3E0F91205217002800D90EA
:10106B000036E475F001120579020FE7900035E0C8
:0F107B00FBA3E0FAA3E0F9227B007A00790022C0
:10071E009000AEEBF0A3EAF0A3E9F09000AEE0FBA0
:10072E00A3E0FAA3E0F9120521FF12000E500C907F
:10073E0000AFE475F00112057980E0D2099000AEA9
:10074E00E0FBA3E0FAA3E0F9120521FF642B60049D
:10075E00EFB42D1D9000AEE0FBA3E475F001120581
:10076E008FA9F0FA120521642D6003D38001C39284
:10077E0009E49000B1F0A3F09000AEE0FBA3E0FA24
:10078E00A3E0F9120521FF121FA950429000AEE01E
:10079E00FBA3E0FAA3E0F9120521FF3395E0FEEF8B
:1007AE0024D0FBEE34FFFA9000B1E0FEA3E0FF7C14
:1007BE00007D0A120567EF2BFFEE3A9000B1F0A311
:1007CE00EFF09000AFE475F00112057980AA3009C0
:1007DE000A9000B1E0FEA3E0FF800F9000B1E0FEB2
:0B07EE00A3E0FFC3E49FFFE49EFE2297
:10069A00EF4E6012EF60010EEDBB010B89828A8377
:1006AA00F0A3DFFCDEFA2289F05007F709DFFCA984
:0C06BA00F022BBFEFCF309DFFCA9F022DB
:1006C600BB010689828A83F0225002F722BBFE0113
:0206D600F3220D
:1006D800F8E0FBA3A3E0F925F0F0E58215827002AB
:0706E8001583E0FA38F0224F
:0906EF00EBF0A3EAF0A3E9F0220C
:1006F800D083D082F8E4937012740193700DA3A391
:1007080093F8740193F5828883E4737402936860A4
:06071800EFA3A3A380DFA4
:0F1FA900EFC394304007EF943A50028001C322F7
:10000E00EFC394094005EF940E4004EFB42003D3E0
:04001E008001C32278
:00000001FF
