:03000000020B5C94
:0C0B5C00787FE4F6D8FD758121020BA320
:0E007A007825642025640A00313233343500C5
:1005760060640000000000000000000000000000B1
:100586000000000000000000000000000000000065
:100596000000000000000000000000000000000055
:1005A6000000000000000000000000000000000045
:1005B6000000000000000000000000000000000035
:1005C6000000000000000000000000000000000025
:0C05D60000000000000000004100680070
:100D4100900355EBF0A3EAF0A3E9F0900355E0FB23
:100D5100A3E0FAA3E0F9120807FF600F1200039065
:0C0D61000356E475F00112082080E02227
:100E9E00E4F593F594F591F592F595F596F5B1F592
:0A0EAE00B2F5B3F5B4F5C9F5CA2298
:100BE800EF4E7004A2A48058EF64014E7004A2A5D1
:100BF800804EEF64024E7004A2A68044EF64034E58
:100C08007004A2A7803AEF64044E7004A2C5803035
:100C1800EF64054E7004A2C68026EF64064E700489
:100C2800A282801CEF64074E7004A2838012EF64D6
:100C3800084E7004A2848008EF64094E7005A2CAA9
:040C4800FE33FF2256
:100C4C00E490032CF0A3F090032CE0FEA3E0FFC390
:100C5C00940AEE64809480504A120BE890030CEED8
:100C6C00F0A3EFF090030774FFF0A37400F0A374EB
:100C7C007AF090032CE0FFA3E090030ACFF0A3EFEF
:100C8C00F07B017A03792E1200FB7B017A03792E1B
:100C9C0012002690032DE004F070AC90032CE004BD
:030CAC00F080A431
:010CAF002222
:100E2700D3EF9400EE6480948040147DDC7C00ED69
:0F0E37001D70011CED4C70F7EF1F70E41E80E181
:010E46002289
:100DE500120E9E120E06120EB8120E83120E477FB9
:100DF500647E00120E277BFF7A007982120026801E
:010E0500EEFE
:03000B00020F07DA
:010F070032B7
:06001D00900361EFF022E8
:0300230002000ECA
:0E000E00309804C2988002C299309902C299BB
:01001C0032B1
:0300430002004672
:10004600C0E0C083C082C0D075D000C007E59A303A
:10005600E00D539AFEAF9B900073E4F0A3EFF0E53A
:100066009A30E105539AFDC209D007D0D0D082D08C
:0400760083D0E03221
:03008B00020CE480
:100CE400C0E0C083C082C0D075D008E5AC30E00D50
:100CF40053ACFEAFAD900075E4F0A3EFF0E5AC307B
:100D0400E10553ACFDC20AD0D0D082D083D0E0320A
:03009300020CB0AC
:100CB000C0E0C083C082C0D075D000C007E58430DA
:100CC000E00D5384FEAF85900077E4F0A3EFF0E5EC
:100CD0008430E1055384FDC20BD007D0D0D082D040
:040CE00083D0E032AB
:0505E20042035B000173
:100EB800438E805389F0758A9A758CA9C28DD2B9F0
:070EC800D2A9D28CD2AF22A7
:100E8300759850438E40538EFE53890F758B8F7523
:0B0E93008DFDC2ABD28ED2ACD2AF22DC
:100E060075AC1053ACBF759A50438E0475D78F7569
:100E1600D6FD438E1043AF0143AF08D2AF53BAFDA0
:010E260022A9
:100E470075841043844043D12075D38F75D2FD43F9
:0F0E5700D1805384DF53847F43AF104384102234
:090EE700C2998F993099FDD2AF38
:010EF00022DF
:080003002009FDD2098F9B22A8
:080EF100200AFDD20A8FAD2298
:080EF900200BFDD20B8F8522B6
:1000260090035BE07002A3E06012120807FF600C09
:0D003600120EE7740129F9E43AFA80EE2277
:1005E70042020D000160C8023A000000000000004E
:1005F70000000000000000000000000000000000F4
:1006070000000000000000000000000000000000E3
:1006170000000000000000000000000000000000D3
:1006270000000000000000000000000000000000C3
:1006370000000000000000000000000000000000B3
:1006470000000000000000000000000000000000A3
:100657000000000000000000000000000000000093
:100667000000000000000000000000000000000083
:100677000000000000000000000000000000000073
:100687000000000000000000000000000000000063
:100697000000000000000000000000000000000053
:1006A7000000000000000000000000000000000043
:0A06B7000042020A0000410239006F
:010F080022C6
:030088007F0122D3
:080A22007B017A02790F7D06C9
:0E0A2A00900340EBF0A3EAF0A3E9F0A3EDF097
:100A380074FFA3F0A3F0E4A3F0900343E0FF900356
:100A480046E0C39F5063900340E0FBA3E475F001C8
:100A5800120836A9F0FA120807FF900344E0F0A341
:100A6800E06FF0E4FD900344E0FEA3E0FF30E021F6
:100A7800EEC313FEEF13FF900344EEF0A3EFF0EE86
:100A880064A0FEEF6401FF900344EEF0A3EFF08052
:100A98000B900344E0C313F0A3E013F00DEDB4088A
:100AA800C4900346E004F08090900344E0FCA3E087
:070AB800FDECFBEDFEEBFF7E
:010ABF002214
:100D1400E4900223F0900209F0900303F09002247F
:100D2400F0900302F0FF7E14900225E4F0A3DEFCB1
:0C0D3400E4FF7E1490020FE4F0A3DEFC4C
:010D40002290
:010F090022C5
:0C0ECF009002247401F012097B020D6DEA
:010F0A0022C4
:10097B00900224E064016003020A21900209E0D393
:10098B0094045003020A19E0FF2423F582E4340295
:10099B00F583E0FE74242FF582E43402F583E0FD49
:1009AB00AF06EFFFED90035DCFF0A3EFF07B017A85
:1009BB00027925900209E024FEFD120A2A90035DBC
:1009CB00E06E7003A3E06F7043900225E0FF90028E
:1009DB000DE07003A3E06F7035900226E024FA60FF
:1009EB000F24FC60122407701C90020C7403800C03
:1009FB0090020C7406800590020C740AF0900302AE
:100A0B007401F0800C7F01020AC080028000120E7C
:060A1B0066E4900224F0E5
:010A210022B2
:100D6D00900302E0B4012290020CE024FA600D24FD
:100D7D00FC600E2407700D1203FB80081208D18051
:0A0D8D00031206C2E4900302F022F4
:1003FB00900227E0FEA3E0FDEDFF900348EEF0FC3A
:10040B00A3EFF0900229E0FEA3E0FBEBFF90034A81
:10041B00EEF0A3EFF0C3ED9464EC940040030205FF
:10042B007090034AE0FEA3E0FF900349E02FFD909C
:10043B000348E03EFCC3ED9464EC940040030205DA
:10044B006CEF9400EE9400500302056C90034BE0AC
:10045B0025E0FFAE07EE2405900347F090020DA3B5
:10046B00E0A3F0A37403F0A3EEF0900348E0FFA326
:10047B00E090034CCFF0A3EFF07D037C0090034A98
:10048B00E0FEA3E0FF900349E02FFF900348E03E1E
:10049B00FEC390034DE09F90034CE09E5064A3E09D
:1004AB0025E0FF90034CE033FE743A2FF582740283
:1004BB003EF583E0FFAB05740F2BF582E43402F5B8
:1004CB0083EFF090034DE025E0FF90034CE033FE0B
:1004DB00743A2FF58274023EF583E0A3E0FF7410AB
:1004EB002BF582E43402F583EFF090034DE004F03A
:1004FB00700690034CE004F074022DFDE43CFC020A
:10050B0004887B017A02790F90034BE025E0FFEF23
:10051B002403FD120A2AAD07AC06ECFF90034AA395
:10052B00E025E0FE2412F582E43402F583EFF0AF10
:10053B000574132EF582E43402F583EFF090033B40
:10054B007401F0A37402F0A3740FF0900347E0FF63
:10055B0090033EE4F0A3EFF07B017A02790A020EDE
:0A056B00DB7F0380027F02120AC04A
:010575002263
:1008D100900227E0FEA3E0FDAC06A3E0FEA3E0FB4F
:1008E100C3ED9464EC9400400302097590036274B3
:1008F10008F0AA06ED25E0FFEC33FE743A2FF582ED
:1009010074023EF583EAF0A3EBF090020DA3E0A39D
:10091100F0A37406F0ECA3F0EDA3F025E0FBEC33BB
:10092100FA743A2BF58274023AF583E0900213F0DF
:10093100743A2BF58274023AF583E0A3E090021435
:10094100F0120A22AD07AC06EC900215F0EFA3F00D
:1009510090033B7401F0A37402F0A3740FF09003B1
:1009610062E0FF90033EE4F0A3EFF07B017A0279AD
:090971000A020EDB7F02120AC02B
:01097A00225A
:1006C200900227E0FEA3E0FDEDFF90034FEEF0FC69
:1006D200A3EFF0900229E0FEA3E0FBEBFF900351B1
:1006E200EEF0A3EFF0C3ED9464EC94004003020833
:1006F20001900351E0FEA3E0FF90034FE0FCA3E072
:10070200FD2FFBEC3EFAC3EB9464EA940040030233
:1007120007FDEF9400EE940050030207FD9003538F
:10072200ECF0A3EDF07D077C00900351E0FEA3E026
:10073200FF900350E02FFF90034FE03EFEC3900373
:1007420054E09F900353E09E504D74252DF5827422
:10075200023CF583E0FE74262DF582E43402F58333
:10076200E0FBEEFA900354E025E0FF900353E03300
:10077200FE743A2FF58274023EF583EAF0A3EBF0A1
:10078200900354E004F07006900353E004F0740206
:100792002DFDE43CFC809290034E7408F090020D13
:1007A200A3E0A3F0A3740AF090034FE0FCA3E0FDE2
:1007B200EC900211F0EDA3F0900351E0FCA3E0FDF8
:1007C200EC900213F0EDA3F0120A22AD07AC06EC96
:1007D200900215F0EFA3F090033B7401F0A37402B2
:1007E200F0A3740FF090034EE0FF90033EE4F0A3F9
:1007F200EFF07B017A02790A020EDB7F0380027F2F
:0408020002120AC014
:0108060022CF
:100AC000EF24FE602214603E24026003020B5B9060
:100AD000020DA3E0A3F0900226E02480900210F023
:100AE000A37401F0FB801790020DA3E0A3F0900225
:100AF00026E02480900210F0A37402F07B017A02B9
:100B0000790F7D03801C90020DA3E0A3F0900226D4
:100B1000E02480900210F0A37403F07B017A027944
:100B20000FFD120A2A90035FEEF0A3EFF090035F2F
:100B3000E0FCA3E0FDEC900212F0EDA3F090033B8B
:100B40007401F0A37402F0A3740FF0A3E4F0A37493
:0B0B500005F07B017A02790A120EDB2F
:010B5B002277
:100E6600E4FF7E14900225E4F0A3DEFCE490020980
:0C0E7600F0FF7E1490020FE4F0A3DEFCFD
:010E8200224D
:050F0100EFC4540FFFD6
:010F060022C8
:04008E00EF540FFF1D
:01009200224B
:100D9700EFC39400400CEFD39409500674302FFF33
:100DA7008014EFC3940A400CEFD3940F50067437A6
:070DB7002FFF80027FFF22E5
:0C0EDB00900338EBF0A3EAF0A3E9F0224A
:100B6800020DE5E493A3F8E493A34003F68001F2B1
:100B780008DFF48029E493A3F85407240CC8C3338E
:100B8800C4540F4420C8834004F456800146F6DF5D
:100B9800E4800B0102040810204080900576E47E72
:100BA800019360BCA3FF543F30E509541FFEE49352
:100BB800A360010ECF54C025E060A840B8E493A319
:100BC800FAE493A3F8E493A3C8C582C8CAC583CA44
:100BD800F0A3C8C582C8CAC583CADFE9DEE780BEFC
:0106C1000038
:10080700BB010689828A83E0225002E722BBFE02EF
:09081700E32289828A83E4932222
:10082000C5F0F8A3E028F0C5F0F8E5821582700263
:060830001583E038F02200
:10083600A3F8E0C5F025F0F0E58215827002158375
:06084600E0C838F0E822D2
:10009600E5102407F582E43403F583E00510229089
:1000A6000304300703900307E475F00112088B027E
:1000B60008072000E97F2ED2008018EF540F249005
:1000C600D43440D4FF30040BEF24BFB41A005003DD
:1000D6002461FFE511600215110514E5147002058F
:1000E6001330070E900304E475F00112088BEF023B
:1000F6000879020DBE7403D2078003E4C207F51027
:100106009003041208A2E4F511F513F514E5116045
:10011600077F201200D980F57512FFC201C200C206
:1001260002C203C205C206C2081200A5FF700D3046
:1001360007057F001200EAAF14AE1322B4255FC292
:10014600D5C2041200A5FF24D0B40A00501A75F0D7
:100156000A781130D50508B6FF0106C6A426F62092
:10016600D5047002D20380D924CFB41A00EF50040C
:10017600C2E5D2040202EBD20180C6D20080C0D210
:100186000280BCD2D580BAD20580B47F201200D9B5
:100196002002077401B5110040F1120096FF12000B
:1001A600D9020113D208D2068095120096FB1200DE
:1001B60096FA120096F94A4B700679BC7A037BFFD1
:1001C60020022EE511602A7E008E827583001208B9
:1001D6004C60060EEE651270F0C2D5EBC0E0EAC0C8
:1001E600E0E9C0E0EE120332D0E0F9D0E0FAD0E068
:1001F600FB120807FF60AAEBC0E0EAC0E0E9C0E036
:100206001200D9D0E02401F9D0E03400FAD0E0FBA6
:10021600E5120460DCD512D980877BFF7A03792E3C
:10022600D202809C791080027908C206C208800832
:10023600D2D5790A8004790AC2D5E512047002F58E
:1002460012E4FAFDFEFF120096FC7B082001131251
:100256000096FD7B1030000A120096FE120096FFF3
:100266007B20EC3382D592D55013C3E43000069F31
:10027600FFE49EFEE42001039DFDE49CFCE4CBF834
:10028600C201EC700CCFCECDCCE824F8F870F38028
:1002960017C3EF33FFEE33FEED33FDEC33FCEB33E8
:1002A600FB994002FB0FD8E9EB300105F8D0E0C41A
:1002B60048B201C0E00AEC4D4E4F78207B0070C278
:1002C600EAB5120040BCC0E0120334D0F0D0E02002
:1002D6000104C4C0E0C4B201C0F01200C2D0F0D51F
:1002E600F0EB0201131208AB01B053022A58018148
:1002F6004C017D42022E4F02364402364901964396
:08030600023C550220460220D2
:10030E004502204703DC5001852D01892E01AC2BBF
:10031E00018D2301AA2003C52A014548000001A42E
:10032E003F3F3F00790AA2D5200314300509B910CA
:10033E00020404B9080104A2D520060250010420CB
:10034E0002689202B511005034C0E07F20300319CC
:10035E007F30A20272067205500F12038BC202C2C8
:10036E0006C205C2087F30800F300503E9C0E012D7
:10037E0000D9300503D0E0F9D0E0B511CC30051727
:10038E007F30B9100C1200D97F583004077F788067
:10039E0003B908031200D93002057F2D0200D97F60
:1003AE00202008F87F2B2006F322920280CF286EA1
:1003BE00756C6C2900D2011200963001F8C20178DA
:1003CE001130D50108F60201452D5043495812004F
:1003DE00962403B405004001E49003D7931200CA9B
:0D03EE00743A1200CAD20375110402022AEB
:10084C00BB010CE58229F582E5833AF583E0225061
:10085C0006E92582F8E622BBFE06E92582F8E222AB
:0D086C00E58229F582E5833AF583E49322C5
:10087900BB010689828A83F0225002F722BBFE015E
:02088900F32258
:10088B00F8E0FBA3A3E0F925F0F0E58215827002F6
:07089B001583E0FA38F0229A
:0908A200EBF0A3EAF0A3E9F02257
:1008AB00D083D082F8E4937012740193700DA3A3DC
:1008BB0093F8740193F5828883E4737402936860F0
:0608CB00EFA3A3A380DFF0
:100DBE00EFB40A07740D120DC9740A309811A89970
:100DCE00B8130CC2983098FDA899C298B811F63095
:070DDE0099FDC299F599226D
:00000001FF
