:020000040800F2
:10000000900C0020E9010008A72000089F200008AC
:10001000A320000881070008ED2800080000000068
:10002000000000000000000000000000E3200008C5
:100030002D0A000800000000E1200008E921000866
:10004000030200080302000803020008030200087C
:10005000030200080302000803020008030200086C
:10006000030200080302000803020008030200085C
:10007000030200080302000803020008030200084C
:10008000030200080302000803020008030200083C
:10009000030200080302000803020008030200082C
:1000A000030200080302000803020008030200081C
:1000B0004922000885220008DD220008030200080A
:1000C00003020008030200080302000803020008FC
:1000D000030200082D280008BD28000803020008BC
:1000E00003020008030200080302000800F002F8FF
:1000F00000F06BF80AA090E8000C82448344AAF157
:100100000107DA4501D100F060F8AFF2090EBAE854
:100110000F0013F0010F18BFFB1A43F0010318473B
:10012000E8480000084900000A444FF0000C10F8AD
:10013000013B13F0070408BF10F8014B1D1108BF65
:1001400010F8015B641E05D010F8016B641E01F805
:10015000016BF9D113F0080F1EBF10F8014BAD1C55
:100160000C1B09D16D1E58BF01F801CBFAD505E073
:1001700014F8016B01F8016B6D1EF9D59142D6D3CD
:10018000704700000023002400250026103A28BFF5
:1001900078C1FBD8520728BF30C148BF0B607047F9
:1001A000642900F09D80752900F09A80782900F07C
:1001B000D380632900F07782732900F07C820020CD
:1001C00070471FB51FBD10B510BD00F0A7FA11464E
:1001D000FFF7F7FF02F034FE00F0C5FA03B4FFF7B3
:1001E000F2FF03BC02F08BFB094880470948004737
:1001F000FEE7FEE7FEE7FEE7FEE7FEE7FEE7FEE7D7
:10020000FEE7FEE704480549054A064B7047000033
:10021000F1210008ED00000890060020900C00205D
:1002200090080020900800200FB4044910B503AADC
:10023000029800F045FA10BC5DF814FB4000002065
:1002400070B5044685690068C10601D5302600E016
:100250002026C00707D070BDD4E901213046904761
:10026000206A401C20626D1EF6D570BD70B5044634
:1002700085690078C00707D170BDD4E9012120202D
:100280009047206A401C20626D1EF6D570BD70B587
:100290000C460546012A05D02878800600D5EA6973
:1002A000002302E0012305E05B1C934202D2E05CE4
:1002B0000028F9D1A869E618C01AA861286A18446C
:1002C00028622846FFF7BCFF04E0D5E9012114F8B5
:1002D000010B9047B442F8D32846FFF7C7FF70BD23
:1002E0002DE9F0410646002410687529314616A50F
:1002F00010D0AFF30080002802DA404213A507E0D7
:1003000031688A0701D512A502E0490704D511A575
:10031000012401E0AFF3008000210A2206F1240746
:1003200009E0B0FBF2FCB0FBF2F302FB1C00303042
:1003300078541846491C0028F3D123462A463046F3
:10034000BDE8F04100F04CB9000000002D000000B5
:100350002B0000002000000070B504460D46214629
:100360001068AFF300802188090502D50F4A7A444E
:1003700002E00E4A7A440E32002104F1240305E023
:1003800000F00F060009965D5E54491C0028F7D165
:1003900020780023000704D5702D02D009B1022374
:1003A00011322046BDE8704000F01AB950450000F7
:1003B0002DE9F05F894604464FF0000ADFF874B17A
:1003C000FB44C0F820A02046E1688847002874D08C
:1003D000252806D0D4E901219047206A401C2062DC
:1003E000F1E700265F462046E16888472028054659
:1003F00007DB312D05D2781910F8200C08B106431F
:10040000F1E7B00701D526F00406C4F81CA00027C8
:10041000C4F818A02A2D09D0284602F069FA38B38A
:1004200004EB8708303DC8F8185019E059F8041B50
:10043000204604EB87029161E1688847012F054659
:1004400018D1E069002820DA26F020061DE0D8F84F
:10045000180000EB800005EB40003038C8F81800A9
:100460002046E1688847054602F042FA0028EED1AE
:10047000012F0AD02E2D08D12046E16888477F1C25
:100480000546022F46F02006C4DBA069002803DAE7
:10049000404246F00106A061F00701D026F01006A8
:1004A0006C2D0BD0682D09D04C2D39D06A2D35D04C
:1004B000742D35D07A2D33D016E038E0E1682F4620
:1004C00020468847B842054609D16C2F26D04FF404
:1004D0008060E168064320468847054604E06C2FAB
:1004E0001AD04FF4807006430DB3A5F141001928CE
:1004F00002D8203546F400664A4629462046266042
:100500004E46FFF74DFE80B101280BD0F61D26F0B8
:10051000070000F1080956E74020E4E78020D8E70B
:100520000020D6E706F104094DE7284652E7206A85
:10053000BDE8F09F2645000010B5431C02E010F80E
:10054000011B71B18107FAD14FF0013202C88C1A38
:100550008C4314EAC211F9D0C01A0A0603D0C01E97
:1005600010BDC01A10BD0A0401D0801E10BD0902C2
:10057000FCD0401E10BD10B5203AC0F00B80B1E891
:100580001850203AA0E81850B1E81850A0E81850C8
:10059000BFF4F5AF5FEA027C24BFB1E81850A0E8D1
:1005A000185044BF18C918C0BDE810405FEA827CEB
:1005B00024BF51F8043B40F8043B08BF7047D20702
:1005C00028BF31F8023B48BF11F8012B28BF20F8A3
:1005D000023B48BF00F8012B7047704770477047D7
:1005E0002DE9F0470D4699469246044600F124084D
:1005F0000168880604D5E06921F01001216000E05F
:100600000120A84201DD471B00E00027A1697A19FB
:1006100002EB0900081AA0612078C00602D4204627
:10062000FFF70EFE002608E0D4E901211AF80600C3
:100630009047206A401C761C20624E45F4DB2078EF
:10064000C0060AD52046FFF7FBFD06E0D4E90121EC
:1006500030209047206A401C2062381EA7F1010715
:10066000F4DC07E0D4E9012118F805009047206A7E
:10067000401C2062281EA5F10105F3DC2046FFF78F
:10068000F5FD2078000602D50220BDE8F0870120A4
:10069000FBE710B5436913B1AFF3008001E0FFF74A
:1006A000F6FD012010BD127800F124010A7000222D
:1006B0004A700122EDE711684FF0FF32E9E70000D0
:1006C000074B70B50D467B4400F011F804462846F0
:1006D00000F020F810B14FF0FF3070BD204670BD23
:1006E0003725000001694A1C02610878704700B58F
:1006F0008FB0CDE901310021059105497944CDE95B
:10070000031011466846FFF753FE0FB000BD00000E
:10071000E5FFFFFF007B00F080007047754600F0AA
:100720002BF8AE4605006946534620F00700854683
:1007300018B020B5FFF766FDBDE820404FF0000679
:100740004FF000074FF000084FF0000B21F00701B9
:10075000AC46ACE8C009ACE8C009ACE8C009ACE8FC
:10076000C0098D46704710B50446AFF3008020469F
:10077000BDE81040FFF732BD00487047300600204A
:1007800000BFFEE770B5044600224FF480711448A4
:1007900000F052FB00224FF40061114800F04CFBC6
:1007A000012211020E4800F047FB204600F084F8B9
:1007B00000F018F8054600224FF40061084800F0E8
:1007C0003BFB00224FF48071054800F035FB00220E
:1007D0004FF48051024800F02FFB68B270BD00005A
:1007E0000008014070B5002400F0BAF8012002F0C2
:1007F000DDF900251CE00122D102164800F01CFBA7
:10080000012002F0D3F900224FF40061114800F0FA
:1008100013FB012002F0CAF964104FF480510D4817
:1008200000F002FB012801D144F08004681CC5B22D
:10083000082DE0DB00224FF40061064800F0FCFACE
:1008400000224FF48071034800F0F6FA00F09EF8A1
:10085000204670BD0008014070B505460C460022D8
:100860004FF48071134800F0E7FA00224FF4006162
:10087000104800F0E1FA012211020E4800F0DCFA03
:10088000284600F019F8204600F016F800224FF430
:100890000061084800F0D0FA00224FF4807105484A
:1008A00000F0CAFA00224FF48051024800F0C4FA66
:1008B00070BD00000008014070B5044600F066F805
:1008C00000224FF40061174800F0B6FA012002F050
:1008D0006DF9002522E000224FF40061114800F07C
:1008E000ABFA04F0010028B1012211030D4800F019
:1008F000A3FA05E000224FF480510A4800F09CFA68
:10090000012002F053F90122D102064800F094FAC6
:10091000012002F04BF96410681CC5B2082DDADB27
:1009200070BD0000000801401FB50020009001903C
:100930000290039000224FF48071084800F07CFA86
:100940004FF480700090012001900020029003205D
:1009500003906946014800F0C7F81FBD0008014038
:100960001FB5002000900190029003904FF480503A
:1009700000900020019002900320039069460248F5
:1009800000F0B2F81FBD0000000801401FB50020B4
:10099000009001900290039000224FF4805108488B
:1009A00000F04AFA4FF4805000900120019000209E
:1009B0000290032003906946014800F095F81FBD9E
:1009C0000008014008B500BF0948806940F00400F4
:1009D000074988610846806900F00400009000BF64
:1009E00000BFFFF7A1FF00F005F8FFF7CFFF08BD3C
:1009F000001002401FB5002000900190029003906B
:100A000000224FF40061084800F016FA4FF400602D
:100A1000009001200190002002900320039069467D
:100A2000014800F061F81FBD00080140704770B533
:100A300000248720FFF7A6FEC4B204F00F0624119D
:100A400004F003050A2000FB0564204670BD70B564
:100A500000248520FFF796FEC4B204F00F0624118F
:100A600004F003050A2000FB0564204670BD70B544
:100A700000248320FFF786FEC4B204F00F06241181
:100A800004F007050A2000FB0564204670BD70B520
:100A900000248920FFF776FEC4B204F00F0624116B
:100AA00004F001050A2000FB0564204670BD70B506
:100AB00000248120FFF766FEC4B204F00F06241163
:100AC00004F007050A2000FB0564204670BD31B51F
:100AD000002400F0B7F9044600BF00F0B3F9001B92
:100AE00000998842F9D338BD2DE9F8470246002421
:100AF000002000258446002700237BE14FF00108F9
:100B000008FA03F4D1F8008008EA0400A0427DD17D
:100B1000DFF8ECA2D1F80480A8EB0A09D0453AD05E
:100B200014DCB8F1030F50D009DCB8F1000F31D05C
:100B3000B8F1010F1CD0B8F1020F49D120E0B8F193
:100B4000110F18D0B8F1120F42D11EE0B9F5881F6D
:100B500025D006DCB9F5803F20D0B9F5801F37D10C
:100B60001AE0B9F5001F18D0B9F5041F30D117E00D
:100B7000D1F80CC02DE0D1F80C8008F1040C28E06D
:100B8000D1F80C8008F1080C23E0D1F80C8008F1B2
:100B90000C0C1EE000BF00BF00BF00BF00BF00BFC5
:100BA000D1F80880B8F1000F02D14FF0040C0BE02F
:100BB000D1F80880B8F1010F03D14FF0080C14618F
:100BC00002E04FF0080C546103E04FF0000C00E02D
:100BD00000BF00BFFF2801D8904601E002F10408E1
:100BE0004646FF2802D84FEA830803E0A3F108082D
:100BF0004FEA88084746D6F800804FF00F0909FAF7
:100C000007F928EA09080CFA07F900E07AE048EA4F
:100C10000908C6F80080D1F8048008F08058B8F1BF
:100C2000805F6FD100BFDFF8DC81D8F8188048F012
:100C30000108DFF8D091C9F81880C846D8F81880A4
:100C400008F00108CDF8008000BF00BF4FEAB938B6
:100C50004FEA930958F829504FEA83784FEA1879F8
:100C60004FF00F0808FA09F825EA0805DFF898811F
:100C7000424502D14FF0000824E0DFF89081424560
:100C800002D14FF001081DE0DFF88481424502D116
:100C90004FF0020816E0DFF87C81424502D14FF0A8
:100CA00003080FE0DFF87081424502D14FF00408DD
:100CB00008E0DFF86881424502D14FF0050801E005
:100CC0004FF006084FEA83794FEA197908FA09F8D4
:100CD00048EA0505DFF848814FEA930948F82950AA
:100CE000D1F8048008F48038B8F5803F0BD1DFF8E4
:100CF0003481D8F8008048EA0008DFF82891C9F864
:100D000000800AE075E0DFF81C81D8F8008028EA4E
:100D10000008DFF81091C9F80080D1F8048008F4C9
:100D20000038B8F5003F0ED1DFF8F88008F104086C
:100D3000D8F8008048EA0008DFF8E89009F10409D3
:100D4000C9F800800DE0DFF8DC8008F10408D8F86D
:100D5000008028EA0008DFF8CC9009F10409C9F8FE
:100D60000080D1F8048008F48018B8F5801F0ED1F7
:100D7000DFF8B08008F10808D8F8008048EA0008D9
:100D8000DFF8A09009F10809C9F800800DE0DFF84C
:100D9000948008F10808D8F8008028EA0008DFF8F5
:100DA000849009F10809C9F80080D1F8048008F49A
:100DB0000018B8F5001F0ED1DFF8688008F10C08A4
:100DC000D8F8008048EA0008DFF8589009F10C09CB
:100DD000C9F800800DE0DFF84C8008F10C08D8F865
:100DE000008028EA0008DFF83C9009F10C09C9F8F6
:100DF00000805B1C102BFFF481AEBDE8F88700007B
:100E0000000011100010024000080140000C0140D9
:100E1000001001400014014000180140001C014076
:100E20000800014000040140024693680B400BB1EA
:100E3000012000E0002070470AB1016101E00B04CD
:100E400003617047014800687047000038000020C7
:100E500002480068401C01490860704738000020C3
:100E600010B50848006840F01000064908600320EB
:100E700000F068F80F2000F007F800F017F80020E5
:100E800010BD00000020024070B5044600F0BAF921
:100E90004FF47A71B0FBF1F5284600F08FFE002286
:100EA0002146501E00F010F8002070BD704700BFB2
:100EB00000F01F02012191404209920002F1E0225C
:100EC000C2F8001100BF70472DE9F05F80460D4663
:100ED0001646002701F0E8F8074639462A46334609
:100EE00001F00700C0F1070ABAF1040F02D94FF070
:100EF000040A01E0C0F1070AD14600F1040ABAF180
:100F0000070F02D24FF0000A01E0A0F1030AD44615
:100F10004FF0010A0AFA09FAAAF1010A0AEA020ADA
:100F20000AFA0CFA4FF0010B0BFA0CFBABF1010BB8
:100F30000BEA030B4AEA0B042146404601F0BCF8D9
:100F4000BDE8F09F00BF00F00702064B19684FF69E
:100F5000FF031940044B0B4343EA0221014B196084
:100F600000BF70470CED00E00000FA0570B50446C4
:100F70000D4600269F48006800F00700A8420ED2E8
:100F80009C48006820F0070028439A4908600846FA
:100F9000006800F00700A84201D0012070BD207851
:100FA00000F00200022807D19348406820F0F000CA
:100FB000A168084390494860207800F001000028AB
:100FC0007CD0606801282DD12020010391FAA1F185
:100FD000B1FA81F108430121B1EB601F02D18648CB
:100FE00000680FE02020010391FAA1F1B1FA81F12C
:100FF00008430221B1EB601F02D17F48006A01E083
:101000007D48406A20210A0392FAA2F2B2FA82F2E3
:10101000114301F01F02012191400840002860D1D6
:101020000120BBE7606802282CD12020010591FA3D
:10103000A1F1B1FA81F108430121B1EB601F02D1A6
:101040006D4800680FE02020010591FAA1F1B1FA86
:1010500081F108430221B1EB601F02D16648006AAA
:1010600001E06548406A20210A0592FAA2F2B2FA2C
:1010700082F2114301F01F0201219140084078BB28
:1010800001208BE72020022191FAA1F1B1FA81F130
:1010900008430121B1EB601F02D15748006810E0FE
:1010A0002020022191FAA1F1B1FA81F10843022135
:1010B000B1EB601F03D15048006A02E054E04E4893
:1010C000406A2021022292FAA2F2B2FA82F211437D
:1010D00001F01F0201219140084008B901205DE79D
:1010E000FFE74548406820F0030061680843424933
:1010F0004860FFF7A7FE06466068012810D108E0A7
:10110000FFF7A0FE801B41F28831884201D90320FD
:1011100044E73948406800F00C000428F0D123E08F
:101120006068022810D108E0FFF78CFE801B41F2B6
:101130008831884201D9032030E72F48406800F009
:101140000C000828F0D10FE008E0FFF77BFE801BC1
:1011500041F28831884201D903201FE726484068C0
:1011600000F00C000028F0D12248006800F00700D1
:10117000A8420ED91F48006820F0070028431D49E7
:1011800008600846006800F00700A84201D001206E
:1011900004E7207800F00400042807D116484068CE
:1011A00020F4E060E168084313494860207800F0CB
:1011B0000800082808D11048406820F460502169D0
:1011C00040EAC1000C49486000F04EF80A494968FD
:1011D00001F0F001F02292FAA2F2B2FA82F2D140CA
:1011E000064A515CC840064908600F20FFF74CFED4
:1011F0000020D3E60020024000100240AA48000868
:1012000034000020014800687047000034000020CE
:1012100000B5FFF7F7FF0749496801F4E0614FF4B3
:10122000E06292FAA2F2B2FA82F2D140024A515C32
:10123000C84000BD00100240BA48000800B5FFF7E2
:10124000E1FF0749496801F460514FF4605292FA96
:10125000A2F2B2FA82F2D140024A515CC84000BD0B
:1012600000100240BA480008F0B585B00FF28C0CAF
:101270009CE8E01001A8A0E8E01024A52D680095E6
:1012800000210024002200230020214D696801F084
:101290000C056DB3042D02D0082D28D101E01D48A6
:1012A00028E001F470154FF4701696FAA6F6B6FA17
:1012B00086F6F54001AE735D01F4803595B1144DAD
:1012C0006D6805F400354FF4003696FAA6F6B6FAC6
:1012D00086F6F5401DF805400E4DB5FBF4F505FB0F
:1012E00003F202E00C4D03FB05F2104602E000BFE2
:1012F000084800BF00BF05B0F0BD000002030405B0
:10130000060708090A0B0C0D0E0F10100102000051
:101310000010024000127A0000093D0038B5044672
:101320000025207800F0010000287CD0F8484068B3
:1013300000F00C0004280CD0F548406800F00C00C8
:10134000082837D1F248406800F48030B0F5803F7B
:1013500030D12020010391FAA1F1B1FA81F10843C3
:101360000121B1EB601F02D1E94800680FE02020A5
:10137000010391FAA1F1B1FA81F108430221B1EB25
:10138000601F02D1E248006A01E0E148406A202182
:101390000A0392FAA2F2B2FA82F2114301F01F029A
:1013A0000121914008400028BFD0606800283AD150
:1013B000012038BD00BF6068B0F5803F06D1D44839
:1013C000006840F48030D249086028E0606858B96D
:1013D000CF48006820F48030CD4908600846006896
:1013E00020F4802008601AE06068B0F5A02F0BD1CF
:1013F000C748006840F48020C54908600846006876
:1014000040F4803008600AE0C148006820F4803071
:10141000BF4908600846006820F48020086000BFCB
:101420006068C8B300E06FE0FFF70CFD054606E01A
:10143000FFF708FD401B642801D90320B9E72020ED
:10144000010391FAA1F1B1FA81F108430121B1EB55
:10145000601F02D1AE4800680FE02020010391FA1E
:10146000A1F1B1FA81F108430221B1EB601F02D171
:10147000A748006A01E0A648406A20210A0392FAC0
:10148000A2F2B2FA82F2114301F01F02012191404F
:1014900008400028CCD037E0FFE7FFF7D3FC054633
:1014A00006E0FFF7CFFC401B642801D9032080E74A
:1014B0002020010391FAA1F1B1FA81F10843012141
:1014C000B1EB601F02D1924800680FE020200103B9
:1014D00091FAA1F1B1FA81F108430221B1EB601F49
:1014E00002D18B48006A01E08948406A20210A0342
:1014F00092FAA2F2B2FA82F2114301F01F02012124
:10150000914008400028CCD1207800F00200022849
:101510004ED17F48406800F00C0050B17C484068D4
:1015200000F00C00082844D17948406800F480306D
:1015300078BB2020022191FAA1F1B1FA81F1084390
:101540000121B1EB601F02D1714800680FE020203B
:10155000022191FAA1F1B1FA81F108430221B1EB24
:10156000601F02D16A48006A01E06948406A202190
:10157000022292FAA2F2B2FA82F2114301F01F02A1
:1015800001219140084028B12069012802D00120A2
:101590000FE70EE05E48006820F0F800F82292FAAB
:1015A000A2F2B2FA82F26169914008435849086098
:1015B00091E02069F0B3012090FAA0F1B1FA81F135
:1015C000544A42F82100FFF73DFC054606E0FFF7CC
:1015D00039FC401B022801D90320EAE62020022121
:1015E00091FAA1F1B1FA81F108430121B1EB601F39
:1015F00002D1474800680FE02020022191FAA1F1B2
:10160000B1FA81F108430221B1EB601F02D14048D9
:10161000006A01E03E48406A2021022292FAA2F2CA
:10162000B2FA82F2114301F01F02012191400840F9
:10163000002800E00FE0CAD03548006820F0F8002C
:10164000F82292FAA2F2B2FA82F26169914008435A
:101650002F4908603FE00020012191FAA1F1B1FA81
:1016600081F12C4A42F82100FFF7ECFB054606E029
:10167000FFF7E8FB401B022801D9032099E6202050
:10168000022191FAA1F1B1FA81F108430121B1EBF4
:10169000601F02D11E4800680FE02020022191FA4D
:1016A000A1F1B1FA81F108430221B1EB601F02D12F
:1016B0001748006A01E01648406A2021022292FA87
:1016C000A2F2B2FA82F2114301F01F02012191400D
:1016D00008400028CCD1207800F0080008284BD121
:1016E000A069A8B3012191FAA1F0B0FA80F0094AEB
:1016F00002EB8000C0F88014FFF7A4FB05460BE066
:10170000FFF7A0FB401B022806D9032051E600008A
:1017100000100240000042426020022191FAA1F133
:10172000B1FA81F108430121B1EB601F02D1F94800
:10173000006810E06020022191FAA1F1B1FA81F174
:1017400008430221B1EB601F03D1F248006A02E0B6
:1017500013E0F048406A6021022292FAA2F2B2FA43
:1017600082F2114301F01F0201219140084000283C
:10177000C6D00120FFF7ABF941E00020012191FA2A
:10178000A1F1B1FA81F1E44A02EB8101C1F88004D0
:10179000FFF758FB054606E0FFF754FB401B022805
:1017A00001D9032005E66020022191FAA1F1B1FAE6
:1017B00081F108430121B1EB601F02D1D5480068D7
:1017C0000FE06020022191FAA1F1B1FA81F1084302
:1017D0000221B1EB601F02D1CE48006A01E0CD4882
:1017E000406A6021022292FAA2F2B2FA82F2114316
:1017F00001F01F020121914008400028CCD120783F
:1018000000F00400042875D100BFC248C06940F050
:101810008050C049C8610846C06900F080500090FF
:1018200000BF00BFBD48006840F48070BB4908603D
:10183000FFF708FB054606E0FFF704FB401B6428A2
:1018400001D90320B5E5B548006800F48070002890
:10185000F2D000BFE068012806D1AE48006A40F02F
:101860000100AC49086227E0E06858B9A948006A5D
:1018700020F00100A74908620846006A20F0040031
:10188000086219E0E06805280BD1A248006A40F020
:101890000400A04908620846006A40F0010008629E
:1018A0000AE09C48006A20F001009A490862084654
:1018B000006A20F00400086200BFE068D0B3FFF7C0
:1018C000C1FA054608E0FFF7BDFA401B41F2883136
:1018D000884201D903206CE54020022191FAA1F150
:1018E000B1FA81F108430121B1EB601F03D18948AE
:1018F000006810E058E04020022191FAA1F1B1FA0D
:1019000081F108430221B1EB601F02D18148006AD6
:1019100001E08048406A4021022292FAA2F2B2FA23
:1019200082F2114301F01F0201219140084000287A
:10193000C9D039E0FFE7FFF785FA054608E0FFF771
:1019400081FA401B41F28831884201D9032030E5F9
:101950004020022191FAA1F1B1FA81F1084301215D
:10196000B1EB601F02D16B4800680FE040200221FC
:1019700091FAA1F1B1FA81F108430221B1EB601FA4
:1019800002D16448006A01E06248406A40210222B4
:1019900092FAA2F2B2FA82F2114301F01F0201217F
:1019A000914008400028CAD1E069002873D0594806
:1019B000406800F00C0008286ED0E06902286CD165
:1019C00000204FF0807191FAA1F1B1FA81F1524AF1
:1019D00042F82100FFF736FA054606E0FFF732FA33
:1019E000401B022801D90320E3E42020010591FADD
:1019F000A1F1B1FA81F108430121B1EB601F02D1DD
:101A0000444800680FE02020010591FAA1F1B1FAE5
:101A100081F108430221B1EB601F02D13D48006A09
:101A200001E03C48406A20210A0592FAA2F2B2FA8B
:101A300082F2114301F01F02012191400840002869
:101A4000CCD1206AB0F5803F07D13248406820F4FD
:101A50000030A16808432F494860D4E908010843D1
:101A60002C49496821F4741108432A49486001212E
:101A7000080690FAA0F0B0FA80F0274A42F8201049
:101A8000FFF7E0F9054609E0FFF7DCF9401B022803
:101A900004D903208DE479E076E02CE020200105D4
:101AA00091FAA1F1B1FA81F108430121B1EB601F74
:101AB00002D1184800680FE02020010591FAA1F139
:101AC000B1FA81F108430221B1EB601F02D1114844
:101AD000006A01E00F48406A20210A0592FAA2F24A
:101AE000B2FA82F2114301F01F0201219140084035
:101AF0000028C9D04AE000204FF0807191FAA1F18E
:101B0000B1FA81F1044A42F82100FFF79BF905463A
:101B10000DE0000000100240000042420070004052
:101B2000FFF790F9401B022801D9032041E420204F
:101B3000010591FAA1F1B1FA81F108430121B1EB5C
:101B4000601F02D1124800680FE02020010591FAC1
:101B5000A1F1B1FA81F108430221B1EB601F02D17A
:101B60000B48006A01E00A48406A20210A0592FAFF
:101B7000A2F2B2FA82F2114301F01F020121914058
:101B800008400028CCD101E0012012E4002010E43C
:101B900000100240042808D14FF0E021096941F00B
:101BA00004014FF0E022116107E04FF0E0210969E4
:101BB00021F004014FF0E0221161704770B5044636
:101BC0002546681EB0F1807F01D301200FE0681E1A
:101BD0004FF0E02148610F214FF0FF3000F06CFA28
:101BE00000204FF0E021886107200861002070BDCF
:101BF00010B504460CB9012010BD94F8390028B97D
:101C0000002084F83800204600F00CF8022084F808
:101C10003900211D206800F083FB012084F8390081
:101C20000020E9E738B504462068B0F1804F15D1AF
:101C300000BF1848C06940F001001649C861084655
:101C4000C06900F00100009000BF00BF0022012128
:101C50001C20FFF739F91C20FFF729F90E492068ED
:101C6000884215D100BF0B48C06940F00200094905
:101C7000C8610846C06900F00200009000BF00BFC4
:101C8000002201211D20FFF71FF91D20FFF70FF98A
:101C900038BD000000100240000400400146086802
:101CA000C06840F001000A68D0600868006840F031
:101CB00001000A681060002070477047F8B50446BC
:101CC000002500262068006800F001052068C06833
:101CD00000F4807625B11EB1E06B40F00100E063B6
:101CE00020680068C0F340052068406900F00106E4
:101CF00025B11EB1E06B40F00400E063206800688D
:101D0000C0F3800525B11EB1E06B40F00200E06336
:101D100020680068C0F3C00525B11EB1E06B40F03B
:101D20000800E06320680068C0F340152068C068C0
:101D300000F020061DB116B1204600F07FFB2068A0
:101D40000068C0F3C0152068C06800F080061DB1AF
:101D500016B1204600F0B4FC20680068C0F380157E
:101D60002068C06800F040061DB116B1204600F0A2
:101D70004DFBE06B70B100BF2068006800902068E8
:101D80004068009000BF00BF012084F83900204661
:101D9000FFF793FFF8BD10B504460CB9012010BD44
:101DA000A06900B100E000BF94F8390028B9002014
:101DB00084F83800204600F025F8022084F8390025
:101DC0002068C06820F400502168C860204600F0F8
:101DD00093FB2068006920F4904021680861206826
:101DE000406920F02A00216848612068C06840F4FA
:101DF00000502168C8600020E063012084F83900A9
:101E00000020CCE710B58AB00446424920688842D9
:101E100044D100BF4048806940F004003E498861D9
:101E20000846806900F00400019000BF00BF00BFB9
:101E30000846806940F4804088610846806900F463
:101E40008040019000BF00BF00BF0846806940F09D
:101E5000010088610846806900F00100019000BF20
:101E600000BF48150690022007900120089003202B
:101E7000099006A92948FEF737FE4FF480600690C6
:101E80000020079006A92548FEF72EFE2520FFF723
:101E90000EF8002203212520FFF716F820492068BC
:101EA000884235D100BF1C48806940F004001A49BF
:101EB00088610846806900F00400019000BF00BFFF
:101EC00000BF0846C06940F40030C8610846C069D8
:101ED00000F40030019000BF00BF042002900220F7
:101EE00003900320059002A90C48FEF7FDFD082091
:101EF000029000200390049002A90848FEF7F4FD28
:101F0000002202212620FEF7DFFF2620FEF7CFFF6A
:101F10000AB010BD00380140001002400008014026
:101F20000044004030B50346002493F83940012CAA
:101F300001D0122C37D101B10AB9012030BD00BF48
:101F400093F83800012801D10220F7E7012083F837
:101F5000380000BF99629A85DA850020D86393F82B
:101F60003900122803D1322083F8390002E0222000
:101F700083F8390000BF002083F8380000BF1868DC
:101F8000C06840F480701D68E8601868406940F0DF
:101F900001001D6868611868C06840F020001D6875
:101FA000E8600020CAE70220C8E770472DE9F04743
:101FB00004460D46164699464FF0000894F83980BD
:101FC000B8F1010F02D0B8F1220F65D105B116B9F1
:101FD0000120BDE8F08700BF94F83800012801D146
:101FE0000220F6E7012084F8380000BF0020E063FB
:101FF00094F83900222803D1322084F8390002E015
:10200000122084F83900A684E68428E0E08C401E83
:10201000E084A068B0F5805F14D14B460022802197
:10202000204600F085FB08B10320D2E72F46388810
:10203000C0F3080021684860206908B9AD1C0EE0B3
:102040006D1C0CE04B4600228021204600F070FB06
:1020500008B10320BDE715F8010B21684860E08C4A
:102060000028D3DC4B4600224021204600F060FBD4
:1020700008B10320ADE794F83900322803D12220BB
:1020800084F8390002E0012084F8390000BF002004
:1020900084F8380000BF9CE702209AE7704700BF31
:1020A000FEE700BFFEE7704702480068C0F3022069
:1020B000704700000CED00E010B5002807DA0A07B1
:1020C000140E054A00F00F031B1FD45403E00A0747
:1020D000130E024A135410BD18ED00E000E400E0B6
:1020E0007047704770B504460A2094FBF0F100FB7E
:1020F0001140C6B20A2094FBF0F0C5B22807040EC6
:10210000A019C4B221468420FEF7A6FB70BD70B5AD
:1021100004460A2094FBF0F100FB1140C6B20A20ED
:1021200094FBF0F0C5B22807040EA019C4B22146F2
:102130008220FEF791FB70BD70B504460A2094FB27
:10214000F0F100FB1140C6B20A2094FBF0F0C5B2DA
:102150002807040EA019C4B221468020FEF77CFB9C
:1021600070BD70B506460C4615463046FFF7BAFFFF
:102170002046FFF7CCFF2846FFF7DEFF70BD30B5E5
:102180008FB00546022005900120099010200A908A
:1021900002200C9000210D914FF460110E9105A8C2
:1021A000FFF7BCF80F200090022001900020029061
:1021B0004FF4806003900020049002216846FEF7EF
:1021C000D5FEFFF71FF84FF47A71B0FBF1F420460B
:1021D000FFF7F4FC0420FFF7DDFC00221146501E3F
:1021E000FEF772FE0FB030BD10B5FEF731FE10BD28
:1021F0001148006840F001000F4908600846406837
:102200000E4908400C494860084600680C490840DF
:10221000094908600846006820F4802008600846E4
:10222000406820F4FE0048604FF41F008860C80337
:102230000449086070470000001002400000FFF8E9
:10224000FFFFF6FE08ED00E010B50D480068C0681D
:1022500000F0010070B101F00DF900200849096893
:10226000486200BF142006490968C8621421044866
:10227000C16000BF6FF0010001490968086110BD2D
:102280000405002010B509480068C06800F001008E
:1022900028B101F076F900200449096848626FF01E
:1022A000010002490968086110BD0000C80400204F
:1022B00070B505460C460748074908600846446063
:1022C00000218160C5600161FFF792FC0248FFF7C1
:1022D000E5FC70BD00040040C804002010B50E48A5
:1022E0000068C06800F0010078B10C4908698047B7
:1022F000002009490968486200BF6420064909684E
:10230000C86264210448C16000BF6FF00100024947
:102310000968086110BD0000F4050020DC00002001
:10232000002202681D4B98420ED01D4B98420BD0E4
:10233000B0F1804F08D01B4B984205D01A4B984201
:1023400002D01A4B984203D122F070024B681A4314
:10235000124B98420ED0124B98420BD0B0F1804FE6
:1023600008D0104B984205D00F4B984202D00F4B2B
:10237000984203D122F44072CB681A4302608B6802
:10238000C3620B688362054B984202D0044B9842AB
:1023900001D10B690363012343617047002C0140A5
:1023A000003401400004004000080040000C0040E0
:1023B00038B504460D4600BF1148C06940F004001E
:1023C0000F49C8610846C06900F00400009000BFD2
:1023D00000BF032206211E20FEF776FD1E20FEF719
:1023E00066FD08480849086008464560002181608C
:1023F000C4600161FFF7FCFB0348FFF74FFC38BDE9
:102400000010024000080040F405002010B504460A
:102410002068C06820F040002168C86094F8390046
:10242000322803D1222084F8390002E0012084F808
:1024300039002046FFF732FE002010BD70B504467B
:10244000002694F83960222E01D0322E52D1A06895
:10245000B0F5805F13D1A56A206940B92068406853
:10246000C0F308002880A06A801CA06219E02068E0
:102470004068C0B22880A06A401CA06211E02069B8
:1024800038B920684068C1B2A26A501CA0621170BD
:1024900007E02068406800F07F01A26A501CA0623B
:1024A0001170E08D401E80B2E08508BB2068C068D6
:1024B00020F020002168C86094F83900322803D148
:1024C000122084F839000EE02068C06820F4807083
:1024D0002168C8602068406920F0010021684861D7
:1024E000012084F839002046FFF75FFD002070BD11
:1024F0000020FCE70220FAE72DE9F0410446002520
:102500002068006920F44050E168084321680861B0
:102510002169A0680843616940EA01052068C06834
:1025200041F20C61884328432168C86020684069F3
:1025300020F44070A1690843216848615F49206820
:1025400088425CD1FEF77AFE00EBC00101EB00107F
:1025500061688900B0FBF1F6FEF770FE00EBC00188
:1025600001EB001061688900B0FBF1F06421B0FB61
:10257000F1F000EBC00101EB0010A6EB800032216E
:1025800001EB00106421B0FBF1F000F0F006FEF763
:1025900055FE00EBC00101EB001061688900B0FB43
:1025A000F1F06421B0FBF1F006EB0016FEF746FEF9
:1025B00000EBC00101EB001061688900B0FBF1F78E
:1025C000FEF73CFE00EBC00101EB001061688900E2
:1025D000B0FBF1F06421B0FBF1F000EBC00101EBC6
:1025E0000010A7EB8000322101EB00106421B0FB4A
:1025F000F1F000F00F003044216888605BE0FEF7E6
:1026000007FE00EBC00101EB001061688900B0FB20
:10261000F1F6FEF7FDFD00EBC00101EB0010616873
:102620008900B0FBF1F06421B0FBF1F000EBC001D8
:1026300001EB0010A6EB8000322101EB00106421B9
:10264000B0FBF1F000F0F006FEF7E2FD00EBC00198
:1026500001EB001061688900B0FBF1F06421B0FB70
:10266000F1F006EB0016FEF7D3FD00EBC00101EB25
:10267000001061688900B0FBF1F7FEF7C9FD00EBBF
:10268000C00101EB001061688900B0FBF1F064212A
:10269000B0FBF1F000EBC00101EB0010A7EB8000F4
:1026A000322101EB00106421B0FBF1F000F00F00CB
:1026B000304421688860BDE8F081000000380140A6
:1026C00010B50146002391F83930122B01D0322B7E
:1026D0002CD18868B0F5805F0FD10A6A1088C0F3EA
:1026E00008000C686060086918B9086A801C0862F4
:1026F00009E0086A401C086205E00C6A601C086278
:1027000020780C686060C88C401E80B2C88458B9BC
:102710000868C06820F080000C68E0600868C06845
:1027200040F040000C68E060002010BD0220FCE793
:102730002DE9F04104460E4617461D464FF00008AD
:10274000FEF780FB80469FBB2BE0681C48B32DB191
:10275000FEF778FBA0EB0800A84222D92068C068E9
:1027600020F080002168C8602068C06820F0200048
:102770002168C8602068C06820F480702168C86043
:102780002068406920F0010021684861012084F838
:10279000390000BF002084F8380000BF0320BDE8E6
:1027A000F081206800683040B04202D1012001E091
:1027B00003E000200028C8D035E02AE0681C40B3C0
:1027C0002DB1FEF73FFBA0EB0800A84221D92068FD
:1027D000C06820F080002168C8602068C06820F0D0
:1027E00020002168C8602068C06820F480702168DB
:1027F000C8602068406920F001002168486101201C
:1028000084F8390000BF002084F8380000BF03209E
:10281000C5E7206800683040B04201D1012000E0E7
:1028200000200028CAD10020B9E7000010B51F48D9
:1028300000680068C0F3401008B31D480068C4B2C7
:102840001C48008800F40040C8B91A48008800F409
:10285000804060B10A2C03D000201649088020E097
:102860001448008840F400401249088019E00D2CFB
:1028700006D11048008840F480400E49088010E0DE
:102880000C480088C0F30D000B490C54094800881F
:10289000401C0849088008460088C72801DD002040
:1028A00008800248FFF70AFA10BD00004804002023
:1028B00004380140440000208003002010B508487F
:1028C00000680068C0F3401028B106480068064957
:1028D000087000F07BF80248FFF7F0F910BD000027
:1028E00088040020044400404700002000BFFEE7A9
:1028F00030380A2801D2012070470020704700BFFD
:102900007047000010B50024002306E0184600F0D0
:102910001BF82044C4B2581CC3B2052BF6DB002CB4
:1029200006DD0120064908600649C1F8940106E069
:1029300000200349143108600249C1F8800110BD2C
:102940008001214200002142014601EBC1001E4AE4
:1029500002EBC00090F8460008B90020704701EB78
:10296000C100194A02EBC00082681748D0F8700114
:10297000824201D00020F1E701EBC100124A02EBD4
:10298000C00042681048D0F86C01824201D000209B
:10299000E4E701EBC1000C4A52F83000D2F868219C
:1029A000904201D00020D9E701EBC100064A02EBBA
:1029B000C000C2680448D0F87401824201D00020EF
:1029C000CCE70120CAE70000D00100201F480078B2
:1029D000022820D11E4800681E491F4A12788854D8
:1029E000084600781C49097888420ED119480078B9
:1029F0001849085C194908700020174908701349E4
:102A0000087001201649086000BF13480078401C78
:102A10001149087019E00E4800685A2803D10120B6
:102A20000A49087011E00948007801280AD10848CD
:102A30000068A52806D10020074908700220034934
:102A4000087002E0002001490870704775000020FE
:102A500004440040D60500207600002077000020C6
:102A6000780000202DE9F04107460021012000F008
:102A70006FFB022000F012FB384600F065FA1020D0
:102A800000F034FB0446112000F030FB06465BE00A
:102A9000642000F07FF8002000F028FB0546002DA0
:102AA00003DD0021084600F053FB022D12D10C2C4F
:102AB00000DA641C2146102000F04AFB234850F83D
:102AC0002400B04206DA214850F824603146112033
:102AD00000F03EFB032D12D1012C00DD641E2146C7
:102AE000102000F035FB194850F82400B04206DAF7
:102AF000164850F824603146112000F029FB042DBF
:102B000009D1124850F82400B04200DD761C31464D
:102B1000112000F01DFB052D06D1012E00DD761ED3
:102B20003146112000F014FB0B2D04D1012000F0E0
:102B3000B5FABDE8F0810A2D06D1384600F032FA28
:102B4000012000F0ABFAF4E7A2E70000000000204B
:102B500010B5044604EBC400084901EBC00090F82E
:102B60004600C0F1010004EBC401044A02EBC101BC
:102B700081F84600204600F09DFB10BDD0010020EA
:102B800010B504460420FFF705F80148046010BDA5
:102B90003C00002030B50446002504E04FF47A7074
:102BA00000F004F86D1CA542F8D330BD70B50346A3
:102BB00000224FF0E02675690D4E366803FB06F4DF
:102BC0004FF0E026B16910E04FF0E026B06988428E
:102BD0000BD0884202D20E1A324402E02E1A0E4462
:102BE00032440146A24200D300E0EDE700BF70BDD1
:102BF0003C00002010B50446A0B2FFF7CBFF10BD8B
:102C000000BF054A126802F04002002AF9D0C2B2A1
:102C1000014B1B1D1A60704700380140012080F3F2
:102C2000138800BF00BF00BF00BF00BF00BFBFF3DD
:102C30004F8F00BF00BF00BF0948006800F4E0608C
:102C400008490843001D0649086000BF00BF00BFD7
:102C5000BFF34F8F00BF00BF00BF00BF00BFFDE745
:102C60000CED00E00000FA0510B5FDF700FF0B4980
:102C7000C1F86801FDF71BFF0849C1F8780105207C
:102C800000F018FB0548D0F8680128B90348D0F8CF
:102C9000780108B900F004F810BD0000D001002050
:102CA00010B5FDF7F4FE0D49C1F87401FDF7BFFE44
:102CB0000A49C1F87001FDF7CAFE0849C1F86C0164
:102CC000FDF7D5FE0549C1F86801FDF7F0FE03499F
:102CD000C1F87801052000F0EDFA10BDD001002008
:102CE00010B500F049F800F0A9F910BD10B59AB080
:102CF00034221E490DA8FDF73EFC34221B49343115
:102D00006846FDF738FCFFF7CBFF48221849A1F5CC
:102D1000B470FDF730FC0020164981F8460000240D
:102D200006E00DA8015D134814300155601CC4B2C3
:102D3000322CF6DB00240AE004EBC4010D4A02EB5E
:102D4000C10048220B49FDF716FC601CC4B2062CDA
:102D5000F2DB002406E01DF804100548143001558C
:102D6000601CC4B2322CF6DB1AB010BD2C4800082F
:102D700038030020D001002000B585B000BF2E48E8
:102D8000806940F004002C4988610846806900F0A1
:102D90000400009000BF00BF00BF0846806940F0FB
:102DA000080088610846806900F00800009000BFB4
:102DB00000BF00BF0846806940F0100088610846E7
:102DC000806900F01000009000BF00BF00BF0846FF
:102DD000806940F0200088610846806900F020008A
:102DE000009000BF00BF00BF0846806940F040006F
:102DF00088610846806900F04000009000BF00BF75
:102E000000BF0846806940F08000886108468069FC
:102E100000F08000009000BF00BF00200290012061
:102E200003900320049047F2FF30019001A903486A
:102E3000FDF75AFE05B000BD001002400010014031
:102E4000FEF70EF84FF4E010FFF799F90320FEF7B4
:102E500079F84020FFF794FE4FF47A70FFF79AFE5E
:102E60004FF4E13000F08EFB314841685420884730
:102E700000F0C8F8FFF734FF01202E4908602E4902
:102E8000C1F89C013F2142F20F70FFF711FA4FF495
:102E90007A70FFF77FFE29A0FDF7C6F9002109200F
:102EA00000F056F9002000F0F9F8C820FFF772FE94
:102EB000FDF788FDC820FFF76DFE012000F0EEF859
:102EC000FFF714FF002503E0E8B200F0F3F96D1CF2
:102ED000052DF9DBFFF7E4FEC820FFF75BFEFFF7E7
:102EE000DFFEC820FFF756FE00F0DCF91EE0FFF71A
:102EF000BBFEFFF707FD6420FFF74CFE012000F04A
:102F0000F5F80446022C05DB062C03DCA11EC8B232
:102F1000FFF7A8FD072C09DB0021012000F018F9BC
:102F2000E11FC8B2FFF714FEFFF7BAFEDFE70000AB
:102F3000DC0000209801214200002142B3F5CABC08
:102F4000BBAFCDEAB3C9000070B50446102504EB51
:102F5000C402134B03EBC20228466D1CD16800F07B
:102F6000F7F804EBC4020E4B03EBC20228466D1CBB
:102F7000916800F0EDF804EBC402094B03EBC202C8
:102F800028466D1C516800F0E3F804EBC402044BC2
:102F900053F8321028466D1C00F0DAF870BD0000BE
:102FA000D001002070B50446102528466D1C00F0A5
:102FB0009DF804EBC401124A02EBC101C860284627
:102FC0006D1C00F093F804EBC4010D4A02EBC10143
:102FD000886028466D1C00F089F804EBC401084A9B
:102FE00002EBC101486028466D1C00F07FF804EB3D
:102FF000C401034A42F83100204600F05BF970BD7D
:10300000D001002010B500220A212520FDF75CFF29
:10301000002211462720FDF757FF002204211C2023
:10302000FDF752FF002204211D20FDF74DFF002275
:1030300005211E20FDF748FF10BD00001FB501202F
:1030400001900290032003902120009069460248DD
:10305000FDF74AFD1FBD00000008014010B5044601
:1030600000F016F85A2000F011F9A52000F00EF932
:10307000032000F00BF9802000F008F9022000F096
:1030800005F9204600F002F900F0CEF810BD00006E
:1030900001200149087070477400002070B5044693
:1030A000FFF7F6FF2046E11704EB11610D12E1175F
:1030B00004EB11610912A4EB01265A2000F0E6F896
:1030C000A52000F0E3F8042000F0E0F8802000F0F4
:1030D000DDF8032000F0DAF8E8B200F0D7F8F0B23B
:1030E00000F0D4F800F0A0F870BD000070B50646FE
:1030F0000121304600F09EF8002408E01420FFF77C
:1031000079FD641C0D480068002800DD01E0282CD2
:10311000F4DB00BF282C04DB09A0FDF785F81420A0
:1031200070BD0A480478015D601E084A105C01EB1E
:10313000002500F079F82846F2E70000780000202A
:1031400072656164206572726F720000D60500209E
:103150002DE9F04104460D46FFF79AFF2846E9178E
:1031600005EB11610F12E91705EB11610912A5EBCF
:1031700001285A2000F08AF8A52000F087F80520E1
:1031800000F084F8822000F081F82646E11704EB75
:103190001161C1F3072000F079F8E11704EB116128
:1031A0000912A4EB0121C8B200F070F8F8B200F0E7
:1031B0006DF808F0FF0000F069F800F035F8BDE8A0
:1031C000F0812DE9F04104460D464FF00B08FFF762
:1031D0005FFF2046E11704EB11610E12E11704EBCB
:1031E00011610912A4EB01275A2000F04FF8A52025
:1031F00000F04CF82846FDF79FF9C01C00F0FF08CE
:10320000404600F043F8822000F040F8F0B200F0B1
:103210003DF8F8B200F03AF8284600F0A7F900F0BF
:1032200003F8BDE8F08100000020014908707047F4
:103230007400002070B505460E46FFF729FF0024F4
:1032400003E060200F490855641C1E2CF9DB0020A8
:103250000D4908605A2000F019F8A52000F016F872
:10326000042000F013F8832000F010F8002000F094
:103270000DF8E8B200F00AF8F0B200F007F800200C
:1032800070BD0000D60500207800002001B56FF069
:103290007F43012269460248FEF788FE08BD000010
:1032A0008804002010B534223B211320FEF759FF7B
:1032B00010BD0000F0B587B004466C4A07CA04ABE5
:1032C00007C36A4A0C3207CA01AB07C304EBC40048
:1032D000674901EBC000C5680A2095FBF0F030306B
:1032E00004EBC401624A02EBC10108750A2095FB98
:1032F000F0F100FB11503030C1B204EBC40002EB1E
:10330000C000417504EBC400114601EBC0008568A4
:103310000A2095FBF0F03030C1B204EBC40002EBA0
:10332000C00001760A2095FBF0F100FB115030300F
:10333000C1B204EBC40002EBC000417604EBC40050
:10334000114601EBC00045680A2095FBF0F03030D3
:10335000C1B204EBC40002EBC00001770A2095FB68
:10336000F0F100FB11503030C1B204EBC40002EBAD
:10337000C000417704EBC400114651F830500A20D8
:1033800095FBF0F03030C1B204EBC40002EBC0009A
:1033900080F820100A2095FBF0F100FB115030302E
:1033A000C1B204EBC40002EBC00080F82110052C70
:1033B0002BDA04EBC400114601EBC00090F8460084
:1033C000012811D100260CE004A8825D04EBC400A2
:1033D000274901EBC000143006F110014254701C63
:1033E000C6B2022EF0DB10E000260CE001A8825DE0
:1033F00004EBC4001E4901EBC000143006F11001BB
:103400004254701CC6B2022EF0DB052C1ED104EB18
:10341000C400174901EBC00005690A2095FBF0F0D4
:103420003030C1B204EBC400114A02EBC00080F896
:1034300024100A2095FBF0F100FB11503030C1B28E
:1034400004EBC40002EBC00080F82510200200F558
:10345000905704EBC400064A02EBC00000F11401CF
:103460003846FFF7AEFE07B0F0BD000094480008F4
:10347000D00100203A4909683A4A127841EA4201EB
:10348000384A11703649091D0968527841EA4201EB
:10349000344A5170324908310968927841EA420150
:1034A000304A91702E490C310968D27841EA4201C4
:1034B0002C4AD1702A4910310968127941EA420137
:1034C000284A1171264914310968527941EA4201AA
:1034D000244A5171224918310968927941EA42011E
:1034E000204A91711E491C310968D27941EA420192
:1034F0001C4AD1711A4920310968127A41EA420105
:10350000184A1172164924310968527A41EA420177
:10351000144A5172124928310968927A41EA4201EB
:10352000104A91720E492C310968D27A41EA42015F
:103530000C4AD17200200FE00A49095C19B9002138
:10354000094A115406E00749095CFF2902D101210B
:10355000054A1154411CC8B20C28EDDB704700002D
:10356000000122424A000020B805002010B50446A0
:1035700003E02078FFF78AFE641C20780028F8D149
:1035800010BD704710B5044613481449086008463A
:10359000446000218160C160016181610C21416151
:1035A000FEF7F9FB01220E490C48FEF7BBFC0D4863
:1035B0000D4908600846446000218160C1600161D6
:1035C00081610C214161FEF7E6FB012207490648B3
:1035D000FEF7A8FC10BD00000038014048040020A0
:1035E00046000020004400408804002047000020DE
:1035F00030B595B0054613AB12AA09A9284600F0CC
:1036000041FA044614B1204615B030BD0020149094
:1036100026E0224909689DF8502001EBC20113AB56
:1036200011AA486801A900F02DFA04460CB1204601
:10363000EAE709A901A800F0E3FC60B99DF844009D
:103640009DF84810884201DD0220DDE79DF850001A
:10365000124988750AE09DF85000401CC0B21490D1
:103660000E48007D9DF850108842D2DC00BF0B4808
:10367000007D9DF85010884201D10420C4E714A9B0
:10368000284600F0DFFA04460CB12046BCE79DF85E
:103690005000024948750020B6E70000DC00002019
:1036A0002DE9F0419AB09D48847D007DA04202DC66
:1036B0001AB0BDE8F0819949096801EBC40106AB75
:1036C00007AA486808A900F0DDF908A994A0FCF74A
:1036D000ABFD002645E09148008B0121B140084038
:1036E000D8B1222190A0FCF79FFD304600F030FBBE
:1036F0008A492431471839468CA0FCF795FD2221D0
:1037000089A0FCF791FD304600F022FB834924316B
:10371000084410A941F8260019E0304600F018FBD3
:103720007E492431085810A941F826007B48C07D05
:10373000012806D110A850F826107DA0FCF774FDD2
:1037400005E010A850F826107AA0FCF76DFD9DF852
:103750001C00401EB04202D078A0FCF765FD701C32
:10376000C6B29DF81C008642B5DB75A0FCF75CFD77
:1037700000F040FB6948407D0B280DD2DFE800F0E7
:10378000060D151E27323F4E5F7287006349096898
:1037900051F834008047054690E0604A126852F8BC
:1037A000341010988847054688E05C4B1B6853F836
:1037B0003420DDE91001904705467FE0574F3F6810
:1037C00057F8343010A807C89847054676E0DFF868
:1037D0004CC1DCF800C05CF8347010A80FC8B847C2
:1037E00005466BE01498DFF834C10090DCF800C0A7
:1037F0005CF8347010A80FC8B84705465EE0DDE9F4
:103800001401DFF818C1CDE90001DCF800C05CF854
:10381000347010A80FC8B84705464FE0DDE9141210
:103820001698DFF8F8C0CDE900120290DCF800C06D
:103830005CF8347010A80FC8B84705463EE0DDE9D3
:103840001423DDE91610DFF8D4C0CDE90023CDE95B
:103850000210DCF800C05CF8347010A80FC8B8473C
:1038600005462BE0DDE91523DDE91710CDE901233D
:10387000CDE903101498DFF8A4C00090DCF800C074
:103880005CF8347010A80FC8B847054616E0DDE9AB
:103890001623DDE91810CDE90223CDE90410DDE996
:1038A0001401DFF878C0CDE90001DCF800C05CF855
:1038B000347010A80FC8B847054600BF00BF00F01D
:1038C00057FA9DF8180001280DD11448C07D012831
:1038D00004D129461BA0FCF7A7FC07E029461BA042
:1038E000FCF7A2FC02E018A0FCF79EFC0B4890F845
:1038F000EC0088B10948D0F8F0000A21B0FBF1F2E1
:1039000001FB12070548D0F8F000B0FBF1F83A4689
:10391000414611A0FCF788FC00BFC9E6DC0000208E
:103920000D0A2573280000002563000025730000A0
:10393000256C640030582558000000002C00000061
:10394000290000003D256C753B0D0A003D305825CF
:10395000583B0D0A0000000046756E6374696F6E77
:103960002052756E2054696D653A25642E253164A8
:103970006D730D0A00000000F0B5034615460020E7
:103980000022002600245BE01F782C2F01D104B90F
:1039900001221F78292F01D01F780FB904B950E0F8
:1039A000002E3AD11F78302F02DB1F78392F17DD18
:1039B0001F782D2F14D01F782B2F11D01F78612F37
:1039C00002DB1F78662F0BDD1F78412F02DB1F788B
:1039D000462F05DD1F78582F02D01F78782F0CD185
:1039E00002B12EE01F78612F03DB1F78203F0F709C
:1039F00001E01F780F70491C1FE01F78222F04D1AF
:103A000002B11EE00126012417E01F78202F14D0F8
:103A10001F782C2F11D0FF2613E01F78222F00D102
:103A2000002402B10DE044B11F785C2F02D15B1C71
:103A3000471CF8B21F780F70491C471CF8B25B1C7A
:103A4000A2E700BF00270F702E70F0BD10B504462E
:103A5000002010700BE020780870641C491C10785E
:103A6000401C10701078984201DB012010BD2078B6
:103A7000202802D020780028EDD10020087000BF57
:103A8000F4E700002DE9FF4F85B080468946002706
:103A9000002004900390012002904FF0000B0025BD
:103AA00044461DE02078202816D005F07F00052828
:103AB00012DA0DB945F0800505F07F00042803D126
:103AC00020782A2800D00EE0207805F07F010DF83C
:103AD0000100681CC5B202E0852D00D103E0641C22
:103AE00020780028DED100BF8DB1002005F07F01D5
:103AF0000DF8010051A1684600F082FA18B90021C2
:103B00000898017002E001210898017000254FF02B
:103B1000000A444614E0641C0AF1010000F0FF0AA8
:103B20002078202802D020782A2809D1204600F0C9
:103B3000D9F90646282E03D02A2E01D0CDF810A0A0
:103B40002078282802D020780028E4D14446049820
:103B500010B10498401C04444FF0000A002654E0C1
:103B6000207810B94FF0010A50E02078282803D1BE
:103B700016B9781CC7B213E02078292808D13EB9BD
:103B800017B1781EC7B201E04FF0010A47B93DE016
:103B90002078222804D10EB9012000E0002006463A
:103BA00047B9207820282FD0207889F8000009F123
:103BB000010929E020782C2804D101200290681CFA
:103BC000C5B214E02078202811D0207828280ED003
:103BD0004DB9BBF1050F06DA20780DF80B000BF19B
:103BE000010000F0FF0B0298401CC0B20290012FB0
:103BF0000AD10298022807D10298401CC0B2029054
:103C00000398401CC0B20390641CA9E700BF03984E
:103C1000012809D100200DF80B0008A1684600F02A
:103C2000EFF908B900200390079903980870002065
:103C300089F80000504609B0BDE8F08F766F6964DE
:103C4000000000002DE9F043B5B005460F46002402
:103C5000002604E000213D488155701CC6B20A2EA2
:103C6000F8DB06E06D1C287818B9012035B0BDE8F6
:103C7000F08328782828F5D16D1C61E034AA6946C4
:103C80002846FFF779FE064635449DF8D00020B15E
:103C9000012827D0FF284CD149E09DF8000000B34F
:103CA00033A9684600F029F906460EB10220DDE787
:103CB000204600F04DF825490A31339A0A50A1F107
:103CC0002400008B0121A140884320491A39088330
:103CD00004211E480155601CC4B20A2C01DD0320DA
:103CE000C4E726E0684600F0A7F9401C00F0FF0892
:103CF000204600F02DF815490A3100EB010949462C
:103D0000684600F08EF911481A38018B0120A04056
:103D1000014388B20D491A3908830C4800F8048021
:103D2000601CC4B20A2C01DD03209FE701E00220E1
:103D30009CE700BF2878292801D0287800B900E046
:103D40009CE700BF3C70002090E70000F6000020D8
:103D500002460020002105E0044B5B5C0344D8B21E
:103D60004B1CD9B29142F7DB70470000F6000020EF
:103D70000E480068006900F0010040B10C48D0F81E
:103D8000F0004FF6FF7108440949C1F8F0000848F7
:103D9000D0F8F00005490968496A08440449C1F8A7
:103DA000F0000846D0F8F00070470000F40500204D
:103DB000DC00002010B5044604EBC40000EB041046
:103DC0000122C2EB800081B24FF47A70FEF7F0FA64
:103DD00001200149C87510BDDC00002010B5024665
:103DE000012000E050430B1EA1F10104E1B2F9D122
:103DF00010BD00006FF0010009490968086100BFAB
:103E0000000C07490968C86201460548C16000BF47
:103E100000200349096848620249C1F8F000704770
:103E2000F4050020DC00002070B51D48008800F477
:103E30000040002833D01A48057800201949485519
:103E4000194881681748884704461CB91649C8684C
:103E5000804721E0134800F0FBF80546012D00D013
:103E60002C46CCB1012C06D0022C08D0032C0AD051
:103E7000042C10D10BE00DA0FCF7D6F90BE00EA03E
:103E8000FCF7D2F907E00FA0FCF7CEF903E010A091
:103E9000FCF7CAF900BF00BF00200149088070BDCF
:103EA0004400002080030020DC000020BAAFCAFDDF
:103EB000B4EDCEF3210D0A00B2CECAFDB4EDCEF3BF
:103EC000210D0A00B2CECAFDCCABB6E0210D0A002E
:103ED000CEB4D5D2B5BDC6A5C5E4B5C4BAAFCAFD8A
:103EE000210D0A000146491C00E0491C08782028E1
:103EF00001D10029F9D1087870472DE9F04F054626
:103F00000F4600264FF00A09B3462C4600203860C1
:103F100034E02078392802DC2078302811DA28783B
:103F20002D2802D028782B2800D156B12078462899
:103F300002DC2078412804DA2078582817D1012E95
:103F400015D12078412801DB4FF0100928782D2861
:103F500003D14FF0020B6D1C0FE028782B2803D102
:103F60004FF0010B6D1C08E0701CC6B205E0207814
:103F700000B904E00120BDE8F08F641CC9E700BF70
:103F80002C46B9F1100F0FD1032E01DA0220F2E70F
:103F90002078302806D16078582803D1A41CB01EA0
:103FA000C6B204E00320E6E70EB90420E3E71BE015
:103FB0000EB1701EC6B22078392806DC2078302871
:103FC00003DB2078A0F1300A02E02078A0F1370A64
:103FD00031464846FFF702FF39680AFB0010386097
:103FE000641C207800B900E0E2E700BFBBF1020FDB
:103FF00004D13868C0F10008C7F800800020BAE793
:1040000002460AE010780B78984201D001207047F0
:10401000107800B902E0521C491CF3E700BF0020F1
:10402000F5E706E002780A70027802B902E0401C67
:10403000491CF7E700BF70470146002005E00A78F9
:1040400002B903E0421CD0B2491CF8E700BF704738
:1040500010B58CB004461E230BAA03A92046FFF717
:10406000F5FC0090009810B101200CB010BD9DF837
:104070002C00044400200B900EE040489DF82C20BA
:1040800050F8221003A8FFF7BBFF00B908E09DF825
:104090002C00401CC0B20B909DF82C000728ECD3DC
:1040A00000BF9DF82C00072863D2DFE800F004056C
:1040B0003C5E6564630000BF31A0FCF7B5F831A039
:1040C000FCF7B2F83FA0FCF7AFF84EA0FCF7ACF855
:1040D0005CA0FCF7A9F86BA0FCF7A6F879A0FCF7A8
:1040E000A3F887A0FCF7A0F88CA0FCF79DF894A09B
:1040F000FCF79AF898A0FCF797F89DA0FCF794F8C5
:10410000A2A0FCF791F8A8A0FCF78EF8B4A0FCF7E9
:104110008BF8C1A0FCF788F8CCA0FCF785F8D8A0F4
:10412000FCF782F8A2E216A0FCF77EF8E4A0FCF708
:104130007BF800200B900EE0F14800689DF82C20E1
:1041400000EBC2004168EFA0FCF76EF89DF82C0070
:10415000401CC0B20B90EA48007D9DF82C108842AC
:10416000EADC07A0FCF760F880E205A0FCF75CF849
:10417000CCE179E24DE221E2F4E100008000002090
:104180000D0A00002D2D2D2D2D2D2D2D2D2D2D2DFC
:104190002D2D2D2D2D2D2D2D2D2D2D2D55534D41CD
:1041A00052542056332E332D2D2D2D2D2D2D2D2DCA
:1041B0002D2D2D2D2D2D2D2D2D2D2D2D2D2D2D203C
:1041C0000D0A00002020202055534D415254CAC7EB
:1041D000D3C9414C49454E54454BBFAAB7A2B5C4BB
:1041E000D2BBB8F6C1E9C7C9B5C4B4AEBFDAB5F73A
:1041F000CAD4BBA5BDBBD7E9BCFE2CCDA8B9FD2058
:104200000D0A0000CBFC2CC4E3BFC9D2D4CDA8B9A1
:10421000FDB4AEBFDAD6FACAD6B5F7D3C3B3CCD0A5
:10422000F2C0EFC3E6B5C4C8CEBACEBAAFCAFD2C51
:10423000B2A2D6B4D0D02ED2F2B4CB2CC4E3BFC934
:104240000D0A0000D2D4CBE6D2E2B8FCB8C4BAAFB3
:10425000CAFDB5C4CAE4C8EBB2CECAFD28D6A7B31E
:10426000D6CAFDD7D62831302F3136BDF8D6C62C68
:10427000D6A7B3D6B8BACAFD29A1A2D7D6B7FBB480
:10428000AE0D0A00A1A2BAAFCAFDC8EBBFDAB5D81D
:10429000D6B7B5C8D7F7CEAAB2CECAFD292CB5A5D8
:1042A000B8F6BAAFCAFDD7EEB6E0D6A7B3D631306E
:1042B000B8F6CAE4C8EBB2CECAFD2CB2A2D6A7B3F8
:1042C000D60D0A00BAAFCAFDB7B5BBD8D6B5CFD4A4
:1042D000CABE2ED6A7B3D6B2CECAFDCFD4CABEBDF3
:1042E000F8D6C6C9E8D6C3B9A6C4DC2CD6A7B3D6BF
:1042F000BDF8D6C6D7AABBBBB9A6C4DC2E0D0A0032
:10430000BCBCCAF5D6A7B3D63A7777772E6F70655F
:104310006E6564762E636F6D0D0A000055534D4136
:104320005254D3D037B8F6CFB5CDB3C3FCC1EE28C5
:10433000B1D8D0EBD0A1D0B4293A0D0A00000000CA
:104340003F3A202020202020BBF1C8A1B0EFD6FAB0
:10435000D0C5CFA20D0A000068656C703A202020FD
:10436000BBF1C8A1B0EFD6FAD0C5CFA20D0A0000AC
:104370006C6973743A202020BFC9D3C3B5C4BAAFE7
:10438000CAFDC1D0B1ED0D0A0A00000069643A20EF
:1043900020202020BFC9D3C3BAAFCAFDB5C4494449
:1043A000C1D0B1ED0D0A0A006865783A20202020BE
:1043B000B2CECAFD3136BDF8D6C6CFD4CABE2CBAED
:1043C000F3B8FABFD5B8F12BCAFDD7D6BCB4D6B472
:1043D000D0D0BDF8D6C6D7AABBBB0D0A0A000000D4
:1043E0006465633A20202020B2CECAFD3130BDF88A
:1043F000D6C6CFD4CABE2CBAF3B8FABFD5B8F12B03
:10440000CAFDD7D6BCB4D6B4D0D0BDF8D6C6D7AACC
:10441000BBBB0D0A0A00000072756E74696D653AC7
:10442000312CBFAAC6F4BAAFCAFDD4CBD0D0BCC61B
:10443000CAB13B302CB9D8B1D5BAAFCAFDD4CBD0B4
:10444000D0BCC6CAB13B0D0A0A000000C7EBB0B42D
:10445000D5D5B3CCD0F2B1E0D0B4B8F1CABDCAE47E
:10446000C8EBBAAFCAFDC3FBBCB0B2CECAFDB2A2A4
:10447000D2D4BBD8B3B5BCFCBDE1CAF82E0D0A003E
:104480002D2D2D2D2D2D2D2D2D2D2D2D2D2D2D2D5C
:104490002D2D2D2D2D2D2D2D2D2D414C49454E549D
:1044A000454B2D2D2D2D2D2D2D2D2D2D2D2D2D2D06
:1044B0002D2D2D2D2D2D2D2D2D2D2D200D0A0000D6
:1044C0002D2D2D2D2D2D2D2D2D2D2D2D2D2D2D2D1C
:1044D0002D2D2D2D2D2D2D2D2DBAAFCAFDC7E5B5B6
:1044E000A52D2D2D2D2D2D2D2D2D2D2D2D2D2D2D84
:1044F0002D2D2D2D2D2D2D2D2D2D2D2D200D0A0069
:10450000DC00002025730D0A0000000059A0FBF715
:104510008BFE00200B901AE0664909689DF82C205C
:1045200001EBC20101AB02AA486803A9FFF7AAFA8E
:10453000604800689DF82C1050F8312003A95EA057
:10454000FBF772FE9DF82C00401CC0B20B9059483E
:10455000007D9DF82C108842DEDCAFF2DC30FBF7EA
:1045600063FE83E0AFF2E830FBF75EFE0BAA03A91F
:104570002046FFF701FA9DF82C00C8B9694603A848
:10458000FFF7BBFC0B909DF82C0020B94FA00099C1
:10459000FBF74AFE0EE09DF82C00042801D0022013
:1045A00063E54DA0FBF740FE00204249C87501E0DD
:1045B00002205AE547A0FBF737FE57E045A0FBF77E
:1045C00033FE0BAA03A92046FFF7D6F99DF82C006D
:1045D000C8B9694603A8FFF790FC0B909DF82C0022
:1045E00020B942A00099FBF71FFE0EE09DF82C00B9
:1045F000042801D0022038E53FA0FBF715FE01207A
:104600002C49C87501E002202FE532A0FBF70CFE13
:104610002CE030A0FBF708FE0BAA03A92046FFF709
:10462000ABF99DF82C00C8B9694603A8FFF765FCF3
:104630000B909DF82C0078B91E49009881F8EC0089
:10464000084690F8EC0018B130A0FBF7EDFD07E04C
:1046500035A0FBF7E9FD03E0022006E5022004E5B2
:104660001CA0FBF7E1FD01E00120FEE400BF0020FB
:10467000FBE400002D2D2D2D2D2D2D2D2D2D2D2D3F
:104680002D2D2D2D2D2D2D2D2D2D2D2D2DBAAFCAAE
:10469000FD204944202D2D2D2D2D2D2D2D2D2D2D61
:1046A0002D2D2D2D2D2D2D2D2D2D2D2D2D2D2D2D3A
:1046B000200D0A00DC000020257320696420697346
:1046C0003A0D0A3058253038580D0A004845583AF6
:1046D000305825580D0A00003136BDF8D6C6B2CE86
:1046E000CAFDCFD4CABE210D0A0000004445433A9A
:1046F000256C750D0A0000003130BDF8D6C6B2CE6B
:10470000CAFDCFD4CABE210D0A00000052756E202A
:1047100054696D652043616C63756C6174696F6E7B
:10472000204F4E0D0A00000052756E2054696D65D1
:104730002043616C63756C6174696F6E204F4646EF
:104740000D0A000002460AB934480160012A01D16D
:1047500033480160022A02D1304818300160032A30
:1047600002D12E481C300160042A01D12D4801607D
:10477000052A02D12B48001D0160062A02D12948D2
:1047800008300160072A02D126480C300160082A4F
:1047900002D1244810300160092A02D12148143086
:1047A00001600A2A02D11F48183001600B2A02D189
:1047B0001C481C3001600C2A01D11B4801700D2AD5
:1047C00001D1194841700E2A01D1174881700F2A72
:1047D00001D11548C170102A01D113480171112A65
:1047E00001D111484171122A01D10F488171132A58
:1047F00001D10D48C171142A01D10B480172152A4B
:1048000001D109484172162A01D107488172172A3D
:1048100001D10548C172002070470000800121428B
:104820009881214290812242980500203031D4C2E3
:104830003031C8D53031B5E33031B7D6B9D8000002
:104840000000000000000000000000000000000068
:104850000000000000000000000000000000000058
:104860003031D4C23031C8D53031B5E33031B7D66C
:104870003031C3EB00000000000000000000000029
:104880000000000000000000000000000000000028
:1048900000000000BFAA00000000000000000000AF
:1048A000B9D8000000000000000000000000000077
:1048B00000000102030406070809000000000102CD
:1048C00003043031323334353637383941424344CA
:1048D0004546403058003031323334353637383978
:1048E000616263646566403078000400000800007F
:1048F0000000000000020001000010003F00000066
:10490000646563006964000072756E74696D6500AA
:1049100068656C70000000006C6973740000000032
:1049200068657800696E742070696E676D755F7276
:1049300065616428696E742061290000766F69647E
:1049400020667577656928766F6964290000000024
:10495000766F69642070696E676D755F77726974D0
:104960006528696E74207765697A68692C696E7448
:104970002076616C75652900766F69642070696EB8
:10498000676D755F626565286368617220692900DB
:104990006368617220796F75745F736574286368EA
:1049A0006172207765697A68692C63686172207A20
:1049B00068692900766F696420706D5F68616E7A3E
:1049C000686928696E742064697A68692C63686113
:1049D00072202A7329000000766F69642064656C78
:1049E00061795F6D7328753136206E6D7329000013
:1049F000766F69642064656C61795F7573287533BF
:104A000032206E7573290000284A0008000000203B
:104A1000D001000028010008A44A0008D0010020AD
:104A2000C00A00008401000841321F5A1C08DA1E27
:104A300008091214110412A24A040A25FF01E11305
:104A4000FC48140810491B0818041A04041A20040E
:104A50001119041A080413952B1B08D8081AAD085D
:104A60001AF008131D2C1B083C081345471B08901F
:104A700008135D301B0878081351311B0850081AC1
:104A8000ED101A24081AC3101AB408229C1420B579
:104A90003D1408F1351408A1361C08293E5821029E
:044AA000DC01000035
:04000005080000ED02
:00000001FF
